:020000040800F2
:10000000C81D002031020008411C0008391C0008EE
:100010003D1C00080D060008192100080000000022
:10002000000000000000000000000000451C000867
:100030001B07000800000000431C0008471C0008C4
:100040005502000855020008550200085502000834
:100050005502000855020008550200085502000824
:100060005502000855020008550200085502000814
:100070005502000855020008550200085502000804
:1000800055020008550200085502000855020008F4
:1000900055020008550200085502000855020008E4
:1000A00055020008550200085502000855020008D4
:1000B00055020008550200085502000855020008C4
:1000C00055020008550200085502000855020008B4
:1000D00055020008092100085502000855020008D1
:1000E0005502000855020008550200085502000894
:1000F0005502000855020008550200085502000884
:100100005502000855020008550200085502000873
:100110005502000855020008550200085502000863
:100120005502000855020008550200085502000853
:100130005502000855020008550200085502000843
:100140005502000855020008550200085502000833
:100150005502000855020008550200085502000823
:100160005502000855020008550200085502000813
:100170005502000855020008550200080000000062
:10018000550200085502000800F002F800F041F89E
:100190000AA090E8000C82448344AAF10107DA45E2
:1001A00001D100F036F8AFF2090EBAE80F0013F0F3
:1001B000010F18BFFB1A43F001031847808F00009E
:1001C000A08F0000103A24BF78C878C1FAD852072F
:1001D00024BF30C830C144BF04680C6070470000C1
:1001E0000023002400250026103A28BF78C1FBD840
:1001F000520728BF30C148BF0B607047782900F014
:10020000F580002070471FB505F0A0FF1FBD10B599
:1002100010BD00F0C9F91146FFF7F5FF05F038FCF5
:1002200000F0E7F903B4FFF7F2FF03BC01F092FF1F
:100230000C48016841F4700101600B4880470B488D
:100240000047FEE7FEE7FEE7FEE7FEE7FEE7FEE724
:10025000FEE7FEE7FEE7000005480649044A064BB4
:100260007047000088ED00E0511C0008890100087B
:10027000C8190020C81D0020C8190020704753EA83
:10028000020C00F069802DE9F04B4FF00006002BC6
:100290001FBFB3FA83F503FA05F424FA05F65E40AE
:1002A00012BF1643B2FA82F502FA05F4C5F1200531
:1002B0001EBF22FA05FC44EA0C04203556EA044C21
:1002C0004FEA144418BF641C4FF000084FF00009B7
:1002D000904271EB030C39D3002919BFB1FA81F7B1
:1002E00001FA07F6B0FA80F700FA07F6C7F120071F
:1002F0001EBF20FA07FC46EA0C062037B6FBF4FCCA
:10030000A7EB0507103F07F01F0BCBF120060CFAF7
:100310000BFB2CFA06F644BFB3460026202FA4BFE1
:100320005E464FF0000B5BEA060C08BF4FF0010B76
:1003300019EB0B09ABFB027C48EB0608C01B06FB64
:1003400002CC0BFB03CC71EB0C01C1E70B46024660
:1003500041464846BDE8F08B13B54FF000004FF022
:100360000001AFF30080BDE81C4070470FB40449A2
:1003700010B503AA029800F0E9F810BC5DF814FB70
:10038000080000202DE9F0410E46044600202062BE
:100390002046E168884730B3252805D0D4E90121FB
:1003A0009047206A401CF2E7E16820460027884712
:1003B000050018D0A5F14100192802D820354FF4C6
:1003C00000673246294620462760FFF717FF40B1F5
:1003D000012804D0F61D26F007060836D8E7361D9A
:1003E000D6E72846DAE7206ABDE8F08170B5044612
:1003F0000D4621461068AFF300802188090502D51B
:100400000F4A7A4402E00E4A7A440E32002104F187
:10041000240305E000F00F060009965D5E54491CB8
:100420000028F7D120780023000704D5702D02D0D2
:1004300009B1022311322046BDE8704000F02DB80A
:100440000C8D00004FF0000200B51346944696460E
:10045000203922BFA0E80C50A0E80C50B1F12001D7
:10046000BFF4F7AF090728BFA0E80C5048BF0CC085
:100470005DF804EB890028BF40F8042B08BF7047E3
:1004800048BF20F8022B11F0804F18BF00F8012B55
:10049000704770477047704770472DE9F0470D4629
:1004A00099469246044600F124080168880604D55E
:1004B000E06921F01001216000E00120A84201DD87
:1004C000471B00E00027A1697A1902EB0900081A0E
:1004D000A0612078C00602D42046AFF30080002639
:1004E00008E0D4E901211AF806009047206A401C70
:1004F000761C20624E45F4DB2078C0060AD52046E3
:10050000AFF3008006E0D4E9012130209047206A53
:10051000401C2062381EA7F10107F4DC07E0D4E993
:10052000012118F805009047206A401C2062281E0F
:10053000A5F10105F3DC2046AFF30080207800062A
:1005400002D50220BDE8F0870120FBE7074B70B51C
:100550000D467B4400F011F80446284600F020F8D0
:1005600010B14FF0FF3070BD204670BD131D00006C
:1005700001694A1C02610878704700B58FB0CDE967
:1005800001310021059105497944CDE90310114657
:100590006846FFF7F7FE0FB000BD0000E5FFFFFF64
:1005A000007B00F080007047754600F02BF8AE46E7
:1005B00005006946534620F00700854618B020B56F
:1005C000FFF74AFEBDE820404FF000064FF000075D
:1005D0004FF000084FF0000B21F00701AC46ACE8EB
:1005E000C009ACE8C009ACE8C009ACE8C0098D4658
:1005F000704710B50446AFF300802046BDE81040B8
:10060000FFF710BE004870476419002000BFFEE7E6
:100610000146087810381823B0FBF3F20848805CD4
:10062000C865032A05D908686FF30900001D8865AD
:1006300003E008686FF309008865886D7047000063
:100640008A610008014600208A6A8B69CBB932B101
:10065000012A0DD0022A03D0032A10D10EE000BFD8
:10066000CB6A03F08073B3F1807F00D1012007E0F3
:10067000CB6AB3F1C07F00D1012001E000E000BFF0
:1006800034E08B69B3F5005F1AD132B1012A07D08B
:10069000022A03D0032A11D10AE000BF01200EE094
:1006A000CB6A03F08073B3F1807F00D1012006E0B4
:1006B000CB6AB3F1C07F00D1012000E000BF15E09C
:1006C00032B1012A05D0022A04D0032A0CD103E05A
:1006D00000BF00BF012008E0CB6A03F08073B3F1D4
:1006E000807F00D1012000E000BF00BF704730B51F
:1006F0000468246824F4802405682C60046863601E
:100700008468402C04D10468A2600468E16003E0BE
:100710000468A1600468E26030BD704770B50446AB
:100720001D460023B5F5804F13D154F822300C48F4
:100730000340D1E9000640EA06108E6840EA062030
:100740008E8940EA06408E693043034344F82230E4
:1007500003E06FF0704044F82200002070BD0000FC
:100760000000F0CF10B503460022086853F820209F
:1007700012480240D1E901042043CC6820430C69AF
:1007800020434C6920438C692043CC6920430C6A88
:1007900020434C6A20438C6A2043CC6A2043CC6BB4
:1007A00020430C6B204302438868082801D142F0A3
:1007B0004002086843F82020002010BD8000F0FFB0
:1007C00030B503460024501C53F8204004F0404448
:1007D000D1E9000540EA05108D6840EA05208D89C1
:1007E00040EA0545088A401E45EA0055087D801EFE
:1007F00045EA00608D6928430443501C43F82040BB
:10080000002030BD70B50446A56D00F07DFA0646A7
:1008100094F83500022808D08020606500BF0020D1
:1008200084F8340000BF012070BD2068006820F00B
:100830001600216808602068406920F08000216867
:100840004861206C08B9A06C28B12068006820F0CD
:100850000800216808602068006820F00100216815
:1008600008600FE000F050FA801B05280AD920200C
:10087000606500BF002084F8340000BF032084F8C6
:100880003500D1E72068006800F001000028E9D1B8
:1008900094F85C103F208840A86000BF002084F8D6
:1008A000340000BF012084F835000020BCE7014679
:1008B00091F83500022803D0802048650120704758
:1008C000052081F835000868006820F001000A68FA
:1008D00010600020F3E770B504460CB9012070BD2C
:1008E00094F83500022800D1F9E72068006820F06C
:1008F00001002168086000202168086021684860C4
:10090000216888602168C860216808612120216809
:1009100048612046FFF77CFE05460020E063206426
:100920006064A064E064206594F85C103F20884017
:10093000A8600020606584F8350000BF84F83400AA
:1009400000BF00BFCBE700002DE9F04104460025C1
:1009500000F0DAF9074614B90120BDE8F081606AB9
:1009600000B100BF00BF002084F8340000BF0220A7
:1009700084F835002068006820F0010021680860D4
:100980000AE000F0C1F9C01B052805D920206065E8
:10099000032084F83500E0E72068006800F00100DB
:1009A0000028EED12068056821480540D4E90101FE
:1009B0000843E16808432169084361690843A16964
:1009C0000843E1690843216A08430543606A042833
:1009D00003D1D4E90B010843054320680560206872
:1009E000456925F00705606A0543606A04280DD152
:1009F000A06A0543E06A48B12046FFF723FE28B10C
:100A000040206065012084F83500A6E72068456134
:100A10002046FFF7FDFD064694F85C103F20884015
:100A2000B06000206065012084F83500002094E764
:100A30003F8010F02DE9F04704460D4616461F464C
:100A40004FF00008D4F8589000BF94F83400012803
:100A500002D10220BDE8F087012084F8340000BFF5
:100A600094F83500012825D1022084F835000020B3
:100A700060653B46324629462046FFF738FE94F82B
:100A80005C103F208840C9F808002068006840F0EA
:100A9000160021680860206C28B12068006840F0CA
:100AA0000800216808602068006840F001002168A3
:100AB000086006E000BF002084F8340000BF4FF05B
:100AC00002084046C6E70000F8B502460B4600257E
:100AD000002400200021DEE0012606FA01F51E6850
:100AE00006EA0504AC4275D11E7906F00306012E14
:100AF00004D01E7906F00306022E13D190684F0031
:100B00000326BE40B0434F00DE68BE4030439060D5
:100B1000506801268E40B0431E79C6F300168E4001
:100B2000304350601E7906F00306032E09D0D068CA
:100B30004F000326BE40B0434F009E68BE40304386
:100B4000D0601E7906F00306022E13D1CF0802F101
:100B5000200656F827004E07F70E0F26BE40B0437A
:100B60004F07FF0E1E69BE403043CF0802F120063A
:100B700046F8270010684F000326BE40B0431E7998
:100B800006F003064F00BE40304310605E6806F07A
:100B90008056B6F1805F7DD100BF00260096404EA2
:100BA000366846F480463E4F3E603E46366806F460
:100BB0008046009600BF00BF3A4E8F0856F82700C7
:100BC0008E07370F0F26BE40B043374EB24202D1D8
:100BD000002624E05EE0354EB24201D101261EE03F
:100BE000334EB24201D1022619E0324EB24201D157
:100BF000032614E0304EB24201D104260FE02F4EFE
:100C0000B24201D105260AE02D4EB24201D106269C
:100C100005E02C4EB24201D1072600E008268F07DE
:100C20003F0FBE4030431F4E8F0846F82700264E28
:100C30003068A0435E6806F48036B6F5803F00D188
:100C40002043214E3060361D3068A0435E6806F4B4
:100C50000036B6F5003F00D120431B4E361D3060F4
:100C6000361D3068A0435E6806F48016B6F5801F16
:100C700000D12043144E08363060361D3068A04342
:100C80005E6806F40016B6F5001F00D120430E4E34
:100C90000C363060491C1029FFF41EAFF8BD00006F
:100CA000443802400838014000000240000402407D
:100CB00000080240000C02400010024000140240F4
:100CC00000180240001C0240003C0140024613692B
:100CD0000B400BB1012000E00020704710B54269C5
:100CE00021EA020302EA010443EA0443836110BDDE
:100CF0000AB1816101E00B0483617047014800681B
:100D0000000C7047002004E00148006870470000B4
:100D1000100000200348006803490978084401498D
:100D200008607047100000201800002010B50A4825
:100D3000006840F40070084908600846006840F404
:100D400080600860052000F07FF80F2000F006F8B2
:100D500000F02AF8002010BD003C024070B50446A7
:100D60000E4800784FF47A71B1FBF0F00C49096835
:100D7000B1FBF0F5284600F087FC08B1012070BDFA
:100D8000102C07D200222146501E00F01EF8054804
:100D9000046001E00120F2E70020F0E718000020E5
:100DA000000000201400002070470146084600287B
:100DB00009DB00F01F0301229A4043099B0003F165
:100DC000E023C3F8002100BF70472DE9F05F8046A3
:100DD0000D461646002701F0A1F9074639462A4676
:100DE000334601F00700C0F1070ABAF1040F02D937
:100DF0004FF0040A01E0C0F1070AD14600F1040AED
:100E0000BAF1070F02D24FF0000A01E0A0F1030A85
:100E1000D4464FF0010A0AFA09FAAAF1010A0AEACD
:100E2000020A0AFA0CFA4FF0010B0BFA0CFBABF1B9
:100E3000010B0BEA030B4AEA0B042146404601F082
:100E400075F9BDE8F09F000000BF00F00702064BF7
:100E500019684FF6FF031940044B0B4343EA022184
:100E6000014B196000BF70470CED00E00000FA056F
:100E700070B504460D460CB9012070BD5848006895
:100E800000F00700A84209D255490D7008460068D5
:100E900000F00700A84201D00120EEE7207800F022
:100EA000020002281DD1207800F00400042805D19A
:100EB0004C48006840F4E0504A490860207800F04F
:100EC0000800082805D14748006840F460404549BB
:100ED00008604448006820F0F000A16808434149D8
:100EE0000860207800F00100A8B36068012807D1ED
:100EF0003C4808380068C0F34040B8B90120BCE75E
:100F00006068022802D06068032807D13548083895
:100F10000068C0F3406048B90120AEE731480838A6
:100F20000068C0F3400008B90120A6E72D4800681A
:100F300020F00300616808432A490860FFF7E4FED7
:100F4000064609E0FFF7E0FE801B41F28831884247
:100F500002D9032091E707E02248006800F00C0066
:100F60006168B0EB810FEDD11D48006800F007000B
:100F7000A84209D91A490D700846006800F0070018
:100F8000A84201D0012078E7207800F0040004286E
:100F900007D11448006820F4E050E1680843114983
:100FA0000860207800F00800082808D10D48006883
:100FB00020F46040216940EAC1000A49086000F05D
:100FC0003FF808490968C1F30311074A515CC8405A
:100FD0000649086006480068FFF7C0FE00204CE79D
:100FE000003C024008380240726100080000002006
:100FF0001400002001480068704700000000002035
:1010000000B5FFF7F7FF04490968C1F38221034ADD
:10101000515CC84000BD00000838024082610008F1
:1010200000B5FFF7E7FF04490968C1F34231034AFD
:10103000515CC84000BD00000838024082610008D1
:101040002DE9F047002400250026A1462548006828
:1010500000F00C0020B1042805D008283AD105E0A2
:10106000DFF8849039E0DFF8849036E01D48001FF7
:10107000006800F03F041B48001F006800F4800077
:1010800078B11A481749091F0968C1F38811A0FBF4
:1010900001700146224600233846FFF7F0F8054666
:1010A0000EE011480F49091F0968C1F38811A0FB20
:1010B00001700146224600233846FFF7E0F8054656
:1010C0000848001F0068C0F30140401C4600B5FB03
:1010D000F6F902E0DFF8109000BF00BF4846BDE817
:1010E000F0870000083802400024F40000127A0063
:1010F000F8B504460CB90120F8BD207800F00100D5
:10110000002874D0F948006800F00C0004280DD0C5
:10111000F648006800F00C00082813D1F348001FBF
:10112000006800F48000B0F5800F0BD1EF4808385C
:101130000068C0F34040002859D06068002856D1AC
:101140000120D9E700BF6068B0F5803F08D1E748CB
:101150000838006840F48030E449083908601EE02F
:101160006068B0F5A02F0DD1E0480838006840F461
:101170008020DE49083908600846006840F4803065
:1011800008600CE0D9480838006820F48030D7495E
:10119000083908600846006820F48020086000BF15
:1011A000606890B1FFF7B0FD054606E0FFF7ACFDC3
:1011B000401B642801D903209EE7CC48083800680A
:1011C000C0F340400028F1D011E0FFF79DFD054637
:1011D00006E0FFF799FD401B642801D903208BE747
:1011E000C24808380068C0F340400028F1D1207898
:1011F00000F0020002285FD1BC48006800F00C003B
:1012000058B1BA48006800F00C0008281CD1B74853
:10121000001F006800F48000B0B9B44808380068C6
:10122000C0F3400020B1E068012801D0012063E74D
:10123000AE480838006820F0F800216940EAC10093
:10124000AA490839086037E0E06800B30120A849DE
:101250000860FFF759FD054606E0FFF755FD401B06
:10126000022801D9032047E7A04808380068C0F3E6
:1012700040000028F1D09D480838006820F0F800B0
:10128000216940EAC10099490839086014E000204A
:1012900097490860FFF738FD054606E0FFF734FD83
:1012A000401B022801D9032026E79048083800682F
:1012B000C0F340000028F1D1207800F00800082891
:1012C0002CD16069A8B101208A490860FFF71CFD94
:1012D000054606E0FFF718FD401B022801D9032050
:1012E0000AE782486C300068C0F340000028F1D063
:1012F00014E000207F490860FFF706FD054606E080
:10130000FFF702FD401B022801D90320F4E67748CD
:101310006C300068C0F340000028F1D1207800F064
:101320000400042870D1002770483830006800F0AD
:10133000805090B900BF002000906C4838300068A1
:1013400040F080506949383108600846006800F074
:101350008050009000BF00BF01276748006800F47C
:101360008070B0B96448006840F4807062490860D9
:10137000FFF7CAFC054606E0FFF7C6FC401B022843
:1013800001D90320B8E65C48006800F480700028AA
:10139000F2D000BFA068012808D154486830006826
:1013A00040F001005149683108601DE0A06805283F
:1013B0000DD14E486830006840F004004B49683158
:1013C00008600846006840F0010008600CE04748EB
:1013D0006830006820F00100444968310860084620
:1013E000006820F00400086000BFA068A8B1FFF703
:1013F0008BFC054609E0FFF787FC401B41F2883172
:10140000884202D9032077E626E038486830006831
:10141000C0F340000028EED013E0FFF775FC05464E
:1014200008E0FFF771FC401B41F28831884201D986
:10143000032061E62D4868300068C0F340000028B2
:10144000EFD1012F07D129483830006820F08050B3
:1014500026493831086000BFA069002845D02348DC
:10146000006800F00C0008285DD0A069022845D172
:1014700000201F490866FFF747FC054606E0FFF716
:1014800043FC401B022801D9032035E617480838E1
:101490000068C0F340600028F1D1D4E90701084397
:1014A000616A40EA81110122A06AC2EB500041EA60
:1014B00000412C20005D41EA00600C49091F0860D2
:1014C00001200B490866FFF71FFC054606E0FFF701
:1014D0001BFC401B022801D903200DE603480838F5
:1014E0000068C0F340600028F1D049E008380240AD
:1014F00000004742800E4742007000400020214912
:101500000866FFF701FC054606E0FFF7FDFB401B00
:10151000022801D90320EFE51B480068C0F34060B2
:101520000028F2D12CE0A069012800D1E4E516489A
:10153000001D0668A069012820D006F48001E0693A
:1015400081421BD106F03F01206A814216D147F645
:10155000C0703040616AB0EB811F0FD106F440319A
:101560000122A06AC2EB5000B1EB004F06D106F099
:1015700070612C20005DB1EB006F01D00120BBE554
:101580000020B9E5000047420038024070B504462B
:101590000E4615460CB9012070BD94F8490028B9D3
:1015A000002084F84800204600F01CF804F10801EF
:1015B0002068FFF7D7F83146A2682068FFF700F9E6
:1015C0002946236BD4E90102FFF7A8F8A168206837
:1015D00050F8210040F00100A268216841F8220083
:1015E0000020D9E710B586B0044600BF0020009067
:1015F0002248006840F00100204908600846006861
:1016000000F00100009000BF00BF00BF002000906C
:101610001A480838006840F008001849083908607E
:101620000846006800F00800009000BF00BF00BF3F
:10163000002000900846006840F01000086008464E
:10164000006800F01000009000BF00BF4CF2037073
:1016500001900220029001200390022004900C20AF
:10166000059001A90648FFF72FFA4FF68070019008
:1016700001A90448FFF728FA06B010BD3838024027
:10168000000C02400010024070B504462546681E5A
:10169000B0F1807F01D301200FE0681E4FF0E02100
:1016A00048610F214FF0FF3000F040FD00204FF067
:1016B000E021886107200861002070BD704770B587
:1016C0000446002520684069C0F3C01594F83D0029
:1016D00021280ED16DB12068406920F0800021687A
:1016E0004861606B10B1606BFFF78CF8204600F02A
:1016F00038FB20684069C0F3801594F83E0022282A
:101700000ED16DB12068406920F040002168486129
:10171000A06B10B1A06BFFF775F8204600F0F6FA49
:10172000002070BD704700002DE9F84F0446206886
:1017300005682068C668206847694FF00009CA46F6
:1017400005F00F09B9F1000F0AD105F0200038B1FA
:1017500006F0200020B1204600F00DFBBDE8F88F18
:10176000B9F1000F72D007F0010018B906F49070BB
:1017700000286BD005F0010030B106F4807018B17C
:10178000206C40F00100206405F0040030B107F047
:10179000010018B1206C40F00200206405F0020046
:1017A00030B107F0010018B1206C40F00400206453
:1017B00005F0080048B106F0200010B907F001005C
:1017C00018B1206C40F008002064206C70B305F064
:1017D000200028B106F0200010B1204600F0CBFA1E
:1017E00020684069C0F3801A206C00F0080010B92E
:1017F000BAF1000F23D0204600F088FA2068406933
:1018000000F04000402816D12068406920F04000D8
:1018100021684861A06B50B15648A16B0865A06B68
:10182000FFF745F810B1A06B016D88470CE020462A
:10183000FFF778FF08E02046FFF774FF04E020463A
:10184000FFF770FF0020206488E7FFE7206B012886
:1018500079D105F01000002875D006F0100000289E
:1018600071D000BF002000902068006800902068C0
:101870004068009000BF00BF2068406900F0400051
:10188000402839D1A06B006840681FFA80F8B8F191
:10189000000F30D0A08D40452DDDA4F82E80A06B28
:1018A000C069B0F5807F1FD02068C06820F48070C8
:1018B0002168C8602068406920F001002168486103
:1018C0002068406920F0400021684861202084F8A9
:1018D0003E00002020632068C06820F010002168CE
:1018E000C860A06BFEF78EFFA08DE28D801A81B2DA
:1018F0002046FFF7E3FE31E7A08DE18D401A1FFA85
:1019000080F8E08DE8B1B8F1000F1AD02068C06807
:1019100020F490702168C8602068406920F00100C0
:1019200021684861202084F83E0000202063206860
:10193000C06820F010002168C86041462046FFF7CB
:10194000BDFE0BE7FFE705F0800030B106F0800038
:1019500018B1204600F0A7FB00E705F0400030B1C9
:1019600006F0400018B1204600F0EBF9F6E600BFA3
:10197000F4E60000651C000810B504460CB901200F
:1019800010BDA06900B100E000BF94F83D0028B987
:10199000002084F83C00204600F028F8242084F839
:1019A0003D002068C06820F400502168C8602046CF
:1019B00000F040FA2068006920F490402168086136
:1019C0002068406920F02A00216848612068C068CA
:1019D00040F400502168C86000202064202084F872
:1019E0003D0084F83E000020CAE7000010B586B034
:1019F00004462E492068884255D100BF00BF002010
:101A000000902B48006840F0100029490860084603
:101A1000006800F01000009000BF00BF00BF00BFD2
:101A200000BF0020009022481438006840F00100F8
:101A30001F49143908600846006800F00100009052
:101A400000BF00BF00BF00BF00BF002000900846DD
:101A5000006840F0010008600846006800F00100DE
:101A6000009000BF00BF00BF481501900220029007
:101A700001200390022004900720059001A90D4841
:101A8000FFF722F84FF4806001900720059001A92C
:101A90000848FFF719F82520FFF787F903221146B8
:101AA0002520FFF792F906B010BD0000001001409C
:101AB000443802400000024070B504460D46164608
:101AC00094F83E00202816D105B10EB9012070BD52
:101AD00000BF94F83C00012801D10220F7E7012063
:101AE00084F83C0000BF002020633246294620468F
:101AF00000F0B6FAEBE70220E9E7000010B5044673
:101B00002049206888423BD11F48008800F40040EB
:101B100088BB1D48008800F4804070B11B480078E5
:101B20000A2803D000201849088024E016480088BD
:101B300040F40040144908801DE0144800780D2846
:101B400006D11148008840F480400F49088012E017
:101B50000E4800780C490988C1F30D010C4A505415
:101B600009480088401C0849088008460088C728A2
:101B700001DD00200880012204490648FFF79CFF90
:101B800010BD0000001001400C0000200E000020DD
:101B90009817002060180020F7B50446154694F801
:101BA0003D0020283DD1019800B10DB90120FEBDB6
:101BB00000BF94F83C00012801D10220F7E7012082
:101BC00084F83C0000BF01982062A584E5840020D1
:101BD0002064212084F83D001348616BC8631348DA
:101BE000616B08641248616BC8640020616B086512
:101BF00001AE23681A1D31682B46606BFEF71AFF91
:101C00006FF040002168086000BF002084F83C00AD
:101C100000BF2068406940F08000216848610020D2
:101C2000C5E70220C3E70000C91C0008FF1C00082C
:101C3000791C00087047704700BFFEE700BFFEE751
:101C400070477047704710B5FFF764F810BD00008B
:101C50000348006840F470000149086070470000C4
:101C600088ED00E070B50546AC6B0020E085E084AF
:101C70002046FFF757FD70BD70B506460025B46BD2
:101C800020684069C0F3C01594F83D00212805D1B3
:101C900025B10020E084204600F063F82068406908
:101CA000C0F3801594F83E00222805D125B100200C
:101CB000E085204600F02AF8206C40F010002064F7
:101CC0002046FFF72FFD70BD70B50546AC6B286848
:101CD000006800F4807070B90020E08420684069DA
:101CE00020F08000216848612068C06840F0400012
:101CF0002168C86002E02046FFF79CFF70BD70B508
:101D00000446A56B2846FFF796FF70BD0168C968B9
:101D100021F490710268D1600168496921F00101E4
:101D200002685161016B012905D10168C96821F080
:101D300010010268D160202180F83E10002101636B
:101D4000704710B504462068C06820F04000216844
:101D5000C860202084F83D002046FFF76BFF00207C
:101D600010BD0168C96821F0C0010268D16020215E
:101D700080F83D10704770B5044694F83E00222864
:101D800056D1A068B0F5805F0CD1206950B900250C
:101D9000A66A20684068C0F308003080A06A801CF2
:101DA000A06215E0A56A0026A068B0F5805F03D0A8
:101DB000A06828B9206918B920684068287004E034
:101DC0002068406800F07F002870A06A401CA06274
:101DD000E08D401E80B2E08540BB2068C06820F0E6
:101DE00020002168C8602068C06820F480702168E5
:101DF000C8602068406920F0010021684861202007
:101E000084F83E00206B01280AD12068C06820F0C9
:101E100010002168C860A18D2046FFF74FFC02E04A
:101E20002046FFF76BFE0020206370BD0020FCE71A
:101E30000220FAE72DE9F84F04462068006920F4F3
:101E40004050E1680843216808612169A06808439F
:101E500061690843E169084300902068C06849F25D
:101E60000C618843009908432168C8602068406974
:101E700020F44070A16908432168486176492068D0
:101E8000884203D075492068884203D1FFF7C8F81B
:101E9000814602E0FFF7B4F88146E069B0F5004FF3
:101EA0006CD102206168A0FB015003461920A9FBF8
:101EB000007001462A463846FEF7E1F96421B0FB7E
:101EC000F1F04FEA001A02206168A0FB01510B46B5
:101ED0001920A9FB00712A463846FEF7D0F983463F
:101EE00002206168A0FB015003461920A9FB007184
:101EF0002A463846FEF7C3F96421B0FBF1F000EB47
:101F0000C00101EB0010ABEB8000322101EBC000FF
:101F10006421B0FBF1F000F0F8000AEB400A022067
:101F20006168A0FB015003461920A9FB007001461F
:101F30002A463846FEF7A3F9834602206168A0FBD3
:101F4000015003461920A9FB00712A463846FEF7C6
:101F500096F96421B0FBF1F000EBC00101EB001039
:101F6000ABEB8000322101EBC0006421B0FBF1F04B
:101F700000F007005044216888606AE0042061682E
:101F8000A0FB015003461920A9FB007001462A4618
:101F90003846FEF774F9824604206168A0FB0150C0
:101FA00003461920A9FB007001462A463846FEF771
:101FB00066F96421B0FBF1F000EBC00101EB001009
:101FC000AAEB8000322101EB00106421B0FBF1F09C
:101FD00000F0F00A04206168A0FB0170034619209C
:101FE000A9FB00513A462846FEF749F96421B0FBA7
:101FF000F1F00AEB001A04206168A0FB01510B46C6
:102000001920A9FB00712A463846FEF738F98346A5
:1020100004206168A0FB015003461920A9FB007051
:1020200001462A463846FEF72AF96421B0FBF1F052
:1020300000EBC00101EB0010ABEB8000322101EBA3
:1020400000106421B0FBF1F000F00F005044216853
:102050008860BDE8F88F00000010014000140140C6
:1020600010B5034699629A85DA850020186422200B
:1020700083F83E0000BF002083F83C0000BF1868D2
:10208000C06840F480701C68E0601868406940F0E7
:1020900001001C6860611868C06840F020001C687E
:1020A000E060002010BD014691F83D00212828D1B4
:1020B0008868B0F5805F0BD1086948B90A6A108852
:1020C000C0F308000B685860086A801C086205E0CD
:1020D0000B6A581C086218780B685860C88C401E40
:1020E00080B2C88458B90868C06820F080000B68C6
:1020F000D8600868C06840F040000B68D8600020D5
:1021000070470220FCE7000010B50248FFF70CFB07
:1021100010BD00006018002000BFFEE70248006804
:10212000C0F30220704700000CED00E010B500285D
:1021300004DB0A07130E054A135406E00A07140EBF
:10214000034A00F00F031B1FD45410BD00E400E04D
:1021500018ED00E000BF70470149086070470000BB
:102160000400002010B504464FF47A7104FB01F01E
:1021700000F002F810BD000070B5034600224FF0D9
:10218000E02675690D4E366803FB06F44FF0E02635
:10219000B16910E04FF0E026B06988420BD0884268
:1021A00002D20E1A324402E02E1A0E443244014684
:1021B000A24200D300E0EDE700BF70BD04000020A4
:1021C00038B504460D46244884420FD900BF00208C
:1021D00000902248006840F48000204908600846CA
:1021E000006800F48000009000BF0FE000BF0020F6
:1021F00000901A48006840F400101849086008462A
:10220000006800F40010009000BF00BF00BF144839
:102210001449486308461249886300BF08460460B1
:102220004560402181600021C1604FF480610161FF
:10223000002141618161C1614FF48031016200215F
:102240004162032181620021C1620163FEF743FB09
:102250000348FEF779FB38BD006402403038024085
:10226000041900206018002000BF054A126802F01F
:102270004002002AF9D0C2B2014B5A6070470000F8
:102280000010014000B587B000BF00BF00200190E2
:102290003848006840F01000364908600846006879
:1022A00000F01000019000BF00BF00BF00BF00BFE2
:1022B000002001900846006840F0100008600846C1
:1022C000006800F01000019000BF00BF00BF00BF19
:1022D00000BF002001900846006840F01000086030
:1022E0000846006800F01000019000BF00BF00BF6A
:1022F00000BF00BF002001900846006840F00100C8
:1023000008600846006800F00100019000BF00BFAF
:1023100000BF1020029000200390012004900220B2
:10232000059002A91448FEF7CFFB08200290002078
:102330000390012004900220059002A90E48FEF7A8
:10234000C3FB04200290002003900120049002208F
:10235000059002A90848FEF7B7FB01200290002073
:10236000039002200490059002A90448FEF7ACFBFC
:1023700007B000BD303802400010024000000240AB
:1023800070B50446002514B101202B4908702A4875
:102390000078002834D010212848FEF797FC78B147
:1023A00008212648FEF792FC50B104212348FEF78D
:1023B0008DFC28B101212248FEF788FC01281FD19D
:1023C0000A20FFF7CFFE00201B49087010211B4890
:1023D000FEF77CFC00B9012508211848FEF776FCC1
:1023E00000B9022504211548FEF770FC00B9032549
:1023F00001211348FEF76AFC01281BD1042519E0CE
:1024000010210E48FEF762FC012813D108210B4869
:10241000FEF75CFC01280DD104210848FEF756FCAC
:10242000012807D101210648FEF750FC10B9012010
:1024300001490870284670BD2400002000100240A9
:102440000000024070B5044600260948058840880F
:1024500045430021084603F0C1F803F0B9FA00BF74
:1024600002E004480480761CAE42FAD370BD00003E
:10247000F41800208000006C10B5044658488471A0
:10248000002C58D1F020564908804FF4A0704880A5
:102490000846808845F21051884210D14FF43050E0
:1024A0004F4908814FF4285048814FF42C508881BF
:1024B0004FF4F07008804FF4487048801AE04848A4
:1024C000808841F6631188420DD12C20444908814F
:1024D0002B2048812A2088814FF4F07008804FF427
:1024E0004870488006E02C203D4908812A20488118
:1024F0002B2088813A48808845F21031884205D0E7
:102500003748808847F29671884206D14FF4A07010
:10251000334908804FF4F07048803148808849F68C
:102520000601884258D14FF4F0702D4908804FF4CD
:102530004870488050E04FF4A07029490880F0208E
:1025400048800846808845F21051884210D14FF4E7
:102550003050234908814FF4285048814FF42C50C3
:1025600088814FF4487008804FF4F070488020E074
:102570001B48808841F66311884205D0184880883E
:1025800049F6060188420DD12C20154908812A20E0
:1025900048812B2088814FF4487008804FF4F070F8
:1025A000488006E02C200E4908812A2048812B20F3
:1025B00088810B48808845F21031884205D0084850
:1025C000808847F29671884206D14FF4F070044932
:1025D00008804FF4A0704880002002F0E1FE10BD9A
:1025E000F418002070B505460E46144631462846BC
:1025F00002F0F4FF03F0ECF901490C8070BD00001B
:102600008000006C10B5CF2003F0D6F9002003F055
:10261000C7F9C12003F0C4F9302003F0C1F9ED205F
:1026200003F0CAF9642003F0BBF9032003F0B8F902
:10263000122003F0B5F9812003F0B2F9E82003F08D
:10264000BBF9852003F0ACF9102003F0A9F97A203A
:1026500003F0A6F9CB2003F0AFF9392003F0A0F97D
:102660002C2003F09DF9002003F09AF9342003F0A8
:1026700097F9022003F094F9F72003F09DF9202048
:1026800003F08EF9EA2003F097F9002003F088F9AF
:10269000002003F085F9C02003F08EF91B2003F021
:1026A0007FF9C12003F088F9012003F079F9C520F2
:1026B00003F082F9302003F073F9302003F070F951
:1026C000C72003F079F9B72003F06AF9362003F048
:1026D00073F9482003F064F93A2003F06DF95520AE
:1026E00003F05EF9B12003F067F9002003F058F918
:1026F0001A2003F055F9B62003F05EF90A2003F022
:102700004FF9A22003F04CF9F22003F055F9002014
:1027100003F046F9262003F04FF9012003F040F9B9
:10272000E02003F049F90F2003F03AF92A2003F0E2
:1027300037F9282003F034F9082003F031F90E208E
:1027400003F02EF9082003F02BF9542003F028F9A8
:10275000A92003F025F9432003F022F90A2003F011
:102760001FF90F2003F01CF9002003F019F90020D5
:1027700003F016F9002003F013F9002003F010F91C
:10278000E12003F019F9002003F00AF9152003F005
:1027900007F9172003F004F9072003F001F91120CD
:1027A00003F0FEF8062003F0FBF82B2003F0F8F806
:1027B000562003F0F5F83C2003F0F2F8052003F072
:1027C000EFF8102003F0ECF80F2003F0E9F83F20B9
:1027D00003F0E6F83F2003F0E3F80F2003F0E0F801
:1027E0002B2003F0E9F8002003F0DAF8002003F0D2
:1027F000D7F8012003F0D4F83F2003F0D1F82A20C5
:1028000003F0DAF8002003F0CBF8002003F0C8F85A
:10281000002003F0C5F8EF2003F0C2F8112003F008
:10282000CBF87820FFF79EFC292003F0C5F810BDF7
:1028300010B5FF2003F0C0F8FF2003F0B1F8982096
:1028400003F0AEF8062003F0ABF8BC2003F0B4F8B8
:10285000012003F0A5F80F2003F0A2F8612003F097
:102860009FF8FF2003F09CF8012003F099F8012065
:1028700003F096F80B2003F093F8102003F090F883
:10288000372003F08DF8632003F08AF8FF2003F06F
:1028900087F8FF2003F084F8012003F081F801207D
:1028A00003F07EF8002003F07BF8002003F078F8B6
:1028B000FF2003F075F8522003F072F8012003F0B6
:1028C0006FF8002003F06CF8402003F069F8BD2099
:1028D00003F072F8012003F063F8232003F060F89E
:1028E000452003F05DF8672003F05AF8012003F05B
:1028F00057F8232003F054F8452003F051F86720DF
:1029000003F04EF8BE2003F057F8002003F048F81B
:10291000012003F045F8AB2003F042F8602003F0FB
:102920003FF8222003F03CF8222003F039F822205F
:1029300003F036F8222003F033F8222003F030F8B9
:10294000C72003F039F8362003F02AF8ED2003F011
:1029500033F87F2003F024F80F2003F021F8C02083
:1029600003F02AF80F2003F01BF80B2003F018F8EF
:102970000A2003F015F8FC2003F01EF8082003F0ED
:102980000FF8DF2003F018F8002003F009F800200A
:1029900003F006F8002003F003F8002003F000F82D
:1029A000002002F0FDFF202002F0FAFFF32003F0E8
:1029B00003F8742002F0F4FFB42002F0FDFF0020C1
:1029C00002F0EEFF002002F0EBFF002002F0E8FF33
:1029D000F72002F0F1FF822002F0E2FFB12002F0C6
:1029E000EBFF002002F0DCFF132002F0D9FF1320E0
:1029F00002F0D6FFF22002F0DFFF802002F0D0FFCD
:102A0000042002F0CDFF402002F0CAFF282002F08F
:102A1000C7FFC12002F0D0FF172002F0C1FF8820BD
:102A200002F0BEFF882002F0BBFF202002F0B8FFBA
:102A3000E02002F0C1FF002002F0B2FF0A2002F005
:102A4000AFFF122002F0ACFF102002F0A9FF0E2011
:102A500002F0A6FF202002F0A3FFCC2002F0A0FF8E
:102A6000072002F09DFF062002F09AFF0B2002F0E3
:102A700097FF0E2002F094FF0F2002F091FF0D202F
:102A800002F08EFF152002F08BFF102002F088FF6D
:102A9000002002F085FFE12002F08EFF002002F00E
:102AA0007FFF0B2002F07CFF132002F079FF0D2046
:102AB00002F076FF0E2002F073FF1B2002F070FF81
:102AC000712002F06DFF062002F06AFF062002F07E
:102AD00067FF0A2002F064FF0F2002F061FF0E2062
:102AE00002F05EFF0F2002F05BFF152002F058FF9E
:102AF0000C2002F055FF002002F052FF2A2002F0C5
:102B00005BFF002002F04CFF002002F049FF012093
:102B100002F046FFDF2002F043FF2B2002F04CFFC3
:102B2000002002F03DFF002002F03AFF032002F0F7
:102B300037FF1F2002F034FF3A2002F03DFF5520FE
:102B400002F02EFF362002F037FF002002F028FFAF
:102B5000112002F031FF7820FFF704FB292002F05A
:102B60002BFF1420FFF7FEFA2C2002F025FF10BDEA
:102B700010B5ED2002F020FF012002F011FFFE2031
:102B800002F00EFFEE2002F017FFDE2002F008FF39
:102B9000212002F005FFF12002F00EFF012002F0DB
:102BA000FFFEDF2002F008FF102002F0F9FEC42033
:102BB00002F002FF8F2002F0F3FEC62002F0FCFEBE
:102BC000002002F0EDFEE22002F0EAFEE22002F038
:102BD000E7FEE22002F0E4FEBF2002F0EDFEAA20B4
:102BE00002F0DEFEB02002F0E7FE0D2002F0D8FE7B
:102BF000002002F0D5FE0D2002F0D2FE002002F0EF
:102C0000CFFE112002F0CCFE002002F0C9FE1920F8
:102C100002F0C6FE002002F0C3FE212002F0C0FE3A
:102C2000002002F0BDFE2D2002F0BAFE002002F0CE
:102C3000B7FE3D2002F0B4FE002002F0B1FE5D20A0
:102C400002F0AEFE002002F0ABFE5D2002F0A8FE16
:102C5000002002F0A5FEB12002F0AEFE802002F0BE
:102C60009FFE002002F09CFE8B2002F099FE0020C7
:102C700002F096FE962002F093FE002002F090FEF5
:102C8000B22002F099FE002002F08AFE002002F03D
:102C900087FE022002F084FE002002F081FE032065
:102CA00002F07EFE002002F07BFEB32002F084FEE4
:102CB000002002F075FE002002F072FE002002F0FB
:102CC0006FFE002002F06CFE002002F069FE002082
:102CD00002F066FE002002F063FE002002F060FEBB
:102CE000002002F05DFE002002F05AFE002002F0FB
:102CF00057FE002002F054FE002002F051FE00209A
:102D000002F04EFE002002F04BFE002002F048FED2
:102D1000002002F045FE002002F042FE002002F0FA
:102D20003FFE002002F03CFE002002F039FE0020B1
:102D300002F036FE002002F033FE002002F030FEEA
:102D4000B42002F039FE8B2002F02AFE002002F0AF
:102D500027FE962002F024FE002002F021FEA12092
:102D600002F01EFE002002F01BFEB52002F024FE41
:102D7000022002F015FE002002F012FE032002F0F5
:102D80000FFE002002F00CFE042002F009FE0020DD
:102D900002F006FEB62002F00FFE002002F000FE58
:102DA000002002F0FDFDB72002F006FE002002F038
:102DB000F7FD002002F0F4FD3F2002F0F1FD0020BD
:102DC00002F0EEFD5E2002F0EBFD002002F0E8FDD7
:102DD000642002F0E5FD002002F0E2FD8C2002F00C
:102DE000DFFD002002F0DCFDAC2002F0D9FD002068
:102DF00002F0D6FDDC2002F0D3FD002002F0D0FD71
:102E0000702002F0CDFD002002F0CAFD902002F0FB
:102E1000C7FD002002F0C4FDEB2002F0C1FD002040
:102E200002F0BEFDDC2002F0BBFD002002F0B8FD88
:102E3000B82002F0C1FD002002F0B2FD002002F037
:102E4000AFFD002002F0ACFD002002F0A9FD002043
:102E500002F0A6FD002002F0A3FD002002F0A0FD7C
:102E6000002002F09DFDBA2002F0A6FD242002F011
:102E700097FD002002F094FD002002F091FD00205B
:102E800002F08EFDC12002F097FD202002F088FDA7
:102E9000002002F085FD542002F082FD002002F0A7
:102EA0007FFDFF2002F07CFD002002F079FDC220B2
:102EB00002F082FD0A2002F073FD002002F070FD96
:102EC000042002F06DFD002002F06AFDC32002F034
:102ED00073FD3C2002F064FD002002F061FD3A2009
:102EE00002F05EFD002002F05BFD392002F058FD8B
:102EF000002002F055FD372002F052FD002002F0C4
:102F00004FFD3C2002F04CFD002002F049FD362030
:102F100002F046FD002002F043FD322002F040FDA9
:102F2000002002F03DFD2F2002F03AFD002002F0CB
:102F300037FD2C2002F034FD002002F031FD292065
:102F400002F02EFD002002F02BFD262002F028FDCD
:102F5000002002F025FD242002F022FD002002F0D6
:102F60001FFD242002F01CFD002002F019FD23208B
:102F700002F016FD002002F013FD3C2002F010FDCF
:102F8000002002F00DFD362002F00AFD002002F0C4
:102F900007FD322002F004FD002002F001FD2F2089
:102FA00002F0FEFC002002F0FBFC2C2002F0F8FCFA
:102FB000002002F0F5FC292002F0F2FC002002F0D3
:102FC000EFFC262002F0ECFC002002F0E9FC2420BB
:102FD00002F0E6FC002002F0E3FC242002F0E0FC1A
:102FE000002002F0DDFC232002F0DAFC002002F0D9
:102FF000D7FCC42002F0E0FC622002F0D1FC0020EB
:1030000002F0CEFC052002F0CBFC002002F0C8FC50
:10301000842002F0C5FC002002F0C2FCF02002F087
:10302000BFFC002002F0BCFC182002F0B9FC00201C
:1030300002F0B6FCA42002F0B3FC002002F0B0FCC9
:10304000182002F0ADFC002002F0AAFC502002F093
:10305000A7FC002002F0A4FC0C2002F0A1FC002040
:1030600002F09EFC172002F09BFC002002F098FC6E
:10307000952002F095FC002002F092FCF32002F073
:103080008FFC002002F08CFCE62002F089FC00207E
:1030900002F086FCC52002F08FFC322002F080FC9A
:1030A000002002F07DFC442002F07AFC002002F0B7
:1030B00077FC652002F074FC002002F071FC7620A1
:1030C00002F06EFC002002F06BFC882002F068FC2D
:1030D000002002F065FCC62002F06EFC202002F009
:1030E0005FFC002002F05CFC172002F059FC00207D
:1030F00002F056FC012002F053FC002002F050FCCC
:10310000C72002F059FC002002F04AFC002002F027
:1031100047FC002002F044FC002002F041FCC820E3
:1031200002F04AFC002002F03BFC002002F038FCD8
:10313000002002F035FC002002F032FCC92002F031
:103140003BFC002002F02CFC002002F029FC0020B7
:1031500002F026FC002002F023FC002002F020FCFC
:10316000002002F01DFC002002F01AFC002002F0FA
:1031700017FC002002F014FC002002F011FC0020DB
:1031800002F00EFC002002F00BFC002002F008FC14
:10319000002002F005FC002002F002FC002002F0FA
:1031A000FFFBE02002F008FC162002F0F9FB0020F3
:1031B00002F0F6FB1C2002F0F3FB002002F0F0FB13
:1031C000212002F0EDFB002002F0EAFB362002F0A5
:1031D000E7FB002002F0E4FB462002F0E1FB0020C8
:1031E00002F0DEFB522002F0DBFB002002F0D8FBF5
:1031F000642002F0D5FB002002F0D2FB7A2002F01E
:10320000CFFB002002F0CCFB8B2002F0C9FB00209A
:1032100002F0C6FB992002F0C3FB002002F0C0FBC5
:10322000A82002F0BDFB002002F0BAFBB92002F09A
:10323000B7FB002002F0B4FBC42002F0B1FB002079
:1032400002F0AEFBCA2002F0ABFB002002F0A8FBAC
:10325000D22002F0A5FB002002F0A2FBD92002F050
:103260009FFB002002F09CFBE02002F099FB002075
:1032700002F096FBF32002F093FB002002F090FB9B
:10328000E12002F099FB162002F08AFB002002F0F8
:1032900087FB1C2002F084FB002002F081FB22202F
:1032A00002F07EFB002002F07BFB362002F078FB70
:1032B000002002F075FB452002F072FB002002F0B6
:1032C0006FFB522002F06CFB002002F069FB6420CF
:1032D00002F066FB002002F063FB7A2002F060FB44
:1032E000002002F05DFB8B2002F05AFB002002F070
:1032F00057FB992002F054FB002002F051FBA8205C
:1033000002F04EFB002002F04BFBB92002F048FB1C
:10331000002002F045FBC42002F042FB002002F036
:103320003FFBCA2002F03CFB002002F039FBD22018
:1033300002F036FB002002F033FBD82002F030FB15
:10334000002002F02DFBE02002F02AFB002002F01A
:1033500027FBF32002F024FB002002F021FBE220F7
:1033600002F02AFB052002F01BFB002002F018FBF4
:103370000B2002F015FB002002F012FB1B2002F0D4
:103380000FFB002002F00CFB342002F009FB0020B0
:1033900002F006FB442002F003FB002002F000FBD9
:1033A0004F2002F0FDFA002002F0FAFA612002F04C
:1033B000F7FA002002F0F4FA792002F0F1FA002086
:1033C00002F0EEFA882002F0EBFA002002F0E8FAB0
:1033D000972002F0E5FA002002F0E2FAA62002F0BF
:1033E000DFFA002002F0DCFAB72002F0D9FA002060
:1033F00002F0D6FAC22002F0D3FA002002F0D0FA8E
:10340000C72002F0CDFA002002F0CAFAD12002F063
:10341000C7FA002002F0C4FAD62002F0C1FA002058
:1034200002F0BEFADD2002F0BBFA002002F0B8FA8A
:10343000F32002F0B5FA002002F0B2FAE32002F025
:10344000BBFA052002F0ACFA002002F0A9FA0A202B
:1034500002F0A6FA002002F0A3FA1C2002F0A0FA63
:10346000002002F09DFA332002F09AFA002002F0C8
:1034700097FA442002F094FA002002F091FA5020CA
:1034800002F08EFA002002F08BFA622002F088FA35
:10349000002002F085FA782002F082FA002002F083
:1034A0007FFA882002F07CFA002002F079FA972057
:1034B00002F076FA002002F073FAA62002F070FA09
:1034C000002002F06DFAB72002F06AFA002002F044
:1034D00067FAC22002F064FA002002F061FAC72005
:1034E00002F05EFA002002F05BFAD12002F058FAF6
:1034F000002002F055FAD52002F052FA002002F026
:103500004FFADD2002F04CFA002002F049FAF320D5
:1035100002F046FA002002F043FAE42002F04CFAEE
:10352000012002F03DFA002002F03AFA012002F0F8
:1035300037FA002002F034FA022002F031FA0020BB
:1035400002F02EFA2A2002F02BFA002002F028FACC
:103550003C2002F025FA002002F022FA4B2002F073
:103560001FFA002002F01CFA5D2002F019FA002078
:1035700002F016FA742002F013FA002002F010FA9A
:10358000842002F00DFA002002F00AFA932002F0E3
:1035900007FA002002F004FAA22002F001FA00204B
:1035A00002F0FEF9B32002F0FBF9002002F0F8F976
:1035B000BE2002F0F5F9002002F0F2F9C42002F07A
:1035C000EFF9002002F0ECF9CD2002F0E9F900203B
:1035D00002F0E6F9D32002F0E3F9002002F0E0F96E
:1035E000DD2002F0DDF9002002F0DAF9F32002F02C
:1035F000D7F9002002F0D4F9E52002F0DDF900202F
:1036000002F0CEF9002002F0CBF9002002F0C8F958
:10361000002002F0C5F9022002F0C2F9002002F0F9
:10362000BFF9292002F0BCF9002002F0B9F93C20D2
:1036300002F0B6F9002002F0B3F94B2002F0B0F925
:10364000002002F0ADF95D2002F0AAF9002002F09E
:10365000A7F9742002F0A4F9002002F0A1F9842057
:1036600002F09EF9002002F09BF9932002F098F9F5
:10367000002002F095F9A22002F092F9002002F059
:103680008FF9B32002F08CF9002002F089F9BE20F6
:1036900002F086F9002002F083F9C42002F080F9DC
:1036A000002002F07DF9CD2002F07AF9002002F02E
:1036B00077F9D32002F074F9002002F071F9DC20D0
:1036C00002F06EF9002002F06BF9F32002F068F9C5
:1036D000002002F065F9E62002F06EF9112002F0F8
:1036E0005FF9002002F05CF9342002F059F9002063
:1036F00002F056F9562002F053F9002002F050F97A
:10370000762002F04DF9002002F04AF9772002F00D
:1037100047F9002002F044F9662002F041F9002048
:1037200002F03EF9882002F03BF9002002F038F95F
:10373000992002F035F9002002F032F9BB2002F0A6
:103740002FF9002002F02CF9992002F029F900202D
:1037500002F026F9662002F023F9002002F020F999
:10376000552002F01DF9002002F01AF9552002F050
:1037700017F9002002F014F9452002F011F9002099
:1037800002F00EF9432002F00BF9002002F008F9D4
:10379000442002F005F9002002F002F9E72002F0CF
:1037A0000BF9322002F0FCF8002002F0F9F8552065
:1037B00002F0F6F8002002F0F3F8762002F0F0F8BC
:1037C000002002F0EDF8662002F0EAF8002002F096
:1037D000E7F8672002F0E4F8002002F0E1F8672043
:1037E00002F0DEF8002002F0DBF8872002F0D8F8C3
:1037F000002002F0D5F8992002F0D2F8002002F063
:10380000CFF8BB2002F0CCF8002002F0C9F89920D4
:1038100002F0C6F8002002F0C3F8772002F0C0F8EA
:10382000002002F0BDF8442002F0BAF8002002F0B7
:10383000B7F8562002F0B4F8002002F0B1F82320C7
:1038400002F0AEF8002002F0ABF8332002F0A8F846
:10385000002002F0A5F8452002F0A2F8002002F0B6
:103860009FF8E82002F0A8F8002002F099F8002064
:1038700002F096F8992002F093F8002002F090F8F8
:10388000872002F08DF8002002F08AF8882002F0EC
:1038900087F8002002F084F8772002F081F80020F9
:1038A00002F07EF8662002F07BF8002002F078F843
:1038B000882002F075F8002002F072F8AA2002F0C9
:1038C0006FF8002002F06CF8BB2002F069F80020CD
:1038D00002F066F8992002F063F8002002F060F828
:1038E000662002F05DF8002002F05AF8552002F040
:1038F00057F8002002F054F8552002F051F800204B
:1039000002F04EF8442002F04BF8002002F048F894
:10391000442002F045F8002002F042F8552002F061
:103920003FF8002002F03CF8E92002F045F8AA2018
:1039300002F036F8002002F033F8002002F030F8F0
:10394000002002F02DF8002002F036F8AA2002F044
:1039500027F8CF2002F030F8002002F021F80020F4
:1039600002F01EF8002002F01BF8002002F018F808
:10397000002002F015F8002002F012F8002002F0FA
:103980000FF8002002F00CF8002002F009F80020E7
:1039900002F006F8002002F003F8002002F000F820
:1039A000002001F0FDFF002001F0FAFF002001F0EF
:1039B000F7FF002001F0F4FF002001F0F1FFF020FC
:1039C00001F0FAFF002001F0EBFF502001F0E8FFCA
:1039D000002001F0E5FF002001F0E2FF002001F0EF
:1039E000DFFFF32001F0E8FF002001F0D9FFF9200C
:1039F00001F0E2FF062001F0D3FF102001F0D0FF1C
:103A0000292001F0CDFF002001F0CAFF3A2001F08B
:103A1000D3FF552001F0C4FF112001F0CDFF642039
:103A2000FEF7A0FB292001F0C7FF352001F0C4FFFD
:103A3000002001F0B5FF512001F0BEFFFF2001F092
:103A4000AFFF532001F0B8FF2C2001F0A9FF552053
:103A500001F0B2FF822001F0A3FF2C2001F0ACFFA7
:103A600010BD10B555214FF4704001F0BBFFAA21E5
:103A70004FF2010001F0B6FF52214FF2020001F0B7
:103A8000B1FF08214FF2030001F0ACFF01214FF21A
:103A9000040001F0A7FF0D214FF4304001F0A2FF18
:103AA0000D214BF2010001F09DFF0D214BF20200B0
:103AB00001F098FF34214FF4364001F093FF342198
:103AC0004BF2016001F08EFF34214BF2026001F0F5
:103AD00089FF0D214FF4314001F084FF0D214BF29D
:103AE000011001F07FFF0D214BF2021001F07AFF6F
:103AF00034214FF4374001F075FF34214BF201704F
:103B000001F070FF34214BF2027001F06BFF0021D5
:103B10004FF4324001F066FF00214BF2012001F02A
:103B200061FF00214BF2022001F05CFF24214FF4E1
:103B3000384001F057FF24214BF6010001F052FFFD
:103B400024214BF6020001F04DFF01214FF43F40CC
:103B500001F048FF0F214FF4334001F043FF0F21E4
:103B60004BF2013001F03EFF0F214BF2023001F029
:103B700039FF34214FF4394001F034FF34214BF642
:103B8000011001F02FFF34214BF6021001F02AFF43
:103B900008214FF4354001F025FF08214BF2015078
:103BA00001F020FF08214BF2025001F01BFF03211E
:103BB0004FF4424001F016FF24214FF43A4001F047
:103BC00011FF24214BF6012001F00CFF24214BF6BC
:103BD000022001F007FF00214FF43C4001F002FFFA
:103BE00078214BF6014001F0FDFE00214BF602402A
:103BF00001F0F8FE00214FF43D4001F0F3FE782182
:103C00004BF6015001F0EEFE00214BF6025001F0A0
:103C1000E9FE00214FF43E4001F0E4FE64214BF642
:103C2000016001F0DFFE00214FF4514001F0DAFEA7
:103C300033214DF2011001F0D5FE00214DF20210AA
:103C400001F0D0FE34214DF2031001F0CBFE002133
:103C50004DF2041001F0C6FE3A214DF2051001F0BC
:103C6000C1FE00214DF2061001F0BCFE4A214DF2CA
:103C7000071001F0B7FE00214DF2081001F0B2FE6E
:103C80005C214DF2091001F0ADFE00214DF20A1049
:103C900001F0A8FE81214DF20B1001F0A3FE0021DE
:103CA0004DF20C1001F09EFEA6214DF20D1001F018
:103CB00099FE00214DF20E1001F094FEE5214DF227
:103CC0000F1001F08FFE01214DF2101001F08AFE5D
:103CD00013214DF2111001F085FE01214DF2121059
:103CE00001F080FE54214DF2131001F07BFE012102
:103CF0004DF2141001F076FE82214DF2151001F004
:103D000071FE01214DF2161001F06CFECA214DF238
:103D1000171001F067FE02214DF2181001F062FE4B
:103D200000214DF2191001F05DFE02214DF21A1032
:103D300001F058FE01214DF21B1001F053FE02214B
:103D40004DF21C1001F04EFE34214DF21D1001F019
:103D500049FE02214DF21E1001F044FE67214DF292
:103D60001F1001F03FFE02214DF2201001F03AFE3B
:103D700084214DF2211001F035FE02214DF2221076
:103D800001F030FEA4214DF2231001F02BFE0221A0
:103D90004DF2241001F026FEB7214DF2251001F05E
:103DA00021FE02214DF2261001F01CFECF214DF222
:103DB000271001F017FE02214DF2281001F012FE2B
:103DC000DE214DF2291001F00DFE02214DF22A10E4
:103DD00001F008FEF2214DF22B1001F003FE02214A
:103DE0004DF22C1001F0FEFDFE214DF22D1001F0E0
:103DF000F9FD03214DF22E1001F0F4FD10214DF2DA
:103E00002F1001F0EFFD03214DF2301001F0EAFD1B
:103E100033214DF2311001F0E5FD03214DF2321056
:103E200001F0E0FD6D214DF2331001F0DBFD0021CA
:103E30004FF4524001F0D6FD33214DF2012001F044
:103E4000D1FD00214DF2022001F0CCFD34214DF2D4
:103E5000032001F0C7FD00214DF2042001F0C2FD56
:103E60003A214DF2052001F0BDFD00214DF2062062
:103E700001F0B8FD4A214DF2072001F0B3FD002109
:103E80004DF2082001F0AEFD5C214DF2092001F059
:103E9000A9FD00214DF20A2001F0A4FD81214DF27F
:103EA0000B2001F09FFD00214DF20C2001F09AFD46
:103EB000A6214DF20D2001F095FD00214DF20E20BE
:103EC00001F090FDE5214DF20F2001F08BFD012165
:103ED0004DF2102001F086FD13214DF2112001F06A
:103EE00081FD01214DF2122001F07CFD54214DF2A3
:103EF000132001F077FD01214DF2142001F072FD35
:103F000082214DF2152001F06DFD01214DF21620A8
:103F100001F068FDCA214DF2172001F063FD022176
:103F20004DF2182001F05EFD00214DF2192001F044
:103F300059FD02214DF21A2001F054FD01214DF2EC
:103F40001B2001F04FFD02214DF21C2001F04AFD23
:103F500034214DF21D2001F045FD02214DF21E20BD
:103F600001F040FD67214DF21F2001F03BFD0221D1
:103F70004DF2202001F036FD84214DF2212001F088
:103F800031FD02214DF2222001F02CFDA4214DF241
:103F9000232001F027FD02214DF2242001F022FD13
:103FA000B7214DF2252001F01DFD02214DF2262002
:103FB00001F018FDCF214DF2272001F013FD022161
:103FC0004DF2282001F00EFDDE214DF2292001F0F6
:103FD00009FD02214DF22A2001F004FDF2214DF2EB
:103FE0002B2001F0FFFC02214DF22C2001F0FAFC05
:103FF000FE214DF22D2001F0F5FC03214DF22E2083
:1040000001F0F0FC10214DF22F2001F0EBFC032118
:104010004DF2302001F0E6FC33214DF2312001F069
:10402000E1FC03214DF2322001F0DCFC6D214DF268
:10403000332001F0D7FC00214FF4534001F0D2FCB3
:1040400033214DF2013001F0CDFC00214DF2023060
:1040500001F0C8FC34214DF2033001F0C3FC002113
:104060004DF2043001F0BEFC3A214DF2053001F072
:10407000B9FC00214DF2063001F0B4FC4A214DF2AA
:10408000073001F0AFFC00214DF2083001F0AAFC2E
:104090005C214DF2093001F0A5FC00214DF20A30FF
:1040A00001F0A0FC81214DF20B3001F09BFC0021BE
:1040B0004DF20C3001F096FCA6214DF20D3001F0CE
:1040C00091FC00214DF20E3001F08CFCE5214DF207
:1040D0000F3001F087FC01214DF2103001F082FC1D
:1040E00013214DF2113001F07DFC01214DF212300F
:1040F00001F078FC54214DF2133001F073FC0121E2
:104100004DF2143001F06EFC82214DF2153001F0B9
:1041100069FC01214DF2163001F064FCCA214DF218
:10412000173001F05FFC02214DF2183001F05AFC0B
:1041300000214DF2193001F055FC02214DF21A30E8
:1041400001F050FC01214DF21B3001F04BFC02212B
:104150004DF21C3001F046FC34214DF21D3001F0CF
:1041600041FC02214DF21E3001F03CFC67214DF272
:104170001F3001F037FC02214DF2203001F032FCFB
:1041800084214DF2213001F02DFC02214DF222302C
:1041900001F028FCA4214DF2233001F023FC022180
:1041A0004DF2243001F01EFCB7214DF2253001F014
:1041B00019FC02214DF2263001F014FCCF214DF202
:1041C000273001F00FFC02214DF2283001F00AFCEB
:1041D000DE214DF2293001F005FC02214DF22A309A
:1041E00001F000FCF2214DF22B3001F0FBFB02212B
:1041F0004DF22C3001F0F6FBFE214DF22D3001F096
:10420000F1FB03214DF22E3001F0ECFB10214DF2B9
:104210002F3001F0E7FB03214DF2303001F0E2FBDB
:1042200033214DF2313001F0DDFB03214DF232300C
:1042300001F0D8FB6D214DF2333001F0D3FB0021AA
:104240004FF4544001F0CEFB33214DF2014001F018
:10425000C9FB00214DF2024001F0C4FB34214DF2B4
:10426000034001F0BFFB00214DF2044001F0BAFB16
:104270003A214DF2054001F0B5FB00214DF2064018
:1042800001F0B0FB4A214DF2074001F0ABFB0021E9
:104290004DF2084001F0A6FB5C214DF2094001F00F
:1042A000A1FB00214DF20A4001F09CFB81214DF25F
:1042B0000B4001F097FB00214DF20C4001F092FB06
:1042C000A6214DF20D4001F08DFB00214DF20E4074
:1042D00001F088FBE5214DF20F4001F083FB012145
:1042E0004DF2104001F07EFB13214DF2114001F020
:1042F00079FB01214DF2124001F074FB54214DF283
:10430000134001F06FFB01214DF2144001F06AFBF4
:1043100082214DF2154001F065FB01214DF216405E
:1043200001F060FBCA214DF2174001F05BFB022156
:104330004DF2184001F056FB00214DF2194001F0FA
:1043400051FB02214DF21A4001F04CFB01214DF2CC
:104350001B4001F047FB02214DF21C4001F042FBE3
:1043600034214DF21D4001F03DFB02214DF21E4073
:1043700001F038FB67214DF21F4001F033FB0221B1
:104380004DF2204001F02EFB84214DF2214001F03E
:1043900029FB02214DF2224001F024FBA4214DF221
:1043A000234001F01FFB02214DF2244001F01AFBD3
:1043B000B7214DF2254001F015FB02214DF22640B8
:1043C00001F010FBCF214DF2274001F00BFB022141
:1043D0004DF2284001F006FBDE214DF2294001F0AC
:1043E00001FB02214DF22A4001F0FCFAF2214DF2CC
:1043F0002B4001F0F7FA02214DF22C4001F0F2FAC5
:10440000FE214DF22D4001F0EDFA03214DF22E4038
:1044100001F0E8FA10214DF22F4001F0E3FA0321F8
:104420004DF2304001F0DEFA33214DF2314001F01F
:10443000D9FA03214DF2324001F0D4FA6D214DF248
:10444000334001F0CFFA00214FF4554001F0CAFA91
:1044500033214DF2015001F0C5FA00214DF2025016
:1044600001F0C0FA34214DF2035001F0BBFA0021F3
:104470004DF2045001F0B6FA3A214DF2055001F028
:10448000B1FA00214DF2065001F0ACFA4A214DF28A
:10449000075001F0A7FA00214DF2085001F0A2FAEE
:1044A0005C214DF2095001F09DFA00214DF20A50B5
:1044B00001F098FA81214DF20B5001F093FA00219E
:1044C0004DF20C5001F08EFAA6214DF20D5001F084
:1044D00089FA00214DF20E5001F084FAE5214DF2E7
:1044E0000F5001F07FFA01214DF2105001F07AFADD
:1044F00013214DF2115001F075FA01214DF21250C5
:1045000001F070FA54214DF2135001F06BFA0121C1
:104510004DF2145001F066FA82214DF2155001F06F
:1045200061FA01214DF2165001F05CFACA214DF2F8
:10453000175001F057FA02214DF2185001F052FACB
:1045400000214DF2195001F04DFA02214DF21A509E
:1045500001F048FA01214DF21B5001F043FA02210B
:104560004DF21C5001F03EFA34214DF21D5001F085
:1045700039FA02214DF21E5001F034FA67214DF252
:104580001F5001F02FFA02214DF2205001F02AFABB
:1045900084214DF2215001F025FA02214DF22250E2
:1045A00001F020FAA4214DF2235001F01BFA022160
:1045B0004DF2245001F016FAB7214DF2255001F0CA
:1045C00011FA02214DF2265001F00CFACF214DF2E2
:1045D000275001F007FA02214DF2285001F002FAAB
:1045E000DE214DF2295001F0FDF902214DF22A5051
:1045F00001F0F8F9F2214DF22B5001F0F3F902210C
:104600004DF22C5001F0EEF9FE214DF22D5001F04B
:10461000E9F903214DF22E5001F0E4F910214DF299
:104620002F5001F0DFF903214DF2305001F0DAF99B
:1046300033214DF2315001F0D5F903214DF23250C2
:1046400001F0D0F96D214DF2335001F0CBF900218A
:104650004FF4564001F0C6F933214DF2016001F0EC
:10466000C1F900214DF2026001F0BCF934214DF294
:10467000036001F0B7F900214DF2046001F0B2F9D6
:104680003A214DF2056001F0ADF900214DF20660CE
:1046900001F0A8F94A214DF2076001F0A3F90021C9
:1046A0004DF2086001F09EF95C214DF2096001F0C5
:1046B00099F900214DF20A6001F094F981214DF23F
:1046C0000B6001F08FF900214DF20C6001F08AF9C6
:1046D000A6214DF20D6001F085F900214DF20E602A
:1046E00001F080F9E5214DF20F6001F07BF9012125
:1046F0004DF2106001F076F913214DF2116001F0D6
:1047000071F901214DF2126001F06CF954214DF262
:10471000136001F067F901214DF2146001F062F9B4
:1047200082214DF2156001F05DF901214DF2166014
:1047300001F058F9CA214DF2176001F053F9022136
:104740004DF2186001F04EF900214DF2196001F0B0
:1047500049F902214DF21A6001F044F901214DF2AC
:104760001B6001F03FF902214DF21C6001F03AF9A3
:1047700034214DF21D6001F035F902214DF21E6029
:1047800001F030F967214DF21F6001F02BF9022191
:104790004DF2206001F026F984214DF2216001F0F4
:1047A00021F902214DF2226001F01CF9A4214DF201
:1047B000236001F017F902214DF2246001F012F993
:1047C000B7214DF2256001F00DF902214DF226606E
:1047D00001F008F9CF214DF2276001F003F9022121
:1047E0004DF2286001F0FEF8DE214DF2296001F063
:1047F000F9F802214DF22A6001F0F4F8F2214DF2AD
:104800002B6001F0EFF802214DF22C6001F0EAF884
:10481000FE214DF22D6001F0E5F803214DF22E60EE
:1048200001F0E0F810214DF22F6001F0DBF80321D8
:104830004DF2306001F0D6F833214DF2316001F0D5
:10484000D1F803214DF2326001F0CCF86D214DF228
:10485000336001F0C7F855214FF4704001F0C2F801
:10486000AA214FF2010001F0BDF852214FF20200DF
:1048700001F0B8F808214FF2030001F0B3F800216D
:104880004FF2040001F0AEF8CC214FF4314001F0BA
:10489000A9F800214BF2011001F0A4F805214FF412
:1048A000364001F09FF870214FF4374001F09AF83C
:1048B00070214BF2017001F095F801214FF438405E
:1048C00001F090F803214BF6010001F08BF8032171
:1048D0004BF6020001F086F803214BF6030001F0CD
:1048E00081F802214FF43C4001F07CF800214BF6A6
:1048F000014001F077F800214BF6024001F072F818
:10490000D0214FF4494001F06DF802214CF601101E
:1049100001F068F850214CF6021001F063F85021C4
:104920004CF6031001F05EF850214CF6041001F033
:1049300059F800214FF4545001F054F855214FF428
:10494000685001F04FF84FF4885001F035F87820A6
:10495000FDF712FC4FF4245001F02EF810BD10B5F5
:10496000E22001F029F81D2001F01AF8022001F0E0
:1049700017F8042001F014F86420FDF7FDFBE02097
:1049800001F01AF8012001F00BF80A20FDF7EAFB0C
:10499000E02001F011F8032001F002F80C20FDF7EF
:1049A000E1FB012001F008F80A20FDF7DBFBE6201F
:1049B00001F002F82F2000F0F3FFFF2000F0F0FFDD
:1049C000FF2000F0EDFFB02000F0F6FF202000F007
:1049D000E7FF002000F0E4FF032000F0E1FF40F2D9
:1049E0001F3000F0DDFF012000F0DAFF40F2DF10A1
:1049F00000F0D6FF002000F0D3FFB42000F0DCFF71
:104A0000042000F0CDFF40F21F4000F0C9FF00205D
:104A100000F0C6FF2E2000F0C3FF002000F0C0FF12
:104A2000002000F0BDFF002000F0BAFF002000F0E1
:104A3000B7FFB62000F0C0FF022000F0B1FF4FF436
:104A4000037000F0ADFF002000F0AAFF172000F077
:104A5000A7FF152000F0A4FF002000F0A1FF002018
:104A600000F09EFFF02000F0A7FF032000F098FF69
:104A7000292000F0A1FFD02000F09EFF002000F0D0
:104A80008FFFBE2000F098FF052000F089FFFE2078
:104A900000F086FF012000F083FF002000F080FF7F
:104AA000002000F07DFF002000F07AFFB82000F029
:104AB00083FF032000F074FF012000F071FFBA2093
:104AC00000F07AFF012000F06BFF10BD10B511203F
:104AD00000F072FF7820FDF745FB362000F06CFFF8
:104AE000002000F05DFF3A2000F066FF052000F096
:104AF00057FFB22000F060FF0C2000F051FF0C20A7
:104B000000F04EFF002000F04BFF332000F048FF84
:104B1000332000F045FFB72000F04EFF352000F0B5
:104B20003FFFBB2000F048FF322000F039FFC020DB
:104B300000F042FF0C2000F033FFC22000F03CFFE9
:104B4000012000F02DFFC32000F036FF102000F000
:104B500027FFC42000F030FF202000F021FFC620F6
:104B600000F02AFF0F2000F01BFFD02000F024FFF0
:104B7000A42000F015FFA12000F012FFE02000F0BB
:104B80001BFFD02000F00CFF002000F009FF0220E6
:104B900000F006FF072000F003FF0A2000F000FFEE
:104BA000282000F0FDFE322000F0FAFE442000F044
:104BB000F7FE422000F0F4FE062000F0F1FE0E2089
:104BC00000F0EEFE122000F0EBFE142000F0E8FEF4
:104BD000172000F0E5FEE12000F0EEFED02000F00E
:104BE000DFFE002000F0DCFE022000F0D9FE0720EE
:104BF00000F0D6FE0A2000F0D3FE282000F0D0FE00
:104C0000312000F0CDFE542000F0CAFE472000F015
:104C1000C7FE0E2000F0C4FE1C2000F0C1FE1720CD
:104C200000F0BEFE1B2000F0BBFE1E2000F0B8FE10
:104C30002A2000F0C1FE002000F0B2FE002000F0AB
:104C4000AFFE002000F0ACFEEF2000F0A9FE2B200C
:104C500000F0B2FE002000F0A3FE002000F0A0FE55
:104C6000012000F09DFE3F2000F09AFE292000F078
:104C7000A3FE10BD10B5112000F09EFE7820FDF7B8
:104C800071FA362000F098FE482000F089FE3A20A4
:104C900000F092FE552000F083FEF02000F08CFE24
:104CA000C32000F07DFEF02000F086FE962000F08C
:104CB00077FEB42000F080FE012000F071FEB620E7
:104CC00000F07AFE0A2000F06BFEA22000F068FEE1
:104CD000B72000F071FEC62000F062FEB92000F09F
:104CE0006BFE022000F05CFEE02000F059FEC020C8
:104CF00000F062FE802000F053FE162000F050FE0F
:104D0000C12000F059FE192000F04AFEC22000F038
:104D100053FEA72000F044FEC52000F04DFE1620F3
:104D200000F03EFEE82000F047FE402000F038FE94
:104D30008A2000F035FE002000F032FE002000F056
:104D40002FFE292000F02CFE192000F029FEA520BE
:104D500000F026FE332000F023FEE02000F02CFEC1
:104D6000F02000F01DFE072000F01AFE0D2000F0DC
:104D700017FE042000F014FE052000F011FE1420A0
:104D800000F00EFE362000F00BFE542000F008FE6E
:104D90004C2000F005FE382000F002FE132000F049
:104DA000FFFD142000F0FCFD2E2000F0F9FD342062
:104DB00000F0F6FDE12000F0FFFDF02000F0F0FD36
:104DC000102000F0EDFD142000F0EAFD0E2000F0B0
:104DD000E7FD0C2000F0E4FD082000F0E1FD3520A7
:104DE00000F0DEFD442000F0DBFD4C2000F0D8FD9B
:104DF000262000F0D5FD102000F0D2FD122000F09A
:104E0000CFFD2C2000F0CCFD322000F0C9FDF020B9
:104E100000F0D2FD3C2000F0C3FDF02000F0CCFDFE
:104E2000692000F0BDFD7820FDF79CF9212000F0FD
:104E3000C3FD292000F0C0FD10BD000000B595B0F5
:104E400000BF00BF00200190F848006840F040001B
:104E5000F64908600846006800F04000019000BF75
:104E600000BF00BF00BF00BF0020019008460068DF
:104E700040F0080008600846006800F00800019053
:104E800000BF00BF00BF00BF00BF00200190084668
:104E9000006840F0080008600846006800F008005C
:104EA000019000BF00BF00BF00BF00BF0020019005
:104EB0000846006840F0400008600846006800F0BE
:104EC0004000019000BF00BF00BF00BF00BF002036
:104ED00001900846006840F002000860084600683B
:104EE00000F00200019000BF00BF00BF88141090C6
:104EF0000220119001201290022013900C20149097
:104F000010A9CB48FBF7E0FD2020109010A9C9485C
:104F1000FBF7DAFD1020109010A9C648FBF7D4FD6E
:104F20004FF48050109010A9C348FBF7CDFD4FF40B
:104F3000004010900120119010A9C048FBF7C4FD5B
:104F40004FF02040BE490860BE4848600620886097
:104F50000021BB48C1601021416100218161C16114
:104F600041624FF4805181620021C1624FF480415F
:104F700001630021416381630F20099000200A90A2
:104F80003C200B9000200F900920029000200390FD
:104F9000092004900020089002AA09A9A848FCF75B
:104FA000F5FA3220FDF7DEF8D32000F005FD00F021
:104FB000EBF9A549888000F0E7F9A349888000F063
:104FC000E3F9A1498880084680884FF6FF7101EA1D
:104FD00000209D49888000F0D7F99B4989880843C3
:104FE000994988800846808849F2413188427CD0BE
:104FF000042000F0E1FC00F0C7F99349888000F03C
:10500000C3F99149888000F0BFF98F49888008462C
:1050100080884FF6FF7101EA00208B49888000F0FC
:10502000B3F9894989880843874988800846808878
:1050300048F25251884203D147F2897082498880F0
:105040008148808847F289718842D0D0D42000F00E
:10505000B3FC00F099F97C49888000F095F97A4911
:10506000888000F091F978498880084680884FF65A
:10507000FF7101EA00207449888000F085F97249C7
:1050800089880843704988800846808845F2103135
:105090008842ACD0D32000F08FFC00F075F96A494B
:1050A000888000F071F96849888000F06DF96649E0
:1050B0008880084680884FF6FF7101EA0020624927
:1050C000888000F061F96049898808435E498880DA
:1050D0000846808847F29671884288D055214FF45F
:1050E000704000F07FFCAA2100E07EE04FF201005A
:1050F00000F078FC52214FF2020000F073FC08210E
:105100004FF2030000F06EFC01214FF2040000F0AA
:1051100069FC4FF4454000F04FFC00F035F94A4976
:105120008880084680884FF6FF7101EA00204649D2
:1051300088804CF2015000F03FFC00F025F9424914
:1051400089880843404988800520FDF70BF83E48D0
:10515000808845F21051884247D0D32000F02CFCC3
:1051600000F012F93849888000F00EF9364988803D
:1051700000F00AF934498880084680884FF6FF71AC
:1051800001EA00203049888000F0FEF82E49898825
:1051900008432D4988800846808849F606018842E0
:1051A00023D0A12000F008FC00F0EEF8264988800A
:1051B00000F0EAF824498880084680884FF6FF719D
:1051C00001EA00202049888000F0DEF81E49898825
:1051D00008431D4988800846808845F261718842ED
:1051E00003D141F66310184988801748818817A0B9
:1051F000FBF7BCF81448808847F28971884202D1D5
:10520000FFF764FC4EE01048808849F24131884243
:1052100002D1FDF7F7F945E00B48808845F21031DF
:10522000884219D1FDF7A4FC3CE000003038024070
:1052300000180240000C024000140240000402402A
:10524000A4180020040100A0F41800204C434420BE
:1052500049443A25780D0A003F48808847F2967104
:10526000884202D1FFF706FD1CE03B48808845F2EA
:105270001051884202D1FEF7F4FB13E036488088D3
:1052800049F60601884202D1FDF7D2FA0AE0324817
:10529000808841F66311884204D1FFF760FB6420E7
:1052A00000F04EFB2C48808847F2897188420AD171
:1052B00003200290049029490B6B8A68486802A970
:1052C000FBF72CFA38E02448808849F6060188422A
:1052D0000BD02148808849F24131884205D01E48D0
:1052E000808845F2105188420AD102200290049031
:1052F0001A490B6B8A68486802A9FBF70FFA1BE092
:105300001548808845F2103188420BD012488088B9
:1053100047F29671884205D00F48808841F66311A4
:10532000884209D10120029004900C490B6B8A68D5
:10533000486802A9FBF7F2F90020FDF79DF800BFCD
:105340000122D1030648FBF7D3FC00BF4FF6FF70E4
:10535000FDF778F815B000BDF4180020A41800205F
:105360000004024000BF011EA0F10100FBD1704704
:1053700010B50246012000E050430B1EA1F10104CC
:10538000E1B2F9D110BD000008B50220FFF7EAFF35
:10539000024800880090BDF8000008BD8000006C45
:1053A000F0B50546002400278B488079012805D1F7
:1053B0008948808841F66311884208D186488079FF
:1053C000F0B98548808841F66311884218D1082DCC
:1053D00015D2DFE805F00406080A0C0E10120625A7
:1053E0000DE007250BE0042509E0052507E0012570
:1053F00005E0002503E0032501E0022500BF00BF12
:10540000082D1CD2DFE805F00406090C0F12151850
:1054100000BF14E044F0800411E044F040040EE0CA
:1054200044F0C0040BE044F0200408E044F06004C1
:1054300005E044F0A00402E044F0E00400BF00BF37
:1054400036276548808845F21051884200D13F02D6
:105450006148808849F2413188420BD05E4880889B
:1054600047F28971884205D05B48808847F296717F
:10547000884201D144F008042146384600F0B2FACF
:105480005548808841F6631188421DD004F0200001
:1054900068B15148008850494988884214DA4E481A
:1054A000068840884C490880084646800CE04A48F7
:1054B000008849494988884206DD4748068840886F
:1054C00045490880084646804348808845F2105187
:1054D000884252D14049488900F06EFA002000F01D
:1054E0005FFA3D494989491C88B200F065FA0020FD
:1054F00000F056FA38494989891C88B200F05CFAF4
:1055000035490988491EC1F30F2000F049FA324994
:105510004989C91C88B200F04FFA2F490978491E01
:10552000C8B200F03DFA2C49888900F045FA002005
:1055300000F036FA28498989491C88B200F03CFA03
:10554000002000F02DFA24498989891C88B200F0D6
:1055500033FA21494988491EC1F30F2000F020FA8F
:105560001D498989C91C88B200F026FA1A49897830
:10557000491EC8B200F014FA2DE01749488900F01E
:105580001BFA002000F00CFA002000F009FA124982
:105590000988491EC1F30F2000F002FA0E4909786C
:1055A000491EC8B200F0FCF90B49888900F004FAE2
:1055B000002000F0F5F9002000F0F2F906494988D2
:1055C000491EC1F30F2000F0EBF903498978491E09
:1055D000C8B200F0E5F9F0BDF418002010B502469D
:1055E0000C464548808841F66311884247D14248BD
:1055F0008079A8B940480088401E801A82B23E498E
:10560000488900F0D9F9002000F0CAF9002000F024
:10561000C7F9101200F0C4F9D0B200F0C1F916E0D9
:105620003549488900F0C8F9101200F0B9F9D0B234
:1056300000F0B6F930490988491EC1F30F2000F087
:10564000AFF92D490978491EC8B200F0A9F92A49D5
:10565000888900F0B1F9201200F0A2F9E0B200F060
:105660009FF925494988491EC1F30F2000F098F998
:1056700021498978491EC8B200F092F93AE01E48E3
:10568000808845F21051884220D11B49488900F09A
:1056900093F9101200F084F917494989491C88B21E
:1056A00000F08AF9D0B200F07BF91349888900F044
:1056B00083F9201200F074F90F498989491C88B2D6
:1056C00000F07AF9E0B200F06BF913E00A4948897A
:1056D00000F072F9101200F063F9D0B200F060F936
:1056E0000549888900F068F9201200F059F9E0B204
:1056F00000F056F910BD0000F41800202DE9FC4F11
:1057000080460E4615461C46B34600200190009088
:105710002046E31704EB5373DB1021464FEAE47C89
:1057200004EB5C7C4FEAEC0CA4EBCC0CBCF1000F5E
:1057300002D04FF0010C01E04FF0000C6344224610
:1057400004EBD27C4FEA6C0C03FB0CF3DBB201934D
:10575000A5F12000C5B20C2C06D0102C0BD0182CB3
:105760000ED0202C18D112E005EB45002D4901EB9D
:105770008000009012E02C4800EB051000900DE036
:1057800005EBC500294901EB8000009006E02848A0
:1057900000EB8510009001E0BDE8FC8F00BF002702
:1057A0003AE0009810F807904FF0000A2EE009F058
:1057B000800028B1314640460C9AFCF713FF07E001
:1057C0000B9828B91B48314602684046FCF70AFF8F
:1057D0004FEA49604FEA1069701C86B2164840884B
:1057E000B04200DCD8E7A6EB0B00A0420AD15E462F
:1057F00008F101001FFA80F80F480088404500DCDE
:10580000CAE706E00AF1010000F0FF0ABAF1080F4A
:10581000CDDB00BF781CC7B201988742C1DB00BF57
:10582000BAE700009261000806660008F66B0008FF
:105830005279000820000020F41800202DE9FF4FC5
:1058400083B0074691461E46DDE9105A00200290BB
:1058500000243AE0301B401EC1B20A20FFF788FD49
:10586000B9FBF0F00A21B0FBF1F201FB120802983B
:10587000B8B9701EA04214DDB8F1000F0FD100209E
:10588000AB4605EBDB71491001FB0471CDE9000A61
:1058900088B22B4620220499FFF730FF13E0012045
:1058A00002900020AB4605EBDB71491001FB04714F
:1058B000CDE9000A88B208F13001CAB22B4604993A
:1058C000FFF71CFF00BF601CC4B2B442C2DB07B0CC
:1058D000BDE8F08F2DE9FC4F04460D4690469946F1
:1058E000DDE90C7A0B9E04F0FF0B08EB04001FFAB5
:1058F00080F809EB05001FFA80F917E0444502DB48
:105900005C46A81985B24D4500DB15E00020CDE9C5
:10591000000A3A78334629462046FFF7EFFE304624
:1059200006EBD07104EB61018CB27F1C38787E28C5
:1059300002DC38782028E1DA00BFBDE8FC8F0000E7
:1059400070B52DED048B0446BE2000F035F805201F
:1059500000F026F8204600F0E8FA41EC190B9FED24
:105960000E0B53EC102B00F0F3FA41EC180B00F087
:10597000AFFA85B2284600F013F8012000F010F8C5
:10598000FF2000F00DF8002000F00AF8002000F0E1
:1059900007F8BDEC048B70BD6666666666660440FB
:1059A00001B5BDF800000090BDF800000149088075
:1059B00008BD00008000006C01B5BDF8000000903B
:1059C000BDF800000149088008BD00007E00006CA1
:1059D000024800890249088070470000F41800203E
:1059E0007E00006C034A10804FF0D842A2F880106D
:1059F000704700007E00006C00B587B000BF00BF9C
:105A0000002001902048006840F020001E490860F6
:105A10000846006800F02000019000BF00BF00BFF2
:105A200000BF00BF002001900846006840F0200041
:105A300008600846006800F02000019000BF00BF29
:105A400000BF4815029001200390049002200590A9
:105A500002A90E48FBF738F84FF48060029002A9C3
:105A60000A48FBF731F800BF012251020748FBF753
:105A70003FF900BF00BF012291020448FBF738F94B
:105A800000BF07B000BD00003038024000140240E3
:105A90002DED028B84B04FF0000800279FEDA20A85
:105AA000B0EE408AFBF742F90723022208214FF4A7
:105AB000A87000F083F9A820FCF74EFB4FF4E1300A
:105AC00000F0EAF9FFF798FFFFF7B8F9FCF7DAFB07
:105AD0004FF000619548FCF773FB4FF4784094A1B8
