:020000040800F2
:10000000B0520020F50200085F290008E124000832
:100010005D290008ED0700085D2F000800000000C2
:100020000000000000000000000000003502000891
:10003000A10800080000000091020008092A000839
:100040000F0300080F0300080F0300080F03000848
:100050000F0300080F0300080F0300080F03000838
:100060000F0300080F0300080F0300080F03000828
:100070000F0300080F0300080F0300080F03000818
:100080000F0300080F030008B90600080000000075
:100090000000000000000000000000000F03000846
:1000A000C52A00080F0300080F0300080F0300080B
:1000B0000F0300080F0300080F0300080F030008D8
:1000C0000F0300080F0300080F0300080F030008C8
:1000D0000F030008512F00080F0300080000000064
:1000E0000F0300080F0300080F03000800000000C2
:1000F0000000000000000000000000000F030008E6
:10010000000000000F0300080F0300080F030008A1
:1001100000000000000000000000000000000000DF
:10012000F10700080F0300080F0300080F03000881
:100130000F030008000000000000000000000000A5
:100140000000000000000000000000000F03000895
:100150000F0300080F0300080F0300080F03000837
:100160000F0300080F03000800000000000000005B
:10017000000000000000000000000000000000007F
:10018000000000000F030008000000000000000055
:100190000F03000800F002F800F03CF80AA090E815
:1001A000000C82448344AAF10107DA4501D100F032
:1001B00031F8AFF2090EBAE80F0013F0010F18BFC3
:1001C000FB1A43F0010318471846000038460000A8
:1001D000103A24BF78C878C1FAD8520724BF30C873
:1001E00030C144BF04680C60704700000023002445
:1001F00000250026103A28BF78C1FBD8520728BF37
:1002000030C148BF0B6070471FB504F0BBFA1FBD7B
:1002100010B510BD00F0D0F91146FFF7F5FF02F060
:10022000AEFE00F0EEF903B4FFF7F2FF03BC00F0FE
:10023000F5F900002C4B19680868B0E8F04F80F31E
:100240000988BFF36F8F4FF0000080F3118870476B
:100250000000000008480068006880F308884FF03C
:10026000000080F3148862B661B6BFF34F8FBFF30E
:100270006F8F00DF00BF00BF08ED00E0DFF80C006B
:10028000016841F470010160704700BF88ED00E033
:10029000EFF30980BFF36F8F134B1A681EF0100F36
:1002A00008BF20ED108A20E9F04F106009B44FF02C
:1002B000500080F31188BFF34F8FBFF36F8F03F0AF
:1002C00033FD4FF0000080F3118809BC19680868FD
:1002D000B0E8F04F1EF0100F08BFB0EC108A80F3AA
:1002E0000988BFF36F8F704718000020EFF3058077
:1002F000704700000948804709480047FEE7FEE7CD
:10030000FEE7FEE7FEE7FEE7FEE7FEE7FEE7FEE7C5
:1003100004480549054A064B70470000B52A000805
:1003200095010008B04C0020B0520020B04E0020D3
:10033000B04E002053EA020C00F069802DE9F04B2A
:100340004FF00006002B1FBFB3FA83F503FA05F444
:1003500024FA05F65E4012BF1643B2FA82F502FA9D
:1003600005F4C5F120051EBF22FA05FC44EA0C0481
:10037000203556EA044C4FEA144418BF641C4FF071
:1003800000084FF00009904271EB030C39D30029AB
:1003900019BFB1FA81F701FA07F6B0FA80F700FA4F
:1003A00007F6C7F120071EBF20FA07FC46EA0C0635
:1003B0002037B6FBF4FCA7EB0507103F07F01F0B37
:1003C000CBF120060CFA0BFB2CFA06F644BFB34621
:1003D0000026202FA4BF5E464FF0000B5BEA060C00
:1003E00008BF4FF0010B19EB0B09ABFB027C48EB8C
:1003F0000608C01B06FB02CC0BFB03CC71EB0C0107
:10040000C1E70B46024641464846BDE8F08B13B5AE
:100410004FF000004FF00001AFF30080BDE81C403A
:100420007047032A40F2308010F0030C00F0158072
:1004300011F8013BBCF1020F624498BF11F801CBE7
:1004400000F8013B38BF11F8013BA2F1040298BF4C
:1004500000F801CB38BF00F8013B11F0030300F0B6
:100460005780083AC0F0088051F8043B083A51F828
:1004700004CBA0E80810F5E7121D5CBF51F8043B5F
:1004800040F8043BAFF30080D20724BF11F8013BD2
:1004900011F801CB48BF11F8012B24BF00F8013B34
:1004A00000F801CB48BF00F8012B704702F0FF03B2
:1004B00043EA032242EA024200F05EB84FF0000233
:1004C00000B5134694469646203922BFA0E80C504A
:1004D000A0E80C50B1F12001BFF4F7AF090728BF25
:1004E000A0E80C5048BF0CC05DF804EB890028BFA1
:1004F00040F8042B08BF704748BF20F8022B11F0CA
:10050000804F18BF00F8012B704770477047704745
:1005100010B5203AC0F00B80B1E81850203AA0E89E
:100520001850B1E81850A0E81850BFF4F5AF5FEAD2
:10053000027C24BFB1E81850A0E8185044BF18C985
:1005400018C0BDE810405FEA827C24BF51F8043B2C
:1005500040F8043B08BF7047D20728BF31F8023B80
:1005600048BF11F8012B28BF20F8023B48BF00F814
:10057000012B70474FF000020429C0F0128010F0E8
:10058000030C3FF49DAFCCF1040CBCF1020F18BF7B
:1005900000F8012BA8BF20F8022BA1EB0C01FFF7FC
:1005A0008FBF5FEAC17C24BF00F8012B00F8012B4C
:1005B00048BF00F8012B7047754600F02BF8AE4697
:1005C00005006946534620F00700854618B020B55F
:1005D000FFF79EFEBDE820404FF000064FF00007F9
:1005E0004FF000084FF0000B21F00701AC46ACE8DB
:1005F000C009ACE8C009ACE8C009ACE8C0098D4648
:10060000704710B50446AFF300802046BDE81040A7
:10061000FFF709BE00487047504C002001491820E0
:10062000ABBEFEE726000200704710B50146806BA6
:10063000026C12F0500F05D0026CD20626D500F0E5
:10064000DBF910BD016C41F40071016401688A6836
:1006500012F0405F17D1027EAAB9CA6A12F4700F75
:1006600002D08A6852050ED44A6822F020024A60FD
:10067000016C21F480710164016CC90403D4016C24
:1006800041F00101016400F0B5F910BD806BC26C4E
:10069000BDE810400846104710B5806B402101644A
:1006A000416C41F00401416400F0A6F910BD10B5A1
:1006B000806B00F0A0F910BD014800F09EB9000069
:1006C000E0000020464910B54A6822F440324A60F2
:1006D0004A6843681A434A6001684A6822F4807293
:1006E0004A6001684A68036942EA03224A60016875
:1006F0004A6822F040724A6001684A6883681A4377
:100700004A6001688A6822F400628A6001688A6827
:10071000C3681A438A60816A6FF07062D1420168CF
:100720008A6822F070628A6001688A680CD0836AE5
:100730001A438A6001688A6822F040528A60016820
:100740008A68C36A1A4301E022F040528A60016855
:100750008A6822F002028A6001688A68037E42EA9F
:1007600043028A6090F82010002901684A680FD07F
:1007700042F400624A6001684A6822F460424A60BA
:1007800001684A68174C436A04EB43331A4301E09B
:1007900022F400624A600168CA6A22F47002CA62E6
:1007A0000168CA6A838B104C04EB03531A43CA6274
:1007B00001688A6822F400728A6001688A6890F889
:1007C000303042EA43228A6001688A6822F48062FB
:1007D0008A6001688A68406942EA8020886010BDAA
:1007E0000023014000E0FFFF0000F0FFFEE70000F3
:1007F000014800F017BB0000280100200168182301
:10080000CAB2103AB2FBF3F2054B6FF30901032AA7
:100810009B5CC36500D9091D8165084670470000CF
:10082000B447000810B5014600208B698A6A4FF072
:10083000C07453B1B3F5005F15D072B1012A0CD06A
:10084000022A0AD0032A09D104E01AB1012A06D0EB
:10085000022A03D1C96AC90100D5012010BDC96AA5
:10086000A142FAD010BD002AF7D0012AF2D0022A04
:10087000F3D0032AF3D010BD30B50468256825F401
:1008800080252560046863608368402B036803D07B
:1008900099600068C26030BD9A600068C16030BD78
:1008A000704772B6FEE7704778B50024009490F860
:1008B0003C20012A19D0012280F83C200A68072335
:1008C0000568092A13D9EE680A3A02EB42029340FE
:1008D0009E43EE600B788A680A3B03EB43039A4021
:1008E0000368DD682A43DA6010E0022078BD2E69D3
:1008F00002EB420293409E432E610B788A6803EB21
:1009000043039A4003681D692A431A614A681F23FA
:10091000072A13D205686E6B521E02EB82029340C7
:100920009E436E630B790A885B1E92B203EB8303CE
:100930009A4003685D6B2A435A6327E005680D2AD5
:1009400012D22E6BD21F02EB820293409E432E6383
:100950000B790A88DB1F92B203EB83039A4003688A
:100960001D6B2A431A6311E0EE6A0D3A02EB820214
:1009700093409E43EE620B790A880D3B92B203EBE3
:1009800083039A400368DD6A2A43DA62164B0568DE
:10099000144A9D4206D10D68122D03D1556845F4C5
:1009A0008005556005689D4218D10B68102B01D059
:1009B000112B13D1536843F40003536009681029C5
:1009C0000CD10A490A4A0968B1FBF2F101EB810135
:1009D000490000E0491E00910029FBD180F83C400D
:1009E000002078BD002301400020014014000020B9
:1009F00040420F0070477047704770B5044600686A
:100A00000668456816F0020F05F020012AD049B3A8
:100A1000216CC90603D4216C41F400712164816802
:100A200011F0405F17D1217EA9B9C16A11F4700F8E
:100A300002D0816849050ED4416821F0200141604F
:100A4000206C20F480702064206CC00403D4206CDF
:100A500040F0010020642046FFF7CCFF21686FF0D2
:100A60001200086016F0040F05F0800132D089B33F
:100A7000206CC00603D4206C40F400502064206831
:100A8000816811F4401F1ED1816B11F4401F02D008
:100A90008168490517D44168490514D4816811F06B
:100AA000405F10D1217E71B9416821F08001416021
:100AB000206C20F480502064206CC00503D4206C8E
:100AC00040F0010020642046FFF7EDFE21686FF042
:100AD0000C00086016F0010F05F040010FD071B155
:100AE00020680068C0070AD0206C40F48030206481
:100AF000204600F043F821686FF00100086016F00E
:100B0000200F05F080610ED000290CD0606C40F001
:100B10000200606420686FF0200505602046FFF742
:100B20006BFF2068056070BD70B504004FF00005D4
:100B300003D0206C002610B107E0012070BD2046D4
:100B400000F01EF8666484F83C60206CC00610D487
:100B5000206C20F4885040F0020020642046FFF70B
:100B6000B1FD6664206C20F0020040F001002064BA
:100B700000E0012584F83C60284670BD7047000005
:100B800070B586B0064614216846FFF797FC2849E1
:100B9000306888424AD127480025016841F48071B5
:100BA00001600068234900F48070143905900868DA
:100BB00040F001000860086800F001000590086836
:100BC00040F0020008600868032400F0020005906D
:100BD000F0208DE831006946174800F095FA00943E
:100BE00069461648CDE9014500F08EFA154C1448C7
:100BF000C4E900050015A560C4E903504000606128
:100C00008000A0614011C4E907052046656200F03C
:100C1000D9F908B1FFF745FEB4630022052112207F
:100C2000A66300F0F9FB122000F0E8FB06B070BDEF
:100C3000002001404438024000000240000402400D
:100C40001064024028010020F8B5044600200E463A
:100C5000009094F83C10012907D0012184F83C1041
:100C600021688B68DB0702D011E00220F8BD8B6899
:100C700043F001038B603649364B0968B1FBF3F151
:100C800001EB410100E0491E00910029FBD12168E0
:100C90008B68DB0503D58B6823F480738B60216838
:100CA0008B68DB0749D0236C40F20165AB4343F40A
:100CB000807323644968490505D5216C21F40051EE
:100CC00041F480512164216CC90404D5616C21F088
:100CD0000601616400E0606484F83C00A16B1F4879
:100CE0001D4DC863A16B1E480864A16B1D48C864F4
:100CF00021686FF0220008602068416841F080613F
:100D000041602068816841F48071816021681346E8
:100D100032464C31A06B00F0BFF96868C00620680D
:100D200002D01149884210D1816811F0405F0CD186
:100D3000816841F08041816007E0206C40F0100044
:100D40002064606C40F0010060640020F8BD000089
:100D50001400002040420F00002301402B06000831
:100D6000AF06000899060008002001402DE9F04177
:100D70000446876D00F0B8FA064694F83500002561
:100D8000022806D08020606584F834500120BDE838
:100D9000F0812068016821F0160101602068416936
:100DA00021F080014161206C08B9A06C20B120685D
:100DB000016821F0080101602068016821F001014B
:100DC00001600CE000F090FA801B052807D9202074
:100DD0006065032084F8350084F83450D7E7206834
:100DE0000068C007EED194F85C103F208840B860DE
:100DF000012084F8350084F834500020C7E790F8CB
:100E00003510022903D0802141650120704705215A
:100E100080F835100068016821F0010101600020B0
:100E2000704700002DE9F84304464FF00009CDF863
:100E3000009063484FF41651A56D0068B0FBF1F7C0
:100E40002E6894F85C10082000FA01F131420FD0AE
:100E500021680A6852070BD50A6822F004020A606A
:100E600094F85C108840A860606D40F001006065F7
:100E700094F85C104FF0010808FA01F0304208D0F5
:100E800021684969090604D5A860606D40F0020038
:100E9000606594F85C1004208840304208D02168D6
:100EA0000968890704D5A860606D40F0040060659A
:100EB00094F85C1010208840304218D021680968EE
:100EC000090714D5A86020680168490304D50068A3
:100ED000000308D5A16C07E00168C90503D40168C7
:100EE00021F008010160216C09B12046884794F87F
:100EF0005C1020208840304231D021680968C90642
:100F00002DD5A86094F8350005282068016806D022
:100F1000490347D5006800031DD4616C1CE021F033
:100F2000160101602068416921F080014161206C57
:100F300008B9A06C20B12068016821F008010160A7
:100F400094F85C103F208840A86084F8358084F8CD
:100F50003490216D1FE0E16B09B120468847606D38
:100F600000282BD0606DC00714D0052084F8350010
:100F70002068016821F0010101600098401C009088
:100F8000B84203D820680068C007F6D184F83580DD
:100F900084F83490E16C002910D001B02046BDE8FF
:100FA000F04308470168C905D5D4016821F0100154
:100FB000016084F8358084F83490CCE7BDE8F8838C
:100FC000140000202DE9F041044600F08DF906469A
:100FD0005CB1022084F83500002584F83450206884
:100FE000016821F0010101600DE00120BDE8F08100
:100FF00000F07AF9801B052805D9202060650320C0
:1010000084F83500F2E720680068C007F0D1226854
:10101000116820480140D4E901031843D4E903369C
:101020003343184363691843A3691843E3691843BA
:10103000236A18430843616A042903D1D4E90B13D6
:1010400019430843106020684069666A20F0070170
:1010500030460E43012704280CD1A06A0643E06AFB
:1010600040B12046FFF7DEFB20B14020606584F8E8
:101070003570BAE7206846612046FFF7BFFB94F859
:101080005C203F2191408160656584F835700020C7
:10109000ACE700003F8010F02DE9F0410446866D7A
:1010A00090F83400002501280DD0012084F8340088
:1010B00094F835700020012F07D084F83400022501
:1010C0002846BDE8F0810220FBE7022784F835704E
:1010D00060652046FFF7D0FB94F85C103F20884005
:1010E000B0602068016841F016010160206C20B1F9
:1010F0002068016841F0080101602068016841F042
:1011000001010160DCE700002DE9F84FDFF8B8A12C
:101110000022012403254FF00F090AF1040BAAF164
:10112000040E00BF0B6804FA02F63340B34273D1D9
:101130000F7907F00307012F01D0022F16D187681E
:101140004FEA420805FA08FC27EA0C07D1F80CC060
:101150000CFA08FC4CEA070CC0F808C04768B74313
:101160000E79C6F3001696403E4346600E79F6436C
:10117000B6070DD0C768560005FA06FC27EA0C072B
:10118000D1F808C00CFA06FC4CEA070CC0F80CC0F9
:101190000E7906F00306022E10D1D60800EB860861
:1011A000D8F8206057074FEAD76C09FA0CF7BE430E
:1011B0000F6907FA0CF73743C8F8207006684FEA42
:1011C000420C05FA0CF7BE430F7907F0030707FA44
:1011D0000CF7374307604E6816F4403F6DD03B4E26
:1011E000376847F480473760366822F0030706F413
:1011F00080460096364E07EB060CDCF80868970729
:101200003F0F09FA07F826EA0806DFF8C8804045CC
:1012100003D14FF000081EE04FE0DFF8BC804045EE
:1012200002D14FF0010816E0DFF8B080404502D14E
:101230004FF002080FE0DFF8A880404502D14FF0E0
:10124000030808E0DFF89C80404502D14FF0040815
:1012500001E04FF0070808FA07F848EA0608CCF85A
:101260000888DAF800605746D1F804C09E435FEA68
:10127000CC2C00D51E433E60DBF800605F46D1F801
:1012800004C09E435FEA8C2C00D51E433E60DEF80E
:1012900000607746D1F804C09E435FEA8C3C00D5DD
:1012A0001E433E60084F083F3E68D1F804C09E438D
:1012B0005FEACC3C00D51E433E60521C102AFFF46E
:1012C00031AFBDE8F88F0000083C014044380240CF
:1012D00000300140000002400004024000080240CB
:1012E000000C024000100240014880687047000076
:1012F000080000200248816802781144816070472C
:10130000080000200B4810B5016841F4007101602D
:10131000016841F480610160016841F480710160FD
:10132000032000F099F80F2000F006F800F04AF8CA
:10133000002010BD003C024030B505461C4887B077
:101340000024016841F480310160006806A900F4BE
:101350008030009001A800F02BF900F059F91549F0
:10136000154AB0FBF1F11548491E026040F2E73220
:10137000C0E90324C0E90114846100F0ABFB040060
:1013800012D10E4800F0FEFB04000DD1182000F031
:1013900035F8102D07D200222946182000F03CF81D
:1013A0000748056000E0012407B0204630BD00007A
:1013B0004438024040420F00004001403403002006
:1013C0000C0000200C4882B0016841F480410160AB
:1013D000006800F4804000900748001F016841F059
:1013E000805101600068002200F0805000900F21C1
:1013F000901E02B000F010B844380240002809DB0B
:1014000000F01F02012191404009800000F1E0201E
:10141000C0F8001170470000F0B40E4B1B680C467A
:10142000C3F30223C3F10705042D00D90425191DB8
:10143000072901D2002300E0DB1E012606FA05F190
:10144000491E214099409E40761E16403143F0BC13
:1014500001F085BD0CED00E0064900F007020868C8
:101460004FF6FF03184040EA0220034A1043086089
:10147000704700000CED00E00000FA052DE9F04790
:101480000E46050065D0DFF81481D8F80000F7B2E9
:1014900000F00700B04207D288F80070D8F80000CA
:1014A00000F00700B04254D128683D4C810712D5A6
:1014B000400703D5206840F4E050206028780007FA
:1014C00003D5206840F4604020602068A96820F0BF
:1014D000F000084320602878C0072DD030496868A4
:1014E0000839012812D0022813D0032811D0096826
:1014F000890700292DDA216821F0030101432160C9
:10150000FFF7F2FE814641F2883A0EE0096889034E
:10151000EFE709688901ECE7FFF7E6FEA0EB0901B8
:10152000514502D90320BDE8F0872068696800F0C2
:101530000C00B0EB810FEFD1D8F80010404601F05D
:101540000701B14207D90770006800F00700B042F8
:1015500001D00120E7E72878400705D52068E96831
:1015600020F4E050084320602878000706D5206862
:10157000296920F4604040EAC100206000F058F87A
:101580002168084AC1F30311515CC840064908604C
:1015900006480068FFF7D0FE0020C4E7003C024088
:1015A00008380240BC470008140000200C0000204E
:1015B0000F2202600C4A136803F0030343601368B0
:1015C00003F0F0038360136803F4E053C360126810
:1015D0004FF4E05303EAD20202610448006800F0CD
:1015E000070008607047000008380240003C0240D5
:1015F0000448054900680968044AC1F38221515C26
:10160000C84070471400002008380240CC4700084A
:101610000448054900680968044AC1F34231515C35
:10162000C84070471400002008380240CC4700082A
:10163000154810B5006810F00C02144813D0144976
:10164000042A0FD0082A0ED10F4C241F22682368C9
:1016500002F03F025B0207D52068C0F38810A0FBB0
:10166000010106E0084610BD2168C1F38811A1FB05
:1016700000010023FEF75EFE2168C1F30141491C11
:101680004900B0FBF1F010BD083802400024F4001E
:1016900040787D012DE9F84F04006ED02078DFF806
:1016A0004C93C007A9F104054AD009F10400016870
:1016B000C1F38101012908D00068C0F3810002282C
:1016C0000AD1D9F80000400206D52868800337D532
:1016D00060680028E1D033E06068B0F5803F10D04A
:1016E000B0F5A02F286810D020F48030286028683A
:1016F00020F4802028606068A8B1FFF7F5FD064659
:101700000DE0286840F48030F4E740F48020286041
:10171000F7E700BFFFF7E8FD801B642873D828684F
:101720008003F7D50CE0FFF7DFFD064605E000BFBC
:10173000FFF7DAFD801B6428F0D828688003F7D40F
:101740002078DFF8AC8280074FF0000A3ED5A7482A
:10175000001D016811F00C0F08D00068C0F3810073
:1017600002280BD1D9F80000400207D4286880076E
:1017700016D5E068012800D112E033E1E068B8B185
:101780000120C8F80000FFF7AFFD064605E000BFE6
:10179000FFF7AAFD801B0228C0D828688007F7D56C
:1017A0002868216920F0F80040EAC10028600DE0B7
:1017B000C8F800A0FFF798FD064604E0FFF794FD87
:1017C000801B02281FD828688007F7D420780007DC
:1017D00022D5864F87486169703771B10121016058
:1017E000FFF782FD064604E0FFF77EFD801B02281E
:1017F00009D838688007F7D50EE0C0F800A0FFF7D9
:1018000073FD064605E082E0FFF76EFD801B0228AF
:101810007DD838688007F7D42078400768D5DFF88E
:10182000CCB100270BF13C0BDBF80000C0000BD45F
:10183000DBF8001041F08051CBF80010DBF800001D
:10184000012700F0805000906B4E3068C00510D426
:10185000306840F480703060FFF746FD009005E08E
:10186000FFF742FD0099401A022850D83068C005A1
:10187000F6D55E4EA0686C3601280FD0052830687A
:1018800010D020F001003060306820F0040030609B
:10189000A068B8B1FFF728FD00900FE0306840F075
:1018A0000100F4E740F004003060F7E7FFF71CFDAB
:1018B0000099411A41F28830814266D83068800729
:1018C000F4D50EE0FFF710FD009007E0FFF70CFDE8
:1018D0000099411A41F28830814256D83068800719
:1018E000F4D42FB1DBF8001021F08051CBF80010B8
:1018F000A069C8B33D49091D0968C1F381010229E6
:101900004AD00228504607D0C8F8600000E03CE00A
:10191000FFF7EAFC04463BE04746C8F86000FFF7E3
:10192000E3FC064605E000BFFFF7DEFC801B022853
:101930002BD828688001F7D4D4E907010843A16AAD
:101940002E4A490802EB0141626A41EA82110843CA
:1019500094F82C1040EA0161C9F8001001203866A3
:10196000FFF7C2FC044606E03EE000BFFFF7BCFC08
:10197000001B022809D828688001F7D534E000BF91
:10198000FFF7B2FC001B022802D90320BDE8F88F44
:1019900028688001F4D427E00128F7D0D9F80000A6
:1019A000E26900F4800191421CD1226A00F03F01FB
:1019B000914217D147F6C071626A0140B1EB821FB4
:1019C00010D1A26A4FF0FF3300F4403103EB520212
:1019D000B1EB024F06D194F82C1000F07060B0EB20
:1019E000016F01D00120D1E70020CFE70438024089
:1019F00000004742800E4742007000400000FFFF99
:101A00007047704710B590F83C20012A22D001227F
:101A100080F83C20CA688C6822F4407222434C68EB
:101A200022F4806222430C6822F4006222430C6993
:101A300022F4805222434C6922F400522243C969A5
:101A4000002322F480420A4301684A6480F83C3053
:101A5000002010BD022010BD70B590F83C20012A76
:101A60002CD0012480F83C40022280F83D200368FD
:101A70005A689D6822F070060A6832435A60104B1B
:101A800002689A420ED0B2F1804F0BD00D4B9A42B1
:101A900008D00D4B9A4205D00C4B9A4202D00C4B09
:101AA0009A4204D1496825F080031943916080F877
:101AB0003D40002180F83C10084670BD022070BDFA
:101AC000000001400004004000080040000C0040FD
:101AD0000040014010B5040003D094F83D0010B15F
:101AE00007E0012010BD002084F83C00204600F0F3
:101AF0001FF8022084F83D00211D206800F0F0FF4F
:101B0000012084F8460084F83E0084F83F0084F801
:101B1000400084F8410084F8420084F8430084F8CF
:101B2000440084F8450084F83D00002010BD00000A
:101B300008B500681149884212D11148016841F086
:101B4000010101600068002200F0010000900F21F7
:101B50001820FFF761FCBDE808401820FFF74EBCD5
:101B6000B0F1804F09D10648001F016841F0010122
:101B70000160006800F00100009008BD0000014015
:101B80004438024090F83D10012901D001207047EF
:101B9000022180F83D100168CA6842F00102CA6063
:101BA00000680E4988420ED0B0F1804F0BD00C492E
:101BB000884208D00B49884205D00B49884202D0A0
:101BC0000A49884204D1816801F00701062903D03F
:101BD000016841F0010101600020704700000140F0
:101BE0000004004000080040000C0040004001409C
:101BF00070B5044690F83C000025012817D0012656
:101C000084F83C60022084F83D002068826822F05D
:101C1000770222F47F4282600868502838D00DDCB9
:101C200020284FD005DC90B3102811D14AE00220C3
:101C300070BD302846D040280AD13BE060282FD024
:101C400070280DD0B0F5805F03D0B0F5005F12D0E2
:101C5000012584F83D60002084F83C00284670BDD2
:101C6000CB68D1E90121206800F086FF20688168F7
:101C700041F0770109E0CB68D1E90121206800F04B
:101C80007BFF2068816841F480418160E1E719E0D1
:101C9000CA684968206801F023F85021206806E0EE
:101CA000CA684968206801F02CF86021206800F0BB
:101CB0006DFFCEE7CA684968206801F011F840213D
:101CC0002068F4E7226801461046F0E72DE9F0416C
:101CD0000D46040003D094F83D0018B108E001203F
:101CE000BDE8F081002084F83C00204600F040F878
:101CF000022084F83D002068816844F20702914385
:101D00008160211D206800F0EBFE226890689169D7
:101D1000166A2B68AF69034340F20330814341EAFE
:101D20000721A868EF6908434FF6FC418843E9683A
:101D300040EA0720014328692F6A000140EA073082
:101D4000084369686D6926F0AA0646EA0515294325
:101D500093602268906154F8460B0162012004F8F8
:101D60001F09E0752076E0762077A0750020B7E7A0
:101D700070B586B0044614216846FEF79FFB2568BF
:101D80002B4C2A4E00222A4B103C02212948B542F6
:101D900011D11D6845F002051D601B6803F00203A8
:101DA0000593236843F002032360236803F00203D2
:101DB0000593302313E0204EB5421BD11D6845F03A
:101DC00004051D601B6803F004030593236843F0BA
:101DD00002032360236803F002030593C0230093EA
:101DE000CDE90112CDE903214FEA0D01FFF78CF98E
:101DF00006B070BD11488542FAD1186840F008005D
:101E00001860186800F008000590206840F0010094
:101E10002060206800F00100059003208DE8070095
:101E2000CDE9032169460648E0E7000000040040D0
:101E3000403802400004024000080040000C00400E
:101E400000000240704770B50446006801694FF019
:101E50000005C943890715D4C168C943890711D44E
:101E6000E91E0161012020772068806980072046F3
:101E700002D0FFF7E7FF04E000F0E8F8204600F0AA
:101E80007AF9257720680169C943490717D4C168E1
:101E9000C943490713D46FF0040101610220207780
:101EA0002068806910F4407F204602D0FFF7CAFF07
:101EB00004E000F0CBF8204600F05DF925772068BB
:101EC0000169C943090716D4C168C943090712D477
:101ED0006FF008010161042020772068C069800745
:101EE000204602D0FFF7AEFF04E000F0AFF8204636
:101EF00000F041F9257720680169C943C90617D464
:101F0000C168C943C90613D46FF0100101610820EC
:101F100020772068C06910F4407F204602D0FFF788
:101F200091FF04E000F092F8204600F024F92577B4
:101F300020680169C943C90708D1C168C943C907F5
:101F400004D1891E0161204600F016F9206801695C
:101F5000C943090609D4C168C943090605D46FF00D
:101F6000800101612046FFF74BFD20680169C943EC
:101F7000490609D4C168C943490605D46FF0400138
:101F80000161204600F002F920680169C943890611
:101F90000BD4C168C943890607D46FF020010161E1
:101FA0002046BDE87040FFF72CBD70BD70B586B00F
:101FB000044614216846FEF781FA204B226800246B
:101FC0001F49022501261F489A420ED10A6842F095
:101FD00001020A60096801F0010105914FF41061E6
:101FE0000091CDE90154694622E0B2F1804F23D13E
:101FF0000A6842F001020A600A6802F001020592D2
:102000000A6842F002020A60096801F002010591C3
:1020100048F20C010091CDE90154CDE9034669462F
:10202000FFF772F808200090CDE901540648694690
:10203000CDE90346FFF768F806B070BD0000014027
:10204000303802400000024000040240704770B582
:10205000044690F83C0000260D4601280FD00120D0
:1020600084F83C006AB1042A1DD0082A2FD00C2A1B
:102070003FD00126002084F83C00304670BD02208D
:1020800070BD206800F08AFD2068816941F0080178
:1020900081612068816921F0040181612068816982
:1020A0002A69114311E0206800F0A0FD20688169D1
:1020B00041F4006181612068816921F4806181615E
:1020C000206881692A6941EA02218161D2E720689A
:1020D00000F0B8FD2068C16941F00801C1612068C5
:1020E000C16921F00401C1612068C1692A691143F5
:1020F00011E0206800F0D2FD2068C16941F4006160
:10210000C1612068C16921F48061C1612068C16931
:102110002A6941EA0221C161ACE710B5040003D08D
:1021200094F83D0010B107E0012010BD002084F8B4
:102130003C00204600F01EF8022084F83D00211DDE
:10214000206800F0CDFC012084F8460084F83E00B1
:1021500084F83F0084F8400084F8410084F842008D
:1021600084F8430084F8440084F8450084F83D0076
:10217000002010BD7047704700680349884201D1B4
:10218000FFF7B8B870470000004001407047704743
:1021900070470000F8B5016804460868CA684B69D2
:1021A00010F00F0F4FF000055AD003F0010602F4B3
:1021B0009077374365D0C10705D0D10503D5216C91
:1021C00041F001012164410705D5D90703D0216CF5
:1021D00041F002012164810705D5D90703D0216CA4
:1021E00041F004012164010707D502F020013143C9
:1021F00003D0216C41F008012164216C00293BD0FF
:10220000800604D5900602D5204600F0BBFD20686C
:102210004069216CC0F3801001F0080101432046A1
:102220002BD000F088FD20684069400621D5206849
:10223000143050E8001F21F0400140E80012002A4D
:10224000F5D1A06BA8B16C490165A06BFEF7D7FD75
:10225000002811D0A06B016D01B0BDE8F040084727
:1022600083060ED593060CD52046BDE8F84000F055
:1022700089BD2046FFF78CFFF8BDFFF789FF256475
:10228000F8BD266B2023012E79D1C60677D5D60658
:1022900075D50868486800904869400640D5A16B2C
:1022A000086840680004000CEAD0A28D8242E7D999
:1022B000E085C869B0F5807F2DD020680C3050E8EB
:1022C000001F21F4807140E80012002AF5D1206837
:1022D000143050E8001F21F0010140E80012002AEC
:1022E000F5D12068143050E8001F21F0400140E88B
:1022F0000012002AF5D184F83E30256320680C30A6
:1023000050E8001F21F0100140E80012002AF5D12A
:10231000A06BFEF72BFDA08DE18D401A81B229E064
:10232000A08DE18D401A81B2E08D0028A8D000294F
:10233000A6D020680C3050E8002F22F4907240E8BC
:102340000026002EF5D12068143050E8002F22F02E
:10235000010240E80026002EF5D184F83E302563C6
:1023600020680C3050E8002F22F0100240E80023D3
:10237000002BF5D12046FFF70AFFF8BDFFE7050661
:102380002BD5150629D594F83D002128F5D1A06854
:10239000B0F5805F01D12069B0B1206A411C216293
:1023A000216800784860E08C401E0004000CE08446
:1023B000E3D12068C16821F08001C1602068C16854
:1023C00041F04001C160D8E7206A0088C0F30800EE
:1023D0004860206A801C2062E5E74006CDD55006A3
:1023E000CBD5CA68204622F04002CA6084F83D304E
:1023F00000F075F8C1E70000272D000870B5040053
:1024000004D094F83D00002510B106E0012070BD15
:1024100084F83C50204600F023F8242084F83D0046
:102420002068C16821F40051C160204600F00AFD17
:102430002068016921F4904101612068416921F01F
:102440002A0141612068C16841F40051C1602564DE
:10245000202084F83D0084F83E00002070BD00007C
:1024600010B586B0044614216846FEF727F81849CF
:102470002068884229D117480021026842F01002E2
:102480000260006800F010000590124814380268DD
:1024900042F001020260006800F0010005904FF474
:1024A000C06000900220CDE90101032003900720C5
:1024B000049069460848FEF727FE002205212520E2
:1024C000FEF7AAFF2520FEF799FF06B010BD000019
:1024D000001001404438024000000240704770473D
:1024E000FEE700002DE9FF4100242F4800940194ED
:1024F00002942C490394C0E900140125056184600D
:10250000057680F820402949C0E90A140626C661EC
:10251000C46080F830504561FEF706FB08B1FEF755
:10252000C0F904270097CDE9015469461E48FEF71B
:10253000BBF908B1FEF7B5F905240220CDE900404A
:1025400069461948FEF7B0F908B1FEF7AAF9032069
:10255000CDE9006069461448FEF7A6F908B1FEF718
:10256000A0F90720CDE9000769460F48FEF79CF95E
:1025700008B1FEF796F90820CDE9000469460A483B
:10258000FEF792F908B1FEF78CF90920CDE90006B3
:1025900069460548FEF788F9002801D0FEF781F961
:1025A000BDE8FF8100200140E00000200100000F95
:1025B000094808B5016841F4800101600068002203
:1025C00000F48000009005213820FEF725FFBDE8CB
:1025D00008403820FEF712BF3038024010B5044AD8
:1025E0000021044800F024FD0349486010BD0000AC
:1025F0009047000861290008000000200D4808B538
:10260000016841F080010160016801F080010091E2
:10261000016841F001010160016801F001010091D0
:10262000016841F002010160006800F002000090C2
:1026300008BD00003038024010B596B000240F9459
:1026400010941194129413941C2168461494FDF76D
:1026500035FF202107A8FDF731FF2D482B49C0E9A0
:1026600000144FF47A71C0E902410461446184614D
:10267000FFF730FA08B1FEF714F94FF480500F90CD
:102680000FA92348FFF7B4FA08B1FEF70AF920486A
:10269000FFF743FD08B1FEF704F9139413A91C4892
:1026A0001494FFF7D9F908B1FEF7FBF86020009009
:1026B0004FF4FA70CDE901040394049405940022C8
:1026C000694613480694FFF7C2FC08B1FEF7E9F823
:1026D0000C2269460E48FFF7BAFC08B1FEF7E1F894
:1026E0000794089409944FF400500A94CDE90B40E4
:1026F00007A907480E94FFF785F908B1FEF7D1F84E
:102700000348FFF753FC16B010BD00000000014065
:102710008801002010B58EB0002407940894099415
:102720000A940B941C2168460C94FDF7C7FE2B48B5
:102730004FF0804101600721C0E901144FF47A7124
:10274000C0E903148461FFF7C5F908B1FEF7A9F8E1
:102750004FF48050079007A92048FFF749FA08B1C5
:10276000FEF79FF81D48FFF7D8FC08B1FEF799F86F
:102770000B940BA919480C94FFF76EF908B1FEF7FA
:1027800090F8602000904FF4FA70CDE90104002227
:10279000694612480494FFF75AFC08B1FEF781F825
:1027A000042269460D48FFF752FC08B1FEF779F89C
:1027B000082269460948FFF74AFC08B1FEF771F89C
:1027C0000C2269460548FFF742FC08B1FEF769F89C
:1027D0000248FFF7EBFB0EB010BD0000D001002057
:1027E00010B58CB024216846FDF768FE0024164819
:1027F000099414490A94C0E900144FF6FF71C0E926
:102800000241046184610320CDE900040120CDE987
:1028100002040F210491CDE90540CDE90741694645
:102820000948FFF753FA08B1FEF73BF8099409A9E4
:1028300005480A94FFF710F9002801D0FEF731F897
:102840000CB010BD000400401802002010B58CB080
:1028500024216846FDF732FE0024164809941449E5
:102860000A94C0E900144FF6FF71C0E90241046107
:1028700084610320CDE900040120CDE902040F2189
:102880000491CDE90540CDE9074169460948FFF7C4
:102890001DFA08B1FEF705F8099409A905480A943C
:1028A000FFF7DAF8002801D0FDF7FBFF0CB010BDF0
:1028B000000800406002002010B58CB0242168465A
:1028C000FDF7FCFD00241648099414490A94C0E958
:1028D00000144FF6FF71C0E90241046184610320D6
:1028E000CDE900040120CDE902040F210491CDE9D6
:1028F0000540CDE9074169460948FFF7E7F908B106
:10290000FDF7CFFF099409A905480A94FFF7A4F839
:10291000002801D0FDF7C5FF0CB010BD000C004031
:10292000A80200200C4810B50A4901604FF4E131BB
:102930004160002181600C22C160C0E90412816104
:10294000C161FFF75BFD002803D0BDE81040FDF733
:10295000A8BF10BD00100140F0020020FEE7FEE716
:10296000122226492648FEF76FF908B1FDF799FFB4
:10297000224C0026234D243C2E80288844F82060D9
:10298000401C80B228800628F7D31C492E80288856
:10299000236800EB4002401C31F8227001EB8202F8
:1029A0003B4423605788636880B23B4463609788E8
:1029B000A36803283B44A360D788E3683B44E360F3
:1029C000178923693B442361528963691A44626110
:1029D0002880DCD3094A03232E800C3A288854F837
:1029E0002010B1FBF3F122F81010401C80B22880B7
:1029F0000628F3D3012000F0DFFABDE7BC00002079
:102A0000E00000200000002010B54FF0E020006939
:102A100001F002FD012803D0BDE8104001F030BAFA
:102A200010BD000030B593B030216846FDF746FD7B
:102A300014210CA8FDF742FD1C480025016841F057
:102A400080510160006800F08050119018480168C2
:102A500021F4404141F4004101600068022400F487
:102A6000404011900120039010200094069404909F
:102A7000CDE90750A820099004200A900B906846E1
:102A8000FEF708FE08B172B6FEE70CA90F2081E838
:102A900031000F9501210CA81095FEF7EFFC0028DE
:102AA00001D072B6FEE713B030BD000040380240DE
:102AB000007000400248016841F4700101607047F5
:102AC00088ED00E010B50448FFF7BDF9BDE81040FF
:102AD0000248FFF7B8B90000880100203403002045
:102AE000F0B502681D4B1E4C9F031E4D1E4E9842B2
:102AF00007D0B84205D0A04203D0A84201D0B042CE
:102B000004D122F0700C4A6842EA0C02984210D0BC
:102B1000B8420ED0A0420CD0A8420AD0B04208D091
:102B2000124CA04205D0124CA04202D0114CA0423F
:102B300003D122F44074CA6822434C6922F0800217
:102B4000224302608A68C2620A688262984201D1A6
:102B50000969016301214161F0BD000000000140ED
:102B60000004004000080040000C0040004001400C
:102B7000004401400048014010B5846842EA032245
:102B800024F47F440A432243826010BD826822F00D
:102B900070020A4342F007018160704730B5026A53
:102BA00022F001020262026A4368846924F073051C
:102BB0000C682C4322F002058A682A430A4DA84279
:102BC0000BD122F00805CA6823F440732A434D69EB
:102BD00022F004021D438B692B43436084614968E2
:102BE0004163026230BD00000000014030B5026A5E
:102BF00022F010020262026A436884690D6824F4BC
:102C0000E64444EA05248D6822F0200242EA0512D7
:102C10000B4DA8420ED1CD6822F0800242EA051287
:102C20004D6923F4406343EA85038D6922F0400235
:102C300043EA85034360846149688163026230BD71
:102C40000000014030B5026A22F480720262036A19
:102C50004268C46923F4007324F073050C682C43A4
:102C60008D6843EA05230C4DA8420ED1CD6823F4AC
:102C7000006343EA05234D6922F4405242EA0512FB
:102C80008D6923F4806342EA05124260C461496899
:102C9000C163036230BD00000000014030B5026A2C
:102CA00022F480520262046A4268C3690D6823F408
:102CB000E64343EA05238D6824F4005444EA0534CE
:102CC000064DA84204D14D6922F4804242EA8512A1
:102CD0004260C36149680164046230BD0000014084
:102CE00010B5036A046A24F001040462846924F0C4
:102CF000F00444EA021423F00A020A4384610262E7
:102D000010BD10B5036A23F0100303628369046ADF
:102D100023F4704343EA023224F0A00343EA011192
:102D20008261016210BD10B5806B0021C185C18434
:102D3000FFF72EFA10BD01680C3151E8002F22F484
:102D4000907241E80023002BF5D10168143151E85D
:102D5000002F22F0010241E80023002BF5D1016B86
:102D6000012909D101680C3151E8002F22F010022D
:102D700041E80023002BF5D1202180F83E100021EE
:102D80000163704708B590F83E10222901D0022057
:102D900008BD82684FF480539A4201D1016921B184
:102DA000816A9A421BD04AB10AE00268816A52687D
:102DB000C2F308020A80816A891C08E0026972B1C4
:102DC0000268526802F07F020A70816A491C8162BF
:102DD000C18D491E0904090CC18503D019E00268A0
:102DE0005268F1E70168CA6822F02002CA600168EF
:102DF000CA6822F48072CA6001684A6922F001023E
:102E00004A61202180F83E10016B012903D0FFF7B1
:102E100065FB002008BD0021016301680C3151E809
:102E2000002F22F0100241E80023002BF5D10168A9
:102E30000A68D20602D50A6849680091818DFFF7B9
:102E4000A6F9E6E770B5044600680169E26821F476
:102E50004051114301612169A068E2690843616939
:102E6000114308432168CA6849F20C639A4302433C
:102E7000CA6020684169A26921F44071114341612F
:102E800031492068884202D03049884202D1FEF799
:102E9000BFFB01E0FEF7ACFBE269002319216425CA
:102EA0003226B2F5004F626828D0A0FB0101930FD3
:102EB0009200FDF73FFA0146B0FBF5F06FF0180203
:102EC000504301EB800006EB0010B0FBF5F000F082
:102ED000F002B1FBF5F002EB0012B1FBF5F06FF080
:102EE0001803584301EB800006EB0010B0FBF5F02F
:102EF00000F00F0021681044886070BDA0FB010144
:102F000092185B41FDF716FA0146B0FBF5F002019D
:102F1000B1FBF5F06FF01803584301EB800006EBAE
:102F2000C000B0FBF5F000F0F80002EB4002B1FB8E
:102F3000F5F0584301EB800006EBC000B0FBF5F064
:102F400000F00700D6E70000001001400014014027
:102F50000148FFF71FB90000F0020020FEE7090753
:102F6000090E002804DB00F1E02080F8001470470F
:102F700000F00F0000F1E02080F8141D7047FEF70C
:102F8000C1F9FFF74FFDFFF739FBFFF711FBFFF723
:102F9000A9FAFFF751FBFFF7BDFBFFF721FCFFF795
:102FA00055FCFFF789FCFFF7BDFC00F013F8FFF7B5
:102FB00015FB00F021F8FEE710B5EFF3058111B124
:102FC0006FF0050403E0002408B100F0F9FD20468D
:102FD00010BD0000EFF3058010B16FF005007047E1
:102FE0000448016811B14FF0FF30704701210160C2
:102FF000002070476800002010B5EFF3058010B185
:103000006FF0050010BD08480168012902D04FF09B
:10301000FF3010BD054A002182F8141D0221016015
:1030200000F036FE002010BD680000200BE000E03C
:103030002DE9FF414FEA01034FF00005EFF3058151
:10304000039549BB40B38027182100244AB3166872
:1030500006B1344696691EB13146761E382E02D22C
:103060001679F60703D0002004B0BDE8F081566958
:1030700006B1B708D2F808C0BCF1000F0DD0D56872
:103080005C2D18D312693AB136B18DE806103A4674
:10309000214601F096F903900DE0D6685EB91269F9
:1030A0004AB903AACDE90012BAB2214601F05CF98F
:1030B000012800D003950398D6E700002DE9F041E0
:1030C000134C0F460546E6682068001D00F044FCDE
:1030D000681C07D137B12168BDE8F0410D48091DD2
:1030E00000F08ABC20683544B5424560216805D2AD
:1030F000A06BBDE8F041091D00F066BC606B091DC6
:1031000000F062FCA06A854200D2A562BDE8F081B1
:10311000180000206C0800202DE9F041054600F061
:1031200077FC2D4CA068401CA06020682B4F10B18C
:10313000606930B32BE02560A068012827D1002604
:1031400006EB860007EB800000F030FC761C382E82
:10315000F6D3234800F02AFC2148143000F026FC66
:103160001F48283000F022FC1D483C3000F01EFCB7
:103170001B48503000F01AFC194860631430A063FB
:1031800005E02068E96AC06A884200D82560606A64
:10319000401C60626864E86A2169884200D9206145
:1031A00000EB800007EB8000291D00F025FC00F0FB
:1031B0004FFC606900280CD02068E96AC06A884228
:1031C00007D208494FF080500860BFF34F8FBFF31C
:1031D0006F8FBDE8F081000018000020BC030020C4
:1031E0001C08002004ED00E038B500F011FC104C84
:1031F0002068C8B90F4800F0D9FB0E48143000F021
:10320000D5FB0C48E060143020610A4B0020F03BF5
:10321000009003F1500210210A2000F047FE2060C8
:1032200010B105A100F096FCBDE8384000F010BCDC
:103230005400002070090020546D725100000000FD
:1032400030B4026C0B46002A0BD0C1681144C16037
:103250008468A14201D30168C16030BC1846FDF703
:10326000E0B830BC70472DE9F041856B1746044645
:103270000026026C82B1C7B1E068FDF7D2F8E168C0
:10328000206C091AE1602268914202D2A168081AF2
:10329000E060022F16D017E02068A8B9A06801F0FE
:1032A00033F906460020A0600EE06068FDF7B9F82B
:1032B000216C606808446060A168884204D320687B
:1032C000606001E005B16D1E6D1CA5633046BDE870
:1032D000F08110B5044690F8590058B101280CD07F
:1032E00002280FD0502080F31188BFF34F8FBFF317
:1032F0006F8FFEE7206B00F0BFFB2046BDE810405B
:1033000000F0BABB10BD000010484FF470514207E6
:1033100006D0C01D0D4920F00700411AC1F57051BB
:103320000B4A00230144C2E900030839183A21F08E
:10333000070111604B600B600B1AC0E9001393602A
:103340004FF0004053605061704700005010002063
:1033500084000020144E154CA6F29C474FF0805874
:10336000DFF84C9012E000BF00F052FBF068C56837
:10337000281D00F0F1FAA068401EA0606068401EA1
:10338000606000F065FB2846FFF7A3FF6068002837
:10339000EAD138680128F9D9C9F80080BFF34F8F06
:1033A000BFF36F8FF2E700005808002018000020DC
:1033B00004ED00E070B51D46049C51B1C4F8002036
:1033C000C4E90F010121204600F0A4FD84F84C500F
:1033D00070BD2460F4E700002DE9F05F8846DDE968
:1033E0000B941546834691009A460A9EA522206BAF
:1033F000FDF75CF86FF00301206B01EB85010844D9
:1034000020F00707780707D0502080F31188BFF31A
:103410004F8FBFF36F8FFEE70025B8F1000F0FD07D
:103420005FF00000221818F8001082F8341018F825
:10343000001011B1401C1028F4D384F8435001E06F
:1034400084F83450382E00D33726E662C4E9136579
:10345000201D00F0B6FA04F1180000F0B2FA246161
:10346000C6F138006462A061656584F85850524620
:103470005946384600F05AFA2060B9F1000F01D0E1
:10348000C9F80040BDE8F09F30B5114900E0114691
:103490000A688242FBD34B685C18844203D14068BF
:1034A00018444860084643681C18944209D1084CE7
:1034B000183C2468A24209D052681A4442600A6843
:1034C00012680260814200D0086030BD0460F9E7F4
:1034D0008400002070B5002441600B4D00619142D2
:1034E00006D8D11A8269914206D2011D286907E0E7
:1034F0009A4203D2994201D3012403E0011DE868F6
:1035000000F062FA204670BD5400002010B5044659
:1035100000F07EFAA06B28B15FF0000400F098FA8A
:10352000204610BD0124F9E730B589B03C4D6EE06E
:103530000498002806DADDE90601059A9047049808
:10354000002864DB069C606910B1201D00F004FABD
:1035500003A800F0D7F8024604980A2857D2DFE8FB
:1035600000F00505052D334A05052D3394F8280094
:1035700040F0010084F828000599A069059B0144EA
:103580002046FFF7A7FF68B3216A2046884794F8D2
:10359000280040073BD5002000900598A169002332
:1035A00042181946204601F0B9F8D8B9502080F3E6
:1035B0001188BFF34F8FBFF36F8FFEE714F8280F0A
:1035C00020F00100207022E094F8280040F0010073
:1035D00084F828000598A06128B181181346204678
:1035E000FFF778FF13E0502080F31188BFF34F8F6F
:1035F000BFF36F8FFEE794F82800810703D42046BD
:1036000000F03AFA03E020F0010084F828000022DC
:1036100004A9286800F0D2FD002889D109B030BD86
:10362000540000202DE9FC410F46054600F074FBD4
:1036300001A800F067F80446019818B100F0DCFF1B
:10364000BDE8FC81254EAFB130690068D0B30027DA
:10365000291B3A46306800F091FA00F0CDFF0028AF
:10366000EED11F494FF080500860BFF34F8FBFF37A
:103670006F8FE5E7A542EBD800F0BEFFF068274664
:10368000C068C468201D00F067F994F8280041075D
:1036900019D5A0692B4641193A462046FFF71AFF73
:1036A000A8B100200346014600902A46204601F0BA
:1036B00035F860B9502080F31188BFF34F8FBFF306
:1036C0006F8FFEE707E020F0010084F82800216AF0
:1036D00020468847B4E70127BAE7000054000020DD
:1036E00004ED00E00648416B096829B1416BC968E7
:1036F000C9684968816270474FF0FF31FAE70000FE
:103700001800002070B5054600F094FE064E0446F1
:10371000B068844203D200F009F8012000E00020E4
:1037200028602046B46070BD54000020F8B5194DE3
:1037300020E0C068C4680668201D00F00DF9216A09
:103740002046884794F82800400713D5A0693044E4
:10375000B04206D924616060211DE86800F034F9A8
:1037600008E000200346014600903246204600F063
:10377000D5FF38B1E86801680029DAD12969C5E9BF
:103780000310F8BD502080F31188BFF34F8FBFF3B3
:103790006F8FFEE75400002008484068401C4FF03F
:1037A000500080F3118804D0BFF34F8FBFF36F8FA9
:1037B000FEE7BFF34F8FBFF36F8FFEE78C00002053
:1037C000074CE068016841B1C0680021D0F80000F2
:1037D000FFF728FFFFF7A8FEF3E701210020F7E736
:1037E000540000202DE9F041044600F011F994F94D
:1037F000455004F1240609E0606A48B1304600F003
:10380000C3FE08B100F00AFA6D1E6DB2002DF3DCA4
:103810004FF0FF3684F8456000F01AF900F0F8F830
:1038200094F9445004F1100709E0206948B1384682
:1038300000F0AAFE08B100F0F1F96D1E6DB2002D86
:10384000F3DC84F84460BDE8F04100F001B9000009
:103850002DE9F0410546002700F05EFA324E30684F
:1038600008B9FFF751FD706905424ED1C5B308355F
:1038700068070ED005F00700C0F10800054468078E
:1038800007D0502080F31188BFF34F8FBFF36F8FA5
:10389000FEE72DB37068854237D8234818300146BB
:1038A0000C6801E020460C466168A94202D22168FA
:1038B0000029F7D131688C4227D007682168016060
:1038C00060680837411B10290FD96019420708D0DA
:1038D000502080F31188BFF34F8FBFF36F8FFEE747
:1038E00013E041606560FFF7CFFD61687068401AC2
:1038F0007060B268904200D2B060706901430020ED
:10390000C4E90001F068401CF06000F075FE780723
:1039100007D0502080F31188BFF34F8FBFF36F8F14
:10392000FEE73846BDE8F0816C00002010B5031FAB
:103930004FF080741C601B1F21F001011960191FDA
:10394000044B0B6014390A60091F6FF002024438FF
:103950000A6010BD99370008D0E9013201699A6008
:10396000D0E901235A604A68824201D182684A60E4
:10397000002202610868401E086008687047000065
:10398000034B036003F15C00086080201060704707
:1039900098090020044B036003F15C0008604FF4B9
:1039A0008070106070470000F40B002000F10801E7
:1039B0004FF0FF32C0E90112C160016100210160D6
:1039C000704700210161704730B50B685A1C02D066
:1039D00000F1080202E0026904E02246546825680A
:1039E0009D42FAD953684B6099608A6051600861C2
:1039F0000168491C016030BD42684A6093688B6071
:103A000093685960916008610168491C01607047C2
:103A1000502080F31188BFF34F8FBFF36F8F0A4997
:103A20004868401C486001280CD10848006810F024
:103A3000FF0F07D0502080F31188BFF34F8FBFF3E3
:103A40006F8FFEE7704700008C00002004ED00E05F
:103A50000849486828B1401E486001D180F31188A8
:103A60007047502080F31188BFF34F8FBFF36F8FE3
:103A7000FEE700008C00002070B500282AD0164D0B
:103A8000A0F1080460686969084207D1502080F3FA
:103A90001188BFF34F8FBFF36F8FFEE722683AB1F3
:103AA000502080F31188BFF34F8FBFF36F8FFEE775
:103AB0008843606000F030F96068696808446860B5
:103AC0002046FFF7E1FC2869401C2861BDE87040F2
:103AD00000F092BD70BD00006C0000204FF0E020AF
:103AE00000210161816105494FF47A720968B1FBD7
:103AF000F2F1491E41610721016170471400002065
:103B000010B5FCF7F3FB114910280ED300F1E020AB
:103B100090F8F0030A78904207D2502080F3118881
:103B2000BFF34F8FBFF36F8FFEE7094800688968C6
:103B300000F4E060884207D9502080F31188BFF379
:103B40004F8FBFF36F8FFEE710BD00008C00002089
:103B50000CED00E010B5084B002200BF53F83240D6
:103B60001CB1521C082AF9D310BD43F8321003EBE4
:103B7000C201486010BD00007C03002070B51546EE
:103B80000E460446FFF744FF94F944100020491CF8
:103B900001D184F8440094F94510491C01D184F8FE
:103BA0004500FFF755FFA06B28B92A46314604F1BE
:103BB000240000F051F82046BDE87040FFF712BE27
:103BC00010B5020014D00F48006B38B1502080F3BC
:103BD0001188BFF34F8FBFF36F8FFEE700F09CF8A3
:103BE00000211046FFF76AFA00F006FD002807D111
:103BF00005494FF080500860BFF34F8FBFF36F8FC0
:103C000010BD00001800002004ED00E002490A6A1F
:103C10000260C96841607047180000200149012016
:103C2000C86170471800002010B50C4650B1094912
:103C300009681831FFF7C8FE2046BDE81040012191
:103C4000FFF73CBA502080F31188BFF34F8FBFF3CA
:103C50006F8FFEE71800002070B514460D4668B15E
:103C60000A4909681831FFF7C7FE0CB14FF0FF355C
:103C700021462846BDE87040FFF720BA502080F367
:103C80001188BFF34F8FBFF36F8FFEE7180000203E
:103C900030B587B00024039405AA04A903A80494AE
:103CA000FFF76EFEDDE903010094CDE9011000236A
:103CB00015A11748059A00F084FB164D0028E8620C
:103CC0001FD000F0FBFC012809D0401C19D1502066
:103CD00080F31188BFF34F8FBFF36F8FFEE7502043
:103CE00080F31188BFF34F8FBFF36F8F4FF0FF301A
:103CF000A86201206861EC6007B0BDE8304000F0C8
:103D000045B807B030BD000049444C4500000000F4
:103D100055330008180000200248016B491C01635C
:103D20007047000018000020164810B5016B11B153
:103D30000121C16110BD0021C1610169124A01E088
:103D4000B9B1491E01EB810352F82330002BF7D0A3
:103D500001EB810302EB830202F1080453685B6804
:103D60005360A34201D15B685360DA68026001616D
:103D700010BD502080F31188BFF34F8FBFF36F8FBA
:103D8000FEE7000018000020BC0300201CB53748E7
:103D90000168374A914207D1502080F31188BFF360
:103DA0004F8FBFF36F8FFEE700683149491E88428D
:103DB00007D1502080F31188BFF34F8FBFF36F8F6F
:103DC000FEE72C4908780190FF20087008788DF8EC
:103DD00000009DF800009DF8002000F0F0009042E7
:103DE00007D0502080F31188BFF34F8FBFF36F8F40
:103DF000FEE79DF80000204C00F0500020700720E6
:103E0000A06005E09DF8002052008DF80020401EC3
:103E10009DF800201206F5D4A060032807D050209A
:103E200080F31188BFF34F8FBFF36F8FFEE74FF41E
:103E30004070A060019808700C482030016841F47F
:103E400070010160016841F070410160FFF746FEBA
:103E500000206060FCF712FA0848016841F0404118
:103E60000160FCF7F7F900201CBD000000ED00E048
:103E700071C20F4100E400E08C00002034EF00E04C
:103E800010B5502080F31188BFF34F8FBFF36F8FB1
:103E900000F0D6FA18B104494FF0805008600020B5
:103EA00080F3118810BD000004ED00E038B5049DDA
:103EB00018B153B1CAB181B120E0502080F311880C
:103EC000BFF34F8FBFF36F8FFEE7502080F3118851
:103ED000BFF34F8FBFF36F8FFEE7502080F3118841
:103EE000BFF34F8FBFF36F8FFEE739B1502080F3E0
:103EF0001188BFF34F8FBFF36F8FFEE750241C462E
:103F0000012384F846302B460094FFF753FA2046ED
:103F100038BD000070B50D46040025D0FFF778FDD0
:103F2000D4E90F20216802FB0011A1600021A163E8
:103F3000216861600A46D4E90F01401E00FB01219F
:103F4000E16021464FF0FF3001F8440F487004F162
:103F500010008DB1FFF72AFD04F12400FFF726FDC4
:103F6000FFF776FD012070BD502080F31188BFF36C
:103F70004F8FBFF36F8FFEE721690029F0D000F06B
:103F800003FB0028ECD004494FF080500860BFF3D9
:103F90004F8FBFF36F8FE3E704ED00E02DE9FF479C
:103FA00082B01D468A464FF00008040003D0BAF1E3
:103FB000000F08D011E0502080F31188BFF34F8F1D
:103FC000BFF36F8FFEE7206C38B1502080F311886B
:103FD000BFF34F8FBFF36F8FFEE7022D0AD1E06B67
:103FE000012807D0502080F31188BFF34F8FBFF313
:103FF0006F8FFEE700F010FA3F4F4FF000094FF0CF
:10400000805648B9049838B1502080F31188BFF326
:104010004F8FBFF36F8FFEE7FFF7FAFCA06BE16BEA
:10402000884207D3022D05D00498D0B1B8F1000F13
:104030001AD01EE02A4651462046FFF714F9616A5D
:1040400019B104F1240000F09FFA20B13E60BFF3E3
:104050004F8FBFF36F8FFFF7FBFC012006B0BDE869
:10406000F087FFF7F5FC22E06846FFF7CFFD4FF041
:104070000108FFF7EDFCFFF74FFEFFF7C9FC94F9CD
:104080004400401C01D184F8449094F94500401C40
:1040900001D184F84590FFF7DBFC04A9684600F0E5
:1040A00029F930B12046FFF79DFB00F0A5FA00206A
:1040B000D4E7FFF7ADFCA06BE16B884213D1FFF7AB
:1040C000C7FC04F110000499FFF7AEFD2046FFF78E
:1040D00089FB00F091FA00289ED13E60BFF34F8F1C
:1040E000BFF36F8F98E7FFF7B3FC2046FFF77AFB2B
:1040F00000F082FA90E7000004ED00E02DE9F047BF
:104100001F4690468946040003D0B9F1000F08D03D
:1041100011E0502080F31188BFF34F8FBFF36F8FF2
:10412000FEE7206C38B1502080F31188BFF34F8F29
:10413000BFF36F8FFEE7022F0AD1E06B012807D093
:10414000502080F31188BFF34F8FBFF36F8FFEE7CE
:10415000FFF7D6FC5020EFF3118680F31188BFF3F0
:104160004F8FBFF36F8FA06BE16B884206D3022F96
:1041700004D0002086F31188BDE8F08794F94550FB
:10418000A06B3A4649462046FFF76DF8681C04D0FC
:104190006D1C84F845500120ECE7606A0028FAD0D5
:1041A00004F1240000F0F0F90028F4D0B8F1000F79
:1041B000F1D00121C8F80010EDE700002DE9F74724
:1041C000002683B08A46040003D0BAF1000F08D05D
:1041D00011E0502080F31188BFF34F8FBFF36F8F32
:1041E000FEE7206C38B1502080F31188BFF34F8F69
:1041F000BFF36F8FFEE700F00FF9DFF8F4804FF0A8
:1042000000094FF0805748B9059838B1502080F325
:104210001188BFF34F8FBFF36F8FFEE7FFF7F8FBF7
:10422000A56BC5B151462046FFF70AF86D1EA56380
:10423000206950B104F1100000F0A6F928B1C8F8C7
:104240000070BFF34F8FBFF36F8FFFF701FC0120AA
:1042500006B0BDE8F087059808B11EB106E0FFF78B
:10426000F7FB27E06846FFF7D1FC0126FFF7F0FBDC
:10427000FFF752FDFFF7CCFB94F94400401C01D13D
:1042800084F8449094F94500401C01D184F845908D
:10429000FFF7DEFB05A9684600F02CF80028204651
:1042A0000AD0FFF79FFA00F0A7F92046FFF72EF992
:1042B0000028B3D00020CBE7FFF728F990B104F134
:1042C00024000599FFF7B0FC2046FFF78BFA00F0B9
:1042D00093F90028A2D1C8F80070BFF34F8FBFF345
:1042E0006F8F9BE72046FFF77DFA00F085F995E791
:1042F00004ED00E02DE9F0410C46050011D0C4B1F9
:10430000FFF786FB174BDA686E682068911B471C25
:1043100017D02F681B6A9F4219D0964217D80124E4
:1043200010E0502080F31188BFF34F8FBFF36F8FE1
:10433000FEE7502080F31188BFF34F8FBFF36F8FDC
:10434000FEE70024FFF784FB2046BDE8F0818842A9
:1043500005D9401A20602846FFF758FCF1E70020F5
:104360002060DCE7180000202DE9FF5F8346DDE9CF
:104370000E87994616468A469000FFF769FA0500AF
:104380001CD05C20FFF764FA040014D000202563E1
:1043900084F85900CDE90240CDE900874B4632460A
:1043A00051465846FFF718F82046FEF7B5FE0120A3
:1043B00004B0BDE8F09F2846FFF75EFB4FF0FF30EA
:1043C000F6E7F0B585B0DDE90B640A9DA6B1DCB176
:1043D0005C2700972663022684F85960002604AF04
:1043E000CDE90246CDE90057FEF7F6FF2046FEF77D
:1043F00093FE049805B0F0BD502080F31188BFF300
:104400004F8FBFF36F8FFEE7502080F31188BFF30B
:104410004F8FBFF36F8FFEE70548416919B1006BFD
:1044200018B100207047012070470220704700003B
:10443000180000200148C0687047000018000020E4
:104440002DE9F0412E4C0027206B28B1A069401CBB
:10445000A0613846BDE8F081E668761CE66013D1BD
:10446000606B006838B1502080F31188BFF34F8F24
:10447000BFF36F8FFEE7606BA16B6163A063206A7F
:10448000401C2062FFF72EF9A06ADFF87880864290
:1044900009D3606B0068A0B1606BC068C5686868CC
:1044A000864211D2A0622068C06A00EB800158F8F1
:1044B0002100012800D90127E0690028C9D001277F
:1044C000C7E74FF0FF30EDE7281DFFF745FAA86A70
:1044D00018B105F11800FFF73FFAE86A2169884230
:1044E00000D9206100EB800108EB8100291DFFF756
:1044F00083FAE86A2168C96A8842CAD30127C8E7F3
:1045000018000020BC03002070B504004FF000012B
:1045100033D01B4D2868844207D0502080F3118887
:10452000BFF34F8FBFF36F8FFEE7206D38B1401E92
:104530002065E36CE26A9A421FD040B11DE0502032
:1045400080F31188BFF34F8FBFF36F8FFEE7201DFD
:10455000FFF702FAE06CE062C0F13800A061E06AA7
:104560002969884200D92861064900EB800001EBE7
:104570008000211DFFF740FA0121084670BD0000B0
:1045800018000020BC03002070B5C068C46854B196
:1045900004F118000646FFF7DFF9144D286B50B1FF
:1045A0003146134815E0502080F31188BFF34F8F38
:1045B000BFF36F8FFEE7201DFFF7CEF9E06A296990
:1045C000884200D928610B4900EB800001EB800094
:1045D000211DFFF711FAE06A2968C96A884202D9E9
:1045E0000120E86170BD002070BD000018000020AF
:1045F00044080020BC0300202DE9F0472C4D002486
:104600002746286B38B1FFF703FA286B401E286352
:10461000286B40B146E0502080F31188BFF34F8FE4
:10462000BFF36F8FFEE7A968224E0120D1B3A6F534
:10463000916980463068E0B1F068C46804F1180000
:10464000FFF78AF9201DFFF787F9E06A2969884298
:1046500000D9286100EB800109EB8100211DFFF7E3
:10466000CBF9E06A2968C96A8842E3D3C5F81C809F
:10467000E0E70CB1FFF736F8AC694CB14FEA080639
:10468000FFF7DEFE00B1EE61641EF9D10020A861E3
:10469000E86938B10849012738070860BFF34F8F30
:1046A000BFF36F8FFFF7D4F93846BDE8F0870000FD
:1046B000180000204408002004ED00E010B586B08A
:1046C000FEF792FD114C2068B8B1002003900490D1
:1046D00005AA04A903A8FFF75DF9DDE9032102207B
:1046E0008DE8070000230AA10B48059AFFF769FE31
:1046F000606010B106B0012010BD502080F3118819
:10470000BFF34F8FBFF36F8FFEE700005400002010
:10471000546D722053766300C13700082DE9FF41C4
:104720001E46134602000A9D4FF0000016D0144C9E
:104730002768002F0FD0CDE900130292062917DA5F
:10474000FFF76AFE02284FF000030FD000226946EF
:104750002068FFF723FC04B0BDE8F081502080F30F
:104760001188BFF34F8FBFF36F8FFEE72A46EEE746
:104770000023324669463846FFF7C0FCEBE70000ED
:10478000540000204FF04070E1EE100A7047000026
:10479000D4470008000000000000000000000000F6
:1047A00000000000000200001800000000000000EF
:1047B00000000000000610160006101600000000A1
:1047C00000000000010203040607080900000000C1
:1047D0000102030464656661756C745461736B0057
:1047E000004800080000002098000000D0010008E8
:1047F000984800089800002018520000EC010008BA
:104800000000000000000000010000001000000097
:10481000000000000024F400000000000000000080
:104820000000000000000000000000000000000088
:104830000000000000000000000000000000000078
:104840000000000000000000000000000000000068
:104850000000000000000000000000000000000058
:104860000000000000000000000000000000000048
:104870000000000000000000000000000000000038
:104880000000000000000000000000000000000028
:08489000AAAAAAAA0000000078
:040000050800019559
:00000001FF
