:020000040800F2
:1000000078500020FD02000867140008AD130008B6
:100010006514000885070008191700080000000093
:100020000000000000000000000000003D02000889
:100030008707000800000000990200086914000802
:100040001703000817030008170300081703000828
:100050001703000817030008170300081703000818
:100060001703000817030008170300081703000808
:1000700017030008170300081703000817030008F8
:10008000170300081703000817030008000000000A
:10009000000000000000000000000000170300083E
:1000A00017030008151500081703000817030008B8
:1000B00017030008170300081703000817030008B8
:1000C00017030008170300081703000817030008A8
:1000D00017030008170300081703000800000000BA
:1000E00017030008170300081703000800000000AA
:1000F00000000000000000000000000017030008DE
:100100000000000017030008170300081703000889
:1001100000000000000000000000000000000000DF
:100120001703000817030008170300081703000847
:10013000170300080000000000000000000000009D
:10014000000000000000000000000000170300088D
:100150001703000817030008170300081703000817
:10016000170300081703000800000000000000004B
:10017000000000000000000000000000000000007F
:10018000000000001703000800000000000000004D
:100190001703000800F002F800F041F80AA090E808
:1001A000000C82448344AAF10107DA4501D100F032
:1001B00036F8AFF2090EBAE80F0013F0010F18BFBE
:1001C000FB1A43F001031847F82D0000182E000019
:1001D000103A24BF78C878C1FAD8520724BF30C873
:1001E00030C144BF04680C60704700000023002445
:1001F00000250026103A28BF78C1FBD8520728BF37
:1002000030C148BF0B607047732900F002820020A4
:1002100070471FB502F0C2FE1FBD10B510BD00F043
:100220007FFA1146FFF7F5FF01F092FA00F09DFA10
:1002300003B4FFF7F2FF03BC01F07FFA2C4B1968FF
:100240000868B0E8F04F80F30988BFF36F8F4FF074
:10025000000080F311887047000000000848006823
:10026000006880F308884FF0000080F3148862B6BD
:1002700061B6BFF34F8FBFF36F8F00DF00BF00BFCA
:1002800008ED00E0DFF80C00016841F47001016046
:10029000704700BF88ED00E0EFF30980BFF36F8F78
:1002A000134B1A681EF0100F08BF20ED108A20E9CA
:1002B000F04F106009B44FF0500080F31188BFF385
:1002C0004F8FBFF36F8F02F03BF94FF0000080F3C8
:1002D000118809BC19680868B0E8F04F1EF0100FCB
:1002E00008BFB0EC108A80F30988BFF36F8F7047A6
:1002F00034000020EFF30580704700000948804774
:1003000009480047FEE7FEE7FEE7FEE7FEE7FEE7F7
:10031000FEE7FEE7FEE7FEE704480549054A064B0F
:10032000704700000515000895010008784A002074
:1003300078500020784C0020784C0020704753EA19
:10034000020C00F069802DE9F04B4FF00006002B05
:100350001FBFB3FA83F503FA05F424FA05F65E40ED
:1003600012BF1643B2FA82F502FA05F4C5F1200570
:100370001EBF22FA05FC44EA0C04203556EA044C60
:100380004FEA144418BF641C4FF000084FF00009F6
:10039000904271EB030C39D3002919BFB1FA81F7F0
:1003A00001FA07F6B0FA80F700FA07F6C7F120075E
:1003B0001EBF20FA07FC46EA0C062037B6FBF4FC09
:1003C000A7EB0507103F07F01F0BCBF120060CFA37
:1003D0000BFB2CFA06F644BFB3460026202FA4BF21
:1003E0005E464FF0000B5BEA060C08BF4FF0010BB6
:1003F00019EB0B09ABFB027C48EB0608C01B06FBA4
:1004000002CC0BFB03CC71EB0C01C1E70B4602469F
:1004100041464846BDE8F08B13B54FF000004FF061
:100420000001AFF30080BDE81C4070470FB40449E1
:1004300010B503AA029800F0F1F810BC5DF814FBA7
:10044000200000202DE9F0410E46044600202062E5
:100450002046E168884730B3252805D0D4E901213A
:100460009047206A401CF2E7E16820460027884751
:10047000050018D0A5F14100192802D820354FF405
:1004800000673246294620462760FFF7BDFE40B18F
:10049000012804D0F61D26F007060836D8E7361DD9
:1004A000D6E72846DAE7206ABDE8F08170B50C4649
:1004B0000546012A05D02878800600D5EA69002380
:1004C00002E0012305E05B1C934202D2E05C0028BD
:1004D000F9D1A869E618C01AA861286A18442862E8
:1004E0002846AFF3008004E0D5E9012114F8010BA0
:1004F0009047B442F8D32846AFF3008070BD032A7A
:1005000040F2308010F0030C00F0158011F8013B30
:10051000BCF1020F624498BF11F801CB00F8013B17
:1005200038BF11F8013BA2F1040298BF00F801CBDB
:1005300038BF00F8013B11F0030300F08180083A56
:10054000C0F0088051F8043B083A51F804CBA0E809
:100550000810F5E7121D5CBF51F8043B40F8043B5E
:10056000AFF30080D20724BF11F8013B11F801CB93
:1005700048BF11F8012B24BF00F8013B00F801CB64
:1005800048BF00F8012B704702F0FF0343EA032243
:1005900042EA024200F088B84FF0000200B513466C
:1005A00094469646203922BFA0E80C50A0E80C5093
:1005B000B1F12001BFF4F7AF090728BFA0E80C5044
:1005C00048BF0CC05DF804EB890028BF40F8042B3D
:1005D00008BF704748BF20F8022B11F0804F18BFAA
:1005E00000F8012B7047704770477047704710B58F
:1005F000436913B1AFF3008001E0FFF757FF01201B
:1006000010BD127800F124010A7000224A70012204
:10061000EDE711684FF0FF32E9E70000074B70B5D6
:100620000D467B4400F065F80446284600F074F857
:1006300010B14FF0FF3070BD204670BD17110000A3
:1006400010B5203AC0F00B80B1E81850203AA0E86D
:100650001850B1E81850A0E81850BFF4F5AF5FEAA1
:10066000027C24BFB1E81850A0E8185044BF18C954
:1006700018C0BDE810405FEA827C24BF51F8043BFB
:1006800040F8043B08BF7047D20728BF31F8023B4F
:1006900048BF11F8012B28BF20F8023B48BF00F8E3
:1006A000012B70474FF000020429C0F0128010F0B7
:1006B000030C3FF473AFCCF1040CBCF1020F18BF74
:1006C00000F8012BA8BF20F8022BA1EB0C01FFF7CB
:1006D00065BF5FEAC17C24BF00F8012B00F8012B45
:1006E00048BF00F8012B704701694A1C0261087875
:1006F000704700B58FB0CDE9013100210591054962
:100700007944CDE9031011466846FFF79BFE0FB010
:1007100000BD0000E5FFFFFF007B00F08000704798
:10072000754600F02BF8AE4605006946534620F0AA
:100730000700854618B020B5FFF7EEFDBDE8204064
:100740004FF000064FF000074FF000084FF0000B8D
:1007500021F00701AC46ACE8C009ACE8C009ACE840
:10076000C009ACE8C0098D46704710B50446AFF328
:1007700000802046BDE81040FFF75ABD0048704792
:10078000144A0020FEE7704772B6FEE72DE9F84FE5
:10079000DFF8B8A10022012403254FF00F090AF168
:1007A000040BAAF1040E00BF0B6804FA02F63340F2
:1007B000B34273D10F7907F00307012F01D0022F45
:1007C00016D187684FEA420805FA08FC27EA0C07A9
:1007D000D1F80CC00CFA08FC4CEA070CC0F808C0B1
:1007E0004768B7430E79C6F3001696403E4346600D
:1007F0000E79F643B6070DD0C768560005FA06FC19
:1008000027EA0C07D1F808C00CFA06FC4CEA070CE2
:10081000C0F80CC00E7906F00306022E10D1D608DF
:1008200000EB8608D8F8206057074FEAD76C09FA22
:100830000CF7BE430F6907FA0CF73743C8F820706E
:1008400006684FEA420C05FA0CF7BE430F7907F031
:10085000030707FA0CF7374307604E6816F4403F6A
:100860006DD03B4E376847F480473760366822F0DA
:10087000030706F480460096364E07EB060CDCF8BC
:10088000086897073F0F09FA07F826EA0806DFF815
:10089000C880404503D14FF000081EE04FE0DFF86C
:1008A000BC80404502D14FF0010816E0DFF8B0806F
:1008B000404502D14FF002080FE0DFF8A880404524
:1008C00002D14FF0030808E0DFF89C80404502D1D8
:1008D0004FF0040801E04FF0070808FA07F848EA6B
:1008E0000608CCF80888DAF800605746D1F804C04A
:1008F0009E435FEACC2C00D51E433E60DBF80060CF
:100900005F46D1F804C09E435FEA8C2C00D51E439D
:100910003E60DEF800607746D1F804C09E435FEA8F
:100920008C3C00D51E433E60084F083F3E68D1F81E
:1009300004C09E435FEACC3C00D51E433E60521C7F
:10094000102AFFF431AFBDE8F88F0000083C0140E9
:1009500044380240003001400000024000040240E0
:1009600000080240000C0240001002400AB1816100
:1009700070470904FBE700000148806870470000E9
:100980002400002002488168027811448160704789
:10099000240000200B4810B5016841F4007101608B
:1009A000016841F480610160016841F48071016077
:1009B000032000F099F80F2000F006F800F04AF844
:1009C000002010BD003C024030B505461C4887B0F1
:1009D0000024016841F001010160006806A900F0EF
:1009E0000100009001A800F02BF900F059F9154919
:1009F000154AB0FBF1F11548491E026040F2E7329A
:100A0000C0E90324C0E90114846100F043FB040041
:100A100012D10E4800F06CFB04000DD1192000F03B
:100A200035F8102D07D200222946192000F03CF895
:100A30000748056000E0012407B0204630BD0000F3
:100A40004438024040420F0000000140F8000020FE
:100A5000280000200C4882B0016841F48041016008
:100A6000006800F4804000900748001F016841F0D2
:100A7000805101600068002200F0805000900F213A
:100A8000901E02B000F010B844380240002809DB84
:100A900000F01F02012191404009800000F1E02098
:100AA000C0F8001170470000F0B40E4B1B680C46F4
:100AB000C3F30223C3F10705042D00D90425191D32
:100AC000072901D2002300E0DB1E012606FA05F10A
:100AD000491E214099409E40761E16403143F0BC8D
:100AE00000F01BBE0CED00E0064900F007020868AC
:100AF0004FF6FF03184040EA0220034A1043086003
:100B0000704700000CED00E00000FA052DE9F04709
:100B10000E46050065D0DFF81481D8F80000F7B262
:100B200000F00700B04207D288F80070D8F8000043
:100B300000F00700B04254D128683D4C810712D51F
:100B4000400703D5206840F4E05020602878000773
:100B500003D5206840F4604020602068A96820F038
:100B6000F000084320602878C0072DD0304968681D
:100B70000839012812D0022813D0032811D009689F
:100B8000890700292DDA216821F003010143216042
:100B9000FFF7F2FE814641F2883A0EE009688903C8
:100BA000EFE709688901ECE7FFF7E6FEA0EB090132
:100BB000514502D90320BDE8F0872068696800F03C
:100BC0000C00B0EB810FEFD1D8F80010404601F0D7
:100BD0000701B14207D90770006800F00700B04272
:100BE00001D00120E7E72878400705D52068E968AB
:100BF00020F4E050084320602878000706D52068DC
:100C0000296920F4604040EAC100206000F058F8F3
:100C10002168084AC1F30311515CC84006490860C5
:100C200006480068FFF7D0FE0020C4E7003C024001
:100C300008380240A62F00083000002028000020BD
:100C40000F2202600C4A136803F003034360136829
:100C500003F0F0038360136803F4E053C360126889
:100C60004FF4E05303EAD20202610448006800F046
:100C7000070008607047000008380240003C02404E
:100C80000448054900680968044AC1F38221515C9F
:100C9000C84070473000002008380240B62F0008D6
:100CA0000448054900680968044AC1F34231515CAF
:100CB000C84070473000002008380240B62F0008B6
:100CC000154810B5006810F00C02144813D01449F0
:100CD000042A0FD0082A0ED10F4C241F2268236843
:100CE00002F03F025B0207D52068C0F38810A0FB2A
:100CF000010106E0084610BD2168C1F38811A1FB7F
:100D000000010023FFF71BFB2168C1F30141491CCF
:100D10004900B0FBF1F010BD083802400024F40097
:100D200040787D012DE9F84F04006ED02078DFF87F
:100D30004C93C007A9F104054AD009F104000168E9
:100D4000C1F38101012908D00068C0F381000228A5
:100D50000AD1D9F80000400206D52868800337D5AB
:100D600060680028E1D033E06068B0F5803F10D0C3
:100D7000B0F5A02F286810D020F4803028602868B3
:100D800020F4802028606068A8B1FFF7F5FD0646D2
:100D90000DE0286840F48030F4E740F480202860BB
:100DA000F7E700BFFFF7E8FD801B642873D82868C9
:100DB0008003F7D50CE0FFF7DFFD064605E000BF36
:100DC000FFF7DAFD801B6428F0D828688003F7D489
:100DD0002078DFF8AC8280074FF0000A3ED5A748A4
:100DE000001D016811F00C0F08D00068C0F38100ED
:100DF00002280BD1D9F80000400207D428688007E8
:100E000016D5E068012800D112E033E1E068B8B1FE
:100E10000120C8F80000FFF7AFFD064605E000BF5F
:100E2000FFF7AAFD801B0228C0D828688007F7D5E5
:100E30002868216920F0F80040EAC10028600DE030
:100E4000C8F800A0FFF798FD064604E0FFF794FD00
:100E5000801B02281FD828688007F7D42078000755
:100E600022D5864F87486169703771B101210160D1
:100E7000FFF782FD064604E0FFF77EFD801B022897
:100E800009D838688007F7D50EE0C0F800A0FFF752
:100E900073FD064605E082E0FFF76EFD801B022829
:100EA0007DD838688007F7D42078400768D5DFF808
:100EB000CCB100270BF13C0BDBF80000C0000BD4D9
:100EC000DBF8001041F08051CBF80010DBF8000097
:100ED000012700F0805000906B4E3068C00510D4A0
:100EE000306840F480703060FFF746FD009005E008
:100EF000FFF742FD0099401A022850D83068C0051B
:100F0000F6D55E4EA0686C3601280FD005283068F3
:100F100010D020F001003060306820F00400306014
:100F2000A068B8B1FFF728FD00900FE0306840F0EE
:100F30000100F4E740F004003060F7E7FFF71CFD24
:100F40000099411A41F28830814266D830688007A2
:100F5000F4D50EE0FFF710FD009007E0FFF70CFD61
:100F60000099411A41F28830814256D83068800792
:100F7000F4D42FB1DBF8001021F08051CBF8001031
:100F8000A069C8B33D49091D0968C1F3810102295F
:100F90004AD00228504607D0C8F8600000E03CE084
:100FA000FFF7EAFC04463BE04746C8F86000FFF75D
:100FB000E3FC064605E000BFFFF7DEFC801B0228CD
:100FC0002BD828688001F7D4D4E907010843A16A27
:100FD0002E4A490802EB0141626A41EA8211084344
:100FE00094F82C1040EA0161C9F80010012038661D
:100FF000FFF7C2FC044606E03EE000BFFFF7BCFC82
:10100000001B022809D828688001F7D534E000BF0A
:10101000FFF7B2FC001B022802D90320BDE8F88FBD
:1010200028688001F4D427E00128F7D0D9F800001F
:10103000E26900F4800191421CD1226A00F03F0174
:10104000914217D147F6C071626A0140B1EB821F2D
:1010500010D1A26A4FF0FF3300F4403103EB52028B
:10106000B1EB024F06D194F82C1000F07060B0EB99
:10107000016F01D00120D1E70020CFE70438024002
:1010800000004742800E4742007000400000FFFF12
:101090007047704710B5040003D094F83D0010B1BC
:1010A00007E0012010BD002084F83C00204600F03D
:1010B0001EF8022084F83D00211D206800F030FA5F
:1010C000012084F8460084F83E0084F83F0084F84C
:1010D000400084F8410084F8420084F8430084F81A
:1010E000440084F8450084F83D00002010BD70479E
:1010F00090F83D10012901D001207047022180F8AD
:101100003D100168CA6842F00102CA6000680E49D9
:1011100088420ED0B0F1804F0BD00C49884208D0E5
:101120000B49884205D00B49884202D00A498842BF
:1011300004D1816801F00701062903D0016841F05C
:1011400001010160002070470000014000040040E0
:1011500000080040000C004000400140704770B59E
:101160000446006801694FF00005C943890715D49A
:10117000C168C943890711D4E91E016101202077A4
:10118000206880698007204602D0FFF7E7FF04E06F
:1011900000F098F8204600F096F82577206801695D
:1011A000C943490717D4C168C943490713D46FF02D
:1011B00004010161022020772068806910F4407FDB
:1011C000204602D0FFF7CAFF04E000F07BF820467B
:1011D00000F079F8257720680169C943090716D41A
:1011E000C168C943090712D46FF0080101610420E6
:1011F00020772068C0698007204602D0FFF7AEFF45
:1012000004E000F05FF8204600F05DF825772068E4
:101210000169C943C90617D4C168C943C90613D4B3
:101220006FF010010161082020772068C06910F478
:10123000407F204602D0FFF791FF04E000F042F823
:10124000204600F040F8257720680169C943C907A6
:1012500008D1C168C943C90704D1891E016120466C
:1012600000F032F820680169C943090609D4C16851
:10127000C943090605D46FF0800101612046FFF7DC
:1012800007FF20680169C943490609D4C168C943F9
:10129000490605D46FF040010161204600F01EF8B8
:1012A00020680169C94389060BD4C168C94389060E
:1012B00007D46FF0200101612046BDE87040FFF7C0
:1012C000E8BE70BD7047704700680349884201D18D
:1012D000FFF758BB7047000000000140704770B531
:1012E000040004D094F83D00002510B106E0012070
:1012F00070BD84F83C50204600F022F8242084F889
:101300003D002068C16821F40051C160204600F012
:101310007DF92068016921F49041016120684169EB
:1013200021F02A0141612068C16841F40051C16087
:101330002564202084F83D0084F83E00002070BD24
:1013400010B586B0044614216846FFF725F9144904
:101350002068884221D113480021026842F010021F
:101360000260006800F0100005900E481438026812
:1013700042F001020260006800F0010005904FF4A5
:10138000C06000900220CDE90101032003900720F6
:10139000049069460448FFF7F9F906B010BD000053
:1013A000001001404438024000000240FEE7000007
:1013B0001CB505490120CDE900010023802203A1CD
:1013C000054801F0DDFB1CBD000000207374617254
:1013D000745F7461736B00008120000870B586B083
:1013E00014216846FFF7D8F80E480024016841F040
:1013F0000401016000680C4E00F004004FF4005539
:101400000590224629463046FFF7B0FA01200095A4
:10141000CDE90104694630460394FFF7B7F906B0F9
:1014200070BD000030380240000802400C4810B582
:101430000A4901604FF4E1314160002181600C22D2
:10144000C160C0E904128161C161FFF748FF002853
:1014500003D0BDE81040FFF797B910BD0010014060
:10146000B4000020FEE7FEE710B54FF0E020006971
:1014700001F0DEFB012803D0BDE8104001F00CB9FB
:1014800010BD000010B592B030216846FFF784F817
:1014900014210CA8FFF780F818480024016841F0D7
:1014A00080510160006800F080501190144801687C
:1014B00021F4404141F4004101600068069400F4C9
:1014C00040401190022000900120039010200490D1
:1014D0006846FFF727FC08B172B6FEE70F20CDE99A
:1014E0000C040E940F9400210CA81094FFF70EFB2F
:1014F000002801D072B6FEE712B010BD403802409D
:10150000007000400248016841F4700101607047BA
:1015100088ED00E00148FFF722BE0000F80000203F
:10152000F0B502681D4B1E4C9F031E4D1E4E984287
:1015300007D0B84205D0A04203D0A84201D0B042A3
:1015400004D122F0700C4A6842EA0C02984210D092
:10155000B8420ED0A0420CD0A8420AD0B04208D067
:10156000124CA04205D0124CA04202D0114CA04215
:1015700003D122F44074CA6822434C6922F08002ED
:10158000224302608A68C2620A688262984201D17C
:101590000969016301214161F0BD000000000140C3
:1015A0000004004000080040000C004000400140E2
:1015B00000440140004801404FF47A74034904A0FC
:1015C000FEF734FF204600F0D2F8F7E70C000020C9
:1015D0005461736B313A2025730000000A4C4FF4BC
:1015E00000564FF47A75002231462046FFF7BEF9C7
:1015F000284600F0BCF8012231462046FFF7B6F934
:10160000284600F0B4F8EEE70008024070B5044642
:1016100000680169E26821F44051114301612169C8
:10162000A068E26908436169114308432168CA68F8
:1016300049F20C639A430243CA6020684169A26977
:1016400021F440711143416131492068884202D040
:101650003049884202D1FFF723FB01E0FFF710FB7E
:10166000E2690023192164253226B2F5004F626831
:1016700028D0A0FB0101930F9200FEF760FE014607
:10168000B0FBF5F06FF01802504301EB800006EB61
:101690000010B0FBF5F000F0F002B1FBF5F002EB4A
:1016A0000012B1FBF5F06FF01803584301EB800016
:1016B00006EB0010B0FBF5F000F00F0021681044BD
:1016C000886070BDA0FB010192185B41FEF737FEF8
:1016D0000146B0FBF5F00201B1FBF5F06FF0180325
:1016E000584301EB800006EBC000B0FBF5F000F0C2
:1016F000F80002EB4002B1FBF5F0584301EB80002B
:1017000006EBC000B0FBF5F000F00700D6E70000E4
:101710000010014000140140FEE70907090E0028EF
:1017200004DB00F1E02080F80014704700F00F00A7
:1017300000F1E02080F8141D7047704703490A68E3
:101740005206FCD5C2B24A6070470000001001404A
:10175000FFF720F9FFF796FEFFF740FEFFF766FE62
:1017600000F012F8FFF724FE00F020F8FEE710B5B5
:10177000EFF3058111B16FF0050403E0002408B117
:1017800000F0E2FD204610BDEFF3058010B16FF0D0
:10179000050070470448016811B14FF0FF307047F1
:1017A00001210160002070478400002010B5EFF394
:1017B000058010B16FF0050010BD084801680129CF
:1017C00002D04FF0FF3010BD054A002182F8141DF1
:1017D0000221016000F068FE002010BD840000209E
:1017E0000BE000E02DE9F041134C0F460546E6689A
:1017F0002068001D00F074FC681C07D137B1216817
:10180000BDE8F0410D48091D00F0BABC2068354420
:10181000B5424560216805D2A06BBDE8F041091DC5
:1018200000F096BC606B091D00F092FCA06A854236
:1018300000D2A562BDE8F08134000020300600200F
:101840002DE9F041054600F0A7FC2D4CA068401C96
:10185000A06020682B4F10B1606930B32BE0256089
:10186000A068012827D1002606EB860007EB800040
:1018700000F060FC761C382EF6D3234800F05AFCAA
:101880002148143000F056FC1F48283000F052FC6C
:101890001D483C3000F04EFC1B48503000F04AFC24
:1018A000194860631430A06305E02068E96AC06AE3
:1018B000884200D82560606A401C60626864E86AFB
:1018C0002169884200D9206100EB800007EB80008D
:1018D000291D00F055FC00F07FFC606900280CD049
:1018E0002068E96AC06A884207D208494FF08050F0
:1018F0000860BFF34F8FBFF36F8FBDE8F08100002A
:101900003400002080010020E005002004ED00E00C
:1019100038B500F041FC104C2068C8B90F4800F001
:1019200009FC0E48143000F005FC0C48E06014304F
:1019300020610A4B0020F03B009003F1500210217F
:101940000A2000F0BFFE206010B105A100F0C6FC27
:10195000BDE8384000F040BC700000203407002093
:10196000546D72510000000030B4026C0B46002A26
:101970000BD0C1681144C1608468A14201D30168E1
:10198000C16030BC1846FEF7BABD30BC70472DE9C7
:10199000F041856B174604460026026C82B1C7B140
:1019A000E068FEF7ACFDE168206C091AE16022688E
:1019B000914202D2A168081AE060022F16D017E007
:1019C0002068A8B9A06801F0ABF906460020A06025
:1019D0000EE06068FEF793FD216C6068084460606B
:1019E000A168884204D32068606001E005B16D1EE3
:1019F0006D1CA5633046BDE8F08110B5044690F833
:101A0000590058B101280CD002280FD0502080F383
:101A10001188BFF34F8FBFF36F8FFEE7206B00F08D
:101A2000EFFB2046BDE8104000F0EABB10BD00000F
:101A300010484FF47051420706D0C01D0D4920F0E8
:101A40000700411AC1F570510B4A00230144C2E955
:101A500000030839183A21F0070111604B600B6050
:101A60000B1AC0E9001393604FF0004053605061BF
:101A700070470000140E0020A0000020144E154CEA
:101A8000A6F29C474FF08058DFF84C9012E000BF60
:101A900000F082FBF068C568281D00F021FBA068FB
:101AA000401EA0606068401E606000F095FB284604
:101AB000FFF7A3FF60680028EAD138680128F9D948
:101AC000C9F80080BFF34F8FBFF36F8FF2E70000BC
:101AD0001C0600203400002004ED00E070B51D4617
:101AE000049C51B1C4F80020C4E90F010121204633
:101AF00000F01CFE84F84C5070BD2460F4E7000038
:101B00002DE9F05F8846DDE90B9415468346910088
:101B10009A460A9EA522206BFEF736FD6FF0030160
:101B2000206B01EB8501084420F00707780707D0F8
:101B3000502080F31188BFF34F8FBFF36F8FFEE704
:101B40000025B8F1000F0FD05FF00000221818F840
:101B5000001082F8341018F8001011B1401C102841
:101B6000F4D384F8435001E084F83450382E00D385
:101B70003726E662C4E91365201D00F0E6FA04F199
:101B8000180000F0E2FA2461C6F138006462A06136
:101B9000656584F8585052465946384600F05AFA5E
:101BA0002060B9F1000F01D0C9F80040BDE8F09FF6
:101BB00030B5114900E011460A688242FBD34B68F8
:101BC0005C18844203D14068184448600846436862
:101BD0001C18944209D1084C183C2468A24209D030
:101BE00052681A4442600A6812680260814200D05A
:101BF000086030BD0460F9E7A000002070B5002443
:101C000041600B4D0061914206D8D11A8269914220
:101C100006D2011D286907E09A4203D2994201D3F6
:101C2000012403E0011DE86800F092FA204670BD2F
:101C30007000002010B5044600F0AEFAA06B28B189
:101C40005FF0000400F0C8FA204610BD0124F9E757
:101C500030B589B03C4D6EE00498002806DADDE925
:101C60000601059A90470498002864DB069C606989
:101C700010B1201D00F034FA03A800F0D7F8024696
:101C800004980A2857D2DFE800F00505052D334AED
:101C900005052D3394F8280040F0010084F8280051
:101CA0000599A069059B01442046FFF7A7FF68B38B
:101CB000216A2046884794F8280040073BD5002039
:101CC00000900598A169002342181946204601F0AA
:101CD00031F9D8B9502080F31188BFF34F8FBFF38B
:101CE0006F8FFEE714F8280F20F00100207022E02B
:101CF00094F8280040F0010084F828000598A061BD
:101D000028B1811813462046FFF778FF13E05020D2
:101D100080F31188BFF34F8FBFF36F8FFEE794F806
:101D20002800810703D4204600F06AFA03E020F07F
:101D3000010084F82800002204A9286800F04AFE67
:101D4000002889D109B030BD700000202DE9FC4188
:101D50000F46054600F0ECFB01A800F067F80446CA
:101D6000019818B101F054F8BDE8FC81254EAFB1DF
:101D700030690068D0B30027291B3A46306800F06C
:101D8000C1FA01F045F80028EED11F494FF080500C
:101D90000860BFF34F8FBFF36F8FE5E7A542EBD825
:101DA00001F036F8F0682746C068C468201D00F0CE
:101DB00097F994F82800410719D5A0692B464119D5
:101DC0003A462046FFF71AFFA8B100200346014615
:101DD00000902A46204601F0ADF860B9502080F30B
:101DE0001188BFF34F8FBFF36F8FFEE707E020F03E
:101DF000010084F82800216A20468847B4E70127BB
:101E0000BAE700007000002004ED00E00648416BD6
:101E1000096829B1416BC968C9684968816270471E
:101E20004FF0FF31FAE700003400002070B505469E
:101E300000F00CFF064E0446B068844203D200F066
:101E400009F8012000E0002028602046B46070BD41
:101E500070000020F8B5194D20E0C068C46806681D
:101E6000201D00F03DF9216A2046884794F828009B
:101E7000400713D5A0693044B04206D924616060A0
:101E8000211DE86800F064F908E0002003460146DF
:101E900000903246204601F04DF838B1E8680168FC
:101EA0000029DAD12969C5E90310F8BD502080F373
:101EB0001188BFF34F8FBFF36F8FFEE770000020D4
:101EC00008484068401C4FF0500080F3118804D04F
:101ED000BFF34F8FBFF36F8FFEE7BFF34F8FBFF39B
:101EE0006F8FFEE7A8000020074CE068016841B151
:101EF000C0680021D0F80000FFF728FFFFF7A8FE18
:101F0000F3E701210020F7E7700000202DE9F04100
:101F1000044600F041F994F9455004F1240609E023
:101F2000606A48B1304600F03BFF08B100F082FA29
:101F30006D1E6DB2002DF3DC4FF0FF3684F8456066
:101F400000F04AF900F028F994F9445004F1100720
:101F500009E0206948B1384600F022FF08B100F0DE
:101F600069FA6D1E6DB2002DF3DC84F84460BDE8A3
:101F7000F04100F031B900002DE9F041054600279D
:101F800000F0D6FA324E306808B9FFF751FD70699B
:101F900005424ED1C5B3083568070ED005F00700DD
:101FA000C0F108000544680707D0502080F311886D
:101FB000BFF34F8FBFF36F8FFEE72DB3706885427D
:101FC00037D82348183001460C6801E020460C46FB
:101FD0006168A94202D221680029F7D131688C4298
:101FE00027D007682168016060680837411B102905
:101FF0000FD96019420708D0502080F31188BFF331
:102000004F8FBFF36F8FFEE713E041606560FFF70E
:10201000CFFD61687068401A7060B268904200D26B
:10202000B060706901430020C4E90001F068401C01
:10203000F06000F0EDFE780707D0502080F31188A3
:10204000BFF34F8FBFF36F8FFEE73846BDE8F081D7
:102050008800002010B5031F4FF080741C601B1F08
:1020600021F001011960191F044B0B6014390A603B
:10207000091F6FF0020244380A6010BDC11E00083B
:102080001CB500F089F80F490320CDE900010023B9
:1020900080220DA10E4800F073FD0A490220091D9F
:1020A000CDE90001002380220AA10C4800F068FD60
:1020B0000448001F006800F06DF9BDE81C4000F006
:1020C0008BB80000040000205461736B31000000E5
:1020D000B91500085461736B32000000DD1500086B
:1020E000D0E9013201699A60D0E901235A604A6857
:1020F000824201D182684A60002202610868401E63
:102100000860086870470000034B036003F15C003F
:1021100008608020106070475C070020044B03605B
:1021200003F15C0008604FF480701060704700009D
:10213000B809002000F108014FF0FF32C0E9011298
:10214000C160016100210160704700210161704799
:1021500030B50B685A1C02D000F1080202E0026997
:1021600004E02246546825689D42FAD953684B60C2
:1021700099608A60516008610168491C016030BD46
:1021800042684A6093688B60936859609160086107
:102190000168491C01607047502080F31188BFF32B
:1021A0004F8FBFF36F8F0A494868401C4860012871
:1021B0000CD10848006810F0FF0F07D0502080F3C2
:1021C0001188BFF34F8FBFF36F8FFEE7704700009A
:1021D000A800002004ED00E00849486828B1401E2E
:1021E000486001D180F311887047502080F3118836
:1021F000BFF34F8FBFF36F8FFEE70000A8000020F2
:1022000070B500282AD0164DA0F1080460686969ED
:10221000084207D1502080F31188BFF34F8FBFF3DE
:102220006F8FFEE722683AB1502080F31188BFF328
:102230004F8FBFF36F8FFEE78843606000F078F93F
:1022400060686968084468602046FFF7B1FC286947
:10225000401C2861BDE8704000F0DABD70BD000090
:10226000880000204FF0E0200021016181610549D4
:102270004FF47A720968B1FBF2F1491E41610721FE
:10228000016170473000002010B5FEF733F81149A6
:1022900010280ED300F1E02090F8F0030A78904265
:1022A00007D2502080F31188BFF34F8FBFF36F8F99
:1022B000FEE709480068896800F4E060884207D9B1
:1022C000502080F31188BFF34F8FBFF36F8FFEE76D
:1022D00010BD0000A80000200CED00E010B5084B78
:1022E000002200BF53F832401CB1521C082AF9D317
:1022F00010BD43F8321003EBC201486010BD00006E
:102300004001002070B515460E460446FFF744FF15
:1023100094F944100020491C01D184F8440094F938
:102320004510491C01D184F84500FFF755FFA06B0B
:1023300028B92A46314604F1240000F099F82046D5
:10234000BDE87040FFF7E2BD10B5020014D00F48A1
:10235000006B38B1502080F31188BFF34F8FBFF36B
:102360006F8FFEE700F0E4F800211046FFF73AFA1D
:1023700000F04EFD002807D105494FF0805008605D
:10238000BFF34F8FBFF36F8F10BD000034000020EC
:1023900004ED00E070B50546FFF7FEFE1E4C05B9E2
:1023A0002568281DFFF79CFEA86A18B105F11800E2
:1023B000FFF796FE606A401C60622068854207D184
:1023C000291D1648FFF7DCFE6068401C606007E0CE
:1023D000A068401EA0602846FFF70FFBFFF716FD20
:1023E000FFF7FAFE6069002814D02068854211D1F9
:1023F000206B38B1502080F31188BFF34F8FBFF3AB
:102400006F8FFEE706494FF080500860BFF34F8F93
:10241000BFF36F8F70BD0000340000201C06002049
:1024200004ED00E002490A6A0260C9684160704731
:102430003400002001490120C861704734000020A9
:1024400010B50C4650B1094909681831FFF780FEF4
:102450002046BDE810400121FFF7C4B9502080F3A9
:102460001188BFF34F8FBFF36F8FFEE7340000205A
:1024700070B514460D4668B10A4909681831FFF76E
:102480007FFE0CB14FF0FF3521462846BDE8704075
:10249000FFF7A8B9502080F31188BFF34F8FBFF327
:1024A0006F8FFEE73400002030B587B0002403941E
:1024B00005AA04A903A80494FFF726FEDDE9030199
:1024C0000094CDE90110002315A11748059A00F0EA
:1024D00084FB164D0028E8621FD000F0FBFC0128A9
:1024E00009D0401C19D1502080F31188BFF34F8FC1
:1024F000BFF36F8FFEE7502080F31188BFF34F8F3B
:10250000BFF36F8F4FF0FF30A86201206861EC606D
:1025100007B0BDE8304000F045B807B030BD00005E
:1025200049444C45000000007D1A0008340000209A
:102530000248016B491C0163704700003400002011
:10254000164810B5016B11B10121C16110BD002108
:10255000C1610169124A01E0B9B1491E01EB810371
:1025600052F82330002BF7D001EB810302EB8302FA
:1025700002F1080453685B685360A34201D15B68B1
:102580005360DA680260016110BD502080F3118849
:10259000BFF34F8FBFF36F8FFEE7000034000020C2
:1025A000800100201CB537480168374A914207D1A5
:1025B000502080F31188BFF34F8FBFF36F8FFEE77A
:1025C00000683149491E884207D1502080F31188A4
:1025D000BFF34F8FBFF36F8FFEE72C490878019050
:1025E000FF20087008788DF800009DF800009DF825
:1025F000002000F0F000904207D0502080F31188B6
:10260000BFF34F8FBFF36F8FFEE79DF80000204CA4
:1026100000F0500020700720A06005E09DF8002029
:1026200052008DF80020401E9DF800201206F5D4BF
:10263000A060032807D0502080F31188BFF34F8F8C
:10264000BFF36F8FFEE74FF44070A06001980870F1
:102650000C482030016841F470010160016841F0CC
:1026600070410160FFF7FEFD00206060FDF70AFE8B
:102670000848016841F040410160FDF7EFFD00208E
:102680001CBD000000ED00E071C20F4100E400E05D
:10269000A800002034EF00E010B5502080F311882E
:1026A000BFF34F8FBFF36F8F00F0D6FA18B1044914
:1026B0004FF080500860002080F3118810BD0000AA
:1026C00004ED00E038B5049D18B153B1CAB181B131
:1026D00020E0502080F31188BFF34F8FBFF36F8F3E
:1026E000FEE7502080F31188BFF34F8FBFF36F8F49
:1026F000FEE7502080F31188BFF34F8FBFF36F8F39
:10270000FEE739B1502080F31188BFF34F8FBFF33C
:102710006F8FFEE750241C46012384F846302B4679
:102720000094FFF7DBF9204638BD000070B50D4678
:10273000040025D0FFF730FDD4E90F20216802FB0B
:102740000011A1600021A163216861600A46D4E9FB
:102750000F01401E00FB0121E16021464FF0FF30D8
:1027600001F8440F487004F110008DB1FFF7E2FC4E
:1027700004F12400FFF7DEFCFFF72EFD012070BD01
:10278000502080F31188BFF34F8FBFF36F8FFEE7A8
:1027900021690029F0D000F003FB0028ECD00449A7
:1027A0004FF080500860BFF34F8FBFF36F8FE3E7A8
:1027B00004ED00E02DE9FF4782B01D468A464FF048
:1027C0000008040003D0BAF1000F08D011E0502037
:1027D00080F31188BFF34F8FBFF36F8FFEE7206C3C
:1027E00038B1502080F31188BFF34F8FBFF36F8F44
:1027F000FEE7022D0AD1E06B012807D0502080F3BC
:102800001188BFF34F8FBFF36F8FFEE700F010FA10
:102810003F4F4FF000094FF0805648B9049838B147
:10282000502080F31188BFF34F8FBFF36F8FFEE707
:10283000FFF7B2FCA06BE16B884207D3022D05D0F5
:102840000498D0B1B8F1000F1AD01EE02A465146C4
:102850002046FFF79CF8616A19B104F1240000F0EA
:102860009FFA20B13E60BFF34F8FBFF36F8FFFF72A
:10287000B3FC012006B0BDE8F087FFF7ADFC22E015
:102880006846FFF7CFFD4FF00108FFF7A5FCFFF703
:102890004FFEFFF781FC94F94400401C01D184F8FD
:1028A000449094F94500401C01D184F84590FFF70D
:1028B00093FC04A9684600F029F930B12046FFF7DF
:1028C00025FB00F0A5FA0020D4E7FFF765FCA06B1C
:1028D000E16B884213D1FFF77FFC04F110000499EB
:1028E000FFF7AEFD2046FFF711FB00F091FA00283C
:1028F0009ED13E60BFF34F8FBFF36F8F98E7FFF716
:102900006BFC2046FFF702FB00F082FA90E7000024
:1029100004ED00E02DE9F0471F469046894604008B
:1029200003D0B9F1000F08D011E0502080F31188D6
:10293000BFF34F8FBFF36F8FFEE7206C38B150208D
:1029400080F31188BFF34F8FBFF36F8FFEE7022F25
:102950000AD1E06B012807D0502080F31188BFF323
:102960004F8FBFF36F8FFEE7FFF78EFC5020EFF322
:10297000118680F31188BFF34F8FBFF36F8FA06B69
:10298000E16B884206D3022F04D0002086F3118821
:10299000BDE8F08794F94550A06B3A464946204679
:1029A000FEF7F5FF681C04D06D1C84F8455001202B
:1029B000ECE7606A0028FAD004F1240000F0F0F996
:1029C0000028F4D0B8F1000FF1D00121C8F80010B0
:1029D000EDE700002DE9F747002683B08A460400A2
:1029E00003D0BAF1000F08D011E0502080F3118815
:1029F000BFF34F8FBFF36F8FFEE7206C38B15020CD
:102A000080F31188BFF34F8FBFF36F8FFEE700F0A5
:102A10000FF9DFF8F4804FF000094FF0805748B904
:102A2000059838B1502080F31188BFF34F8FBFF362
:102A30006F8FFEE7FFF7B0FBA56BC5B1514620468F
:102A4000FEF792FF6D1EA563206950B104F11000DE
:102A500000F0A6F928B1C8F80070BFF34F8FBFF39C
:102A60006F8FFFF7B9FB012006B0BDE8F08705982E
:102A700008B11EB106E0FFF7AFFB27E06846FFF79D
:102A8000D1FC0126FFF7A8FBFFF752FDFFF784FBFF
:102A900094F94400401C01D184F8449094F9450015
:102AA000401C01D184F84590FFF796FB05A96846C4
:102AB00000F02CF8002820460AD0FFF727FA00F093
:102AC000A7F92046FFF7B6F80028B3D00020CBE7DF
:102AD000FFF7B0F890B104F124000599FFF7B0FCBE
:102AE0002046FFF713FA00F093F90028A2D1C8F8A6
:102AF0000070BFF34F8FBFF36F8F9BE72046FFF748
:102B000005FA00F085F995E704ED00E02DE9F041C4
:102B10000C46050011D0C4B1FFF73EFB174BDA6835
:102B20006E682068911B471C17D02F681B6A9F4254
:102B300019D0964217D8012410E0502080F3118854
:102B4000BFF34F8FBFF36F8FFEE7502080F31188E4
:102B5000BFF34F8FBFF36F8FFEE70024FFF73CFBFF
:102B60002046BDE8F081884205D9401A20602846F9
:102B7000FFF758FCF1E700202060DCE7340000207C
:102B80002DE9FF5F8346DDE90E87994616468A46A2
:102B90009000FFF7F1F905001CD05C20FFF7ECF97D
:102BA000040014D00020256384F85900CDE90240C8
:102BB000CDE900874B46324651465846FEF7A0FF06
:102BC0002046FEF73DFE012004B0BDE8F09F2846F8
:102BD000FFF716FB4FF0FF30F6E7F0B585B0DDE903
:102BE0000B640A9DA6B1DCB15C2700972663022620
:102BF00084F85960002604AFCDE90246CDE90057BC
:102C0000FEF77EFF2046FEF71BFE049805B0F0BDE0
:102C1000502080F31188BFF34F8FBFF36F8FFEE713
:102C2000502080F31188BFF34F8FBFF36F8FFEE703
:102C30000548416919B1006B18B1002070470120A7
:102C40007047022070470000340000200148C0682F
:102C500070470000340000202DE9F0412E4C002781
:102C6000206B28B1A069401CA0613846BDE8F08106
:102C7000E668761CE66013D1606B006838B15020BE
:102C800080F31188BFF34F8FBFF36F8FFEE7606B48
:102C9000A16B6163A063206A401C2062FFF7B6F855
:102CA000A06ADFF87880864209D3606B0068A0B123
:102CB000606BC068C5686868864211D2A0622068EF
:102CC000C06A00EB800158F82100012800D90127D3
:102CD000E0690028C9D00127C7E74FF0FF30EDE7D2
:102CE000281DFFF7FDF9A86A18B105F11800FFF7D4
:102CF000F7F9E86A2169884200D9206100EB800178
:102D000008EB8100291DFFF73BFAE86A2168C96AD0
:102D10008842CAD30127C8E7340000208001002080
:102D200070B504004FF0000133D01B4D2868844279
:102D300007D0502080F31188BFF34F8FBFF36F8F00
:102D4000FEE7206D38B1401E2065E36CE26A9A42CE
:102D50001FD040B11DE0502080F31188BFF34F8F8A
:102D6000BFF36F8FFEE7201DFFF7BAF9E06CE0625A
:102D7000C0F13800A061E06A2969884200D9286161
:102D8000064900EB800001EB8000211DFFF7F8F9F8
:102D90000121084670BD00003400002080010020A1
:102DA00070B5C068C46854B104F118000646FFF756
:102DB00097F9144D286B50B13146134815E0502057
:102DC00080F31188BFF34F8FBFF36F8FFEE7201D95
:102DD000FFF786F9E06A2969884200D928610B4922
:102DE00000EB800001EB8000211DFFF7C9F9E06ACC
:102DF0002968C96A884202D90120E86170BD0020B3
:102E000070BD000034000020080600208001002072
:102E10002DE9F0472C4D00242746286B38B1FFF7E9
:102E2000BBF9286B401E2863286B40B146E0502058
:102E300080F31188BFF34F8FBFF36F8FFEE7A96850
:102E4000224E0120D1B3A6F5916980463068E0B1E9
:102E5000F068C46804F11800FFF742F9201DFFF77D
:102E60003FF9E06A2969884200D9286100EB8001B6
:102E700009EB8100211DFFF783F9E06A2968C96A1F
:102E80008842E3D3C5F81C80E0E70CB1FEF7BEFF33
:102E9000AC694CB14FEA0806FFF7DEFE00B1EE6107
:102EA000641EF9D10020A861E86938B108490127FA
:102EB00038070860BFF34F8FBFF36F8FFFF78CF9B0
:102EC0003846BDE8F08700003400002008060020E6
:102ED00004ED00E010B586B0FEF71AFD114C206835
:102EE000B8B100200390049005AA04A903A8FFF735
:102EF00015F9DDE9032102208DE8070000230AA16E
:102F00000B48059AFFF769FE606010B106B001201A
:102F100010BD502080F31188BFF34F8FBFF36F8F28
:102F2000FEE7000070000020546D722053766300AD
:102F3000E91E00082DE9FF411E46134602000A9DC6
:102F40004FF0000016D0144C2768002F0FD0CDE9A9
:102F500000130292062917DAFFF76AFE02284FF0E3
:102F600000030FD0002269462068FFF723FC04B05D
:102F7000BDE8F081502080F31188BFF34F8FBFF37D
:102F80006F8FFEE72A46EEE7002332466946384651
:102F9000FFF7C0FCEBE70000700000204FF040702E
:102FA000E1EE100A7047000000000000000001027E
:102FB00003040607080900000000010203040000E2
:102FC000E02F000800000020B4000000D00100083D
:102FD00094300008B4000020C44F0000EC01000849
:102FE00000000000000000000000000048656C6C5C
:102FF0006F204672656552544F530D0A0000000061
:1030000000000000010000001000000000000000AF
:103010000024F40000000000000000000000000098
:1030200000000000000000000000000000000000A0
:103030000000000000000000000000000000000090
:103040000000000000000000000000000000000080
:103050000000000000000000000000000000000070
:103060000000000000000000000000000000000060
:103070000000000000000000000000000000000050
:10308000000000000000000000000000AAAAAAAA98
:04309000000000003C
:040000050800019559
:00000001FF
