:020000040800F2
:1000000050520020F502000817220008ED1F0008DA
:1000100015220008410600085928000800000000C9
:100020000000000000000000000000003502000891
:1000300029090008000000009102000819220008A8
:100040000F0300080F0300080F0300080F03000848
:100050000F0300080F0300080F0300080F03000838
:100060000F0300080F0300080F0300080F03000828
:100070000F0300080F0300080F0300080F03000818
:100080000F0300080F0300080F0300080000000022
:100090000000000000000000000000000F03000846
:1000A0000F030008C52200080F0300080F03000813
:1000B0000F0300080F0300080F0300080F030008D8
:1000C0000F0300080F0300080F0300080F030008C8
:1000D0000F0300084D2800080F030008000000006F
:1000E0000F0300080F0300080F03000800000000C2
:1000F0000000000000000000000000000F030008E6
:10010000000000000F0300080F0300080F030008A1
:1001100000000000000000000000000000000000DF
:100120000F0300080F0300080F0300080F03000867
:100130000F030008000000000000000000000000A5
:100140000000000000000000000000000F03000895
:100150000F0300080F0300080F0300080F03000837
:100160000F0300080F03000800000000000000005B
:10017000000000000000000000000000000000007F
:10018000000000000F030008000000000000000055
:100190000F03000800F002F800F03CF80AA090E815
:1001A000000C82448344AAF10107DA4501D100F032
:1001B00031F8AFF2090EBAE80F0013F0010F18BFC3
:1001C000FB1A43F0010318477856000098560000C8
:1001D000103A24BF78C878C1FAD8520724BF30C873
:1001E00030C144BF04680C60704700000023002445
:1001F00000250026103A28BF78C1FBD8520728BF37
:1002000030C148BF0B6070471FB505F06FFA1FBDC6
:1002100010B510BD00F0E6F91146FFF7F5FF03F049
:10022000C3F800F004FA03B4FFF7F2FF03BC03F0D5
:100230001BF800002C4B19680868B0E8F04F80F3F9
:100240000988BFF36F8F4FF0000080F3118870476B
:100250000000000008480068006880F308884FF03C
:10026000000080F3148862B661B6BFF34F8FBFF30E
:100270006F8F00DF00BF00BF08ED00E0DFF80C006B
:10028000016841F470010160704700BF88ED00E033
:10029000EFF30980BFF36F8F134B1A681EF0100F36
:1002A00008BF20ED108A20E9F04F106009B44FF02C
:1002B000500080F31188BFF34F8FBFF36F8F03F0AF
:1002C000B1FF4FF0000080F3118809BC196808687D
:1002D000B0E8F04F1EF0100F08BFB0EC108A80F3AA
:1002E0000988BFF36F8F704728000020EFF3058067
:1002F000704700000948804709480047FEE7FEE7CD
:10030000FEE7FEE7FEE7FEE7FEE7FEE7FEE7FEE7C5
:1003100004480549054A064B70470000B52200080D
:1003200095010008504C002050520020504E0020F3
:10033000504E0020704753EA020C00F069802DE90E
:10034000F04B4FF00006002B1FBFB3FA83F503FA02
:1003500005F424FA05F65E4012BF1643B2FA82F5A0
:1003600002FA05F4C5F120051EBF22FA05FC44EA95
:100370000C04203556EA044C4FEA144418BF641CA0
:100380004FF000084FF00009904271EB030C39D395
:10039000002919BFB1FA81F701FA07F6B0FA80F720
:1003A00000FA07F6C7F120071EBF20FA07FC46EA4D
:1003B0000C062037B6FBF4FCA7EB0507103F07F04F
:1003C0001F0BCBF120060CFA0BFB2CFA06F644BFF0
:1003D000B3460026202FA4BF5E464FF0000B5BEA19
:1003E000060C08BF4FF0010B19EB0B09ABFB027CAD
:1003F00048EB0608C01B06FB02CC0BFB03CC71EBE1
:100400000C01C1E70B46024641464846BDE8F08B69
:1004100013B54FF000004FF00001AFF30080BDE8CE
:100420001C407047032A40F2308010F0030C00F0AB
:10043000158011F8013BBCF1020F624498BF11F81E
:1004400001CB00F8013B38BF11F8013BA2F10402D7
:1004500098BF00F801CB38BF00F8013B11F003034F
:1004600000F06380083AC0F0088051F8043B083A75
:1004700051F804CBA0E80810F5E7121D5CBF51F855
:10048000043B40F8043BAFF30080D20724BF11F8CF
:10049000013B11F801CB48BF11F8012B24BF00F834
:1004A000013B00F801CB48BF00F8012B704702F078
:1004B000FF0343EA032242EA024200F06AB84FF027
:1004C000000200B5134694469646203922BFA0E8A4
:1004D0000C50A0E80C50B1F12001BFF4F7AF0907B0
:1004E00028BFA0E80C5048BF0CC05DF804EB8900A1
:1004F00028BF40F8042B08BF704748BF20F8022BE4
:1005000011F0804F18BF00F8012B704770477047FB
:100510007047704710B500F05DF8006810BD10B569
:10052000044600F057F8046010BD10B5203AC0F042
:100530000B80B1E81850203AA0E81850B1E81850E4
:10054000A0E81850BFF4F5AF5FEA027C24BFB1E821
:100550001850A0E8185044BF18C918C0BDE8104092
:100560005FEA827C24BF51F8043B40F8043B08BF9B
:100570007047D20728BF31F8023B48BF11F8012B62
:1005800028BF20F8023B48BF00F8012B70474FF00E
:1005900000020429C0F0128010F0030C3FF491AF68
:1005A000CCF1040CBCF1020F18BF00F8012BA8BF5E
:1005B00020F8022BA1EB0C01FFF783BF5FEAC17C9F
:1005C00024BF00F8012B00F8012B48BF00F8012BD5
:1005D0007047000000487047F04B0020004870470B
:1005E000F04B00207546FFF7F9FFAE46050069465F
:1005F000534620F00700854618B020B5FFF788FE67
:10060000BDE820404FF000064FF000074FF0000813
:100610004FF0000B21F00701AC46ACE8C009ACE894
:10062000C009ACE8C009ACE8C0098D46704710B5F8
:100630000446AFF300802046BDE81040FFF7F3BD4D
:10064000FEE700002DED0A8B9FED298B9FED2AAB75
:100650009FED2BBB9FED2C9B9FED2DCB53EC1A2BCD
:1006600051EC180B04F076FB41EC180B53EC1B2BF0
:1006700004F010FF01D29FED288BB0EE480AF0EE97
:10068000680A02F079F953EC192B51EC100B04F0C5
:1006900003FE04F02DFB00EE100A012000F018F913
:1006A000B0EE480AF0EE680A02F002F953EC192B9A
:1006B00051EC100B04F0F0FD04F01AFB00EE100AF0
:1006C000022000F005F953EC1C2B51EC180B04F040
:1006D000E3FD04F00DFB00EE100A032000F0F8F833
:1006E000032000F06FF8322002F0CAFDB6E70000E8
:1006F00000000000000000009A9999999999B93F6B
:100700001F85EB51B81E0940000000000000244086
:1007100000000000000000401F85EB51B81E09C01A
:1007200001681823CAB2103AB2FBF3F2054B6FF31B
:100730000901032A9B5CC36500D9091D8165084630
:10074000704700000057000810B5014600208B6973
:100750008A6A4FF0C07453B1B3F5005F15D072B11F
:10076000012A0CD0022A0AD0032A09D104E01AB1C6
:10077000012A06D0022A03D1C96AC90100D5012085
:1007800010BDC96AA142FAD010BD002AF7D0012AD3
:10079000F2D0022AF3D0032AF3D010BD30B504689A
:1007A000256825F480252560046863608368402BF4
:1007B000036803D099600068C26030BD9A60006829
:1007C000C16030BD2DE9F04100F042F802461B49FE
:1007D0001B4801F0C3FB1B4E1C481B4C543E1A49DE
:1007E000184D194B371F603C0068B839A84201D931
:1007F000326808E0984201D93A6804E0A04201D981
:100800004A6800E00A6812F0006FEFD04FF0006213
:10081000A84202D90B484C3803E0984203D9094852
:100820005038026004E0A04201D9CA6000E08A604A
:10083000BDE8F041024801F05FB90000C44B002060
:100840007401002058640240B8600240644B0020EC
:100850000A2839D890B31D4924220B280A7033D2B4
:10086000DFE800F032060A0E12161A1E22272D00AB
:100870000520487106207047092048720A207047F9
:100880000D2048730E2070471120487412207047C5
:100890001520487516207047192048761A20704791
:1008A0001D2048771E207047212081F8210022203A
:1008B0007047252081F825002620704704E0292074
:1008C00081F829002A20F8E70020F6E7C44B002031
:1008D00001B50A282DED020B12D8002810D00B28E4
:1008E0000ED2DFE800F00D06080E10121416181ACA
:1008F0001C00012200E005220A49684600F017F8B2
:100900000EBD0922F8E70D22F6E71122F4E71522C1
:10091000F2E71922F0E71D22EEE72122ECE725227B
:10092000EAE70000C44B0020704772B6FEE7037888
:100930008B54114443784B7082788A70C078C870A9
:1009400070472DE9F0410446876D00F01FFA064616
:1009500094F835000025022806D08020606584F8D0
:1009600034500120BDE8F0812068016821F01601B3
:1009700001602068416921F080014161206C08B963
:10098000A06C20B12068016821F008010160206896
:10099000016821F0010101600CE000F0F7F9801B13
:1009A000052807D920206065032084F8350084F8E5
:1009B0003450D7E720680068C007EED194F85C1087
:1009C0003F208840B860012084F8350084F8345016
:1009D0000020C7E790F83510022903D08021416537
:1009E00001207047052180F835100068016821F06A
:1009F000010101600020704770B504002BD094F80D
:100A00003500022826D02068016821F0010101602C
:100A100020680025056020684560206885602068A2
:100A2000C560206805612168212048612046FFF7E4
:100A300077FEE56325646564A564E564256594F83F
:100A40005C203F2191408160656584F8355084F8D1
:100A50003450002070BD012070BD00002DE9F04130
:100A6000044600F093F906465CB1022084F8350094
:100A7000002584F834502068016821F001010160EC
:100A80000DE00120BDE8F08100F080F9801B052811
:100A900005D920206065032084F83500F2E720683E
:100AA0000068C007F0D12268116820480140D4E9ED
:100AB00001031843D4E903363343184363691843E9
:100AC000A3691843E3691843236A18430843616A1A
:100AD000042903D1D4E90B1319430843106020689B
:100AE0004069666A20F0070130460E43012704285A
:100AF0000CD1A06A0643E06A40B12046FFF724FE0D
:100B000020B14020606584F83570BAE720684661FE
:100B10002046FFF705FE94F85C203F21914081605C
:100B2000656584F835700020ACE700003F8010F068
:100B30002DE9F0410446866D90F834000025012827
:100B40000DD0012084F8340094F835700020012F76
:100B500007D084F8340002252846BDE8F081022041
:100B6000FBE7022784F8357060652046FFF716FE24
:100B700094F85C103F208840B0602068016841F024
:100B800016010160206C20B12068016841F0080165
:100B900001602068016841F001010160DCE70000AC
:100BA0002DE9F84FDFF8B8A10022012403254FF00A
:100BB0000F090AF1040BAAF1040E00BF0B6804FA36
:100BC00002F63340B34273D10F7907F00307012FC8
:100BD00001D0022F16D187684FEA420805FA08FCB7
:100BE00027EA0C07D1F80CC00CFA08FC4CEA070CF9
:100BF000C0F808C04768B7430E79C6F300169640A0
:100C00003E4346600E79F643B6070DD0C7685600DE
:100C100005FA06FC27EA0C07D1F808C00CFA06FC16
:100C20004CEA070CC0F80CC00E7906F00306022E41
:100C300010D1D60800EB8608D8F8206057074FEA95
:100C4000D76C09FA0CF7BE430F6907FA0CF7374364
:100C5000C8F8207006684FEA420C05FA0CF7BE434C
:100C60000F7907F0030707FA0CF7374307604E6860
:100C700016F4403F6DD03B4E376847F480473760ED
:100C8000366822F0030706F480460096364E07EBDE
:100C9000060CDCF8086897073F0F09FA07F826EA00
:100CA0000806DFF8C880404503D14FF000081EE079
:100CB0004FE0DFF8BC80404502D14FF0010816E05C
:100CC000DFF8B080404502D14FF002080FE0DFF8B6
:100CD000A880404502D14FF0030808E0DFF89C806F
:100CE000404502D14FF0040801E04FF0070808FA30
:100CF00007F848EA0608CCF80888DAF80060574692
:100D0000D1F804C09E435FEACC2C00D51E433E6060
:100D1000DBF800605F46D1F804C09E435FEA8C2C8C
:100D200000D51E433E60DEF800607746D1F804C06F
:100D30009E435FEA8C3C00D51E433E60084F083F4F
:100D40003E68D1F804C09E435FEACC3C00D51E4308
:100D50003E60521C102AFFF431AFBDE8F88F00004E
:100D6000083C01404438024000300140000002408D
:100D70000004024000080240000C02400010024043
:100D80000AB1816170470904FBE7000001488068EF
:100D90007047000018000020024881680278114462
:100DA00081607047180000200B4810B5016841F4BD
:100DB00000710160016841F480610160016841F4E3
:100DC00080710160032000F099F80F2000F006F810
:100DD00000F04AF8002010BD003C024030B5054646
:100DE0001C4887B00024016841F0010101600068DF
:100DF00006A900F00100009001A800F02BF900F016
:100E000059F91549154AB0FBF1F11548491E026020
:100E100040F2E732C0E90324C0E90114846100F024
:100E20008DFB040012D10E4800F0D4FB04000DD15C
:100E3000192000F035F8102D07D20022294619207C
:100E400000F03CF80748056000E0012407B02046A8
:100E500030BD00004438024040420F000000014015
:100E6000B80100201C0000200C4882B0016841F449
:100E700080410160006800F4804000900748001F36
:100E8000016841F0805101600068002200F080504C
:100E900000900F21901E02B000F010B844380240BC
:100EA000002809DB00F01F02012191404009800069
:100EB00000F1E020C0F8001170470000F0B40E4BC4
:100EC0001B680C46C3F30223C3F10705042D00D9A8
:100ED0000425191D072901D2002300E0DB1E01268D
:100EE00006FA05F1491E214099409E40761E1640A3
:100EF0003143F0BC01F0C9BC0CED00E0064900F044
:100F0000070208684FF6FF03184040EA0220034A30
:100F100010430860704700000CED00E00000FA0587
:100F20002DE9F0470E46050065D0DFF81481D8F8AA
:100F30000000F7B200F00700B04207D288F8007056
:100F4000D8F8000000F00700B04254D128683D4CAA
:100F5000810712D5400703D5206840F4E050206097
:100F60002878000703D5206840F46040206020689E
:100F7000A96820F0F000084320602878C0072DD031
:100F8000304968680839012812D0022813D0032894
:100F900011D00968890700292DDA216821F00301A1
:100FA00001432160FFF7F2FE814641F2883A0EE0EC
:100FB00009688903EFE709688901ECE7FFF7E6FEB6
:100FC000A0EB0901514502D90320BDE8F087206854
:100FD000696800F00C00B0EB810FEFD1D8F8001079
:100FE000404601F00701B14207D90770006800F0E0
:100FF0000700B04201D00120E7E72878400705D577
:101000002068E96820F4E050084320602878000751
:1010100006D52068296920F4604040EAC1002060BC
:1010200000F058F82168084AC1F30311515CC84028
:101030000649086006480068FFF7D0FE0020C4E7B4
:10104000003C0240083802400857000824000020F5
:101050001C0000200F2202600C4A136803F00303F7
:101060004360136803F0F0038360136803F4E053F4
:10107000C36012684FF4E05303EAD20202610448ED
:10108000006800F007000860704700000838024060
:10109000003C02400448054900680968044AC1F35D
:1010A0008221515CC840704724000020083802406B
:1010B000185700080448054900680968044AC1F344
:1010C0004231515CC840704724000020083802407B
:1010D00018570008154810B5006810F00C021448A5
:1010E00013D01449042A0FD0082A0ED10F4C241F04
:1010F0002268236802F03F025B0207D52068C0F334
:101100008810A0FB010106E0084610BD2168C1F36C
:101110008811A1FB00010023FFF70DF92168C1F33D
:101120000141491C4900B0FBF1F010BD08380240F4
:101130000024F40040787D012DE9F84F04006ED0C2
:101140002078DFF84C93C007A9F104054AD009F1D3
:1011500004000168C1F38101012908D00068C0F3CF
:10116000810002280AD1D9F80000400206D528687B
:10117000800337D560680028E1D033E06068B0F5BF
:10118000803F10D0B0F5A02F286810D020F4803018
:101190002860286820F4802028606068A8B1FFF7E4
:1011A000F5FD06460DE0286840F48030F4E740F491
:1011B00080202860F7E700BFFFF7E8FD801B642868
:1011C00073D828688003F7D50CE0FFF7DFFD0646EB
:1011D00005E000BFFFF7DAFD801B6428F0D828681F
:1011E0008003F7D42078DFF8AC8280074FF0000A44
:1011F0003ED5A748001D016811F00C0F08D000680B
:10120000C0F3810002280BD1D9F80000400207D4B6
:101210002868800716D5E068012800D112E033E184
:10122000E068B8B10120C8F80000FFF7AFFD06463E
:1012300005E000BFFFF7AAFD801B0228C0D8286880
:101240008007F7D52868216920F0F80040EAC1003E
:1012500028600DE0C8F800A0FFF798FD064604E0FE
:10126000FFF794FD801B02281FD828688007F7D459
:101270002078000722D5864F87486169703771B1A1
:1012800001210160FFF782FD064604E0FFF77EFDC5
:10129000801B022809D838688007F7D50EE0C0F80F
:1012A00000A0FFF773FD064605E082E0FFF76EFD44
:1012B000801B02287DD838688007F7D42078400743
:1012C00068D5DFF8CCB100270BF13C0BDBF8000050
:1012D000C0000BD4DBF8001041F08051CBF80010B7
:1012E000DBF80000012700F0805000906B4E306862
:1012F000C00510D4306840F480703060FFF746FDC0
:10130000009005E0FFF742FD0099401A022850D8EE
:101310003068C005F6D55E4EA0686C3601280FD047
:101320000528306810D020F001003060306820F0CF
:1013300004003060A068B8B1FFF728FD00900FE00E
:10134000306840F00100F4E740F004003060F7E757
:10135000FFF71CFD0099411A41F28830814266D89E
:1013600030688007F4D50EE0FFF710FD009007E02D
:10137000FFF70CFD0099411A41F28830814256D89E
:1013800030688007F4D42FB1DBF8001021F08051D1
:10139000CBF80010A069C8B33D49091D0968C1F325
:1013A000810102294AD00228504607D0C8F86000BF
:1013B00000E03CE0FFF7EAFC04463BE04746C8F8A3
:1013C0006000FFF7E3FC064605E000BFFFF7DEFC28
:1013D000801B02282BD828688001F7D4D4E90701A4
:1013E0000843A16A2E4A490802EB0141626A41EAB8
:1013F0008211084394F82C1040EA0161C9F80010EA
:1014000001203866FFF7C2FC044606E03EE000BF5C
:10141000FFF7BCFC001B022809D828688001F7D51B
:1014200034E000BFFFF7B2FC001B022802D9032002
:10143000BDE8F88F28688001F4D427E00128F7D0B0
:10144000D9F80000E26900F4800191421CD1226ABF
:1014500000F03F01914217D147F6C071626A014026
:10146000B1EB821F10D1A26A4FF0FF3300F440317C
:1014700003EB5202B1EB024F06D194F82C1000F0AE
:101480007060B0EB016F01D00120D1E70020CFE701
:101490000438024000004742800E4742007000407E
:1014A0000000FFFF4FF0E0210428086903D020F07E
:1014B00004000861704740F00400FAE77047704785
:1014C00070B590F83C20012A2CD0012480F83C40D3
:1014D000022280F83D2003685A689D6822F0700659
:1014E0000A6832435A60104B02689A420ED0B2F139
:1014F000804F0BD00D4B9A4208D00D4B9A4205D02D
:101500000C4B9A4202D00C4B9A4204D1496825F008
:1015100080031943916080F83D40002180F83C1021
:10152000084670BD022070BD00000140000400406C
:1015300000080040000C00400040014010B50400CD
:1015400003D094F83D0010B107E0012010BD002049
:1015500084F83C00204600F01FF8022084F83D008B
:10156000211D206800F0B4FE012084F8460084F8B4
:101570003E0084F83F0084F8400084F8410084F87D
:10158000420084F8430084F8440084F8450084F85D
:101590003D00002010BD000008B501680B48B1F106
:1015A000804F0BD00A4A914207D1016841F00201F5
:1015B0000160006800F00200009008BD016841F081
:1015C00001010160006800F00100F5E740380240C9
:1015D0000004004090F83D10012901D0012070471F
:1015E000022180F83D100168CA6842F00102CA6019
:1015F00000680E4988420ED0B0F1804F0BD00C49E4
:10160000884208D00B49884205D00B49884202D055
:101610000A49884204D1816801F00701062903D0F4
:10162000016841F0010101600020704700000140A5
:101630000004004000080040000C00400040014051
:1016400070B5044690F83C000025012817D001260B
:1016500084F83C60022084F83D002068826822F013
:10166000770222F47F4282600868502838D00DDC6F
:1016700020284FD005DC90B3102811D14AE0022079
:1016800070BD302846D040280AD13BE060282FD0DA
:1016900070280DD0B0F5805F03D0B0F5005F12D098
:1016A000012584F83D60002084F83C00284670BD88
:1016B000CB68D1E90121206800F063FE20688168D1
:1016C00041F0770109E0CB68D1E90121206800F001
:1016D00058FE2068816841F480418160E1E719E0AB
:1016E000CA684968206800F001FF5021206806E0C0
:1016F000CA684968206800F00AFF6021206800F08D
:101700004AFECEE7CA684968206800F0EFFE402133
:101710002068F4E7226801461046F0E7704770B58C
:101720000446006801694FF00005C943890715D4D4
:10173000C168C943890711D4E91E016101202077DE
:10174000206880698007204602D0FFF7E7FF04E0A9
:1017500000F0D8F8204600F06AF925772068016982
:10176000C943490717D4C168C943490713D46FF067
:1017700004010161022020772068806910F4407F15
:10178000204602D0FFF7CAFF04E000F0BBF8204675
:1017900000F04DF9257720680169C943090716D47F
:1017A000C168C943090712D46FF008010161042020
:1017B00020772068C0698007204602D0FFF7AEFF7F
:1017C00004E000F09FF8204600F031F9257720680A
:1017D0000169C943C90617D4C168C943C90613D4EE
:1017E0006FF010010161082020772068C06910F4B3
:1017F000407F204602D0FFF791FF04E000F082F81E
:10180000204600F014F9257720680169C943C9070B
:1018100008D1C168C943C90704D1891E01612046A6
:1018200000F05EF920680169C943090609D4C1685E
:10183000C943090605D46FF0800101612046FFF716
:101840003DFE20680169C943490609D4C168C943FE
:10185000490605D46FF040010161204600F04AF9C5
:1018600020680169C94389060BD4C168C943890648
:1018700007D46FF0200101612046BDE87040FFF7FA
:101880001EBE70BD10B586B0044614216846FEF732
:1018900016FE2368002117480222B3F1804F17D0AB
:1018A000154CA34212D1036843F0020303600068A1
:1018B00000F00200059003200090CDE90121CDE960
:1018C00003120E48694600BFFFF76AF906B010BD63
:1018D000036843F001030360006800F00100059015
:1018E0000F200090CDE901210120CDE903106946C8
:1018F0000348E9E730380240000400400004024099
:1019000000000240704770B5044690F83C00002685
:101910000D4601280FD0012084F83C006AB1042A4A
:101920001DD0082A2FD00C2A3FD00126002084F891
:101930003C00304670BD022070BD206800F034FDD0
:101940002068816941F0080181612068816921F086
:1019500004018161206881692A69114311E02068CE
:1019600000F04AFD2068816941F4006181612068CE
:10197000816921F480618161206881692A6941EA75
:1019800002218161D2E7206800F062FD2068C16910
:1019900041F00801C1612068C16921F00401C16101
:1019A0002068C1692A69114311E0206800F07CFDBC
:1019B0002068C16941F40061C1612068C16921F4F6
:1019C0008061C1612068C1692A6941EA0221C1615F
:1019D000ACE710B5040003D094F83D0010B107E067
:1019E000012010BD002084F83C00204600F01EF8C5
:1019F000022084F83D00211D206800F069FC0120D0
:101A000084F8460084F83E0084F83F0084F84000E3
:101A100084F8410084F8420084F8430084F84400CC
:101A200084F8450084F83D00002010BD70477047E1
:101A300010B50446022249B104290ED0082913D05A
:101A400094F84100012816D0012010BD94F83E0002
:101A50000128F9D184F83E200FE094F83F000128D6
:101A6000F2D184F83F2008E094F840000128EBD13F
:101A700084F8402001E084F841200122206800F031
:101A800073FC12492068884203D1426C42F4004240
:101A90004264206888420ED0B0F1804F0BD00C49D0
:101AA000884208D00B49884205D00B49884202D0B1
:101AB0000A49884204D1816801F00701062903D050
:101AC000016841F001010160002010BD00000140EB
:101AD0000004004000080040000C004000400140AD
:101AE00000680349884201D1FFF756B970470000EA
:101AF000000001407047704710B504460068406917
:101B000094F83D10C0F3C010212911D180B1206894
:101B1000143050E8001F21F0800140E80012002A34
:101B2000F5D1606B08B1FEF70CFF204600F07BFD9D
:101B30002068406994F83E10C0F38010222911D12A
:101B400080B12068143050E8001F21F0400140E8C7
:101B50000012002AF5D1A06B08B1FEF7F2FE204674
:101B600000F03AFD002010BD70470000F8B5016894
:101B700004460868CA684B6910F00F0F4FF0000563
:101B80005AD003F0010602F49077374365D0C107BD
:101B900005D0D10503D5216C41F001012164410735
:101BA00005D5D90703D0216C41F0020121648107DA
:101BB00005D5D90703D0216C41F004012164010748
:101BC00007D502F02001314303D0216C41F0080118
:101BD0002164216C00293BD0800604D5900602D5F3
:101BE000204600F02EFD20684069216CC0F3801073
:101BF00001F00801014320462BD000F0EDFC2068E5
:101C00004069400621D52068143050E8001F21F0BB
:101C1000400140E80012002AF5D1A06BA8B16C4940
:101C20000165A06BFEF7D6FE002811D0A06B016DF8
:101C300001B0BDE8F040084783060ED593060CD5E9
:101C40002046BDE8F84000F0FCBC2046FFF78CFFC2
:101C5000F8BDFFF789FF2564F8BD266B2023012E10
:101C600079D1C60677D5D60675D50868486800903C
:101C70004869400640D5A16B086840680004000C24
:101C8000EAD0A28D8242E7D9E085C869B0F5807FAD
:101C90002DD020680C3050E8001F21F4807140E8FE
:101CA0000012002AF5D12068143050E8001F21F0FE
:101CB000010140E80012002AF5D12068143050E8F4
:101CC000001F21F0400140E80012002AF5D184F8FD
:101CD0003E30256320680C3050E8001F21F01001D1
:101CE00040E80012002AF5D1A06BFEF72AFEA08D75
:101CF000E18D401A81B229E0A08DE18D401A81B2B8
:101D0000E08D0028A8D00029A6D020680C3050E82B
:101D1000002F22F4907240E80026002EF5D12068B2
:101D2000143050E8002F22F0010240E80026002E77
:101D3000F5D184F83E30256320680C3050E8002F40
:101D400022F0100240E80023002BF5D12046FFF7D7
:101D5000D2FEF8BDFFE705062BD5150629D594F868
:101D60003D002128F5D1A068B0F5805F01D1206940
:101D7000B0B1206A411C2162216800784860E08C83
:101D8000401E0004000CE084E3D12068C16821F00B
:101D90008001C1602068C16841F04001C160D8E79E
:101DA000206A0088C0F308004860206A801C206216
:101DB000E5E74006CDD55006CBD5CA68204622F0CF
:101DC0004002CA6084F83D3000F00EF9C1E700001F
:101DD0003325000870B5040004D094F83D000025B8
:101DE00010B106E0012070BD84F83C50204600F0A0
:101DF00023F8242084F83D002068C16821F40051B4
:101E0000C160204600F07EFC2068016921F4904109
:101E100001612068416921F02A0141612068C1689F
:101E200041F40051C1602564202084F83D0084F80D
:101E30003E00002070BD000030B500681F4987B02B
:101E4000884238D11E48016841F0100101600068E5
:101E500000F0100005901A481438016841F00101A3
:101E60000160016801F001010591016841F0010183
:101E700001600068012100F0010005904FF400703E
:101E800000900220CDE901010724CDE903040D4DA6
:101E900069462846FEF784FE28150090694604949A
:101EA0002846FEF77DFE2520FEF7FAFF03221146A5
:101EB0002520FFF703F807B030BD000000100140F7
:101EC000443802400000024090F83E30202B0ED1F2
:101ED00059B152B190F83C30012B08D0012380F861
:101EE0003C300023036300F093BC012070470220C4
:101EF0007047000030B400681549884225D1154864
:101F000041880A0416D402464C0412784FF00003AC
:101F100004D50A2A0DD141F4004114E00D2A10D055
:101F2000C1F30D040C4D491C89B22A554180C729C3
:101F300000D943800848012230BC0649C830FFF769
:101F4000C3BF41F480414180F4E730BC70470000DA
:101F5000001001400C000020AC00002070B50446C9
:101F600090F83D00202836D191B38AB394F83C0014
:101F7000012830D0012084F83C002162A284E28450
:101F800000252564212084F83D00636B1348D86345
:101F9000636B13481864636B1248D864606B134614
:101FA00005652668606B321DFEF7C2FD21686FF083
:101FB0004000086084F83C502068143050E8001F4E
:101FC00041F0800140E80012002AF5D1002070BDE8
:101FD000FFE70120FBE70220F9E700008D2500085C
:101FE000CF2500084325000870477047FEE7000032
:101FF0001CB505490120CDE900010023802203A181
:10200000054802F05BFC1CBD000000207374617287
:10201000745F7461736B00001D3D000870B586B07D
:1020200014216846FEF74BFA0E480024016841F07F
:102030000401016000680C4E00F004004FF40055EC
:102040000590224629463046FEF79AFE012000956B
:10205000CDE90104694630460394FEF7A1FD06B0C0
:1020600070BD0000303802400008024070B58EB0EC
:1020700000240E4605460794089409940A940B948C
:102080001C2168460C94FEF71AFA32484FF0804142
:10209000C0E902450461C0E9001680218161FFF7B3
:1020A0004DFA08B1FEF741FC4FF48050079007A9A4
:1020B0002848FFF7C5FA08B1FEF737FC2548FFF7B7
:1020C00088FC08B1FEF731FC0B940BA921480C9455
:1020D000FFF7F6F908B1FEF728FC602000903220E7
:1020E000CDE90104002269461A480494FFF70BFC6D
:1020F00008B1FEF71AFC042269461648FFF703FCF4
:1021000008B1FEF712FC082269461248FFF7FBFBF4
:1021100008B1FEF70AFC0C2269460E48FFF7F3FBF4
:1021200008B1FEF702FC0B48FFF7ACFB0A480021A0
:1021300005800848FFF77CFC04210648FFF778FC7F
:1021400008210448FFF774FC0C210248FFF770FCDB
:102150000EB070BDD44A0020A800002070B58EB02B
:1021600000240D4606460794089409940A940B949B
:102170001C2168460C94FEF7A2F92548234901600A
:10218000C0E90154C0E903648461FFF7D7F908B1DD
:10219000FEF7CBFB4FF48050079007A91C48FFF7D0
:1021A0004FFA08B1FEF7C1FB1948FFF712FC08B15E
:1021B000FEF7BBFB0B940BA915480C94FFF780F9B5
:1021C00008B1FEF7B2FB602000905020CDE9010479
:1021D000082269460E480494FFF795FB08B1FEF704
:1021E000A4FB0C2269460A48FFF78DFB08B1FEF7F5
:1021F0009CFB0748FFF746FB08210548FFF718FC42
:102200000C210348FFF714FC0EB070BD0004004021
:102210001C4B0020FEE7FEE710B54FF0E020006900
:1022200002F0A4FB012803D0BDE8104002F0A6B8DC
:1022300010BD000010B592B030216846FEF73FF99E
:1022400014210CA8FEF73BF918480024016841F05E
:1022500080510160006800F08050119014480168BE
:1022600021F4404141F4004101600068069400F40B
:102270004040119002200090012003901020049013
:102280006846FEF759FF08B172B6FEE70F20CDE9A8
:102290000C040E940F9400210CA81094FEF740FE3D
:1022A000002801D072B6FEE712B010BD40380240DF
:1022B000007000400248016841F4700101607047FD
:1022C00088ED00E00148FFF72ABA0000B8010020BD
:1022D000F0B502681D4B1E4C9F031E4D1E4E9842CA
:1022E00007D0B84205D0A04203D0A84201D0B042E6
:1022F00004D122F0700C4A6842EA0C02984210D0D5
:10230000B8420ED0A0420CD0A8420AD0B04208D0A9
:10231000124CA04205D0124CA04202D0114CA04257
:1023200003D122F44074CA6822434C6922F080022F
:10233000224302608A68C2620A688262984201D1BE
:102340000969016301214161F0BD00000000014005
:102350000004004000080040000C00400040014024
:10236000004401400048014010B501F01F03012165
:10237000046A99408C430462016A9A4011430162E5
:1023800010BD10B5846842EA032224F47F440A4356
:102390002243826010BD826822F070020A4342F03C
:1023A000070181607047000030B5026A22F0010227
:1023B0000262026A4368846924F073050C682C4346
:1023C00022F002058A682A430A4DA8420BD122F066
:1023D0000805CA6823F440732A434D6922F00402B9
:1023E0001D438B692B4343608461496841630262EA
:1023F00030BD00000000014030B5026A22F010023A
:102400000262026A436884690D6824F4E64444EA7F
:1024100005248D6822F0200242EA05120B4DA842E5
:102420000ED1CD6822F0800242EA05124D6923F4F4
:10243000406343EA85038D6922F0400243EA850345
:102440004360846149688163026230BD00000140DD
:1024500030B5026A22F480720262036A4268C4697B
:1024600023F4007324F073050C682C438D6843EA51
:1024700005230C4DA8420ED1CD6823F4006343EA36
:1024800005234D6922F4405242EA05128D6923F476
:10249000806342EA05124260C4614968C163036215
:1024A00030BD00000000014030B5026A22F48052C5
:1024B0000262046A4268C3690D6823F4E64343EA92
:1024C00005238D6824F4005444EA0534064DA842DF
:1024D00004D14D6922F4804242EA85124260C36110
:1024E00049680164046230BD0000014010B5036A10
:1024F000046A24F001040462846924F0F00444EACC
:10250000021423F00A020A438461026210BD10B56E
:10251000036A23F0100303628369046A23F470439F
:1025200043EA023224F0A00343EA0111826101620E
:1025300010BD10B5806B0021C185C184FFF714FB6D
:1025400010BD70B5846B2068406994F83D10C0F3ED
:10255000C0100025212904D118B1E584204600F0DF
:1025600062F82068406994F83E10C0F38010222978
:1025700004D118B1E585204600F02EF8206C40F01B
:10258000100020642046FFF7EFFA70BD10B5014639
:10259000806B09680968C90516D40021C1840168E7
:1025A000143151E8002F22F0800241E80023002B73
:1025B000F5D101680C3151E8002F42F0400241E8AA
:1025C0000023002BF5D110BDFFF70EFD10BD10B597
:1025D000806BFFF70AFD10BD01680C3151E8002F38
:1025E00022F4907241E80023002BF5D101681431E8
:1025F00051E8002F22F0010241E80023002BF5D121
:10260000016B012909D101680C3151E8002F22F03A
:10261000100241E80023002BF5D1202180F83E1064
:1026200000210163704701680C3151E8002F22F04E
:10263000C00241E80023002BF5D1202180F83D1095
:10264000704708B590F83E10222901D0022008BD3D
:1026500082684FF480539A4201D1016921B1816AA5
:102660009A421BD04AB10AE00268816A5268C2F3FA
:1026700008020A80816A891C08E0026972B1026856
:10268000526802F07F020A70816A491C8162C18D22
:10269000491E0904090CC18503D019E0026852687B
:1026A000F1E70168CA6822F02002CA600168CA68BE
:1026B00022F48072CA6001684A6922F001024A610C
:1026C000202180F83E10016B012903D0FFF712FC96
:1026D000002008BD0021016301680C3151E8002F82
:1026E00022F0100241E80023002BF5D101680A68AE
:1026F000D20602D50A6849680091818DFFF7FBF97F
:10270000E6E7000070B5044600680169E26821F45C
:102710004051114301612169A068E2690843616980
:10272000114308432168CA6849F20C639A43024383
:10273000CA6020684169A26921F440711143416176
:1027400031492068884202D03049884202D1FEF7E0
:10275000B1FC01E0FEF79EFCE2690023192164252B
:102760003226B2F5004F626828D0A0FB0101930F1A
:102770009200FDF7E0FD0146B0FBF5F06FF01802A6
:10278000504301EB800006EB0010B0FBF5F000F0C9
:10279000F002B1FBF5F002EB0012B1FBF5F06FF0C7
:1027A0001803584301EB800006EB0010B0FBF5F076
:1027B00000F00F0021681044886070BDA0FB01018B
:1027C00092185B41FDF7B7FD0146B0FBF5F0020141
:1027D000B1FBF5F06FF01803584301EB800006EBF6
:1027E000C000B0FBF5F000F0F80002EB4002B1FBD6
:1027F000F5F0584301EB800006EBC000B0FBF5F0AC
:1028000000F00700D6E7000000100140001401406E
:1028100081628285C28500210164222280F83E20E7
:1028200080F83C10016921B10168CA6842F48072E5
:10283000CA6001684A6942F001024A610068C168E1
:1028400041F02001C1600020704700000148FFF7FF
:102850008DB9000074010020FEE703B40198410027
:10286000009850EAC12018BF04204A0D18BF40F05C
:10287000010040F2FF72B2EB515F08BF40F002006E
:10288000012808BF052002B070470907090E00287B
:1028900004DB00F1E02080F80014704700F00F0026
:1028A00000F1E02080F8141D7047000000000000D7
:1028B00010B52F499FED2C1B2DED020B84B0059810
:1028C00020F000408842D8BF9DED040B2DDD294942
:1028D000884209D1049840B94FF00100FDF71FFE6E
:1028E00000F0A2FC06B010BD05DB9DED040B00F06E
:1028F0008FFC06B010BD68469DED040B00F0A0F8FB
:1029000010F0030004BF9DED021B9DED000B0CD0E9
:1029100001280ED09DED021B9DED000B022817D063
:10292000012000F0DDFB06B010BD00F0A5FA06B0F6
:1029300010BD9DED021B9DED000B012000F0D0FBB2
:1029400051EC100B02F0C8F906B041EC100B10BDB1
:1029500000F092FA51EC100B02F0BEF906B041EC17
:10296000100B10BD0000000000000000000000007F
:10297000FB21E93F0000F07F10B52F499FED2C1B94
:102980002DED020B84B0059820F000408842DCBF9A
:1029900000209DED040B32DD2849884209D10498BE
:1029A00040B94FF00100FDF7BAFD00F03DFC06B064
:1029B00010BD05DB9DED040B00F02AFC06B010BD38
:1029C00068469DED040B00F03BF810F0030011D0B9
:1029D000012818D09DED021B9DED000B02281AD096
:1029E00000F04AFA51EC100B02F076F906B041EC17
:1029F000100B10BD9DED021B9DED000B012000F0A2
:102A00006FFB06B010BD9DED021B9DED000B00F0AD
:102A100033FA06B010BD012000F062FB51EC100B40
:102A200002F05AF906B041EC100B10BD0000000096
:102A30000000000000000000FB21E93F0000F07FE3
:102A40002DE9F14F04462DED020B2DED088B8AB0D8
:102A50009FEDE70B80ED020B139EE74826F0004543
:102A600085420ADC9DED120B002084ED000B0AB0BC
:102A7000BDEC088B03B0BDE8F08FE0489FEDE0AB04
:102A80009FEDE1BBA84247DDE14F9FEDE39B9FED4A
:102A9000E48B9DED120B53EC1A2B51EC100B002E16
:102AA0001CDD02F039FD41EC100BBD4208D053ECA7
:102AB0001B2B51EC100B02F02FFDC4E900010BE0C1
:102AC00053EC192B51EC100B02F026FD53EC182B94
:102AD00002F022FDC4E900010120C8E702F03AF942
:102AE00041EC100BBD4208D053EC1B2B51EC100BEA
:102AF00002F030F9C4E900010BE053EC192B51EC62
:102B0000100B02F027F953EC182B02F023F9C4E95B
:102B100000014FF0FF30AAE7C348A84279DB9DEDE2
:102B2000120B51EC100B00F01BFC41EC180B9FED4D
:102B3000C00B53EC102B02F0AFFB9FEDBF1B53EC0F
:102B4000112B02F007F902F011FB074602F03DFBE2
:102B500041EC190B53EC1A2B02F09EFB53EC182B93
:102B600002F0CEFC41EC180B53EC1B2B51EC190B73
:102B700002F092FBDFF8C8A241EC100B4FEA1558A7
:102B80000125FA4453EC102B51EC180B02F0C4FC55
:102B9000032DC4E900013DD0C1F30A5005EB4511F6
:102BA000A8EB00001139814234DA0AEB051BB0EEC4
:102BB00048AA9BED000BF0EE68AA53EC102B51ECE9
:102BC000190B02F069FB41EC1B0B51EC1A0B53EC97
:102BD0001B2B02F0A1FC41EC180B51EC1A0B53EC2F
:102BE000182B02F099FC53EC1B2B02F095FC9BED8B
:102BF000020B41EC1A0B53EC102B51EC190B02F0A9
:102C00004BFB53EC1A2B02F087FC41EC100B6D1CB4
:102C1000B8E70EE0002EA8BF3846BFF628AF94ED07
:102C2000000B51EC100B02F057F8C4E90001784298
:102C30001DE7C6F3130040F4801EC6F30A50A0F24D
:102C4000F530471100F01F05C5F12000DDF848B050
:102C500008900020069007900520EC467949002D49
:102C600007EB0002794408BF51F8221009D051F84F
:102C7000223001EB8201AB404A68089922FA01F147
:102C80001943A1FB0E26A1FB0B131A449A4234BF31
:102C90000123002303EB06080CEB8003D3E901A614
:102CA0000E448E4234BF0121002192448A4411B166
:102CB000924502D903E0924501D2012100E00021B2
:102CC000C3E901A641444CF82010011EA0F1010007
:102CD000C4DC029800F10050850F0298DDE903671B
:102CE0008000DDF8148002F070FA41EC1A0B3046D7
:102CF00002F082FA9FED541B53EC112B02F0CCFA38
:102D000041EC1B0B384602F077FA9FED511B53EC58
:102D1000112B02F0C1FA41EC180B404602F06CFA9C
:102D20009FED4D1B53EC112B02F0B6FA41EC190B41
:102D300051EC180B53EC192B02F00CF853EC1B2B35
:102D400002F008F853EC1A2B02F004F8CDE9080160
:102D5000002008909DED080B53EC1A2B51EC100B42
:102D600002F0DAFB53EC1B2B02F0D6FB53EC182BD2
:102D700002F0D2FB53EC192B02F0C2FB9FED381B83
:102D800053EC112B02F088FA9FED370B41EC180B36
:102D900053EC102B9DED080B51EC100B02F07CFA5C
:102DA00053EC182B01F0D6FF9FED310B41EC180BC3
:102DB00053EC102B9DED080B51EC100B02F06CFA4C
:102DC00053EC182B01F0C6FF41EC100B139810F0D8
:102DD000004F06D06D4251EC100B01F07DFF41EC2D
:102DE000100B284684ED000B41E6000000000000B7
:102DF0000000000000000000FB21E93F7CD90240F8
:102E000000004054FB21F93F3163621A61B4D03DA8
:102E1000FB21F93F000000000000601A61B4D03DC2
:102E20007370032E8A19A33BFB2139410000000077
:102E300083C8C96D305FE43F000000000000E03F40
:102E4000CA2B0000182B0000000000000000103EFC
:102E5000000000000000103C000000000000103ADC
:102E6000182D4454FB21F93D3326A611460B113C85
:102E700000000054FB21F93D10B52DED040B2DEDA4
:102E8000088B82B0B0EE419AF0EE619A0B9820F078
:102E900000449FED4BABB4F1795F11DA9DED0A0B65
:102EA00051EC100B02F062F9002801BFB0EE4A0AA3
:102EB000F0EE6A0A02B0BDEC088B04BF04B010BD8E
:102EC0009DED0A0B53EC102B51EC100B02F0E4F9C2
:102ED00041EC180B3C480621B0EE480AF0EE680AB7
:102EE000784400F081F853EC182B51EC100B02F0F1
:102EF000D3F99DED0A0B41EC1B0B53EC192B51EC54
:102F0000100B02F0C9F941EC190B53EC1B2B51ECDF
:102F1000180B02F0C1F953EC192B02F0FDFA9FEDEA
:102F20002C0B41EC190B53EC102B51EC180B02F04D
:102F3000B3F941EC100B2848844210DA53EC192BFA
:102F400051EC100B02F0E8FA53EC1A2B02F0D8FA0D
:102F500041EC100B02B0BDEC088B04B010BD1F4853
:102F6000A042BCBF9FED1E1B8DED001B06DBA4F530
:102F700000100190002000909DED001B51EC100B03
:102F800053EC112B02F0C8FA9DED000B41EC180B2D
:102F900053EC102B51EC1A0B02F0BEFA41EC1A0B59
:102FA00053EC192B51EC180B02F0B6FA53EC1A2B18
:102FB00002F0A6FA41EC100BCCE700000000000084
:102FC000000000000000F03F3C280000000000006E
:102FD000000000000000E03F3333D33F0000E93F32
:102FE000000000000000D23F70B504462DED028BBA
:102FF0004D1E00EBC500B0EE408AF0EE608A90ED09
:10300000000B35F0060017D053EC182B51EC100BC9
:1030100002F042F941EC100B6D1E04EBC50090ED7F
:10302000001B51EC100B53EC112B01F093FE41EC03
:10303000100B35F00600E7D1022D36D0042D1CD040
:10304000062D1CBFBDEC028B70BD53EC182B51EC50
:10305000100B02F021F994ED0A1B53EC112B01F037
:1030600079FE53EC182B02F017F994ED081B53EC82
:10307000112B01F06FFE41EC100B53EC182B51ECAF
:10308000100B02F009F994ED061B53EC112B01F023
:1030900061FE53EC182B02F0FFF894ED040B53EC97
:1030A000102B01F057FE41EC100B53EC182B51EC98
:1030B000100B02F0F1F894ED021B53EC112B01F010
:1030C00049FE53EC182B02F0E7F894ED001B53EC8B
:1030D000112B01F03FFEBDEC028B41EC100B70BDDB
:1030E00031B504462DED040B2DED0A8BB0EE41BA3F
:1030F000F0EE61BA0B989DED0A0B20F00040B0F1A4
:10310000795F0DDA51EC100BFFF7A7FB042808BF1D
:1031100000F09AF89DED0A0BBDEC0A8B05B030BDAE
:1031200053EC102B51EC100B02F0B6F841EC180BDD
:103130009DED0A0B53EC182B51EC100B02F0ACF880
:1031400041EC190B2C48B0EE480AF0EE680A052154
:103150007844FFF749FF9FED2ACBB0EE40AAF0EE8E
:1031600060AA9CB353EC1C2B51EC190B02F094F8A1
:1031700041EC1C0B53EC1A2B51EC190B02F08CF8A0
:103180009FED210B41EC190B53EC102B51EC1B0B59
:1031900002F082F853EC192B02F0BEF953EC182B15
:1031A00002F07AF853EC1B2B02F0B6F953EC1C2B0F
:1031B00002F0B2F99DED0A1B53EC112B02F0A0F9BD
:1031C000BDEC0A8B05B041EC100B30BDFFE753ECB2
:1031D0001A2B51EC180B02F05FF853EC1C2B01F08A
:1031E000B9FD53EC192B02F057F89DED0A1B53EC77
:1031F000112B01F0AFFDE3E7C42600000000000042
:10320000495555555555C5BF000000000000E03F29
:1032100010B553EC102B51EC100B01F09BFD41EC61
:10322000100B10BD000000009FED050B10B553EC16
:10323000102B51EC100B01F041FE41EC100B10BDB6
:1032400000000000000000009FED050B10B553ECDE
:10325000102B51EC100B02F01FF841EC100B10BDBD
:1032600000000000000000107047000010B5044688
:103270000420FEF717F90148046010BD1400002077
:103280001E2170B5B0FBF1F2B0FBF1F501FB1204A9
:1032900047F2305603E0304600F00EF86D1E002D68
:1032A000F9D1002C06D04FF47A706043BDE870402D
:1032B00000F002B870BD000070B54FF0E0240022AD
:1032C00065690949A36909684843A1699942FCD025
:1032D00002D2A3EB010302E0A5EB010633441A443A
:1032E0000B468242F1D370BD1400002038B5184C53
:1032F000184A0023A042146806D944F480041460DC
:10330000126802F4800205E044F4001414601268AC
:1033100002F400120092114C0F4A62639463C2E9F6
:1033200000014020C2E902030001C2E90403800158
:103330009361C2E907300320C2E90930D362104625
:103340001363FDF759FBBDE838400348FDF786BB22
:103350000064024030380240644B002074010020B9
:1033600082B0CDE9000121F0004001909DED000BFD
:1033700002B051EC100B70470A4C4FF400564FF45A
:103380007A75002231462046FDF7FAFC284600F007
:103390002FF8012231462046FDF7F2FC284600F0C6
:1033A00027F8EEE700080240FDF7FEFCFEF742FFBB
:1033B0001020FFF75BFFFEF731FE07216420FEF7C8
:1033C00055FE07216420FEF7C9FE4FF4E13000F0FE
:1033D000DDFC4FF000610548FFF788FF00F016F8AC
:1033E000FEF706FE00F024F8FEE70000B864024095
:1033F00010B5EFF3058111B16FF0050403E000246F
:1034000008B100F013FE204610BD0000EFF3058068
:1034100010B16FF0050070470448016811B14FF01A
:10342000FF307047012101600020704778000020C4
:1034300010B5EFF3058010B16FF0050010BD08481E
:103440000168012902D04FF0FF3010BD054A00216C
:1034500082F8141D0221016000F098FE002010BDCA
:10346000780000200BE000E02DE9F041134C0F46FE
:103470000546E6682068001D00F0A4FC681C07D122
:1034800037B12168BDE8F0410D48091D00F0EABCE4
:1034900020683544B5424560216805D2A06BBDE87F
:1034A000F041091D00F0C6BC606B091D00F0C2FCB4
:1034B000A06A854200D2A562BDE8F0812800002004
:1034C000F00600202DE9F041054600F0D7FC2D4C18
:1034D000A068401CA06020682B4F10B1606930B319
:1034E0002BE02560A068012827D1002606EB860086
:1034F00007EB800000F090FC761C382EF6D32348B2
:1035000000F08AFC2148143000F086FC1F48283067
:1035100000F082FC1D483C3000F07EFC1B4850301F
:1035200000F07AFC194860631430A06305E020685D
:10353000E96AC06A884200D82560606A401C6062FF
:103540006864E86A2169884200D9206100EB800044
:1035500007EB8000291D00F085FC00F0AFFC6069DE
:1035600000280CD02068E96AC06A884207D208495E
:103570004FF080500860BFF34F8FBFF36F8FBDE8EF
:10358000F08100002800002040020020A00600205A
:1035900004ED00E038B500F071FC104C2068C8B9AB
:1035A0000F4800F039FC0E48143000F035FC0C4890
:1035B000E060143020610A4B0020F03B009003F1E2
:1035C000500210210A2000F01BFF206010B105A15D
:1035D00000F0F6FCBDE8384000F070BC640000204C
:1035E000F4070020546D72510000000030B4026CEA
:1035F0000B46002A0BD0C1681144C1608468A14207
:1036000001D30168C16030BC1846FCF70BBF30BC69
:1036100070472DE9F041856B174604460026026C81
:1036200082B1C7B1E068FCF7FDFEE168206C091AC1
:10363000E1602268914202D2A168081AE060022F7C
:1036400016D017E02068A8B9A06801F007FA06466E
:103650000020A0600EE06068FCF7E4FE216C60686A
:1036600008446060A168884204D32068606001E07B
:1036700005B16D1E6D1CA5633046BDE8F08110B527
:10368000044690F8590058B101280CD002280FD0F8
:10369000502080F31188BFF34F8FBFF36F8FFEE789
:1036A000206B00F01FFC2046BDE8104000F01ABC63
:1036B00010BD000010484FF47051420706D0C01DE5
:1036C0000D4920F00700411AC1F570510B4A002343
:1036D0000144C2E900030839183A21F007011160DA
:1036E0004B600B600B1AC0E9001393604FF0004071
:1036F0005360506170470000D40E002094000020F9
:10370000144E154CA6F29C474FF08058DFF84C90B1
:1037100012E000BF00F0B2FBF068C568281D00F0A1
:1037200051FBA068401EA0606068401E606000F011
:10373000C5FB2846FFF7A3FF60680028EAD1386878
:103740000128F9D9C9F80080BFF34F8FBFF36F8FFD
:10375000F2E70000DC0600202800002004ED00E075
:10376000002807D00021816001600B460A46C16035
:1037700000F0BEBE7047000070B51D46049C51B1FC
:10378000C4F80020C4E90F010121204600F06CFEBE
:1037900084F84C5070BD2460F4E700002DE9F05F20
:1037A0008846DDE90B941546834691009A460A9EA9
:1037B000A522206BFCF77BFE6FF00301206B01EB71
:1037C0008501084420F00707780707D0502080F3D0
:1037D0001188BFF34F8FBFF36F8FFEE70025B8F15D
:1037E000000F0FD05FF00000221818F8001082F8C8
:1037F000341018F8001011B1401C1028F4D384F8CC
:10380000435001E084F83450382E00D33726E66266
:10381000C4E91365201D00F00AFB04F1180000F054
:1038200006FB2461C6F138006462A061656584F816
:10383000585052465946384600F05AFA2060B9F1BD
:10384000000F01D0C9F80040BDE8F09F30B5114924
:1038500000E011460A688242FBD34B685C18844240
:1038600003D1406818444860084643681C189442D5
:1038700009D1084C183C2468A24209D052681A4465
:1038800042600A6812680260814200D0086030BD60
:103890000460F9E79400002070B5002441600B4DEE
:1038A0000061914206D8D11A8269914206D2011D67
:1038B000286907E09A4203D2994201D3012403E028
:1038C000011DE86800F0B6FA204670BD64000020D3
:1038D00010B5044600F0D2FAA06B28B15FF00004E6
:1038E00000F0ECFA204610BD0124F9E730B589B0AC
:1038F0003C4D6EE00498002806DADDE90601059AE1
:1039000090470498002864DB069C606910B1201D74
:1039100000F058FA03A800F0D7F8024604980A28E5
:1039200057D2DFE800F00505052D334A05052D3394
:1039300094F8280040F0010084F828000599A06957
:10394000059B01442046FFF7A7FF68B3216A204684
:10395000884794F8280040073BD500200090059840
:10396000A169002342181946204601F081F9D8B90F
:10397000502080F31188BFF34F8FBFF36F8FFEE7A6
:1039800014F8280F20F00100207022E094F828009D
:1039900040F0010084F828000598A06128B1811842
:1039A00013462046FFF778FF13E0502080F311887C
:1039B000BFF34F8FBFF36F8FFEE794F828008107A6
:1039C00003D4204600F08EFA03E020F0010084F8D2
:1039D0002800002204A9286800F09AFE002889D156
:1039E00009B030BD640000202DE9FC410F460546BA
:1039F00000F010FC01A800F067F80446019818B127
:103A000001F0A4F8BDE8FC81254EAFB13069006833
:103A1000D0B30027291B3A46306800F0E5FA01F0E0
:103A200095F80028EED11F494FF080500860BFF391
:103A30004F8FBFF36F8FE5E7A542EBD801F086F813
:103A4000F0682746C068C468201D00F0BBF994F8F0
:103A50002800410719D5A0692B4641193A4620464E
:103A6000FFF71AFFA8B100200346014600902A463E
:103A7000204601F0FDF860B9502080F31188BFF3B3
:103A80004F8FBFF36F8FFEE707E020F0010084F84F
:103A90002800216A20468847B4E70127BAE70000DA
:103AA0006400002004ED00E00648416B096829B17C
:103AB000416BC968C9684968816270474FF0FF313E
:103AC000FAE700002800002070B5054600F05CFF12
:103AD000064E0446B068844203D200F009F8012083
:103AE00000E0002028602046B46070BD6400002023
:103AF000F8B5194D20E0C068C4680668201D00F0C4
:103B000061F9216A2046884794F82800400713D5B8
:103B1000A0693044B04206D924616060211DE86884
:103B200000F088F908E00020034601460090324684
:103B3000204601F09DF838B1E86801680029DAD123
:103B40002969C5E90310F8BD502080F31188BFF33F
:103B50004F8FBFF36F8FFEE7640000200848406876
:103B6000401C4FF0500080F3118804D0BFF34F8FFA
:103B7000BFF36F8FFEE7BFF34F8FBFF36F8FFEE78B
:103B80009C000020074CE068016841B1C06800213A
:103B9000D0F80000FFF728FFFFF7A8FEF3E70121A8
:103BA0000020F7E7640000202DE9F041044600F012
:103BB00065F994F9455004F1240609E0606A48B1BA
:103BC000304600F08BFF08B100F0A6FA6D1E6DB212
:103BD000002DF3DC4FF0FF3684F8456000F06EF9FD
:103BE00000F04CF994F9445004F1100709E0206901
:103BF00048B1384600F072FF08B100F08DFA6D1E32
:103C00006DB2002DF3DC84F84460BDE8F04100F0B3
:103C100055B900002DE9F0410546002700F0FAFAF9
:103C2000324E306808B9FFF745FD706905424ED144
:103C3000C5B3083568070ED005F00700C0F10800CD
:103C40000544680707D0502080F31188BFF34F8FD9
:103C5000BFF36F8FFEE72DB37068854237D82348D6
:103C6000183001460C6801E020460C466168A94204
:103C700002D221680029F7D131688C4227D0076829
:103C80002168016060680837411B10290FD960194D
:103C9000420708D0502080F31188BFF34F8FBFF345
:103CA0006F8FFEE713E041606560FFF7CFFD61684D
:103CB0007068401A7060B268904200D2B06070695B
:103CC00001430020C4E90001F068401CF06000F0EE
:103CD0003DFF780707D0502080F31188BFF34F8F46
:103CE000BFF36F8FFEE73846BDE8F0817C0000200F
:103CF00010B5031F4FF080741C601B1F21F00101E1
:103D00001960191F044B0B6014390A60091F6FF00A
:103D1000020244380A6010BD5D3B00081CB501205A
:103D200000F042FB1049086000F0A8F80F4902209B
:103D3000CDE90001002380220DA1104800F0BEFD56
:103D40000A490120091DCDE90001002380220CA1B0
:103D50000D4800F0B3FD0548001F006800F08CF925
:103D6000BDE81C4000F0AAB81000002004000020AC
:103D7000696E666F5461736B000000007933000850
:103D8000434D445461736B00450600080B4910B560
:103D9000094AC1E9002000208860C8600861886184
:103DA0000C2048610846FEF715F8BDE810400122D6
:103DB00003490248FEF788B8001001407401002052
:103DC0000C000020D0E9013201699A60D0E901239A
:103DD0005A604A68824201D182684A6000220261C8
:103DE0000868401E0860086870470000034B0360C5
:103DF00003F15C0008608020106070471C08002000
:103E0000044B036003F15C0008604FF480701060A5
:103E100070470000780A002000F108014FF0FF32DF
:103E2000C0E90112C16001610021016070470021F9
:103E30000161704730B50B685A1C02D000F10802CE
:103E400002E0026904E02246546825689D42FAD9DE
:103E500053684B6099608A60516008610168491C31
:103E6000016030BD42684A6093688B609368596016
:103E7000916008610168491C01607047502080F31F
:103E80001188BFF34F8FBFF36F8F0A494868401CFA
:103E9000486001280CD10848006810F0FF0F07D0D7
:103EA000502080F31188BFF34F8FBFF36F8FFEE771
:103EB000704700009C00002004ED00E008494868BD
:103EC00028B1401E486001D180F31188704750200E
:103ED00080F31188BFF34F8FBFF36F8FFEE70000B1
:103EE0009C00002070B500282AD0164DA0F10804CF
:103EF00060686969084207D1502080F31188BFF3D8
:103F00004F8FBFF36F8FFEE722683AB1502080F3E6
:103F10001188BFF34F8FBFF36F8FFEE78843606058
:103F200000F078F960686968084468602046FFF727
:103F30008DFC2869401C2861BDE8704000F006BE79
:103F400070BD00007C0000204FF0E02000210161E6
:103F5000816105494FF47A720968B1FBF2F1491E9B
:103F600041610721016170472400002010B5FCF772
:103F7000BDF9114910280ED300F1E02090F8F003AC
:103F80000A78904207D2502080F31188BFF34F8FF8
:103F9000BFF36F8FFEE709480068896800F4E060AE
:103FA000884207D9502080F31188BFF34F8FBFF3A9
:103FB0006F8FFEE710BD00009C0000200CED00E0BC
:103FC00010B5084B002200BF53F832401CB1521C00
:103FD000082AF9D310BD43F8321003EBC201486040
:103FE00010BD00000002002070B515460E460446C4
:103FF000FFF744FF94F944100020491C01D184F8D4
:10400000440094F94510491C01D184F84500FFF79C
:1040100055FFA06B28B92A46314604F1240000F070
:1040200099F82046BDE87040FFF7BEBD10B502000C
:1040300014D00F48006B38B1502080F31188BFF3C3
:104040004F8FBFF36F8FFEE700F0E4F800211046BA
:10405000FFF70AFA00F07AFD002807D105494FF072
:1040600080500860BFF34F8FBFF36F8F10BD00000B
:104070002800002004ED00E070B50546FFF7FEFEC5
:104080001E4C05B92568281DFFF79CFEA86A18B1CB
:1040900005F11800FFF796FE606A401C6062206818
:1040A000854207D1291D1648FFF7DCFE6068401CD9
:1040B000606007E0A068401EA0602846FFF7DFFAB6
:1040C000FFF7F2FCFFF7FAFE6069002814D02068C1
:1040D000854211D1206B38B1502080F31188BFF395
:1040E0004F8FBFF36F8FFEE706494FF08050086097
:1040F000BFF34F8FBFF36F8F70BD0000280000200B
:10410000DC06002004ED00E002490A6A0260C9688A
:10411000416070472800002001490120C8617047B4
:104120002800002010B50C4650B109490968183123
:10413000FFF780FE2046BDE810400121FFF794B94B
:10414000502080F31188BFF34F8FBFF36F8FFEE7CE
:104150002800002070B514460D4668B10A49096868
:104160001831FFF77FFE0CB14FF0FF35214628468E
:10417000BDE87040FFF778B9502080F31188BFF395
:104180004F8FBFF36F8FFEE72800002030B587B058
:104190000024039405AA04A903A80494FFF726FEAB
:1041A000DDE903010094CDE90110002315A11748B2
:1041B000059A00F0B0FB164D0028E8621FD000F011
:1041C00027FD012809D0401C19D1502080F3118807
:1041D000BFF34F8FBFF36F8FFEE7502080F311883E
:1041E000BFF34F8FBFF36F8F4FF0FF30A8620120F6
:1041F0006861EC6007B0BDE8304000F045B807B03A
:1042000030BD000049444C45000000000137000863
:10421000280000200248016B491C01637047000020
:1042200028000020164810B5016B11B10121C161B1
:1042300010BD0021C1610169124A01E0B9B1491EF6
:1042400001EB810352F82330002BF7D001EB8103FF
:1042500002EB830202F1080453685B685360A342D7
:1042600001D15B685360DA680260016110BD5020C3
:1042700080F31188BFF34F8FBFF36F8FFEE700000D
:1042800028000020400200201CB537480168374A4A
:10429000914207D1502080F31188BFF34F8FBFF3B5
:1042A0006F8FFEE700683149491E884207D15020D0
:1042B00080F31188BFF34F8FBFF36F8FFEE72C4958
:1042C00008780190FF20087008788DF800009DF8AC
:1042D00000009DF8002000F0F000904207D0502030
:1042E00080F31188BFF34F8FBFF36F8FFEE79DF808
:1042F0000000204C00F0500020700720A06005E076
:104300009DF8002052008DF80020401E9DF80020EE
:104310001206F5D4A060032807D0502080F311883E
:10432000BFF34F8FBFF36F8FFEE74FF44070A06075
:10433000019808700C482030016841F47001016058
:10434000016841F070410160FFF7FEFD00206060F0
:10435000FBF794FF0848016841F040410160FBF71A
:1043600079FF00201CBD000000ED00E071C20F418C
:1043700000E400E09C00002034EF00E010B5502085
:1043800080F31188BFF34F8FBFF36F8F00F002FBF4
:1043900018B104494FF080500860002080F3118864
:1043A00010BD000004ED00E010B502460021012020
:1043B00000F005F80446FFF7D3F9204610BDF8B524
:1043C00017460E46050013D005FB06F05030FFF7E8
:1043D00021FC04000AD0002084F8460004F15002B9
:1043E0003B46314628460094FFF7C6F92046F8BD03
:1043F000502080F31188BFF34F8FBFF36F8FFEE71C
:1044000038B5049D18B153B1CAB181B120E0502034
:1044100080F31188BFF34F8FBFF36F8FFEE75020FB
:1044200080F31188BFF34F8FBFF36F8FFEE75020EB
:1044300080F31188BFF34F8FBFF36F8FFEE739B161
:10444000502080F31188BFF34F8FBFF36F8FFEE7CB
:1044500050241C46012384F846302B460094FFF775
:104460008BF9204638BD000070B50D46040025D0FC
:10447000FFF704FDD4E90F20216802FB0011A160C1
:104480000021A163216861600A46D4E90F01401E42
:1044900000FB0121E16021464FF0FF3001F8440F9D
:1044A000487004F110008DB1FFF7B6FC04F1240050
:1044B000FFF7B2FCFFF702FD012070BD502080F332
:1044C0001188BFF34F8FBFF36F8FFEE7216900297B
:1044D000F0D000F003FB0028ECD004494FF08050EE
:1044E0000860BFF34F8FBFF36F8FE3E704ED00E089
:1044F0002DE9FF4782B01D468A464FF000080400B0
:1045000003D0BAF1000F08D011E0502080F31188D9
:10451000BFF34F8FBFF36F8FFEE7206C38B1502091
:1045200080F31188BFF34F8FBFF36F8FFEE7022D2B
:104530000AD1E06B012807D0502080F31188BFF327
:104540004F8FBFF36F8FFEE700F010FA3F4F4FF031
:1045500000094FF0805648B9049838B1502080F3D4
:104560001188BFF34F8FBFF36F8FFEE7FFF786FC15
:10457000A06BE16B884207D3022D05D00498D0B11F
:10458000B8F1000F1AD01EE02A4651462046FFF728
:1045900040F8616A19B104F1240000F09FFA20B1DB
:1045A0003E60BFF34F8FBFF36F8FFFF787FC012093
:1045B00006B0BDE8F087FFF781FC22E06846FFF710
:1045C000A3FD4FF00108FFF779FCFFF723FEFFF78B
:1045D00055FC94F94400401C01D184F8449094F9AE
:1045E0004500401C01D184F84590FFF767FC04A901
:1045F000684600F029F930B12046FFF7D5FA00F0FF
:10460000A5FA0020D4E7FFF739FCA06BE16B8842E4
:1046100013D1FFF753FC04F110000499FFF782FD5A
:104620002046FFF7C1FA00F091FA00289ED13E60C3
:10463000BFF34F8FBFF36F8F98E7FFF73FFC204624
:10464000FFF7B2FA00F082FA90E7000004ED00E014
:104650002DE9F0471F4690468946040003D0B9F182
:10466000000F08D011E0502080F31188BFF34F8F66
:10467000BFF36F8FFEE7206C38B1502080F31188B4
:10468000BFF34F8FBFF36F8FFEE7022F0AD1E06BAE
:10469000012807D0502080F31188BFF34F8FBFF35C
:1046A0006F8FFEE7FFF762FC5020EFF3118680F377
:1046B0001188BFF34F8FBFF36F8FA06BE16B884200
:1046C00006D3022F04D0002086F31188BDE8F087BE
:1046D00094F94550A06B3A4649462046FEF799FFAB
:1046E000681C04D06D1C84F845500120ECE7606A1A
:1046F0000028FAD004F1240000F0F0F90028F4D0EA
:10470000B8F1000FF1D00121C8F80010EDE700006A
:104710002DE9F747002683B08A46040003D0BAF19A
:10472000000F08D011E0502080F31188BFF34F8FA5
:10473000BFF36F8FFEE7206C38B1502080F31188F3
:10474000BFF34F8FBFF36F8FFEE700F00FF9DFF875
:10475000F4804FF000094FF0805748B9059838B100
:10476000502080F31188BFF34F8FBFF36F8FFEE7A8
:10477000FFF784FBA56BC5B151462046FEF736FF17
:104780006D1EA563206950B104F1100000F0A6F978
:1047900028B1C8F80070BFF34F8FBFF36F8FFFF7DA
:1047A0008DFB012006B0BDE8F087059808B11EB169
:1047B00006E0FFF783FB27E06846FFF7A5FC01262C
:1047C000FFF77CFBFFF726FDFFF758FB94F9440049
:1047D000401C01D184F8449094F94500401C01D15B
:1047E00084F84590FFF76AFB05A9684600F02CF8AD
:1047F000002820460AD0FFF7D7F900F0A7F9204695
:10480000FFF766F80028B3D00020CBE7FFF760F889
:1048100090B104F124000599FFF784FC2046FFF7CE
:10482000C3F900F093F90028A2D1C8F80070BFF3D3
:104830004F8FBFF36F8F9BE72046FFF7B5F900F06E
:1048400085F995E704ED00E02DE9F0410C460500FF
:1048500011D0C4B1FFF712FB174BDA686E682068FD
:10486000911B471C17D02F681B6A9F4219D0964294
:1048700017D8012410E0502080F31188BFF34F8F28
:10488000BFF36F8FFEE7502080F31188BFF34F8F87
:10489000BFF36F8FFEE70024FFF710FB2046BDE853
:1048A000F081884205D9401A20602846FFF72CFC89
:1048B000F1E700202060DCE7280000202DE9FF5F01
:1048C0008346DDE90E87994616468A469000FFF733
:1048D000A1F905001CD05C20FFF79CF9040014D05E
:1048E0000020256384F85900CDE90240CDE9008716
:1048F0004B46324651465846FEF750FF2046FEF7DB
:10490000E1FD012004B0BDE8F09F2846FFF7EAFA78
:104910004FF0FF30F6E7F0B585B0DDE90B640A9D96
:10492000A6B1DCB15C2700972663022684F85960A3
:10493000002604AFCDE90246CDE90057FEF72EFF71
:104940002046FEF7BFFD049805B0F0BD502080F36F
:104950001188BFF34F8FBFF36F8FFEE7502080F3B6
:104960001188BFF34F8FBFF36F8FFEE70548416992
:1049700019B1006B18B10020704701207047022068
:1049800070470000280000200148C0687047000000
:10499000280000202DE9F0412E4C0027206B28B183
:1049A000A069401CA0613846BDE8F081E668761C2D
:1049B000E66013D1606B006838B1502080F3118835
:1049C000BFF34F8FBFF36F8FFEE7606BA16B616327
:1049D000A063206A401C2062FFF766F8A06ADFF837
:1049E0007880864209D3606B0068A0B1606BC068B4
:1049F000C5686868864211D2A0622068C06A00EB70
:104A0000800158F82100012800D90127E069002819
:104A1000C9D00127C7E74FF0FF30EDE7281DFFF7AA
:104A2000D1F9A86A18B105F11800FFF7CBF9E86AC7
:104A30002169884200D9206100EB800108EB8100E8
:104A4000291DFFF70FFAE86A2168C96A8842CAD3AC
:104A50000127C8E7280000204002002070B50400AC
:104A60004FF0000133D01B4D2868844207D05020FE
:104A700080F31188BFF34F8FBFF36F8FFEE7206D78
:104A800038B1401E2065E36CE26A9A421FD040B103
:104A90001DE0502080F31188BFF34F8FBFF36F8F5D
:104AA000FEE7201DFFF78EF9E06CE062C0F13800F0
:104AB000A061E06A2969884200D92861064900EBB3
:104AC000800001EB8000211DFFF7CCF90121084691
:104AD00070BD0000280000204002002070B5C068B2
:104AE000C46854B104F118000646FFF76BF9144D81
:104AF000286B50B13146134815E0502080F31188DF
:104B0000BFF34F8FBFF36F8FFEE7201DFFF75AF9FA
:104B1000E06A2969884200D928610B4900EB8000CE
:104B200001EB8000211DFFF79DF9E06A2968C96A41
:104B3000884202D90120E86170BD002070BD0000EC
:104B400028000020C8060020400200202DE9F04780
:104B50002C4D00242746286B38B1FFF78FF9286BBE
:104B6000401E2863286B40B146E0502080F3118836
:104B7000BFF34F8FBFF36F8FFEE7A968224E01206E
:104B8000D1B3A6F5916980463068E0B1F068C46899
:104B900004F11800FFF716F9201DFFF713F9E06A7A
:104BA0002969884200D9286100EB800109EB810066
:104BB000211DFFF757F9E06A2968C96A8842E3D3E3
:104BC000C5F81C80E0E70CB1FEF76EFFAC694CB194
:104BD0004FEA0806FFF7DEFE00B1EE61641EF9D170
:104BE0000020A861E86938B1084901273807086042
:104BF000BFF34F8FBFF36F8FFFF760F93846BDE803
:104C0000F087000028000020C806002004ED00E026
:104C100010B586B0FEF7BEFC114C2068B8B100207C
:104C20000390049005AA04A903A8FFF7E9F8DDE9B9
:104C3000032102208DE8070000230AA10B48059AF2
:104C4000FFF769FE606010B106B0012010BD502072
:104C500080F31188BFF34F8FBFF36F8FFEE7000023
:104C600064000020546D722053766300853B000879
:104C70002DE9FF411E46134602000A9D4FF0000039
:104C800016D0144C2768002F0FD0CDE900130292E4
:104C9000062917DAFFF76AFE02284FF000030FD04B
:104CA000002269462068FFF723FC04B0BDE8F081CC
:104CB000502080F31188BFF34F8FBFF36F8FFEE753
:104CC0002A46EEE70023324669463846FFF7C0FC25
:104CD000EBE700006400002081F00041704780F0A5
:104CE0000040704721F00041704720F000407047BD
:104CF00021F00042A2F16052B2F5801F01F00043A2
:104D000028BFD2F17F6C0BD95FEA001C43EAC202D4
:104D100042EB507018BF704728BF20F00100704769
:104D2000B2F5801FBCBF184670474FEA410C1CF516
:104D3000001F02D2084600F0DEBC70B500F056FB42
:104D400000000089FFF7F6BF4FF00040A0F580009B
:104D50007047000010B591EA030F48BF83F000438D
:104D600000F1E283841A71EB030C05D2121943EBB4
:104D70000C03001B61EB0C01DFF824E14FEA115436
:104D8000A4EB135C1EEA430F18BF9EEA445F73D086
:104D900023EA0E03DCF1200E21EA045143F48013D0
:104DA00032D322FA0CFE10EB0E0023FA0CFE41EB7C
:104DB0000E01CCF1200E03FA0EFE10EB0E0051F1A5
:104DC0000001B1F5801FCCF1200E32D201EB04516D
:104DD00012FA0EF2BDE8104058BF7047401C38BFB1
:104DE0005FEA420218BF7047002814BF20F001009C
:104DF00041F100014FEA410313F5001F38BF70472E
:104E0000A1F1C04100F040BB012A43EB0302ACF129
:104E1000200CDCF11F0E32BF4FF0000E23FA0CF312
:104E200010EB030041EB0451B4EB115FD0D0A1EBC8
:104E3000045101F5801149085FEA300001EB04518B
:104E40000ED350F1000038BF12FA0EFE08D1BDE8B3
:104E50001040C9E7401C38BF5FEA4202CAD1C3E72D
:104E6000BDE810404FEA410313F5001F38BF7047FB
:104E7000A1F1C04100F008BB9EEA445F08D011EAEE
:104E80005E0FBDE8104004BF01F0004100207047F4
:104E9000BDE8104070B500F0A9FA00BF64FBBE3E4B
:104EA0000000E0FF491058BFC1F140415B1058BFFE
:104EB000C3F140438B42EFF3008070472DE9C041BE
:104EC00030B4DFF8A0C23CEA111418BF3CEA131456
:104ED00000F0EC8081EA03051CEA111444EAD57461
:104EE00018BF1CEA131500F0C780A4EB05044FF0AF
:104EF000004545EAC12145EAC32341EA505143EA4E
:104F0000525304F17F74994204F500344FEAC020F3
:104F10004FEAC22208BF904200F09C804FEA13651E
:104F20000FF24016765D4FEA134506FB05F7C7F111
:104F3000807706FB07F74FEAD737A7FB036876426F
:104F4000C8F58038A7FB06CE38BFA8F1010807FBDB
:104F500008E64FF0000EA6FB028CE6FB03CEDCF168
:104F6000000CCEF1004E38BFAEF1010EA6FB0C587E
:104F70004FF000074FF00005E6FB0E87A1FB08C6C7
:104F8000A0FB07CE16EB0E0645F10005E1FB076519
:104F900015F1E04E7EBFA4F580345FEA46066D4110
:104FA00016F1800745F100054FEA17274FEA06661C
:104FB00047EA0567A6F1DE46B6F1805F4FEA1525A0
:104FC0001FD9384624F0010C05EBC471BCF1FE6F0B
:104FD00001EB0C1102D8F0BCBDE8008124425CBF9B
:104FE00001F5801E9EEAC47F02D4F0BCBDE80081BA
:104FF000244238D4F0BCA1F1C041BDE8004100F02A
:1050000043BA4FEAD22242EA43524FEAD323A7FBE4
:1050100002864FEAD02040EA415007FB03661EEAB1
:105020000E0F4FEAD12105FB026658BFA6EB0056D2
:10503000B6EB00564FEA520E4EEAC37E18EB0E0E48
:1050400056EB530EBDD518EB02085E417F1C55F19F
:105050000005B6E74FF480154FF000074FF000064B
:105060004FF00008ADE7F0BC4FF0000001F1C04187
:1050700001F00041BDE8008111EA0C1F0CEA131594
:1050800000D00CE013EA0C1F00F025804FF0000068
:10509000F0BC81EA030101F00041BDE80081F0BCF1
:1050A000BDE8004181EA030100F0EEB9F0BCBDE8C3
:1050B000004170B500F09AF9097EFC3E00F007B897
:1050C00081EA03014FF0000001F00041704781EADE
:1050D000030100F0D9B9F0BCBDE800414FF0000079
:1050E00021497047FFFDFBF9F7F5F4F2F0EEEDEB27
:1050F000E9E8E6E4E3E1E0DEDDDBDAD8D7D5D4D3D6
:10510000D1D0CFCDCCCBCAC8C7C6C5C4C2C1C0BF21
:10511000BEBDBCBBBAB9B8B7B6B5B4B3B2B1B0AF27
:10512000AEADACABAAA9A8A8A7A6A5A4A3A3A2A10B
:10513000A09F9F9E9D9C9C9B9A99999897979695C6
:1051400095949393929191908F8F8E8E8D8C8C8B62
:105150008B8A8989888887878685858484838382EA
:10516000828181800000FF070000F87F4FEA410341
:105170004FEA5353A3F58063D3F11E03C8BFD3F1A5
:10518000210C0CDD4FF0004242EAC12242EA5052AB
:1051900032FA03FC8CEAE17CACEBE1707047102B37
:1051A000C4BF0020704703F5787CBCF1FF3F04D0FA
:1051B0006FF0004282EA2100704770B500F016F9E6
:1051C0004992248000207047F2E710F0004248BF67
:1051D0004042B0FA80F310FA03F10AD0C3F11D0384
:1051E00003F580634FEA415002EB035202EBD121F9
:1051F00070474FF000007047B0FA80F310FA03F1E7
:105200000AD0C3F11D0303F580634FEA41504FEA12
:10521000035202EBD12170474FF0000070470000AD
:1052200051EA030C17D41CF5801F58BFBCF5801F32
:1052300000F10680994218BF704708BF904270473E
:1052400007D711F5801F58BF13F5801F19D4994255
:105250007047894270471CF5801F08D5BCF5801F38
:10526000F7D58B4218BF704708BF824270474FF492
:10527000001C1CEB410F38BF1CEB430F01D28B42CB
:10528000704770B500F0B2F8922449004FF0005119
:105290004FF08053FFF706BEDFF848C170B51CEA37
:1052A000111E1EBF1CEA13159EEA0C0F95EA0C0F87
:1052B00000F06F8081EA030423EA4C134EEAD47EA7
:1052C00021EA4C1141F4801143F48013AE44A1FB58
:1052D000024CA0FB0365AEF17F7E361955EB0C0541
:1052E000A1FB034C4CF10003A0FB021C16EB0C06C7
:1052F000654153F10003094218BF46F0010613F45B
:10530000007F0BD14FEA03314FEA0530340341EA05
:10531000155140EA16506FF003020AE04FEAC3212C
:105320004FEAC520F40241EA555140EA56506FF069
:10533000020202EB2E4201EB025585EACE710AD041
:105340005FEA440C18BF24F0004450F1000041F122
:10535000000120EAD47040F2FE7C624500D270BDAC
:10536000A84214BF4FF080444FF04044002E08BFC5
:105370000024BEF1806FA8BFA1F1C041BDE870401C
:1053800080F282804FF0000001F1C04101F0004145
:1053900070479EEA0C0F0CEA131518BF95EA0C0F24
:1053A00006D04FF0000081EA030E0EF0004170BD00
:1053B00000F01CF88900013E00F007B800F009B8C1
:1053C0004FEA430C5FEA5C5C08D081EA030100F01D
:1053D0005BB84FEA410C5FEA5C5CF6D14FF000002D
:1053E000014970470000FF070000F87F0EF1020E30
:1053F0002EF0030E5EF8046B364205D4012A43EB0F
:10540000030515F5001F12D8012841EB010C1CF50E
:10541000001F0CD80ED14FEAD17C15F5001F0CEB04
:105420004C0C0CF1020C08BF4CEBD37C04E04FF0A9
:10543000080C01E04FEAD37C0CEB4C0526FA05F68C
:1054400006F00706B6F1040C06D20EEB860CBDE89A
:1054500070404CF0010C6047DFE80CF0090B0202D1
:105460004FF000414FF00000A1F5002170BD19463A
:105470001046012851EB010418BFD4F5001484BF75
:10548000002001F0004170BD0808A0F500114FEAAE
:105490003101704753EA010C17D41CF5801F58BF27
:1054A000BCF5801F00F106808B4218BF704708BF13
:1054B0008242704707D713F5801F58BF11F5801F30
:1054C00019D48B4270479B4270471CF5801F08D54A
:1054D000BCF5801FF7D5994218BF704708BF9042AE
:1054E00070474FF4001C1CEB430F38BF1CEB410FFF
:1054F00001D2994270470FB40CBC03BCFFF7C1BE88
:1055000091EA030F10B581F000413FF52BAC83F019
:10551000004300F009B8000010B591EA030F48BF3E
:1055200083F000433FF51EAC841A71EB030C07D2E5
:1055300012198CF0004C43EB0C03001B61EB0C01C7
:10554000DFF8A4E14FEA1154A4EB135C1EEA430F09
:1055500018BF9EEA445F00F0B08023EA6E03524217
:1055600021EA0451C3EB6E0338BF5B1EDCF1200E51
:1055700025D322FA0CFE10EB0E0043FA0CFE41EB91
:105580000E01CCF1200E03FA0EFE10EB0E0051F1CD
:105590000001CCF1200E29D412FA0EF201EB0451D5
:1055A000BDE8104058BF7047401C1CBFB2F1004F0F
:1055B000704700280CBF491C20F00100704712EB17
:1055C000020E43EB030218BF4FF0010E4EEA4202F7
:1055D000ACF1200CDCF11E0E54D943FA0CFE10EB9A
:1055E0000E0051F1FF31CCF11E0ED5D50EF1010E9A
:1055F00012FA0EFE404141EB010101EB445C5FEA0F
:105600005C5C10D910EBDE7001EB045138BFBEF1C9
:10561000004FBDE8104018BF704700280CBF491C60
:1056200020F00100704730D24FEAD42C11F5001160
:1056300024F400641BD0B1FA81F20B3AA41AA41E20
:10564000D2F12003914030FA03F31943904001EB6B
:10565000CC71002C01EB0451BDE81040A8BF70478D
:1056600001F1C0414FF0000001F000417047B0FA75
:1056700080F310FA03F100D110BDE41A173C48057D
:10568000C90AE4E701EB045110BD491001EB0451D4
:10569000BDE810404FEA300002E04FF000017047D3
:1056A0004A0008BF0042F8D0B2F5001F28BF70477B
:1056B00001F000414FF0000070479EEA445F07D0C0
:1056C00011EA5E0FBDE8104004BF002100207047C2
:1056D000BDE8104070B5FFF789FE00BF40DFF63E21
:1056E00083F00041104670470000E0FF4FF040702B
:1056F000E1EE100A7047FF2141EAD050C005704723
:105700000006101600061016000000000000000041
:105710000102030406070809000000000102030457
:105720004C5555555555A53F7751C1166CC156BFBF
:105730009015CB19A001FA3EAD529C804F7E92BECF
:10574000C4B1B4BD9EEE213ED43888BEE9FAA8BDEE
:1057500000004054FB21F93F3163621A61B4D03D2F
:105760000000601A61B4D03D7370032E8A19A33B08
:105770000000002E8A19A33BC14920259A837B395A
:1057800000000000000000006E83F9A22915444EBD
:10579000D15727FCC0DD34F5999562DB4190433C3D
:1057A000AB6351FE61C5BBDE3A6E24B7E0D24D4219
:1057B000EA2E49061C92D1091CEB1DFE3EA729B119
:1057C000F53582E88444BB2E26709CE9417E5FB4A7
:1057D00039D69139F43953838B5F849C3B28F9BDCA
:1057E000FF97F81F0F9805DE8B112FEF1F6D0A5AD8
:1057F000CF7E366DB709CB27663F464F2DEA5F9EB9
:10580000C7BA27757BF1E5EBF739073DEA92528A73
:10581000B15FFB6B085D8D1FA6F810111111813F60
:10582000D561C119A0012ABF7DFEB157E31DC73E56
:10583000EB9C2B8AE6E55ABE7CD5CF5A3AD9E53D9A
:105840006058000800000020AC000000D0010008F3
:105850000C590008AC000020A4510000EC01000825
:105860000000000000000000000000000000000038
:105870000000000000000000010000001000000017
:10588000000000000024F400000000000000000000
:105890000000000000000000000000000000000008
:1058A00000000000000000000000000000000000F8
:1058B00000000000000000000000000000000000E8
:1058C00000000000000000000000000000000000D8
:1058D00000000000000000000000000000000000C8
:1058E00000000000000000000000000000000000B8
:1058F00000000000000000000000000000000000A8
:0C590000AAAAAAAA0000000000000000F3
:040000050800019559
:00000001FF
