:020000040800F2
:10000000F85000201D0300084B2D0008F12A0008BD
:10001000492D0008C11A00087531000800000000D1
:100020000000000000000000000000005D02000869
:10003000C31A000800000000B90200084D2D000896
:1000400037030008370300083703000837030008A8
:100050003703000837030008370300083703000898
:100060003703000837030008370300083703000888
:100070003703000837030008370300083703000878
:1000800037030008370300083703000800000000AA
:10009000000000000000000000000000370300081E
:1000A00037030008F92D000837030008370300085C
:1000B0003703000837030008370300083703000838
:1000C0003703000837030008370300083703000828
:1000D000370300083703000837030008000000005A
:1000E000370300083703000837030008000000004A
:1000F00000000000000000000000000037030008BE
:100100000000000037030008370300083703000829
:1001100000000000000000000000000000000000DF
:1001200037030008370300083703000837030008C7
:10013000370300080000000000000000000000007D
:10014000000000000000000000000000370300086D
:100150003703000837030008370300083703000897
:10016000370300083703000800000000000000000B
:10017000000000000000000000000000000000007F
:10018000000000003703000800000000000000002D
:100190003703000800F002F800F050F80AA090E8D9
:1001A000000C82448344AAF10107DA4501D100F032
:1001B00045F8AFF2090EBAE80F0013F0010F18BFAF
:1001C000FB1A43F001031847184E0000384E000098
:1001D000103A24BF78C878C1FAD8520724BF30C873
:1001E00030C144BF04680C60704700000023002445
:1001F00000250026103A28BF78C1FBD8520728BF37
:1002000030C148BF0B607047662904F091866429AD
:1002100000F05881002070471FB504F084FE9DE86F
:10022000030000F0A7FA00F0D3FD04000020002135
:1002300004F0ECFDE0601FBD10B510BD00F0FDFE48
:100240001146FFF7E9FF03F0AFF900F01BFF03B41D
:10025000FFF7F2FF03BC02F0BDFF00002C4B196852
:100260000868B0E8F04F80F30988BFF36F8F4FF054
:10027000000080F311887047000000000848006803
:10028000006880F308884FF0000080F3148862B69D
:1002900061B6BFF34F8FBFF36F8F00DF00BF00BFAA
:1002A00008ED00E0DFF80C00016841F47001016026
:1002B000704700BF88ED00E0EFF30980BFF36F8F58
:1002C000134B1A681EF0100F08BF20ED108A20E9AA
:1002D000F04F106009B44FF0500080F31188BFF365
:1002E0004F8FBFF36F8F04F063F84FF0000080F37F
:1002F000118809BC19680868B0E8F04F1EF0100FAB
:1003000008BFB0EC108A80F30988BFF36F8F704785
:1003100024000020EFF30580704700000948804763
:1003200009480047FEE7FEE7FEE7FEE7FEE7FEE7D7
:10033000FEE7FEE7FEE7FEE704480549054A064BEF
:1003400070470000E92D000895010008F84A0020D8
:10035000F8500020F84C0020F84C0020704770B591
:10036000064600F0EBF9056806F10B0020F00704E3
:10037000B4429CBF002070BD2B466A68BAB11068B9
:10038000A04210D304F1080188423CBF5068586075
:1003900007D35168101941601168091B016058604A
:1003A0001460101D70BD13465268002AE7D1214623
:1003B000284600F0CBF90028DED170BD53EA020CCC
:1003C00000F069802DE9F04B4FF00006002B1FBFB5
:1003D000B3FA83F503FA05F424FA05F65E4012BF7A
:1003E0001643B2FA82F502FA05F4C5F120051EBFE4
:1003F00022FA05FC44EA0C04203556EA044C4FEA84
:10040000144418BF641C4FF000084FF000099042DC
:1004100071EB030C39D3002919BFB1FA81F701FA46
:1004200007F6B0FA80F700FA07F6C7F120071EBFFB
:1004300020FA07FC46EA0C062037B6FBF4FCA7EBD3
:100440000507103F07F01F0BCBF120060CFA0BFB42
:100450002CFA06F644BFB3460026202FA4BF5E4602
:100460004FF0000B5BEA060C08BF4FF0010B19EBD5
:100470000B09ABFB027C48EB0608C01B06FB02CC59
:100480000BFB03CC71EB0C01C1E70B460246414666
:100490004846BDE8F08B13B54FF000004FF0000167
:1004A000AFF30080BDE81C40704700000FB4044962
:1004B00010B503AA029800F021FC10BC5DF814FBF3
:1004C0000C0000202DE9F041064600241068752933
:1004D000314616A510D0AFF30080002802DA404262
:1004E00013A507E031688A0701D512A502E0490784
:1004F00004D511A5012401E0AFF3008000210A22F8
:1005000006F1240709E0B0FBF2FCB0FBF2F302FBBA
:100510001C00303078541846491C0028F3D123467B
:100520002A463046BDE8F04100F081B900000000E5
:100530002D0000002B000000200000002DE9F047F6
:100540004FF0000A89460446C0F820A02046E16822
:100550008847002876D0252806D0D4E90121904785
:10056000206A401C2062F1E7E168204600258847A8
:10057000C4F81CA006460027C4F818A02A2E09D0EB
:10058000304602F020FE38B304EB8708303EC8F84E
:10059000186019E059F8041B204604EB87029161AA
:1005A000E1688847012F064618D1E069002820DA63
:1005B00025F020051DE0D8F8180000EB800006EBC0
:1005C00040003038C8F818002046E16888470646E1
:1005D00002F0F9FD0028EED1012F0AD02E2E08D10D
:1005E0002046E16888477F1C0646022F45F020051B
:1005F000C4DBA069002803DA404245F00105A06190
:10060000E80701D025F01005B6B1A6F14100192880
:1006100002D8203645F400654A463146204625601A
:100620004D46FFF7F1FD58B1012806D0ED1D25F02C
:10063000070000F1080989E704E005F1040985E7EE
:1006400030468AE7206ABDE8F087032A40F230800E
:1006500010F0030C00F0158011F8013BBCF1020F03
:10066000624498BF11F801CB00F8013B38BF11F884
:10067000013BA2F1040298BF00F801CB38BF00F89B
:10068000013B11F0030300F04B83083AC0F00880EF
:1006900051F8043B083A51F804CBA0E80810F5E7FC
:1006A000121D5CBF51F8043B40F8043BAFF30080DF
:1006B000D20724BF11F8013B11F801CB48BF11F854
:1006C000012B24BF00F8013B00F801CB48BF00F824
:1006D000012B704702F0FF0343EA032242EA024281
:1006E00000F052BB4FF0000200B513469446964608
:1006F000203922BFA0E80C50A0E80C50B1F1200135
:10070000BFF4F7AF090728BFA0E80C5048BF0CC0E2
:100710005DF804EB890028BF40F8042B08BF704740
:1007200048BF20F8022B11F0804F18BF00F8012BB2
:100730007047704770477047704700000048704727
:100740009C4A0020704770477047704738B5044690
:100750000A4600206946AFF30080002808BF38BD74
:1007600002460099204600F037FB012038BD0120E9
:1007700000F05CBCF8B5AFF30080054600200C46E5
:10078000102000BF0646A819A0420DD9324669467E
:100790000020AFF30080070008BF00F047FC00987E
:1007A000A04218BF0546C419FFF7C8FF05600746F9
:1007B000F01D20F007004619284600F00AF8B44260
:1007C00008BFF8BDA21B31463868BDE8F84000F00C
:1007D00003BB00210160C0E9011070471020704781
:1007E00070B50446051FFFF7A9FF0068002C14BF71
:1007F000446870BD002C18BFAC423CBF2046646802
:10080000F8D301680A18AA4218BF456003D12A68C4
:1008100005461144016028684119A1421CBF6C6063
:1008200070BD6168696021680844286070BD2DE969
:10083000F0470D4699469246044600F124080168A7
:10084000880604D5E06921F01001216000E0012054
:10085000A84201DD471B00E00027A1697A1902EBDD
:100860000900081AA0612078C00602D42046AFF320
:100870000080002608E0D4E901211AF8060090471C
:10088000206A401C761C20624E45F4DB2078C006AE
:100890000AD52046AFF3008006E0D4E901213020DC
:1008A0009047206A401C2062381EA7F10107F4DC43
:1008B00007E0D4E9012118F805009047206A401CA0
:1008C0002062281EA5F10105F3DC2046AFF300806D
:1008D0002078000602D50220BDE8F0870120FBE762
:1008E00070472DE9FF4F0C461E464FF0FF378BB087
:1008F000D2E90001DDF860800A908A46C1F30A550A
:1009000005B93D46002108464FF00000BAF1000F3E
:1009100000F4400005DA00EB80004FF4400101EAEA
:1009200050004FEA9059B9F1010F00DDB9460A981D
:1009300050EA4A000ED044F61050A5F2FF35454368
:100940002F14B8F1000F1ED07542291E1EDDC9F10B
:1009500000021CE0B8F1010F4FF0000001D030217F
:1009600003E0F24305E02154401CB042FBDB30467B
:100970000022002121540B99C1F80880C1E9002010
:100980000FB0BDE8F08FBD1B6D1CDEE74A4600DAF4
:10099000694206A800F0D8FA06AB93E8070003AB5B
:1009A00083E8070050460A9900F0FBFB8DE807003A
:1009B000A0F500501F3800900398002D09DD42F289
:1009C0001F014A46084403A90390684600F05AFEF6
:1009D00008E0A0F500504A461F3803A90390684676
:1009E00000F064FE8DE807000004000C03D04FF017
:1009F000FF30410800E01046B8F1000F03D000229C
:100A0000009215461EE0751E05D400F0FFF9303245
:100A100062556D1EF9D5B3460122084302D000226B
:100A20007F1C04E02078302801D100227F1E002A9C
:100A3000099786D01DE0112D07DA00F0E7F9303272
:100A400062556D1C50EA0102F5D1084302D00098AE
:100A5000C8B10EE00021681E05E0235C625C6354AF
:100A60002254401E491C8142F7DBAB46A81B401EA6
:100A70000990002004F80B000B98099AC0F8088030
:100A8000C0E9002B7CE711264FF0000859E72DE95B
:100A9000F04F88460446D21D22F0070191B0D1E9FB
:100AA0000001CDE90A0102F066FB02460B98C00F77
:100AB00001D02D2007E02068810701D52B2002E01E
:100AC000202101EAC000032A099001D0072A05DB92
:100AD00003464146204600F0F7F90BE120788006F6
:100AE00001D5E06900E00620B8F1650F814606D027
:100AF000B8F1660F18D0B8F1670F70D131E000205F
:100B0000B9F1110F009001DB112301E009F101039C
:100B10000AAA01A90CA8FFF7E4FEDDE90C70002683
:100B200009F10105834647E001204B4600904FF054
:100B300000470AAA01A90CA8FFF7D3FEDDE90DB012
:100B40000C995D46002610B909F101000D18B9EBAA
:100B5000050003D4C0F1FF3609F10105A5EB09003A
:100B60002BE0B9F1010F01DA4FF001090020B9F1D2
:100B7000110F0090484601DD112300E003460AAA48
:100B800001A90CA8FFF7ADFEDDE90C704D4600266B
:100B90008346207800070AD4AB4500DA5D4601A8F9
:100BA000012D04DD411911F8011C302907D04F45F2
:100BB00002DA17F1040F04DA012082460FE06D1EFD
:100BC000EEE7002F02DCED1B3E4403E0781CA84258
:100BD00000DD7D1CB81B00F1010A4FF000472078B2
:100BE000000703D4AA4501DB4FF0FF3A0021B7F11B
:100BF000004F0DF143088DF8431024D002202B2321
:100C0000002F01DA7F422D230A21021EA0F10100EC
:100C100000DC5FB197FBF1FC97FBF1F201FB1C7C60
:100C200017460CF1300C08F801CDEEE7A8F10100F1
:100C300003702188090501D5452100E06521A0F157
:100C4000010800F8011C09980FA9A1EB0807FF1D76
:100C500000B10120411901EBEA70A1693844081A7A
:100C6000401EA0612078C00602D42046AFF3008069
:100C7000099828B1D4E901219047206A401C2062DC
:100C80002078C00622D52046AFF300801EE0002E5B
:100C900004DBB34502DD01A8805D00E03020D4E92B
:100CA00001219047206A401C2062761CAAF10100B5
:100CB0005FEA000A0AD100F08BF8C0680168405C66
:100CC000D4E901219047206A401C2062281EA5F12A
:100CD0000105DCDC07E0D4E9012118F8010B90479D
:100CE000206A401C2062381EA7F10107F3DC204671
:100CF000AFF30080032011B043E60000074B70B54E
:100D00000D467B4400F0CDF80446284600F08AF9F1
:100D100010B14FF0FF3070BD204670BD2B25000094
:100D200010B5203AC0F00B80B1E81850203AA0E886
:100D30001850B1E81850A0E81850BFF4F5AF5FEABA
:100D4000027C24BFB1E81850A0E8185044BF18C96D
:100D500018C0BDE810405FEA827C24BF51F8043B14
:100D600040F8043B08BF7047D20728BF31F8023B68
:100D700048BF11F8012B28BF20F8023B48BF00F8FC
:100D8000012B70474FF000020429C0F0128010F0D0
:100D9000030C3FF4A9ACCCF1040CBCF1020F18BF5A
:100DA00000F8012BA8BF20F8022BA1EB0C01FFF7E4
:100DB0009BBC5FEAC17C24BF00F8012B00F8012B2B
:100DC00048BF00F8012B704700487047944A002044
:100DD00000487047B44A0020034640688C4600280B
:100DE00018BF88423CBF03464068F8D318681844CF
:100DF000884207D00CF1030020F00700001D411AC3
:100E0000521A0146081D0A60FFF7EABC30B5B0F17E
:100E10000A024FEA900E71F100034EEA817EB0EBB8
:100E20000E0061EB91014FEA101E4EEA017E10EBBD
:100E30000E0041EB11114FEA102E4EEA016E10EB3D
:100E40000E0041EB11214FEA104E4EEA014E10EB1D
:100E50000E0041EB1141401841F100014FEAD00072
:100E600040EA41704FEAD10110EB80054FEA81045E
:100E700044EA907444EB01046D1944EB0404521BE2
:100E8000A3414FF0000348BF0A3200D530BD401CDB
:100E900041F1000130BD000001694A1C026108787F
:100EA000704700B58FB0CDE90131002105910549AA
:100EB0007944CDE9031011466846FFF73FFB0FB0B8
:100EC00000BD0000E5FFFFFF2DE9F0411F4604468D
:100ED00003260168072A01F4006004DB08B116A5A7
:100EE00005E016A503E008B115A500E015A521F061
:100EF00010002060A069C01EA0610FB1401EA0615B
:100F00002046AFF300804FB1D4E901213846904725
:100F1000206A401C2062C01C206206E0206AFAE7BA
:100F2000D4E9012115F8010B9047761EF8D220462E
:100F3000AFF30080BDE8F0814E414E006E616E005F
:100F4000494E4600696E66002DE9F0478146164617
:100F50008AB0334878440DC88DE80D003048784495
:100F6000801C03AC0DC884E80D0041F69B3008449A
:100F7000372190FBF1F290FBF1F5A5F1800501FB23
:100F800012041B3C02D56442012000E00020DFF87F
:100F900090A080460027FA44AAF1BE0A0DE0E007BF
:100FA00009D03246684607EB47010AEB810100F0A1
:100FB0007DFB8DE8070064107F1C002CEFD1184FDB
:100FC0007F44AC3F18E0E80714D007EB04100DF1A4
:100FD000180A90E80E008AE80E00C068F04201D1BD
:100FE00098190890324606A903A800F05FFB03ABEE
:100FF00083E807006D10641C002DE4D13246694679
:10100000B8F1000F03A802D000F03CFB01E000F0B3
:101010004DFBC9E90001C9F808200AB0BDE8F08716
:1010200070400000007B00F08000704710B500F0B9
:1010300037F8BDE8104000F02EB87546FFF7C4FE43
:10104000AE4605006946534620F00700854618B0B5
:1010500020B5FFF771F9BDE820404FF000064FF0D2
:1010600000074FF000084FF0000B21F00701AC46DD
:10107000ACE8C009ACE8C009ACE8C009ACE8C009FC
:101080008D46704710B50446AFF300802046BDE89A
:101090001040FFF7DCB8002801D002F09BB8704781
:1010A00010B5012805D0002103A000F061F801204F
:1010B00010BD09A1F8E7000053494752544D454D72
:1010C0003A204F7574206F662068656170206D65E9
:1010D0006D6F7279000000003A2048656170206DE4
:1010E000656D6F727920636F7272757074656400DC
:1010F0004FF0013C50F8042B51F8043B9A4221D1A7
:10110000A2EB0C03934313EACC1317D150F8042B32
:1011100051F8043B9A4215D1A2EB0C03934313EA16
:10112000CC130BD150F8042B51F8043B9A4209D14F
:10113000A2EB0C03934313EACC13DBD04FF0000077
:10114000704700BFD01A01BAB1FA81F101F018015D
:1011500022FA01F0CB40C1F12001DBB2C0B2C01ACB
:101160002CFA01F3D11A914311EAC311E6D1704769
:1011700070B505460C460A2000E06D1C02F02BF805
:1011800035B128780028F8D102E0641C02F023F879
:1011900014B120780028F8D1BDE870400A2002F090
:1011A0001AB85FEA400C08BF91F0000F4FEA8C2399
:1011B0004FEAC12243EA51514FEA1C5018BF00F5D3
:1011C000F0404FEA300018BF41F000415FEA6C5C2C
:1011D00000F02980BCF1FF3F08BF40F0804070471D
:1011E000130C06BF12044FF0100C4FF0000C130E3E
:1011F00004BF12020CF1080C130F04BF12010CF112
:10120000040C930F04BF92000CF1020CD30F04BF27
:1012100052000CF1010C11464FF00002A0F11F002A
:10122000A0EB0C00704711F0004F08BF704731F081
:1012300000413FF4D5AF0B0C06BF09044FF0100C72
:101240004FF0000C0B0E04BF09020CF1080C0B0F41
:1012500004BF09010CF1040C8B0F04BF89000CF1D1
:10126000020CCB0F04BF49000CF1010CCCF12003A0
:10127000A0EB0C0022FA03F302FA0CF241EA03019C
:1012800000F10100704720F07F4C80EA030023F05A
:101290007F47ACEB070303F57C5300F0004003F1FC
:1012A000FF032DE980494FEA154B09B44FEA144377
:1012B00025EA0B4E24EA03480FF2042606EB132717
:1012C00049083E785FEA320203FB0667C7F500076C
:1012D00007FB06F64FEA54374FEAD64606F10206F8
:1012E00007FB066CCCF1005C4FEA1C472CEA074C6C
:1012F00007FB06F40CFB06F504EB15464FEA9616C1
:1013000034BF00204FF000404FEAD13706FB07FC06
:101310004FEA1C4C0CFB0BF7D21B03FB0CF761EBE9
:1013200007010CFB0EF7B0EB074072EB17420CFB0A
:1013300008F734BFA2EB0742B2EB074261EB17415B
:101340004FEA0C444FEA910706FB07FC4FEA1C4C9E
:101350000CFB0BF7B0EBC74072EB573203FB0CF7FB
:1013600034BFA2EBC742B2EBC74261EB57310CFB73
:101370000EF7B0EBC70072EB57720CFB08F734BFE7
:10138000A2EBC702B2EBC70261EB5771039F4FEAB2
:10139000816141EA921104EBCC044FEAD1374FEA64
:1013A000826206FB07FC42EA90124FEA80604FEA35
:1013B0001C4C0CFB0BF7D21B03FB0CF761EB07017A
:1013C0000CFB0EF7B0EB074072EB17420CFB08F773
:1013D00034BFA2EB0742B2EB074261EB17414FEA81
:1013E0008C554FEA910704EB9C2406FB07FC4FEA5F
:1013F0001C4C0CFB0BF7B0EBC74072EB573203FBF6
:101400000CF734BFA2EBC742B2EBC74261EB5731D6
:101410000CFB0EF7B0EBC70072EB57720CFB08F732
:1014200034BFA2EBC702B2EBC70261EB577115EBF9
:101430004C254FEA816141EA92114FEA82624FEAFC
:10144000D13742EA901206FB07FC44F100044FEA50
:1014500080604FEA1C4C0CFB0BF7D21B03FB0CF714
:1014600061EB07010CFB0EF7B0EB074072EB174284
:101470000CFB08F734BFA2EB0742B2EB074261EB6B
:10148000174115EB1C154FEA813141EA92414FEAB1
:10149000823242EA90424FEA80304FEA0C7644F1C1
:1014A000000448EA03434EEA0B484FF0000EB2EB4B
:1014B000080C71EB030724BF624639464EEB0E0E53
:1014C0004FF0000B0018524149414BEB0B0BB2EBB4
:1014D000080C71EB03077BF1000B24BF6246394611
:1014E0004EEB0E0E4FF0000B0018524149414BEBF2
:1014F0000B0BB2EB080C71EB03077BF1000B24BF65
:10150000624639464EEB0E0E51EA020718BF46F00E
:10151000010616EB0E7655F1000254F1000103D5D9
:10152000BDE88901BDE80088BDE88901BDE8004843
:10153000B619524141EB0101A3F1010370478080CC
:101540007F7E7D7C7B7A797877767675747372711D
:1015500071706F6E6E6D6C6C6B6A6A6968686766D5
:1015600066656464636362616160605F5F5E5E5D67
:101570005D5C5C5B5B5A5A595958585757565655DB
:1015800055555454535352525251515050504F4F3D
:101590004F4E4E4D4D4D4C4C4C4B4B4B4A4A4A498D
:1015A00049494848484747474746464645454544D0
:1015B0004444444343434342424242414141002B5D
:1015C00026D4770021D01CB54FEA370703B44FF07B
:1015D00010004FF010014FF000000FBCBDE81040AC
:1015E0000BF1010BBBF1010F08BF5FEA170722BF28
:1015F00012F1010211F101014FF0004143F100032A
:1016000000F0004043EA00007047F9D35708DAE7DA
:1016100046EA064613F1400F4FEA16461FDD13F166
:10162000200FDFBF16430A46002120335B42C8D09B
:10163000C3F1200746EA064602FA07F74FEA1646C4
:1016400046EA0706C3F1200722FA03F201FA07F778
:1016500021FA03F14FF0000342EA0702B1E746EA3C
:10166000020646EA06464FEA164646EA0106BCBFAF
:1016700046EA0646360C4FF000034FF000024FF0EA
:1016800000019EE72DE9C048934630B491E8380048
:1016900007C831EA400C48BF34EA430C03D5FFF7D2
:1016A000F2FDFFF78CFFF0BCBDE800882DE9C048D3
:1016B000934630B491E8380007C810F0804F08BF57
:1016C00013F0804F03D100F005F8FFF778FFF0BC6E
:1016D000BDE8008820F07F4780EA030023F07F4CBC
:1016E00007EB0C03A3F57C5300F00040A3F1FE03CD
:1016F00092F0000F00F0B38095F0000F00F07780BB
:101700002DE901494FEA11404FEA144621EA004809
:1017100000FB06FC24EA064708FB06F607FB08F870
:1017200000FB07F718EB06484CEB164C4FEA124B40
:1017300018EB07484FEA15464CEB174022EA0B4ED0
:101740000BFB06FC25EA06470EFB06F607FB0EFE22
:101750000BFB07F71EEB064E4CEB164C4FF000064A
:101760001EEB074E4CEB174B18EB0B0840F100003B
:1017700018EB0E0B58EB000840F100008F1A4FF0E9
:1017800000013CBFC943661B14BFB5EB040C00212C
:101790003CBFC943F61B4FEA17444EEA8E0E27EAB8
:1017A00004454FEA1C4704FB07622CEA074C05FB83
:1017B00007F70CFB05F604FB0CFC16EB074642EBA7
:1017C000174216EB0C4642EB1C421BEB060658EB8D
:1017D0000202414146EA9E0601D5BDE80189B619DB
:1017E000524141EB0101A3F10103BDE801894FEA38
:1017F00014454FEA114724EA054621EA074C05FB48
:1018000007F406FB07F70CFB06F105FB0CFC11EBDC
:10181000074144EB17444FEA124711EB0C4144EBEC
:101820001C4422EA074C05FB07F206FB07F70CFBFA
:1018300006F605FB0CFC16EB074642EB174216EBCF
:101840000C4642EB1C456A1854F1000148BF704732
:10185000B619524141EB0101A3F10103704795F024
:10186000000F37D04FEA11424FEA144721EA0246EF
:1018700024EA074C02FB07F106FB07F70CFB06F412
:1018800002FB0CFC14EB074441EB17414FEA1547F0
:1018900014EB0C4441EB1C4125EA074C02FB07F515
:1018A00006FB07F70CFB06F602FB0CFC16EB0746E3
:1018B00045EB174516EB0C4645EB1C42121951F14E
:1018C000000148BF7047B619524141EB0101A3F135
:1018D000010370474FEA14454FEA114724EA0546D1
:1018E00021EA074C05FB07F106FB07F70CFB06F2A4
:1018F0004FF0000605FB0CFC12EB074241EB1741D1
:1019000012EB0C4251EB1C4148BF7047921841EB5F
:101910000101A3F10103704770B50D4600F018F8FE
:101920000446284600F014F840EA042000EE100AAD
:10193000DFED050AB8EE400A20EE200ADFED030ACB
:1019400020EE200A70BD0000DB0FC9400000803986
:1019500010B5044601F07EFD6C2001F04BFD01F056
:10196000BFFDE0B201F046FD01F0BAFD01F072FDED
:101970006D2001F03FFD01F0B3FD002001F006FDF8
:10198000044601F08DFD204610BD000038B501F081
:10199000ADFC1C20FEF7E3FC040025D0012100F083
:1019A0004DF84FF47A75204600F05CF8606803F05B
:1019B00049FA41EC100B6069009053EC102B0DA01C
:1019C000FEF774FD204601F03DFC10EE100A03F016
:1019D00039FA41EC100B0FA053EC102BFEF766FD0B
:1019E000284601F0F7FDDEE7BDE838400EA0FEF71F
:1019F0005DBD0000616E676C653A20252E32662C55
:101A00002074696D657374616D703A2025640D0AE8
:101A10000000000076656C6F636974793A20252EAA
:101A200032660D0A00000000617331206D616C6C3C
:101A30006F63206661696C65640D0A0010B5016012
:101A400004460D210C20FFF767FF84ED010A84EDA9
:101A5000020A0020E060206103F030F86061A061BC
:101A600010BD000010B504462DED028B0D210C2099
:101A7000FFF752FFB0EE408A03F020F8606194ED6A
:101A8000010A78EE400AB0EE600A01F0A5FB10EE04
:101A9000100A0A4988420BDDF5EEC00AE168F1EE52
:101AA00010FA02DD4FF0FF3000E001200844E06052
:101AB00084ED018ABDEC028B10BD00007CD9A040F2
:101AC000FEE7704772B6FEE72DE9F84FDFF8B8A1E0
:101AD0000022012403254FF00F090AF1040BAAF19B
:101AE000040E00BF0B6804FA02F63340B34273D110
:101AF0000F7907F00307012F01D0022F16D1876855
:101B00004FEA420805FA08FC27EA0C07D1F80CC096
:101B10000CFA08FC4CEA070CC0F808C04768B74349
:101B20000E79C6F3001696403E4346600E79F643A2
:101B3000B6070DD0C768560005FA06FC27EA0C0761
:101B4000D1F808C00CFA06FC4CEA070CC0F80CC02F
:101B50000E7906F00306022E10D1D60800EB860897
:101B6000D8F8206057074FEAD76C09FA0CF7BE4344
:101B70000F6907FA0CF73743C8F8207006684FEA78
:101B8000420C05FA0CF7BE430F7907F0030707FA7A
:101B90000CF7374307604E6816F4403F6DD03B4E5C
:101BA000376847F480473760366822F0030706F449
:101BB00080460096364E07EB060CDCF8086897075F
:101BC0003F0F09FA07F826EA0806DFF8C880404503
:101BD00003D14FF000081EE04FE0DFF8BC80404525
:101BE00002D14FF0010816E0DFF8B080404502D185
:101BF0004FF002080FE0DFF8A880404502D14FF017
:101C0000030808E0DFF89C80404502D14FF004084B
:101C100001E04FF0070808FA07F848EA0608CCF890
:101C20000888DAF800605746D1F804C09E435FEA9E
:101C3000CC2C00D51E433E60DBF800605F46D1F837
:101C400004C09E435FEA8C2C00D51E433E60DEF844
:101C500000607746D1F804C09E435FEA8C3C00D513
:101C60001E433E60084F083F3E68D1F804C09E43C3
:101C70005FEACC3C00D51E433E60521C102AFFF4A4
:101C800031AFBDE8F88F0000083C01404438024005
:101C90000030014000000240000402400008024001
:101CA000000C0240001002400069084000D00120F2
:101CB00070470AB1816170470904FBE701488068F9
:101CC0007047000014000020024881680278114427
:101CD00081607047140000200B4810B5016841F482
:101CE00000710160016841F480610160016841F4A4
:101CF00080710160032000F099F80F2000F006F8D1
:101D000000F04AF8002010BD003C024030B5054606
:101D10001C4887B00024016841F00101016000689F
:101D200006A900F00100009001A800F02BF900F0D6
:101D300059F91549154AB0FBF1F11548491E0260E1
:101D400040F2E732C0E90324C0E90114846100F0E5
:101D50008DFB040012D10E4800F0D4FB04000DD11D
:101D6000192000F035F8102D07D20022294619203D
:101D700000F03CF80748056000E0012407B0204669
:101D800030BD00004438024040420F0000000140D6
:101D9000E8000020180000200C4882B0016841F4DF
:101DA00080410160006800F4804000900748001FF7
:101DB000016841F0805101600068002200F080500D
:101DC00000900F21901E02B000F010B8443802407D
:101DD000002809DB00F01F0201219140400980002A
:101DE00000F1E020C0F8001170470000F0B40E4B85
:101DF0001B680C46C3F30223C3F10705042D00D969
:101E00000425191D072901D2002300E0DB1E01264D
:101E100006FA05F1491E214099409E40761E164063
:101E20003143F0BC01F0BFB90CED00E0064900F011
:101E3000070208684FF6FF03184040EA0220034AF1
:101E400010430860704700000CED00E00000FA0548
:101E50002DE9F0470E46050065D0DFF81481D8F86B
:101E60000000F7B200F00700B04207D288F8007017
:101E7000D8F8000000F00700B04254D128683D4C6B
:101E8000810712D5400703D5206840F4E050206058
:101E90002878000703D5206840F46040206020685F
:101EA000A96820F0F000084320602878C0072DD0F2
:101EB000304968680839012812D0022813D0032855
:101EC00011D00968890700292DDA216821F0030162
:101ED00001432160FFF7F2FE814641F2883A0EE0AD
:101EE00009688903EFE709688901ECE7FFF7E6FE77
:101EF000A0EB0901514502D90320BDE8F087206815
:101F0000696800F00C00B0EB810FEFD1D8F8001039
:101F1000404601F00701B14207D90770006800F0A0
:101F20000700B04201D00120E7E72878400705D537
:101F30002068E96820F4E050084320602878000712
:101F400006D52068296920F4604040EAC10020607D
:101F500000F058F82168084AC1F30311515CC840E9
:101F60000649086006480068FFF7D0FE0020C4E775
:101F7000003C024008380240344F00082000002096
:101F8000180000200F2202600C4A136803F00303BC
:101F90004360136803F0F0038360136803F4E053B5
:101FA000C36012684FF4E05303EAD20202610448AE
:101FB000006800F007000860704700000838024021
:101FC000003C02400448054900680968044AC1F31E
:101FD0008221515CC8407047200000200838024030
:101FE000444F00080448054900680968044AC1F3E1
:101FF0004231515CC8407047200000200838024040
:10200000444F0008154810B5006810F00C02144841
:1020100013D01449042A0FD0082A0ED10F4C241FC4
:102020002268236802F03F025B0207D52068C0F3F4
:102030008810A0FB010106E0084610BD2168C1F32D
:102040008811A1FB00010023FEF7B8F92168C1F354
:102050000141491C4900B0FBF1F010BD08380240B5
:102060000024F40040787D012DE9F84F04006ED083
:102070002078DFF84C93C007A9F104054AD009F194
:1020800004000168C1F38101012908D00068C0F390
:10209000810002280AD1D9F80000400206D528683C
:1020A000800337D560680028E1D033E06068B0F580
:1020B000803F10D0B0F5A02F286810D020F48030D9
:1020C0002860286820F4802028606068A8B1FFF7A5
:1020D000F5FD06460DE0286840F48030F4E740F452
:1020E00080202860F7E700BFFFF7E8FD801B642829
:1020F00073D828688003F7D50CE0FFF7DFFD0646AC
:1021000005E000BFFFF7DAFD801B6428F0D82868DF
:102110008003F7D42078DFF8AC8280074FF0000A04
:102120003ED5A748001D016811F00C0F08D00068CB
:10213000C0F3810002280BD1D9F80000400207D477
:102140002868800716D5E068012800D112E033E145
:10215000E068B8B10120C8F80000FFF7AFFD0646FF
:1021600005E000BFFFF7AAFD801B0228C0D8286841
:102170008007F7D52868216920F0F80040EAC100FF
:1021800028600DE0C8F800A0FFF798FD064604E0BF
:10219000FFF794FD801B02281FD828688007F7D41A
:1021A0002078000722D5864F87486169703771B162
:1021B00001210160FFF782FD064604E0FFF77EFD86
:1021C000801B022809D838688007F7D50EE0C0F8D0
:1021D00000A0FFF773FD064605E082E0FFF76EFD05
:1021E000801B02287DD838688007F7D42078400704
:1021F00068D5DFF8CCB100270BF13C0BDBF8000011
:10220000C0000BD4DBF8001041F08051CBF8001077
:10221000DBF80000012700F0805000906B4E306822
:10222000C00510D4306840F480703060FFF746FD80
:10223000009005E0FFF742FD0099401A022850D8AF
:102240003068C005F6D55E4EA0686C3601280FD008
:102250000528306810D020F001003060306820F090
:1022600004003060A068B8B1FFF728FD00900FE0CF
:10227000306840F00100F4E740F004003060F7E718
:10228000FFF71CFD0099411A41F28830814266D85F
:1022900030688007F4D50EE0FFF710FD009007E0EE
:1022A000FFF70CFD0099411A41F28830814256D85F
:1022B00030688007F4D42FB1DBF8001021F0805192
:1022C000CBF80010A069C8B33D49091D0968C1F3E6
:1022D000810102294AD00228504607D0C8F8600080
:1022E00000E03CE0FFF7EAFC04463BE04746C8F864
:1022F0006000FFF7E3FC064605E000BFFFF7DEFCE9
:10230000801B02282BD828688001F7D4D4E9070164
:102310000843A16A2E4A490802EB0141626A41EA78
:102320008211084394F82C1040EA0161C9F80010AA
:1023300001203866FFF7C2FC044606E03EE000BF1D
:10234000FFF7BCFC001B022809D828688001F7D5DC
:1023500034E000BFFFF7B2FC001B022802D90320C3
:10236000BDE8F88F28688001F4D427E00128F7D071
:10237000D9F80000E26900F4800191421CD1226A80
:1023800000F03F01914217D147F6C071626A0140E7
:10239000B1EB821F10D1A26A4FF0FF3300F440313D
:1023A00003EB5202B1EB024F06D194F82C1000F06F
:1023B0007060B0EB016F01D00120D1E70020CFE7C2
:1023C0000438024000004742800E4742007000403F
:1023D0000000FFFF4FF0E0210428086903D020F03F
:1023E00004000861704740F00400FAE77047704746
:1023F00070B590F83C20012A2CD0012480F83C4094
:10240000022280F83D2003685A689D6822F0700619
:102410000A6832435A60104B02689A420ED0B2F1F9
:10242000804F0BD00D4B9A4208D00D4B9A4205D0ED
:102430000C4B9A4202D00C4B9A4204D1496825F0C9
:1024400080031943916080F83D40002180F83C10E2
:10245000084670BD022070BD00000140000400402D
:1024600000080040000C00400040014010B504008E
:1024700003D094F83D0010B107E0012010BD00200A
:1024800084F83C00204600F01FF8022084F83D004C
:10249000211D206800F0B6FC012084F8460084F875
:1024A0003E0084F83F0084F8400084F8410084F83E
:1024B000420084F8430084F8440084F8450084F81E
:1024C0003D00002010BD000008B501680B48B1F1C7
:1024D000804F0BD00A4A914207D1016841F00201B6
:1024E0000160006800F00200009008BD016841F042
:1024F00001010160006800F00100F5E7403802408A
:102500000004004090F83D10012901D001207047DF
:10251000022180F83D100168CA6842F00102CA60D9
:1025200000680E4988420ED0B0F1804F0BD00C49A4
:10253000884208D00B49884205D00B49884202D016
:102540000A49884204D1816801F00701062903D0B5
:10255000016841F001010160002070470000014066
:102560000004004000080040000C00400040014012
:1025700070B5044690F83C000025012817D00126CC
:1025800084F83C60022084F83D002068826822F0D4
:10259000770222F47F4282600868502838D00DDC30
:1025A00020284FD005DC90B3102811D14AE002203A
:1025B00070BD302846D040280AD13BE060282FD09B
:1025C00070280DD0B0F5805F03D0B0F5005F12D059
:1025D000012584F83D60002084F83C00284670BD49
:1025E000CB68D1E90121206800F065FC2068816892
:1025F00041F0770109E0CB68D1E90121206800F0C2
:102600005AFC2068816841F480418160E1E719E06B
:10261000CA684968206800F003FD5021206806E080
:10262000CA684968206800F00CFD6021206800F04D
:102630004CFCCEE7CA684968206800F0F1FC4021F4
:102640002068F4E7226801461046F0E7704770B54D
:102650000446006801694FF00005C943890715D495
:10266000C168C943890711D4E91E0161012020779F
:10267000206880698007204602D0FFF7E7FF04E06A
:1026800000F0D6F8204600F068F925772068016947
:10269000C943490717D4C168C943490713D46FF028
:1026A00004010161022020772068806910F4407FD6
:1026B000204602D0FFF7CAFF04E000F0B9F8204638
:1026C00000F04BF9257720680169C943090716D442
:1026D000C168C943090712D46FF0080101610420E1
:1026E00020772068C0698007204602D0FFF7AEFF40
:1026F00004E000F09DF8204600F02FF925772068CF
:102700000169C943C90617D4C168C943C90613D4AE
:102710006FF010010161082020772068C06910F473
:10272000407F204602D0FFF791FF04E000F080F8E0
:10273000204600F012F9257720680169C943C907CE
:1027400008D1C168C943C90704D1891E0161204667
:1027500000F05CF920680169C943090609D4C16821
:10276000C943090605D46FF0800101612046FFF7D7
:102770003DFE20680169C943490609D4C168C943BF
:10278000490605D46FF040010161204600F048F988
:1027900020680169C94389060BD4C168C943890609
:1027A00007D46FF0200101612046BDE87040FFF7BB
:1027B0001EBE70BD30B587B0044614216846FDF7D3
:1027C00091FF24680022174902231748B4F1804F73
:1027D00016D0164DAC4211D10C6844F001040C60C7
:1027E000096801F001010591C0210091CDE9013294
:1027F0006946CDE9032300BFFFF766F907B030BD96
:102800000C6844F001040C60096801F001010591B5
:102810000F210091CDE901320121CDE90321694663
:10282000EAE70000303802400000024000040040A7
:10283000704770B5044690F83C0000260D4601280C
:102840000FD0012084F83C006AB1042A1DD0082A68
:102850002FD00C2A3FD00126002084F83C003046BF
:1028600070BD022070BD206800F038FB20688169CF
:1028700041F0080181612068816921F004018161D2
:10288000206881692A69114311E0206800F04EFB3D
:102890002068816941F4006181612068816921F4C7
:1028A00080618161206881692A6941EA0221816130
:1028B000D2E7206800F066FB2068C16941F008019A
:1028C000C1612068C16921F00401C1612068C1694A
:1028D0002A69114311E0206800F080FB2068C1697B
:1028E00041F40061C1612068C16921F48061C16166
:1028F0002068C1692A6941EA0221C161ACE710B5CB
:10290000040003D094F83D0010B107E0012010BD91
:10291000002084F83C00204600F01EF8022084F8D5
:102920003D00211D206800F06DFA012084F846006A
:1029300084F83E0084F83F0084F8400084F84100A9
:1029400084F8420084F8430084F8440084F8450089
:1029500084F83D00002010BD7047704710B5044654
:10296000022249B104290ED0082913D094F841005D
:10297000012816D0012010BD94F83E000128F9D19D
:1029800084F83E200FE094F83F000128F2D184F84B
:102990003F2008E094F840000128EBD184F8402063
:1029A00001E084F841200122206800F077FA124902
:1029B0002068884203D1426C42F40042426420689D
:1029C00088420ED0B0F1804F0BD00C49884208D01D
:1029D0000B49884205D00B49884202D00A498842F7
:1029E00004D1816801F00701062903D0016841F094
:1029F00001010160002010BD000001400004004002
:102A000000080040000C00400040014000680349FD
:102A1000884201D1FFF758B970470000000001401B
:102A2000704770B5040004D094F83D00002510B143
:102A300006E0012070BD84F83C50204600F022F8EA
:102A4000242084F83D002068C16821F40051C16051
:102A5000204600F009FB2068016921F490410161E2
:102A60002068416921F02A0141612068C16841F470
:102A70000051C1602564202084F83D0084F83E00A8
:102A8000002070BD10B586B0044614216846FDF7DD
:102A900029FE14492068884221D113480021026888
:102AA00042F010020260006800F0100005900E482D
:102AB0001438026842F001020260006800F0010070
:102AC00005904FF4C06000900220CDE90101032081
:102AD00003900720049069460448FEF7F5FF06B00E
:102AE00010BD0000001001404438024000000240C8
:102AF000FEE700001CB505490120CDE900010023D7
:102B0000802203A1054801F073FF1CBD00000020D6
:102B100073746172745F7461736B0000E93E000846
:102B200070B586B014216846FDF7DCFD0E48002420
:102B3000016841F00401016000680C4E00F00400DF
:102B40004FF400550590224629463046FFF7B1F86C
:102B500001200095CDE90104694630460394FEF753
:102B6000B3FF06B070BD00003038024000080240DC
:102B700010B58EB000240794089409940A940B941D
:102B80001C2168460C94FDF7ADFD32484FF08041A2
:102B900001600721C0E901146421C0E90314802108
:102BA0008161FFF763FC08B1FEF78CFF4FF48050A2
:102BB000079007A92748FFF7DBFC08B1FEF782FF63
:102BC0002448FFF79CFE08B1FEF77CFF0B940BA98D
:102BD00020480C94FFF70CFC08B1FEF773FF60204F
:102BE00000903220CDE9010400226946194804947E
:102BF000FFF71FFE08B1FEF765FF0422694615487E
:102C0000FFF717FE08B1FEF75DFF0822694611487D
:102C1000FFF70FFE08B1FEF755FF0C2269460D487D
:102C2000FFF707FE08B1FEF74DFF0A48FFF7C2FDA8
:102C300000210848FFF792FE04210648FFF78EFEA8
:102C400008210448FFF78AFE0C210248FFF786FEA0
:102C50000EB010BD044A002010B58EB000240794B9
:102C6000089409940A940B941C2168460C94FDF76F
:102C700039FD2648244901600721C0E90114642177
:102C8000C0E903148461FFF7F1FB08B1FEF71AFFF6
:102C90004FF48050079007A91C48FFF769FC08B162
:102CA000FEF710FF1948FFF72AFE08B1FEF70AFFEA
:102CB0000B940BA915480C94FFF79AFB08B1FEF78B
:102CC00001FF602000905020CDE9010400226946F8
:102CD0000E480494FFF7ADFD08B1FEF7F3FE0422A1
:102CE00069460A48FFF7A5FD08B1FEF7EBFE074865
:102CF000FFF760FD00210548FFF730FE042103487F
:102D0000FFF72CFE0EB010BD000400404C4A00201E
:102D10000C4810B50A4901604FF4E13141600021CF
:102D200081600C22C160C0E904128161C161FFF7BA
:102D300078FE002803D0BDE81040FEF7C3BE10BDEA
:102D400000100140A4000020FEE7FEE710B54FF0A0
:102D5000E020006901F0A4FE012803D0BDE8104086
:102D600001F0D2BB10BD000010B592B03021684612
:102D7000FDF7B8FC14210CA8FDF7B4FC184800249A
:102D8000016841F080510160006800F080501190AE
:102D90001448016821F4404141F400410160006899
:102DA000069400F44040119002200090012003900E
:102DB000102004906846FFF757F908B172B6FEE795
:102DC0000F20CDE90C040E940F9400210CA8109450
:102DD000FFF73EF8002801D072B6FEE712B010BD32
:102DE00040380240007000400248016841F4700120
:102DF0000160704788ED00E00148FFF728BC000043
:102E0000E8000020F0B502681D4B1E4C9F031E4DCC
:102E10001E4E984207D0B84205D0A04203D0A84227
:102E200001D0B04204D122F0700C4A6842EA0C0290
:102E3000984210D0B8420ED0A0420CD0A8420AD07E
:102E4000B04208D0124CA04205D0124CA04202D091
:102E5000114CA04203D122F44074CA6822434C6949
:102E600022F08002224302608A68C2620A6882629B
:102E7000984201D10969016301214161F0BD00005F
:102E8000000001400004004000080040000C004029
:102E900000400140004401400048014010B501F0ED
:102EA0001F030121046A99408C430462016A9A401D
:102EB0001143016210BD10B5846842EA032224F474
:102EC0007F440A432243826010BD826822F0700270
:102ED0000A4342F0070181607047000030B5026A82
:102EE00022F001020262026A4368846924F07305D9
:102EF0000C682C4322F002058A682A430A4DA84236
:102F00000BD122F00805CA6823F440732A434D69A7
:102F100022F004021D438B692B434360846149689E
:102F20004163026230BD00000000014030B5026A1A
:102F300022F010020262026A436884690D6824F478
:102F4000E64444EA05248D6822F0200242EA051294
:102F50000B4DA8420ED1CD6822F0800242EA051244
:102F60004D6923F4406343EA85038D6922F04002F2
:102F700043EA85034360846149688163026230BD2E
:102F80000000014030B5026A22F480720262036AD6
:102F90004268C46923F4007324F073050C682C4361
:102FA0008D6843EA05230C4DA8420ED1CD6823F469
:102FB000006343EA05234D6922F4405242EA0512B8
:102FC0008D6923F4806342EA05124260C461496856
:102FD000C163036230BD00000000014030B5026AE9
:102FE00022F480520262046A4268C3690D6823F4C5
:102FF000E64343EA05238D6824F4005444EA05348B
:10300000064DA84204D14D6922F4804242EA85125D
:103010004260C36149680164046230BD0000014040
:1030200010B5036A046A24F001040462846924F080
:10303000F00444EA021423F00A020A4384610262A3
:1030400010BD10B5036A23F0100303628369046A9C
:1030500023F4704343EA023224F0A00343EA01114F
:103060008261016210BD000070B50446006801690C
:10307000E26821F44051114301612169A068E269CD
:1030800008436169114308432168CA6849F20C6327
:103090009A430243CA6020684169A26921F44071E1
:1030A0001143416131492068884202D03049884249
:1030B00002D1FEF797FF01E0FEF784FFE2690023EB
:1030C000192164253226B2F5004F626828D0A0FB92
:1030D0000101930F9200FDF771F90146B0FBF5F085
:1030E0006FF01802504301EB800006EB0010B0FBBC
:1030F000F5F000F0F002B1FBF5F002EB0012B1FBCD
:10310000F5F06FF01803584301EB800006EB001058
:10311000B0FBF5F000F00F0021681044886070BD2E
:10312000A0FB010192185B41FDF748F90146B0FB95
:10313000F5F00201B1FBF5F06FF01803584301EB15
:10314000800006EBC000B0FBF5F000F0F80002EBE9
:103150004002B1FBF5F0584301EB800006EBC000E4
:10316000B0FBF5F000F00700D6E7000000100140CA
:1031700000140140FEE703B401984100009850EAB2
:10318000C12018BF04204A0D18BF40F0010040F2D2
:10319000FF72B2EB515F08BF40F00200012808BF88
:1031A000052002B070470907090E002804DB00F172
:1031B000E02080F80014704700F00F0000F1E020DC
:1031C00080F8141D704730380A2801D2012070475A
:1031D0000020704770477047B5EEC00AF1EE10FA54
:1031E00001DCB1EE400A704710B504460420FFF739
:1031F000F1F80148046010BD1000002070B54FF0D8
:10320000E024002265690949A36909684843A16966
:103210009942FCD002D2A3EB010302E0A5EB010628
:1032200033441A440B468242F1D370BD1000002093
:1032300003490A685206FCD5C2B24A6070470000D2
:1032400000100140D0E905239FED110AD11A9A42DE
:1032500000D8491E00EE901AD0E90313B8EE601AA8
:10326000CB1A9FED0C2AC1EE000A90ED011A90EDE9
:10327000020A80ED021A826171EE401A00EE103AE5
:103280000161B8EEC00A40EE021A81EEA00A704752
:1032900000007A44DB0FC94070B5134D4FF4007441
:1032A000002221462846FEF704FD0220FFF7A6FF74
:1032B0000122160231462846FEF7FBFC0220FFF7EA
:1032C0009DFF002231462846FEF7F3FC0220FFF75F
:1032D00095FF012221462846FEF7EBFCBDE8704031
:1032E0000220FFF78BBF000000040240154810B514
:1032F000016886B041F002010160016801F002013D
:103300000591016841F00201016000680E4C00F077
:10331000020005904FF4807000900120019002900F
:103320000320039069462046FEF7CEFB601500900F
:103330001120019069462046FEF7C6FB00F0B0F868
:1033400006B010BD303802400004024070B50E4C8B
:10335000012251022046FEF7ACFC0220FFF74EFF8F
:103360000122150229462046FEF7A3FC0220FFF7A2
:1033700045FF002229462046FEF79BFCBDE8704031
:103380000220FFF73BBF0000000402402DE9F04798
:103390000024174E804625464FF400794FF480777D
:1033A0006006040E012239463046FEF782FC0220F8
:1033B000FFF724FF49463046FEF776FC08B1641C4F
:1033C000E4B2002239463046FEF773FC0220FFF7D4
:1033D00015FF6D1CEDB2082DE2D3B8F1000F04D03B
:1033E000FFF75AFF2046BDE8F087FFF7AFFFF9E788
:1033F000000402402DE9F041154F002405464FF42A
:103400000078BE15280601D5012200E000224146C1
:103410003846FEF74EFC0220FFF7F0FE012231464F
:103420003846FEF746FC0220FFF7E8FE0022314650
:103430003846FEF73EFC6806641C050EE4B2082C14
:10344000E0D341463846BDE8F0410122FEF731BCE9
:103450000004024070B50122104D54022146284656
:10346000FEF727FC0122160231462846FEF721FC12
:103470000220FFF7C3FE002221462846FEF719FC72
:103480000220FFF7BBFE002231462846FEF711FC62
:10349000BDE870400220FFF7B1BE0000000402400A
:1034A00070B50E4D4FF40074002221462846FEF7F9
:1034B00000FC0220FFF7A2FE012211022846FEF7BF
:1034C000F8FB0220FFF79AFE012221462846FEF76C
:1034D000F0FBBDE870400220FFF790BE0004024000
:1034E0002DE9F0410122174E0024570225463946A6
:1034F0003046FEF7DEFB0220FFF780FE4FF48078B7
:10350000012241463046FEF7D4FB0220FFF776FE4B
:1035100007E0641CE4B2FA2C03D9FFF7C1FF0125D0
:1035200005E039463046FEF7BFFB0028F1D1002206
:1035300041463046FEF7BDFB0220FFF75FFE2846FE
:10354000BDE8F08100040240144814210268516370
:1035500002682821916302683C21D16300685021F0
:1035600001640F481E21026851630068462181638F
:103570000C4C4FF400564FF47A7500223146204629
:10358000FEF797FB284600F025F801223146204639
:10359000FEF78FFB284600F01DF8EEE7044A0020F6
:1035A0004C4A002000080240FEF796FBFFF7DCFBC8
:1035B0001020FFF719FEFFF7B3FAFFF7D9FAFFF76C
:1035C0004BFBFFF7A5FB00F013F8FFF793FA00F0B1
:1035D00021F8FEE710B5EFF3058111B16FF0050496
:1035E00003E0002408B100F0E7FD204610BD000014
:1035F000EFF3058010B16FF00500704704480168D3
:1036000011B14FF0FF307047012101600020704779
:103610007400002010B5EFF3058010B16FF00500C5
:1036200010BD08480168012902D04FF0FF3010BDDD
:10363000054A002182F8141D0221016000F06CFE91
:10364000002010BD740000200BE000E02DE9F041E7
:10365000134C0F460546E6682068001D00F078FC14
:10366000681C07D137B12168BDE8F0410D48091D3C
:1036700000F0BEBC20683544B5424560216805D2E3
:10368000A06BBDE8F041091D00F09ABC606B091DFC
:1036900000F096FCA06A854200D2A562BDE8F081E8
:1036A00024000020200600202DE9F041054600F00E
:1036B000ABFC2D4CA068401CA06020682B4F10B1C3
:1036C000606930B32BE02560A068012827D100266F
:1036D00006EB860007EB800000F064FC761C382EB9
:1036E000F6D3234800F05EFC2148143000F05AFC69
:1036F0001F48283000F056FC1D483C3000F052FCBA
:103700001B48503000F04EFC194860631430A06331
:1037100005E02068E96AC06A884200D82560606ACE
:10372000401C60626864E86A2169884200D92061AF
:1037300000EB800007EB8000291D00F059FC00F031
:1037400083FC606900280CD02068E96AC06A88425E
:1037500007D208494FF080500860BFF34F8FBFF386
:103760006F8FBDE8F0810000240000207001002070
:10377000D005002004ED00E038B500F045FC104C09
:103780002068C8B90F4800F00DFC0E48143000F056
:1037900009FC0C48E060143020610A4B0020F03B2B
:1037A000009003F1500210210A2000F0C3FE2060B7
:1037B00010B105A100F0CAFCBDE8384000F044BCDF
:1037C0006000002024070020546D725100000000AA
:1037D00030B4026C0B46002A0BD0C1681144C160A2
:1037E0008468A14201D30168C16030BC1846FCF76F
:1037F0002CBF30BC70472DE9F041856B174604465D
:103800000026026C82B1C7B1E068FCF71EFFE168D8
:10381000206C091AE1602268914202D2A168081A5C
:10382000E060022F16D017E02068A8B9A06801F068
:10383000AFF906460020A0600EE06068FCF705FFC7
:10384000216C606808446060A168884204D32068E5
:10385000606001E005B16D1E6D1CA5633046BDE8DA
:10386000F08110B5044690F8590058B101280CD0E9
:1038700002280FD0502080F31188BFF34F8FBFF381
:103880006F8FFEE7206B00F0F3FB2046BDE8104091
:1038900000F0EEBB10BD000010484FF4705142071D
:1038A00006D0C01D0D4920F00700411AC1F5705126
:1038B0000B4A00230144C2E900030839183A21F0F9
:1038C000070111604B600B600B1AC0E90013936095
:1038D0004FF000405360506170470000040E00201C
:1038E00090000020144E154CA6F29C474FF08058D3
:1038F000DFF84C9012E000BF00F086FBF068C5686E
:10390000281D00F025FBA068401EA0606068401ED6
:10391000606000F099FB2846FFF7A3FF606800286D
:10392000EAD138680128F9D9C9F80080BFF34F8F70
:10393000BFF36F8FF2E700000C0600202400002088
:1039400004ED00E070B51D46049C51B1C4F80020A0
:10395000C4E90F010121204600F020FE84F84C50FC
:1039600070BD2460F4E700002DE9F05F8846DDE9D2
:103970000B941546834691009A460A9EA522206B19
:10398000FCF7A8FE6FF00301206B01EB85010844F2
:1039900020F00707780707D0502080F31188BFF385
:1039A0004F8FBFF36F8FFEE70025B8F1000F0FD0E8
:1039B0005FF00000221818F8001082F8341018F890
:1039C000001011B1401C1028F4D384F8435001E0DA
:1039D00084F83450382E00D33726E662C4E91365E4
:1039E000201D00F0EAFA04F1180000F0E6FA246164
:1039F000C6F138006462A061656584F8585052468B
:103A00005946384600F05AFA2060B9F1000F01D04B
:103A1000C9F80040BDE8F09F30B5114900E01146FB
:103A20000A688242FBD34B685C18844203D1406829
:103A300018444860084643681C18944209D1084C51
:103A4000183C2468A24209D052681A4442600A68AD
:103A500012680260814200D0086030BD0460F9E75E
:103A60009000002070B5002441600B4D0061914230
:103A700006D8D11A8269914206D2011D286907E051
:103A80009A4203D2994201D3012403E0011DE86860
:103A900000F096FA204670BD6000002010B5044684
:103AA00000F0B2FAA06B28B15FF0000400F0CCFA8D
:103AB000204610BD0124F9E730B589B03C4D6EE0D9
:103AC0000498002806DADDE90601059A9047049873
:103AD000002864DB069C606910B1201D00F038FAF4
:103AE00003A800F0D7F8024604980A2857D2DFE866
:103AF00000F00505052D334A05052D3394F82800FF
:103B000040F0010084F828000599A069059B014454
:103B10002046FFF7A7FF68B3216A2046884794F83C
:103B2000280040073BD5002000900598A16900239C
:103B300042181946204601F035F9D8B9502080F3D3
:103B40001188BFF34F8FBFF36F8FFEE714F8280F74
:103B500020F00100207022E094F8280040F00100DD
:103B600084F828000598A06128B1811813462046E2
:103B7000FFF778FF13E0502080F31188BFF34F8FD9
:103B8000BFF36F8FFEE794F82800810703D4204627
:103B900000F06EFA03E020F0010084F82800002213
:103BA00004A9286800F04EFE002889D109B030BD74
:103BB000600000202DE9FC410F46054600F0F0FBB7
:103BC00001A800F067F80446019818B101F058F810
:103BD000BDE8FC81254EAFB130690068D0B3002745
:103BE000291B3A46306800F0C5FA01F049F8002870
:103BF000EED11F494FF080500860BFF34F8FBFF3E5
:103C00006F8FE5E7A542EBD801F03AF8F068274658
:103C1000C068C468201D00F09BF994F82800410793
:103C200019D5A0692B4641193A462046FFF71AFFDD
:103C3000A8B100200346014600902A46204601F024
:103C4000B1F860B9502080F31188BFF34F8FBFF3F4
:103C50006F8FFEE707E020F0010084F82800216A5A
:103C600020468847B4E70127BAE70000600000203B
:103C700004ED00E00648416B096829B1416BC96851
:103C8000C9684968816270474FF0FF31FAE7000068
:103C90002400002070B5054600F010FF064E0446D3
:103CA000B068844203D200F009F8012000E000204F
:103CB00028602046B46070BD60000020F8B5194D42
:103CC00020E0C068C4680668201D00F041F9216A40
:103CD0002046884794F82800400713D5A06930444F
:103CE000B04206D924616060211DE86800F068F9DF
:103CF00008E000200346014600903246204601F0CD
:103D000051F838B1E86801680029DAD12969C5E9B4
:103D10000310F8BD502080F31188BFF34F8FBFF31D
:103D20006F8FFEE76000002008484068401C4FF09D
:103D3000500080F3118804D0BFF34F8FBFF36F8F13
:103D4000FEE7BFF34F8FBFF36F8FFEE798000020B1
:103D5000074CE068016841B1C0680021D0F800005C
:103D6000FFF728FFFFF7A8FEF3E701210020F7E7A0
:103D7000600000202DE9F041044600F045F994F977
:103D8000455004F1240609E0606A48B1304600F06D
:103D90003FFF08B100F086FA6D1E6DB2002DF3DC16
:103DA0004FF0FF3684F8456000F04EF900F02CF932
:103DB00094F9445004F1100709E0206948B13846ED
:103DC00000F026FF08B100F06DFA6D1E6DB2002DF7
:103DD000F3DC84F84460BDE8F04100F035B9000040
:103DE0002DE9F0410546002700F0DAFA324E30683E
:103DF00008B9FFF751FD706905424ED1C5B30835CA
:103E000068070ED005F00700C0F1080005446807F8
:103E100007D0502080F31188BFF34F8FBFF36F8F0F
:103E2000FEE72DB37068854237D823481830014625
:103E30000C6801E020460C466168A94202D2216864
:103E40000029F7D131688C4227D0076821680160CA
:103E500060680837411B10290FD96019420708D044
:103E6000502080F31188BFF34F8FBFF36F8FFEE7B1
:103E700013E041606560FFF7CFFD61687068401A2C
:103E80007060B268904200D2B06070690143002057
:103E9000C4E90001F068401CF06000F0F1FE780712
:103EA00007D0502080F31188BFF34F8FBFF36F8F7F
:103EB000FEE73846BDE8F0817800002010B5031F0A
:103EC0004FF080741C601B1F21F001011960191F45
:103ED000044B0B6014390A60091F6FF0020244386A
:103EE0000A6010BD293D00081CB500F08DF80F498F
:103EF0000320CDE90001002380220DA10F4800F02E
:103F000077FD0A490220091DCDE900010023802226
:103F10000BA10E4800F06CFD0448001F006800F083
:103F200071F9BDE81C4000F08FB8000004000020CB
:103F3000696E666F5461736B0000000049350008BC
:103F40004153353630305461736B00008D190008D1
:103F5000D0E9013201699A60D0E901235A604A68C8
:103F6000824201D182684A60002202610868401ED4
:103F70000860086870470000034B036003F15C00B1
:103F800008608020106070474C070020044B0360DD
:103F900003F15C0008604FF480701060704700000F
:103FA000A809002000F108014FF0FF32C0E901121A
:103FB000C16001610021016070470021016170470B
:103FC00030B50B685A1C02D000F1080202E0026909
:103FD00004E02246546825689D42FAD953684B6034
:103FE00099608A60516008610168491C016030BDB8
:103FF00042684A6093688B60936859609160086179
:104000000168491C01607047502080F31188BFF39C
:104010004F8FBFF36F8F0A494868401C48600128E2
:104020000CD10848006810F0FF0F07D0502080F333
:104030001188BFF34F8FBFF36F8FFEE7704700000B
:104040009800002004ED00E00849486828B1401EAF
:10405000486001D180F311887047502080F31188A7
:10406000BFF34F8FBFF36F8FFEE700009800002073
:1040700070B500282AD0164DA0F10804606869695F
:10408000084207D1502080F31188BFF34F8FBFF350
:104090006F8FFEE722683AB1502080F31188BFF39A
:1040A0004F8FBFF36F8FFEE78843606000F078F9B1
:1040B00060686968084468602046FFF7ADFC2869BD
:1040C000401C2861BDE8704000F0DABD70BD000002
:1040D000780000204FF0E020002101618161054956
:1040E0004FF47A720968B1FBF2F1491E4161072170
:1040F000016170472000002010B5FCF70BF9114951
:1041000010280ED300F1E02090F8F0030A789042D6
:1041100007D2502080F31188BFF34F8FBFF36F8F0A
:10412000FEE709480068896800F4E060884207D922
:10413000502080F31188BFF34F8FBFF36F8FFEE7DE
:1041400010BD0000980000200CED00E010B5084BF9
:10415000002200BF53F832401CB1521C082AF9D388
:1041600010BD43F8321003EBC201486010BD0000DF
:104170003001002070B515460E460446FFF744FF97
:1041800094F944100020491C01D184F8440094F9AA
:104190004510491C01D184F84500FFF755FFA06B7D
:1041A00028B92A46314604F1240000F099F8204647
:1041B000BDE87040FFF7DEBD10B5020014D00F4817
:1041C000006B38B1502080F31188BFF34F8FBFF3DD
:1041D0006F8FFEE700F0E4F800211046FFF736FA93
:1041E00000F04EFD002807D105494FF080500860CF
:1041F000BFF34F8FBFF36F8F10BD0000240000206E
:1042000004ED00E070B50546FFF7FEFE1E4C05B953
:104210002568281DFFF79CFEA86A18B105F1180053
:10422000FFF796FE606A401C60622068854207D1F5
:10423000291D1648FFF7DCFE6068401C606007E03F
:10424000A068401EA0602846FFF70BFBFFF712FD99
:10425000FFF7FAFE6069002814D02068854211D16A
:10426000206B38B1502080F31188BFF34F8FBFF31C
:104270006F8FFEE706494FF080500860BFF34F8F05
:10428000BFF36F8F70BD0000240000200C060020DB
:1042900004ED00E002490A6A0260C96841607047A3
:1042A0002400002001490120C8617047240000203B
:1042B00010B50C4650B1094909681831FFF780FE66
:1042C0002046BDE810400121FFF7C0B9502080F31F
:1042D0001188BFF34F8FBFF36F8FFEE724000020DC
:1042E00070B514460D4668B10A4909681831FFF7E0
:1042F0007FFE0CB14FF0FF3521462846BDE87040E7
:10430000FFF7A4B9502080F31188BFF34F8FBFF39C
:104310006F8FFEE72400002030B587B0002403949F
:1043200005AA04A903A80494FFF726FEDDE903010A
:104330000094CDE90110002315A11748059A00F05B
:1043400084FB164D0028E8621FD000F0FBFC01281A
:1043500009D0401C19D1502080F31188BFF34F8F32
:10436000BFF36F8FFEE7502080F31188BFF34F8FAC
:10437000BFF36F8F4FF0FF30A86201206861EC60DF
:1043800007B0BDE8304000F045B807B030BD0000D0
:1043900049444C4500000000E53800082400002096
:1043A0000248016B491C0163704700002400002093
:1043B000164810B5016B11B10121C16110BD00217A
:1043C000C1610169124A01E0B9B1491E01EB8103E3
:1043D00052F82330002BF7D001EB810302EB83026C
:1043E00002F1080453685B685360A34201D15B6823
:1043F0005360DA680260016110BD502080F31188BB
:10440000BFF34F8FBFF36F8FFEE700002400002043
:10441000700100201CB537480168374A914207D126
:10442000502080F31188BFF34F8FBFF36F8FFEE7EB
:1044300000683149491E884207D1502080F3118815
:10444000BFF34F8FBFF36F8FFEE72C4908780190C1
:10445000FF20087008788DF800009DF800009DF896
:10446000002000F0F000904207D0502080F3118827
:10447000BFF34F8FBFF36F8FFEE79DF80000204C16
:1044800000F0500020700720A06005E09DF800209B
:1044900052008DF80020401E9DF800201206F5D431
:1044A000A060032807D0502080F31188BFF34F8FFE
:1044B000BFF36F8FFEE74FF44070A0600198087063
:1044C0000C482030016841F470010160016841F03E
:1044D00070410160FFF7FEFD00206060FBF7E2FE27
:1044E0000848016841F040410160FBF7C7FE002029
:1044F0001CBD000000ED00E071C20F4100E400E0CF
:104500009800002034EF00E010B5502080F31188AF
:10451000BFF34F8FBFF36F8F00F0D6FA18B1044985
:104520004FF080500860002080F3118810BD00001B
:1045300004ED00E038B5049D18B153B1CAB181B1A2
:1045400020E0502080F31188BFF34F8FBFF36F8FAF
:10455000FEE7502080F31188BFF34F8FBFF36F8FBA
:10456000FEE7502080F31188BFF34F8FBFF36F8FAA
:10457000FEE739B1502080F31188BFF34F8FBFF3AE
:104580006F8FFEE750241C46012384F846302B46EB
:104590000094FFF7D7F9204638BD000070B50D46EE
:1045A000040025D0FFF730FDD4E90F20216802FB7D
:1045B0000011A1600021A163216861600A46D4E96D
:1045C0000F01401E00FB0121E16021464FF0FF304A
:1045D00001F8440F487004F110008DB1FFF7E2FCC0
:1045E00004F12400FFF7DEFCFFF72EFD012070BD73
:1045F000502080F31188BFF34F8FBFF36F8FFEE71A
:1046000021690029F0D000F003FB0028ECD0044918
:104610004FF080500860BFF34F8FBFF36F8FE3E719
:1046200004ED00E02DE9FF4782B01D468A464FF0B9
:104630000008040003D0BAF1000F08D011E05020A8
:1046400080F31188BFF34F8FBFF36F8FFEE7206CAD
:1046500038B1502080F31188BFF34F8FBFF36F8FB5
:10466000FEE7022D0AD1E06B012807D0502080F32D
:104670001188BFF34F8FBFF36F8FFEE700F010FA82
:104680003F4F4FF000094FF0805648B9049838B1B9
:10469000502080F31188BFF34F8FBFF36F8FFEE779
:1046A000FFF7B2FCA06BE16B884207D3022D05D067
:1046B0000498D0B1B8F1000F1AD01EE02A46514636
:1046C0002046FFF798F8616A19B104F1240000F060
:1046D0009FFA20B13E60BFF34F8FBFF36F8FFFF79C
:1046E000B3FC012006B0BDE8F087FFF7ADFC22E087
:1046F0006846FFF7CFFD4FF00108FFF7A5FCFFF775
:104700004FFEFFF781FC94F94400401C01D184F86E
:10471000449094F94500401C01D184F84590FFF77E
:1047200093FC04A9684600F029F930B12046FFF750
:1047300021FB00F0A5FA0020D4E7FFF765FCA06B91
:10474000E16B884213D1FFF77FFC04F1100004995C
:10475000FFF7AEFD2046FFF70DFB00F091FA0028B1
:104760009ED13E60BFF34F8FBFF36F8F98E7FFF787
:104770006BFC2046FFF7FEFA00F082FA90E700009B
:1047800004ED00E02DE9F0471F46904689460400FD
:1047900003D0B9F1000F08D011E0502080F3118848
:1047A000BFF34F8FBFF36F8FFEE7206C38B15020FF
:1047B00080F31188BFF34F8FBFF36F8FFEE7022F97
:1047C0000AD1E06B012807D0502080F31188BFF395
:1047D0004F8FBFF36F8FFEE7FFF78EFC5020EFF394
:1047E000118680F31188BFF34F8FBFF36F8FA06BDB
:1047F000E16B884206D3022F04D0002086F3118893
:10480000BDE8F08794F94550A06B3A4649462046EA
:10481000FEF7F1FF681C04D06D1C84F845500120A0
:10482000ECE7606A0028FAD004F1240000F0F0F907
:104830000028F4D0B8F1000FF1D00121C8F8001021
:10484000EDE700002DE9F747002683B08A46040013
:1048500003D0BAF1000F08D011E0502080F3118886
:10486000BFF34F8FBFF36F8FFEE7206C38B150203E
:1048700080F31188BFF34F8FBFF36F8FFEE700F017
:104880000FF9DFF8F4804FF000094FF0805748B976
:10489000059838B1502080F31188BFF34F8FBFF3D4
:1048A0006F8FFEE7FFF7B0FBA56BC5B15146204601
:1048B000FEF78EFF6D1EA563206950B104F1100054
:1048C00000F0A6F928B1C8F80070BFF34F8FBFF30E
:1048D0006F8FFFF7B9FB012006B0BDE8F0870598A0
:1048E00008B11EB106E0FFF7AFFB27E06846FFF70F
:1048F000D1FC0126FFF7A8FBFFF752FDFFF784FB71
:1049000094F94400401C01D184F8449094F9450086
:10491000401C01D184F84590FFF796FB05A9684635
:1049200000F02CF8002820460AD0FFF723FA00F008
:10493000A7F92046FFF7B2F80028B3D00020CBE754
:10494000FFF7ACF890B104F124000599FFF7B0FC33
:104950002046FFF70FFA00F093F90028A2D1C8F81B
:104960000070BFF34F8FBFF36F8F9BE72046FFF7B9
:1049700001FA00F085F995E704ED00E02DE9F0413A
:104980000C46050011D0C4B1FFF73EFB174BDA68A7
:104990006E682068911B471C17D02F681B6A9F42C6
:1049A00019D0964217D8012410E0502080F31188C6
:1049B000BFF34F8FBFF36F8FFEE7502080F3118856
:1049C000BFF34F8FBFF36F8FFEE70024FFF73CFB71
:1049D0002046BDE8F081884205D9401A206028466B
:1049E000FFF758FCF1E700202060DCE724000020FE
:1049F0002DE9FF5F8346DDE90E87994616468A4614
:104A00009000FFF7EDF905001CD05C20FFF7E8F9F6
:104A1000040014D00020256384F85900CDE9024039
:104A2000CDE900874B46324651465846FEF79CFF7B
:104A30002046FEF739FE012004B0BDE8F09F28466D
:104A4000FFF716FB4FF0FF30F6E7F0B585B0DDE974
:104A50000B640A9DA6B1DCB15C2700972663022691
:104A600084F85960002604AFCDE90246CDE900572D
:104A7000FEF77AFF2046FEF717FE049805B0F0BD5A
:104A8000502080F31188BFF34F8FBFF36F8FFEE785
:104A9000502080F31188BFF34F8FBFF36F8FFEE775
:104AA0000548416919B1006B18B100207047012019
:104AB0007047022070470000240000200148C068B1
:104AC00070470000240000202DE9F0412E4C002703
:104AD000206B28B1A069401CA0613846BDE8F08178
:104AE000E668761CE66013D1606B006838B1502030
:104AF00080F31188BFF34F8FBFF36F8FFEE7606BBA
:104B0000A16B6163A063206A401C2062FFF7B2F8CA
:104B1000A06ADFF87880864209D3606B0068A0B194
:104B2000606BC068C5686868864211D2A062206860
:104B3000C06A00EB800158F82100012800D9012744
:104B4000E0690028C9D00127C7E74FF0FF30EDE743
:104B5000281DFFF7FDF9A86A18B105F11800FFF745
:104B6000F7F9E86A2169884200D9206100EB8001E9
:104B700008EB8100291DFFF73BFAE86A2168C96A42
:104B80008842CAD30127C8E7240000207001002012
:104B900070B504004FF0000133D01B4D28688442EB
:104BA00007D0502080F31188BFF34F8FBFF36F8F72
:104BB000FEE7206D38B1401E2065E36CE26A9A4240
:104BC0001FD040B11DE0502080F31188BFF34F8FFC
:104BD000BFF36F8FFEE7201DFFF7BAF9E06CE062CC
:104BE000C0F13800A061E06A2969884200D92861D3
:104BF000064900EB800001EB8000211DFFF7F8F96A
:104C00000121084670BD0000240000207001002032
:104C100070B5C068C46854B104F118000646FFF7C7
:104C200097F9144D286B50B13146134815E05020C8
:104C300080F31188BFF34F8FBFF36F8FFEE7201D06
:104C4000FFF786F9E06A2969884200D928610B4993
:104C500000EB800001EB8000211DFFF7C9F9E06A3D
:104C60002968C96A884202D90120E86170BD002024
:104C700070BD000024000020F80500207001002015
:104C80002DE9F0472C4D00242746286B38B1FFF75B
:104C9000BBF9286B401E2863286B40B146E05020CA
:104CA00080F31188BFF34F8FBFF36F8FFEE7A968C2
:104CB000224E0120D1B3A6F5916980463068E0B15B
:104CC000F068C46804F11800FFF742F9201DFFF7EF
:104CD0003FF9E06A2969884200D9286100EB800128
:104CE00009EB8100211DFFF783F9E06A2968C96A91
:104CF0008842E3D3C5F81C80E0E70CB1FEF7BAFFA9
:104D0000AC694CB14FEA0806FFF7DEFE00B1EE6178
:104D1000641EF9D10020A861E86938B1084901276B
:104D200038070860BFF34F8FBFF36F8FFFF78CF921
:104D30003846BDE8F087000024000020F805002078
:104D400004ED00E010B586B0FEF716FD114C2068AA
:104D5000B8B100200390049005AA04A903A8FFF7A6
:104D600015F9DDE9032102208DE8070000230AA1DF
:104D70000B48059AFFF769FE606010B106B001208C
:104D800010BD502080F31188BFF34F8FBFF36F8F9A
:104D9000FEE7000060000020546D7220537663002F
:104DA000513D00082DE9FF411E46134602000A9DB1
:104DB0004FF0000016D0144C2768002F0FD0CDE91B
:104DC00000130292062917DAFFF76AFE02284FF055
:104DD00000030FD0002269462068FFF723FC04B0CF
:104DE000BDE8F081502080F31188BFF34F8FBFF3EF
:104DF0006F8FFEE72A46EEE70023324669463846C3
:104E0000FFF7C0FCEBE700006000002010B50029B0
:104E10000AD00878002807D005487844FCF768F9DC
:104E2000002801D0002010BD0248784410BD0000C9
:104E3000E6010000DE0100000808A0F500114FEABD
:104E40003101704743004FEAD30C4FEA3C0C43401A
:104E50001FBF40070CF1605113F0FE4F70471CF06C
:104E6000006F03D100200CF0004170470CF00043AC
:104E700043EA507010B540EACC0000F00EF800BFD5
:104E8000000000924FEA0001FFF7D6BF4FF000414B
:104E90004FF00000A1F5002170470EF1020E2EF038
:104EA000030E5EF8044B244204D44FEA4102B2F1EF
:104EB0007F4F11D84FEA4003B3F17F4F0CD80ED18A
:104EC0004FEAD07CB2F17F4F0CEB4C0C0CF1020C92
:104ED00008BF4CEBD17C04E04FF0080C01E04FEA36
:104EE000D17C0CEB4C0324FA03F404F00704B4F176
:104EF000040C06D20EEB840CBDE810404CF0010C03
:104F00006047DFE80CF0070802024FF00040A0F510
:104F1000800010BD0846420018BFD2F1807288BFE1
:104F200000F0004010BD4FF04070E1EE100A7047F5
:104F3000FBF7ADBD0000000000000000010203040B
:104F400006070809000000000102030402400000F7
:104F5000000000A00000000005400000000000C8A4
:104F6000000000000C4000000000409C0000000019
:104F7000194000000020BCBE0000000034400000CA
:104F8000BFC91B8E00000004B5400000504BCFD0BD
:104F90006607E2CF010000006C4100003E8251AA8A
:104FA000DFEEA73401000000D9420000DCB5A0E22A
:104FB0003A301F97FFFFFFFFB4450000FD25A0C852
:104FC000E9A3C14FFFFFFFFFFF3F0000000000808B
:104FD00000000000FF3F0000000000800000000013
:104FE0001C50000800000020A4000000D0010008B0
:104FF000C0500008A400002054500000EC0100083C
:105000001C00000043000000F8FFFFFF0C00000040
:105010000E0000000F0000002E0000000000000045
:105020000000000000000000000000000000000080
:105030000100000010000000000000000024F40047
:105040000000000000000000000000000000000060
:105050000000000000000000000000000000000050
:105060000000000000000000000000000000000040
:105070000000000000000000000000000000000030
:105080000000000000000000000000000000000020
:105090000000000000000000000000000000000010
:1050A0000000000000000000000000000000000000
:1050B0000000000000000000AAAAAAAA0000000048
:040000050800019559
:00000001FF
