:020000040800F2
:1000000010530020150300087B3300083731000827
:100010007933000801180008F539000800000000D5
:100020000000000000000000000000005502000871
:10003000CD1B000800000000B10200086934000870
:100040002F0300082F0300082F0300082F030008C8
:100050002F0300082F0300082F0300082F030008B8
:100060002F0300082F0300082F0300082F030008A8
:100070002F0300082F0300082F0300082F03000898
:100080002F0300082F0300082F03000800000000C2
:100090000000000000000000000000002F03000826
:1000A0002F030008153500082F0300082F03000850
:1000B0002F0300082F0300082F0300082F03000858
:1000C0002F0300082F0300082F0300082F03000848
:1000D0002F030008E93900082F0300080000000082
:1000E0002F0300082F0300082F0300080000000062
:1000F0000000000000000000000000002F030008C6
:10010000000000002F0300082F0300082F03000841
:1001100000000000000000000000000000000000DF
:100120002F0300082F0300082F0300082F030008E7
:100130002F03000800000000000000000000000085
:100140000000000000000000000000002F03000875
:100150002F0300082F0300082F0300082F030008B7
:100160002F0300082F03000800000000000000001B
:10017000000000000000000000000000000000007F
:10018000000000002F030008000000000000000035
:100190002F03000800F002F800F04CF80AA090E8E5
:1001A000000C82448344AAF10107DA4501D100F032
:1001B00041F8AFF2090EBAE80F0013F0010F18BFB3
:1001C000FB1A43F0010318472C7200004C72000028
:1001D000103A24BF78C878C1FAD8520724BF30C873
:1001E00030C144BF04680C60704700000023002445
:1001F00000250026103A28BF78C1FBD8520728BF37
:1002000030C148BF0B607047662906F0E687642955
:1002100000F02481002070471FB506F0D4FF00F0E5
:100220002FFD04000020002106F0BAFAE0601FBD97
:1002300010B510BD00F040FE1146FFF7EDFF04F0D1
:100240006BFB00F05EFE03B4FFF7F2FF03BC04F0AB
:10025000DEF800002C4B19680868B0E8F04F80F316
:100260000988BFF36F8F4FF0000080F3118870474B
:100270000000000008480068006880F308884FF01C
:10028000000080F3148862B661B6BFF34F8FBFF3EE
:100290006F8F00DF00BF00BF08ED00E0DFF80C004B
:1002A000016841F470010160704700BF88ED00E013
:1002B000EFF30980BFF36F8F134B1A681EF0100F16
:1002C00008BF20ED108A20E9F04F106009B44FF00C
:1002D000500080F31188BFF34F8FBFF36F8F05F08D
:1002E0000DFC4FF0000080F3118809BC1968086804
:1002F000B0E8F04F1EF0100F08BFB0EC108A80F38A
:100300000988BFF36F8F704730000020EFF305803E
:10031000704700000948804709480047FEE7FEE7AC
:10032000FEE7FEE7FEE7FEE7FEE7FEE7FEE7FEE7A5
:1003300004480549054A064B70470000053500088A
:1003400095010008104D002010530020104F002090
:10035000104F0020704753EA020C00F069802DE92D
:10036000F04B4FF00006002B1FBFB3FA83F503FAE2
:1003700005F424FA05F65E4012BF1643B2FA82F580
:1003800002FA05F4C5F120051EBF22FA05FC44EA75
:100390000C04203556EA044C4FEA144418BF641C80
:1003A0004FF000084FF00009904271EB030C39D375
:1003B000002919BFB1FA81F701FA07F6B0FA80F700
:1003C00000FA07F6C7F120071EBF20FA07FC46EA2D
:1003D0000C062037B6FBF4FCA7EB0507103F07F02F
:1003E0001F0BCBF120060CFA0BFB2CFA06F644BFD0
:1003F000B3460026202FA4BF5E464FF0000B5BEAF9
:10040000060C08BF4FF0010B19EB0B09ABFB027C8C
:1004100048EB0608C01B06FB02CC0BFB03CC71EBC0
:100420000C01C1E70B46024641464846BDE8F08B49
:1004300013B54FF000004FF00001AFF30080BDE8AE
:100440001C4070470FB4044910B503AA029800F08D
:10045000B1FB10BC5DF814FB180000202DE9F04141
:100460000646002410687529314616A510D0AFF352
:100470000080002802DA404213A507E031688A07AD
:1004800001D512A502E0490704D511A5012401E018
:10049000AFF3008000210A2206F1240709E0B0FB37
:1004A000F2FCB0FBF2F302FB1C003030785418462B
:1004B000491C0028F3D123462A463046BDE8F041C6
:1004C00000F012B9000000002D0000002B00000019
:1004D000200000002DE9F0474FF0000A894604464D
:1004E000C0F820A02046E1688847002876D025285B
:1004F00006D0D4E901219047206A401C2062F1E730
:10050000E168204600258847C4F81CA0064600275D
:10051000C4F818A02A2E09D0304603F071FF38B372
:1005200004EB8708303EC8F8186019E059F8041B3E
:10053000204604EB87029161E1688847012F064657
:1005400018D1E069002820DA25F020051DE0D8F850
:10055000180000EB800006EB40003038C8F81800A7
:100560002046E1688847064603F04AFF0028EED19E
:10057000012F0AD02E2E08D12046E16888477F1C23
:100580000646022F45F02005C4DBA069002803DAE7
:10059000404245F00105A061E80701D025F01005B3
:1005A000B6B1A6F14100192802D8203645F40065FD
:1005B0004A463146204625604D46FFF725FE58B194
:1005C000012806D0ED1D25F0070000F1080989E794
:1005D00004E005F1040985E730468AE7206ABDE8B2
:1005E000F087032A40F2308010F0030C00F01580F1
:1005F00011F8013BBCF1020F624498BF11F801CB26
:1006000000F8013B38BF11F8013BA2F1040298BF8A
:1006100000F801CB38BF00F8013B11F0030300F0F4
:10062000DB82083AC0F0088051F8043B083A51F8E0
:1006300004CBA0E80810F5E7121D5CBF51F8043B9D
:1006400040F8043BAFF30080D20724BF11F8013B10
:1006500011F801CB48BF11F8012B24BF00F8013B72
:1006600000F801CB48BF00F8012B704702F0FF03F0
:1006700043EA032242EA024200F0E2BA4FF00002EB
:1006800000B5134694469646203922BFA0E80C5088
:10069000A0E80C50B1F12001BFF4F7AF090728BF63
:1006A000A0E80C5048BF0CC05DF804EB890028BFDF
:1006B00040F8042B08BF704748BF20F8022B11F008
:1006C000804F18BF00F8012B704770477047704784
:1006D000704710B500F0D8FA006810BD10B5044698
:1006E00000F0D2FA046010BD2DE9F0470D4699469E
:1006F0009246044600F124080168880604D5E069A2
:1007000021F01001216000E00120A84201DD471B1B
:1007100000E00027A1697A1902EB0900081AA0611C
:100720002078C00602D42046AFF30080002608E0FF
:10073000D4E901211AF806009047206A401C761C73
:1007400020624E45F4DB2078C0060AD52046AFF380
:10075000008006E0D4E9012130209047206A401C47
:100760002062381EA7F10107F4DC07E0D4E901217B
:1007700018F805009047206A401C2062281EA5F149
:100780000105F3DC2046AFF300802078000602D597
:100790000220BDE8F0870120FBE770472DE9FF4FFD
:1007A0000C461E464FF0FF378BB0D2E90001DDF852
:1007B00060800A908A46C1F30A5505B93D4600217A
:1007C00008464FF00000BAF1000F00F4400005DACF
:1007D00000EB80004FF4400101EA50004FEA9059CD
:1007E000B9F1010F00DDB9460A9850EA4A000ED06F
:1007F00044F61050A5F2FF3545432F14B8F1000F11
:100800001ED07542291E1EDDC9F100021CE0B8F1A0
:10081000010F4FF0000001D0302103E0F24305E06A
:100820002154401CB042FBDB304600220021215401
:100830000B99C1F80880C1E900200FB0BDE8F08F26
:10084000BD1B6D1CDEE74A4600DA694206A800F0CF
:10085000BDFA06AB93E8070003AB83E807005046F8
:100860000A9900F097FB8DE80700A0F500501F38AB
:1008700000900398002D09DD42F21F014A4608440A
:1008800003A90390684600F0F6FD08E0A0F50050CB
:100890004A461F3803A90390684600F000FE8DE821
:1008A00007000004000C03D04FF0FF30410800E0C7
:1008B0001046B8F1000F03D00022009215461EE04A
:1008C000751E05D400F0E4F9303262556D1EF9D57D
:1008D000B3460122084302D000227F1C04E02078A6
:1008E000302801D100227F1E002A099786D01DE002
:1008F000112D07DA00F0CCF9303262556D1C50EA48
:100900000102F5D1084302D00098C8B10EE00021E1
:10091000681E05E0235C625C63542254401E491C3F
:100920008142F7DBAB46A81B401E0990002004F86B
:100930000B000B98099AC0F80880C0E9002B7CE7EF
:1009400011264FF0000859E72DE9F04F884604467C
:10095000D21D22F0070191B0D1E90001CDE90A01D1
:1009600003F049F802460B98C00F01D02D2007E094
:100970002068810701D52B2002E0202101EAC00078
:10098000032A099001D0072A05DB03464146204689
:1009900000F0DCF90BE12078800601D5E06900E089
:1009A0000620B8F1650F814606D0B8F1660F18D061
:1009B000B8F1670F70D131E00020B9F1110F00904C
:1009C00001DB112301E009F101030AAA01A90CA826
:1009D000FFF7E4FEDDE90C70002609F1010583460E
:1009E00047E001204B4600904FF000470AAA01A9BA
:1009F0000CA8FFF7D3FEDDE90DB00C995D4600268B
:100A000010B909F101000D18B9EB050003D4C0F1CC
:100A1000FF3609F10105A5EB09002BE0B9F1010F43
:100A200001DA4FF001090020B9F1110F009048469A
:100A300001DD112300E003460AAA01A90CA8FFF773
:100A4000ADFEDDE90C704D46002683462078000798
:100A50000AD4AB4500DA5D4601A8012D04DD411939
:100A600011F8011C302907D04F4502DA17F1040FA5
:100A700004DA012082460FE06D1EEEE7002F02DC53
:100A8000ED1B3E4403E0781CA84200DD7D1CB81B32
:100A900000F1010A4FF000472078000703D4AA456F
:100AA00001DB4FF0FF3A0021B7F1004F0DF1430891
:100AB0008DF8431024D002202B23002F01DA7F422F
:100AC0002D230A21021EA0F1010000DC5FB197FB7B
:100AD000F1FC97FBF1F201FB1C7C17460CF1300C8A
:100AE00008F801CDEEE7A8F101000370218809059F
:100AF00001D5452100E06521A0F1010800F8011CA5
:100B000009980FA9A1EB0807FF1D00B101204119A9
:100B100001EBEA70A1693844081A401EA0612078F0
:100B2000C00602D42046AFF30080099828B1D4E96A
:100B300001219047206A401C20622078C00622D5FF
:100B40002046AFF300801EE0002E04DBB34502DD3B
:100B500001A8805D00E03020D4E901219047206A9F
:100B6000401C2062761CAAF101005FEA000A0AD14B
:100B700000F086F8C0680168405CD4E90121904724
:100B8000206A401C2062281EA5F10105DCDC07E07C
:100B9000D4E9012118F8010B9047206A401C20621B
:100BA000381EA7F10107F3DC2046AFF300800320D5
:100BB00011B043E6074B70B50D467B4400F0B3F827
:100BC0000446284600F070F910B14FF0FF3070BDB8
:100BD000204670BD8B39000010B5203AC0F00B8064
:100BE000B1E81850203AA0E81850B1E81850A0E831
:100BF0001850BFF4F5AF5FEA027C24BFB1E818508B
:100C0000A0E8185044BF18C918C0BDE810405FEAFA
:100C1000827C24BF51F8043B40F8043B08BF704776
:100C2000D20728BF31F8023B48BF11F8012B28BF7B
:100C300020F8023B48BF00F8012B70474FF000023C
:100C40000429C0F0128010F0030C3FF419ADCCF170
:100C5000040CBCF1020F18BF00F8012BA8BF20F84C
:100C6000022BA1EB0C01FFF70BBD5FEAC17C24BF97
:100C700000F8012B00F8012B48BF00F8012B70474A
:100C800000487047CC4C002000487047AC4C002016
:100C900030B5B0F10A024FEA900E71F100034EEA4E
:100CA000817EB0EB0E0061EB91014FEA101E4EEA1F
:100CB000017E10EB0E0041EB11114FEA102E4EEAAF
:100CC000016E10EB0E0041EB11214FEA104E4EEA7F
:100CD000014E10EB0E0041EB1141401841F10001B3
:100CE0004FEAD00040EA41704FEAD10110EB800595
:100CF0004FEA810444EA907444EB01046D1944EB1B
:100D00000404521BA3414FF0000348BF0A3200D530
:100D100030BD401C41F1000130BD000001694A1C9A
:100D200002610878704700B58FB0CDE9013100212C
:100D3000059105497944CDE9031011466846FFF74E
:100D4000C9FB0FB000BD0000E5FFFFFF2DE9F0413A
:100D50001F46044603260168072A01F4006004DBED
:100D600008B116A505E016A503E008B115A500E039
:100D700015A521F010002060A069C01EA0610FB170
:100D8000401EA0612046AFF300804FB1D4E901219D
:100D900038469047206A401C2062C01C206206E052
:100DA000206AFAE7D4E9012115F8010B9047761E75
:100DB000F8D22046AFF30080BDE8F0814E414E00EE
:100DC0006E616E00494E4600696E66002DE9F0477F
:100DD000814616468AB0334878440DC88DE80D0028
:100DE00030487844801C03AC0DC884E80D0041F6FF
:100DF0009B300844372190FBF1F290FBF1F5A5F10F
:100E0000800501FB12041B3C02D56442012000E076
:100E10000020DFF890A080460027FA44AAF1BE0A1D
:100E20000DE0E00709D03246684607EB47010AEBC0
:100E3000810100F034FB8DE8070064107F1C002C5A
:100E4000EFD1184F7F44AC3F18E0E80714D007EB10
:100E500004100DF1180A90E80E008AE80E00C06830
:100E6000F04201D198190890324606A903A800F073
:100E700016FB03AB83E807006D10641C002DE4D162
:100E800032466946B8F1000F03A802D000F0F3FA29
:100E900001E000F004FBC9E90001C9F808200AB02C
:100EA000BDE8F087B8650000007B00F08000704767
:100EB00000487047AC4C00207546FFF7F9FFAE467E
:100EC00005006946534620F00700854618B020B556
:100ED000FFF72EFABDE820404FF000064FF0000764
:100EE0004FF000084FF0000B21F00701AC46ACE8D2
:100EF000C009ACE8C009ACE8C009ACE8C0098D463F
:100F0000704710B50446AFF300802046BDE810409E
:100F1000FFF799B94FF0013C50F8042B51F8043B0E
:100F20009A4221D1A2EB0C03934313EACC1317D1BD
:100F300050F8042B51F8043B9A4215D1A2EB0C0354
:100F4000934313EACC130BD150F8042B51F8043B14
:100F50009A4209D1A2EB0C03934313EACC13DBD0E2
:100F60004FF00000704700BFD01A01BAB1FA81F10A
:100F700001F0180122FA01F0CB40C1F12001DBB2EF
:100F8000C0B2C01A2CFA01F3D11A914311EAC3116D
:100F9000E6D170475FEA400C08BF91F0000F4FEABE
:100FA0008C234FEAC12243EA51514FEA1C5018BF2B
:100FB00000F5F0404FEA300018BF41F000415FEA11
:100FC0006C5C00F02980BCF1FF3F08BF40F080401E
:100FD0007047130C06BF12044FF0100C4FF0000CBA
:100FE000130E04BF12020CF1080C130F04BF120100
:100FF0000CF1040C930F04BF92000CF1020CD30F00
:1010000004BF52000CF1010C11464FF00002A0F198
:101010001F00A0EB0C00704711F0004F08BF704795
:1010200031F000413FF4D5AF0B0C06BF09044FF07F
:10103000100C4FF0000C0B0E04BF09020CF1080C51
:101040000B0F04BF09010CF1040C8B0F04BF8900C6
:101050000CF1020CCB0F04BF49000CF1010CCCF1D8
:101060002003A0EB0C0022FA03F302FA0CF241EA8F
:10107000030100F10100704720F07F4C80EA03007B
:1010800023F07F47ACEB070303F57C5300F00040EF
:1010900003F1FF032DE980494FEA154B09B44FEAEC
:1010A000144325EA0B4E24EA03480FF2042606EB0C
:1010B000132749083E785FEA320203FB0667C7F54B
:1010C000000707FB06F64FEA54374FEAD64606F10B
:1010D000020607FB066CCCF1005C4FEA1C472CEAC9
:1010E000074C07FB06F40CFB06F504EB15464FEA2C
:1010F000961634BF00204FF000404FEAD13706FB70
:1011000007FC4FEA1C4C0CFB0BF7D21B03FB0CF744
:1011100061EB07010CFB0EF7B0EB074072EB1742D7
:101120000CFB08F734BFA2EB0742B2EB074261EBBE
:1011300017414FEA0C444FEA910706FB07FC4FEAC0
:101140001C4C0CFB0BF7B0EBC74072EB573203FBA8
:101150000CF734BFA2EBC742B2EBC74261EB573189
:101160000CFB0EF7B0EBC70072EB57720CFB08F7E5
:1011700034BFA2EBC702B2EBC70261EB5771039F0A
:101180004FEA816141EA921104EBCC044FEAD13776
:101190004FEA826206FB07FC42EA90124FEA806047
:1011A0004FEA1C4C0CFB0BF7D21B03FB0CF761EB5B
:1011B00007010CFB0EF7B0EB074072EB17420CFB7C
:1011C00008F734BFA2EB0742B2EB074261EB1741CD
:1011D0004FEA8C554FEA910704EB9C2406FB07FC71
:1011E0004FEA1C4C0CFB0BF7B0EBC74072EB5732CD
:1011F00003FB0CF734BFA2EBC742B2EBC74261EB73
:1012000057310CFB0EF7B0EBC70072EB57720CFBBB
:1012100008F734BFA2EBC702B2EBC70261EB57710C
:1012200015EB4C254FEA816141EA92114FEA826247
:101230004FEAD13742EA901206FB07FC44F1000462
:101240004FEA80604FEA1C4C0CFB0BF7D21B03FBF0
:101250000CF761EB07010CFB0EF7B0EB074072EBEC
:1012600017420CFB08F734BFA2EB0742B2EB074270
:1012700061EB174115EB1C154FEA813141EA9241B0
:101280004FEA823242EA90424FEA80304FEA0C76CF
:1012900044F1000448EA03434EEA0B484FF0000EC5
:1012A000B2EB080C71EB030724BF624639464EEBE4
:1012B0000E0E4FF0000B0018524149414BEB0B0B47
:1012C000B2EB080C71EB03077BF1000B24BF624605
:1012D00039464EEB0E0E4FF0000B001852414941BB
:1012E0004BEB0B0BB2EB080C71EB03077BF1000B24
:1012F00024BF624639464EEB0E0E51EA020718BF74
:1013000046F0010616EB0E7655F1000254F100018D
:1013100003D5BDE88901BDE80088BDE88901BDE8C5
:101320000048B619524141EB0101A3F10103704796
:1013300080807F7E7D7C7B7A797877767675747312
:10134000727171706F6E6E6D6C6C6B6A6A696868D1
:10135000676666656464636362616160605F5F5E67
:101360005E5D5D5C5C5B5B5A5A59595858575756DD
:101370005655555554545353525252515150505042
:101380004F4F4F4E4E4D4D4D4C4C4C4B4B4B4A4A94
:101390004A494949484848474747474646464545D8
:1013A0004544444444434343434242424241414111
:1013B000002B26D4770021D01CB54FEA370703B4A1
:1013C0004FF010004FF010014FF000000FBCBDE8CF
:1013D00010400BF1010BBBF1010F08BF5FEA1707CB
:1013E00022BF12F1010211F101014FF0004143F15E
:1013F000000300F0004043EA00007047F9D35708AB
:10140000DAE746EA064613F1400F4FEA16461FDDBB
:1014100013F1200FDFBF16430A46002120335B4241
:10142000C8D0C3F1200746EA064602FA07F74FEA9A
:10143000164646EA0706C3F1200722FA03F201FA2C
:1014400007F721FA03F14FF0000342EA0702B1E780
:1014500046EA020646EA06464FEA164646EA01060C
:10146000BCBF46EA0646360C4FF000034FF00002C0
:101470004FF000019EE72DE9C048934630B491E853
:10148000380007C831EA400C48BF34EA430C03D5A2
:10149000FFF7F2FDFFF78CFFF0BCBDE800882DE9F7
:1014A000C048934630B491E8380007C810F0804F28
:1014B00008BF13F0804F03D100F005F8FFF778FF65
:1014C000F0BCBDE8008820F07F4780EA030023F0ED
:1014D0007F4C07EB0C03A3F57C5300F00040A3F115
:1014E000FE0392F0000F00F0B38095F0000F00F0C3
:1014F00077802DE901494FEA11404FEA144621EA6D
:10150000004800FB06FC24EA064708FB06F607FB3A
:1015100008F800FB07F718EB06484CEB164C4FEAAF
:10152000124B18EB07484FEA15464CEB174022EADE
:101530000B4E0BFB06FC25EA06470EFB06F607FBE7
:101540000EFE0BFB07F71EEB064E4CEB164C4FF056
:1015500000061EEB074E4CEB174B18EB0B0840F147
:10156000000018EB0E0B58EB000840F100008F1A3A
:101570004FF000013CBFC943661B14BFB5EB040C20
:1015800000213CBFC943F61B4FEA17444EEA8E0EBA
:1015900027EA04454FEA1C4704FB07622CEA074C84
:1015A00005FB07F70CFB05F604FB0CFC16EB0746E6
:1015B00042EB174216EB0C4642EB1C421BEB0606B5
:1015C00058EB0202414146EA9E0601D5BDE8018979
:1015D000B619524141EB0101A3F10103BDE80189B4
:1015E0004FEA14454FEA114724EA054621EA074C21
:1015F00005FB07F406FB07F70CFB06F105FB0CFCEB
:1016000011EB074144EB17444FEA124711EB0C4131
:1016100044EB1C4422EA074C05FB07F206FB07F7E4
:101620000CFB06F605FB0CFC16EB074642EB1742DB
:1016300016EB0C4642EB1C456A1854F1000148BFFA
:101640007047B619524141EB0101A3F10103704704
:1016500095F0000F37D04FEA11424FEA144721EAC4
:10166000024624EA074C02FB07F106FB07F70CFBD6
:1016700006F402FB0CFC14EB074441EB17414FEA64
:10168000154714EB0C4441EB1C4125EA074C02FBC7
:1016900007F506FB07F70CFB06F602FB0CFC16EB46
:1016A000074645EB174516EB0C4645EB1C42121955
:1016B00051F1000148BF7047B619524141EB010199
:1016C000A3F1010370474FEA14454FEA114724EA9A
:1016D000054621EA074C05FB07F106FB07F70CFB63
:1016E00006F24FF0000605FB0CFC12EB074241EB43
:1016F000174112EB0C4251EB1C4148BF7047921846
:1017000041EB0101A3F101037047000070B50D46E4
:1017100000F018F80446284600F014F840EA0420C7
:1017200000EE100ADFED050AB8EE400A20EE200AAE
:10173000DFED030A20EE200A70BD0000DB0FC94078
:101740000000803910B5044603F024F86C2002F044
:10175000F1FF03F065F8E0B202F0ECFF03F060F88F
:1017600003F018F86D2002F0E5FF03F059F80020AF
:1017700002F0ACFF044603F033F8204610BD10B56C
:10178000016004460D210C20FFF7C0FF84ED010A23
:1017900084ED020A0020E060206104F01DFE60611B
:1017A000A06110BD10B504462DED028B0D210C205B
:1017B000FFF7ACFFB0EE408A04F00EFE606194EDDE
:1017C000010A78EE400AB0EE600A02F021FE10EE47
:1017D000100A0A4988420BDDF5EEC00AE168F1EE15
:1017E00010FA02DD4FF0FF3000E001200844E06015
:1017F00084ED018ABDEC028B10BD00007CD9A040B5
:10180000FEE700F005F8642003F0BAF8F9E70000FD
:101810002DE9F043DFF894922DED048B85B0B9F8F3
:101820000000000475D5A24C27789FEDA28A2246BD
:10183000A14D537890781679D27800EB032106EB0E
:1018400002224FF00008072F7ED2DFE807F00424C1
:101850004C6389B1D5009949994A062B09681268E9
:1018600010D2DFE803F0030507090B0D48630CE015
:1018700088630AE0C86308E0086406E0506304E097
:10188000906302E08FA0FEF7DDFDA278617893A05F
:10189000FEF7D8FDF9E09848FFF784FF964802F07C
:1018A00071FE10EE100A05F01DFC06460F46924828
:1018B00002F026FE10EE100A05F014FC04460D4658
:1018C0008D4802F05BFE10EE100A05F00BFC41ECB7
:1018D000100B8DE8F000884853EC102B41698748C5
:1018E000FEF7B0FDD1E0844802F00AFEA0786178EE
:1018F000F0EE400A00EB012000EE100AB8EE401AAC
:1019000081EE080A03F060FD7DA000BFFEF79AFD9E
:10191000BBE0BCE000EE101A7D48B8EE400AC0EE15
:10192000088A00EE102AF8EE400A80EE880AC0ED20
:10193000008A784880ED000A85F8008010EE100AD1
:1019400005F0D0FB0D4600E0AEE0044618EE900A2C
:1019500005F0C8FB41EC100B6FA053EC102B22E0FC
:1019600000EE101A7348B8EE400AC0EE088A00EE86
:10197000102AF8EE400A80EE880AC0ED008A6E4810
:1019800080ED000A0120287010EE100A05F0AAFB75
:1019900004460D4618EE900A05F0A4FB41EC100B2E
:1019A00066A053EC102BCDE90045FEF74BFD6CE033
:1019B00000EE101A6848B8EE400AC0EE088A00EE41
:1019C000102AF8EE400A80EE880AC0ED008A6348CB
:1019D00080ED000A0220287010EE100A05F082FB4C
:1019E00004460D4618EE900A05F07CFB41EC100B06
:1019F0005BA053EC102BD6E7EBB3012B4ED0022BA0
:101A00004ED0032B4ED05DA0FEF71CFDE078A178F0
:101A100000EB012000EE100AB8EE400A80EE089AB2
:101A200085ED009A6079217900EB012000EE100A23
:101A3000B8EE400AC0EE088AC5ED018AE079A179C6
:101A400000EB012000EE100AF8EE400A80EE880A52
:101A500085ED020A10EE100A05F044FB06460F461B
:101A600018EE900A05F03EFB04460D4619EE100AEA
:101A700005F038FB00E00FE08DE8F00041EC100BC2
:101A800043A053EC102BFEF7DDFCA9F8008005B055
:101A9000BDEC048BBDE8F083444DB7E7444DB5E79A
:101AA000444DB3E7444DB1E744A02FE712000020B6
:101AB000F400002000007A44F00000201C4B0020BD
:101AC000644B002077726F6E67206368616E6E658D
:101AD0006C206E756D6265720D0A0000736574206E
:101AE0006368616E6E656C3A2025642C2070776D9A
:101AF0003A2025640D0A0000C44B0020AC73000896
:101B00007374657020666F72776172640D0A0000ED
:101B1000E8000020EC00002073657420746F72717F
:101B200075653A20252E32662C20252E32660D0A48
:101B300000000000E0000020E40000207365742035
:101B400076656C6F636974793A20252E32662C2095
:101B5000252E32660D0A0000D8000020DC0000208F
:101B600073657420706F736974696F6E3A20252EE7
:101B700032662C20252E32660D0A000077726F6EB9
:101B8000672050494420747970650D0A00000000F8
:101B9000736574205049443A20252E33662C202545
:101BA0002E33662C20252E33660D0A00FC4B0020B8
:101BB000284C0020544C0020804C002077726F6E1F
:101BC0006720636F6D6D616E640D0A00704772B6B9
:101BD000FEE7000001210720B2EE080A00F02CF811
:101BE000104C114D114E124F207820B101280CD00D
:101BF000022813D10EE00F4802F082FCF0EE400AFA
:101C000095ED000A03F0E0FB08E096ED000A03F012
:101C100057FC03E097ED000A03F0C0FB0A2002F036
:101C2000AFFEE1E7F0000020E8000020E000002027
:101C3000D8000020C44B002010B5354A2DED028B92
:101C400082ED000A9FED338AC2E902013248B0EE0C
:101C5000480A01F071FA3048B0EE480A0C3001F041
:101C60006BFA02F0E3FC2C4800211830FFF787FDE7
:101C7000294801213430FFF782FD9FED298A26484B
:101C8000FFEE002AB7EE002AF7EE001A9FED231AA6
:101C9000F0EE480A9FED230A503001F0CFFBDFED54
:101CA000228A1D48F9EE042AB1EE042AF2EE041A43
:101CB000B7EE001AF1EE0C0AB0EE680A7C3001F0C3
:101CC000BDFB1548FAEE042AB2EE042AF0EE481ADB
:101CD000B7EE001AF0EE480AB0EE680AA83001F03C
:101CE000ADFB0D48FAEE042AB2EE042AF0EE481AD3
:101CF000B7EE001AF0EE480AB0EE680AD43001F0F0
:101D00009DFBBDEC028BBDE8104002F089BB0000DA
:101D1000B40000200AD7233CAC4B00206F12833A5A
:101D200000000000295C8F3E9A99993E2DE9F04110
:101D30000446876D00F050F9064694F835000025FA
:101D4000022806D08020606584F834500120BDE868
:101D5000F0812068016821F0160101602068416966
:101D600021F080014161206C08B9A06C20B120688D
:101D7000016821F0080101602068016821F001017B
:101D800001600CE000F028F9801B052807D920200D
:101D90006065032084F8350084F83450D7E7206864
:101DA0000068C007EED194F85C103F208840B8600E
:101DB000012084F8350084F834500020C7E790F8FB
:101DC0003510022903D0802141650120704705218B
:101DD00080F835100068016821F0010101600020E1
:101DE000704700002DE9F84FDFF8B8A10022012468
:101DF00003254FF00F090AF1040BAAF1040E00BFEE
:101E00000B6804FA02F63340B34273D10F7907F03E
:101E10000307012F01D0022F16D187684FEA42082D
:101E200005FA08FC27EA0C07D1F80CC00CFA08FCEC
:101E30004CEA070CC0F808C04768B7430E79C6F3F0
:101E4000001696403E4346600E79F643B6070DD025
:101E5000C768560005FA06FC27EA0C07D1F808C047
:101E60000CFA06FC4CEA070CC0F80CC00E7906F020
:101E70000306022E10D1D60800EB8608D8F82060A1
:101E800057074FEAD76C09FA0CF7BE430F6907FAF8
:101E90000CF73743C8F8207006684FEA420C05FA81
:101EA0000CF7BE430F7907F0030707FA0CF7374327
:101EB00007604E6816F4403F6DD03B4E376847F4DC
:101EC00080473760366822F0030706F480460096A4
:101ED000364E07EB060CDCF8086897073F0F09FA47
:101EE00007F826EA0806DFF8C880404503D14FF01E
:101EF00000081EE04FE0DFF8BC80404502D14FF003
:101F0000010816E0DFF8B080404502D14FF002082A
:101F10000FE0DFF8A880404502D14FF0030808E049
:101F2000DFF89C80404502D14FF0040801E04FF0FB
:101F3000070808FA07F848EA0608CCF80888DAF82B
:101F400000605746D1F804C09E435FEACC2C00D510
:101F50001E433E60DBF800605F46D1F804C09E433C
:101F60005FEA8C2C00D51E433E60DEF800607746A9
:101F7000D1F804C09E435FEA8C3C00D51E433E600E
:101F8000084F083F3E68D1F804C09E435FEACC3C4E
:101F900000D51E433E60521C102AFFF431AFBDE84D
:101FA000F88F0000083C01404438024000300140F6
:101FB000000002400004024000080240000C024001
:101FC000001002400069084000D0012070470AB1AB
:101FD000816170470904FBE7014880687047000091
:101FE0002000002002488168027811448160704717
:101FF000200000200B4810B5016841F40071016019
:10200000016841F480610160016841F48071016000
:10201000032000F099F80F2000F006F800F04AF8CD
:10202000002010BD003C024030B505461C4887B07A
:102030000024016841F001010160006806A900F078
:102040000100009001A800F02BF900F059F91549A2
:10205000154AB0FBF1F11548491E026040F2E73223
:10206000C0E90324C0E90114846100F08DFB040081
:1020700012D10E4800F0D4FB04000DD1192000F05D
:1020800035F8102D07D200222946192000F03CF81F
:102090000748056000E0012407B0204630BD00007D
:1020A0004438024040420F0000000140000200207E
:1020B000240000200C4882B0016841F48041016096
:1020C000006800F4804000900748001F016841F05C
:1020D000805101600068002200F0805000900F21C4
:1020E000901E02B000F010B844380240002809DB0E
:1020F00000F01F02012191404009800000F1E02022
:10210000C0F8001170470000F0B40E4B1B680C467D
:10211000C3F30223C3F10705042D00D90425191DBB
:10212000072901D2002300E0DB1E012606FA05F193
:10213000491E214099409E40761E16403143F0BC16
:1021400001F071BC0CED00E0064900F007020868E0
:102150004FF6FF03184040EA0220034A104308608C
:10216000704700000CED00E00000FA052DE9F04793
:102170000E46050065D0DFF81481D8F80000F7B2EC
:1021800000F00700B04207D288F80070D8F80000CD
:1021900000F00700B04254D128683D4C810712D5A9
:1021A000400703D5206840F4E050206028780007FD
:1021B00003D5206840F4604020602068A96820F0C2
:1021C000F000084320602878C0072DD030496868A7
:1021D0000839012812D0022813D0032811D0096829
:1021E000890700292DDA216821F0030101432160CC
:1021F000FFF7F2FE814641F2883A0EE00968890352
:10220000EFE709688901ECE7FFF7E6FEA0EB0901BB
:10221000514502D90320BDE8F0872068696800F0C5
:102220000C00B0EB810FEFD1D8F80010404601F060
:102230000701B14207D90770006800F00700B042FB
:1022400001D00120E7E72878400705D52068E96834
:1022500020F4E050084320602878000706D5206865
:10226000296920F4604040EAC100206000F058F87D
:102270002168084AC1F30311515CC840064908604F
:1022800006480068FFF7D0FE0020C4E7003C02408B
:1022900008380240DE7100082C00002024000020D5
:1022A0000F2202600C4A136803F0030343601368B3
:1022B00003F0F0038360136803F4E053C360126813
:1022C0004FF4E05303EAD20202610448006800F0D0
:1022D000070008607047000008380240003C0240D8
:1022E0000448054900680968044AC1F38221515C29
:1022F000C84070472C00002008380240EE710008EA
:102300000448054900680968044AC1F34231515C38
:10231000C84070472C00002008380240EE710008C9
:10232000154810B5006810F00C02144813D0144979
:10233000042A0FD0082A0ED10F4C241F22682368CC
:1023400002F03F025B0207D52068C0F38810A0FBB3
:10235000010106E0084610BD2168C1F38811A1FB08
:1023600000010023FDF7F7FF2168C1F30141491C7B
:102370004900B0FBF1F010BD083802400024F40021
:1023800040787D012DE9F84F04006ED02078DFF809
:102390004C93C007A9F104054AD009F10400016873
:1023A000C1F38101012908D00068C0F3810002282F
:1023B0000AD1D9F80000400206D52868800337D535
:1023C00060680028E1D033E06068B0F5803F10D04D
:1023D000B0F5A02F286810D020F48030286028683D
:1023E00020F4802028606068A8B1FFF7F5FD06465C
:1023F0000DE0286840F48030F4E740F48020286045
:10240000F7E700BFFFF7E8FD801B642873D8286852
:102410008003F7D50CE0FFF7DFFD064605E000BFBF
:10242000FFF7DAFD801B6428F0D828688003F7D412
:102430002078DFF8AC8280074FF0000A3ED5A7482D
:10244000001D016811F00C0F08D00068C0F3810076
:1024500002280BD1D9F80000400207D42868800771
:1024600016D5E068012800D112E033E1E068B8B188
:102470000120C8F80000FFF7AFFD064605E000BFE9
:10248000FFF7AAFD801B0228C0D828688007F7D56F
:102490002868216920F0F80040EAC10028600DE0BA
:1024A000C8F800A0FFF798FD064604E0FFF794FD8A
:1024B000801B02281FD828688007F7D420780007DF
:1024C00022D5864F87486169703771B1012101605B
:1024D000FFF782FD064604E0FFF77EFD801B022821
:1024E00009D838688007F7D50EE0C0F800A0FFF7DC
:1024F00073FD064605E082E0FFF76EFD801B0228B3
:102500007DD838688007F7D42078400768D5DFF891
:10251000CCB100270BF13C0BDBF80000C0000BD462
:10252000DBF8001041F08051CBF80010DBF8000020
:10253000012700F0805000906B4E3068C00510D429
:10254000306840F480703060FFF746FD009005E091
:10255000FFF742FD0099401A022850D83068C005A4
:10256000F6D55E4EA0686C3601280FD0052830687D
:1025700010D020F001003060306820F0040030609E
:10258000A068B8B1FFF728FD00900FE0306840F078
:102590000100F4E740F004003060F7E7FFF71CFDAE
:1025A0000099411A41F28830814266D8306880072C
:1025B000F4D50EE0FFF710FD009007E0FFF70CFDEB
:1025C0000099411A41F28830814256D8306880071C
:1025D000F4D42FB1DBF8001021F08051CBF80010BB
:1025E000A069C8B33D49091D0968C1F381010229E9
:1025F0004AD00228504607D0C8F8600000E03CE00E
:10260000FFF7EAFC04463BE04746C8F86000FFF7E6
:10261000E3FC064605E000BFFFF7DEFC801B022856
:102620002BD828688001F7D4D4E907010843A16AB0
:102630002E4A490802EB0141626A41EA82110843CD
:1026400094F82C1040EA0161C9F8001001203866A6
:10265000FFF7C2FC044606E03EE000BFFFF7BCFC0B
:10266000001B022809D828688001F7D534E000BF94
:10267000FFF7B2FC001B022802D90320BDE8F88F47
:1026800028688001F4D427E00128F7D0D9F80000A9
:10269000E26900F4800191421CD1226A00F03F01FE
:1026A000914217D147F6C071626A0140B1EB821FB7
:1026B00010D1A26A4FF0FF3300F4403103EB520215
:1026C000B1EB024F06D194F82C1000F07060B0EB23
:1026D000016F01D00120D1E70020CFE7043802408C
:1026E00000004742800E4742007000400000FFFF9C
:1026F0004FF0E0210428086903D020F004000861AD
:10270000704740F00400FAE77047704770B590F8E2
:102710003C20012A2CD0012480F83C40022280F881
:102720003D2003685A689D6822F070060A683243AB
:102730005A60104B02689A420ED0B2F1804F0BD013
:102740000D4B9A4208D00D4B9A4205D00C4B9A4241
:1027500002D00C4B9A4204D1496825F080031943FA
:10276000916080F83D40002180F83C10084670BD23
:10277000022070BD0000014000040040000800403D
:10278000000C00400040014010B5040003D094F854
:102790003D0010B107E0012010BD002084F83C008E
:1027A000204600F01FF8022084F83D00211D20681B
:1027B00000F0B6FE012084F8460084F83E0084F85C
:1027C0003F0084F8400084F8410084F8420084F817
:1027D000430084F8440084F8450084F83D0000205C
:1027E00010BD000008B501680B48B1F1804F0BD057
:1027F0000A4A914207D1016841F002010160006874
:1028000000F00200009008BD016841F00101016084
:10281000006800F00100F5E7403802400004004085
:1028200090F83D10012901D001207047022180F865
:102830003D100168CA6842F00102CA6000680E4992
:1028400088420ED0B0F1804F0BD00C49884208D09E
:102850000B49884205D00B49884202D00A49884278
:1028600004D1816801F00701062903D0016841F015
:102870000101016000207047000001400004004099
:1028800000080040000C00400040014070B50446C4
:1028900090F83C000025012817D0012684F83C6000
:1028A000022084F83D002068826822F0770222F43A
:1028B0007F4282600868502838D00DDC20284FD035
:1028C00005DC90B3102811D14AE0022070BD3028F9
:1028D00046D040280AD13BE060282FD070280DD088
:1028E000B0F5805F03D0B0F5005F12D0012584F809
:1028F0003D60002084F83C00284670BDCB68D1E9DB
:102900000121206800F065FE2068816841F07701B0
:1029100009E0CB68D1E90121206800F05AFE206867
:10292000816841F480418160E1E719E0CA68496843
:10293000206800F003FF5021206806E0CA6849685B
:10294000206800F00CFF6021206800F04CFECEE70C
:10295000CA684968206800F0F1FE40212068F4E769
:10296000226801461046F0E7704770B504460068DB
:1029700001694FF00005C943890715D4C168C943EF
:10298000890711D4E91E0161012020772068806940
:102990008007204602D0FFF7E7FF04E000F0D6F8FA
:1029A000204600F068F9257720680169C943490786
:1029B00017D4C168C943490713D46FF004010161FA
:1029C000022020772068806910F4407F204602D0E2
:1029D000FFF7CAFF04E000F0B9F8204600F04BF919
:1029E000257720680169C943090716D4C168C9431E
:1029F000090712D46FF008010161042020772068D4
:102A0000C0698007204602D0FFF7AEFF04E000F067
:102A10009DF8204600F02FF9257720680169C94309
:102A2000C90617D4C168C943C90613D46FF0100191
:102A30000161082020772068C06910F4407F20469B
:102A400002D0FFF791FF04E000F080F8204600F08C
:102A500012F9257720680169C943C90708D1C168FF
:102A6000C943C90704D1891E0161204600F05CF901
:102A700020680169C943090609D4C168C943090628
:102A800005D46FF0800101612046FFF73DFE20680C
:102A90000169C943490609D4C168C943490605D437
:102AA0006FF040010161204600F048F9206801699B
:102AB000C94389060BD4C168C943890607D46FF09E
:102AC000200101612046BDE87040FFF71EBE70BDC9
:102AD00030B587B0044614216846FDF7CFFD246861
:102AE0000022174902231748B4F1804F16D0164D23
:102AF000AC4211D10C6844F001040C60096801F08B
:102B000001010591C0210091CDE901326946CDE96D
:102B1000032300BFFFF766F907B030BD0C6844F02F
:102B200001040C60096801F0010105910F21009179
:102B3000CDE901320121CDE903216946EAE7000030
:102B4000303802400000024000040040704770B579
:102B5000044690F83C0000260D4601280FD00120C5
:102B600084F83C006AB1042A1DD0082A2FD00C2A10
:102B70003FD00126002084F83C00304670BD022082
:102B800070BD206800F038FD2068816941F00801BF
:102B900081612068816921F0040181612068816977
:102BA0002A69114311E0206800F04EFD2068816918
:102BB00041F4006181612068816921F48061816153
:102BC000206881692A6941EA02218161D2E720688F
:102BD00000F066FD2068C16941F00801C16120680C
:102BE000C16921F00401C1612068C1692A691143EA
:102BF00011E0206800F080FD2068C16941F40061A7
:102C0000C1612068C16921F48061C1612068C16926
:102C10002A6941EA0221C161ACE710B5040003D082
:102C200094F83D0010B107E0012010BD002084F8A9
:102C30003C00204600F01EF8022084F83D00211DD3
:102C4000206800F06DFC012084F8460084F83E0006
:102C500084F83F0084F8400084F8410084F8420082
:102C600084F8430084F8440084F8450084F83D006B
:102C7000002010BD7047704710B50446022249B1CC
:102C800004290ED0082913D094F84100012816D049
:102C9000012010BD94F83E000128F9D184F83E20AF
:102CA0000FE094F83F000128F2D184F83F2008E0BB
:102CB00094F840000128EBD184F8402001E084F82A
:102CC00041200122206800F077FC124920688842E8
:102CD00003D1426C42F400424264206888420ED024
:102CE000B0F1804F0BD00C49884208D00B49884284
:102CF00005D00B49884202D00A49884204D1816834
:102D000001F00701062903D0016841F001010160CB
:102D1000002010BD000001400004004000080040F9
:102D2000000C00400040014000680349884201D186
:102D3000FFF758B970470000000001407047704726
:102D400070470000F8B5016804460868CA684B6916
:102D500010F00F0F4FF000055AD003F0010602F4F7
:102D60009077374365D0C10705D0D10503D5216CD5
:102D700041F001012164410705D5D90703D0216C39
:102D800041F002012164810705D5D90703D0216CE8
:102D900041F004012164010707D502F0200131430D
:102DA00003D0216C41F008012164216C00293BD043
:102DB000800604D5900602D5204600F011FD20685B
:102DC0004069216CC0F3801001F0080101432046E6
:102DD0002BD000F0DEFC20684069400621D5206839
:102DE000143050E8001F21F0400140E80012002A92
:102DF000F5D1A06BA8B16C490165A06BFEF7DFFFB0
:102E0000002811D0A06B016D01B0BDE8F04008476B
:102E100083060ED593060CD52046BDE8F84000F099
:102E2000DFBC2046FFF78CFFF8BDFFF789FF256464
:102E3000F8BD266B2023012E79D1C60677D5D6069C
:102E400075D50868486800904869400640D5A16B70
:102E5000086840680004000CEAD0A28D8242E7D9DD
:102E6000E085C869B0F5807F2DD020680C3050E82F
:102E7000001F21F4807140E80012002AF5D120687B
:102E8000143050E8001F21F0010140E80012002A30
:102E9000F5D12068143050E8001F21F0400140E8CF
:102EA0000012002AF5D184F83E30256320680C30EA
:102EB00050E8001F21F0100140E80012002AF5D16F
:102EC000A06BFEF733FFA08DE18D401A81B229E09F
:102ED000A08DE18D401A81B2E08D0028A8D0002994
:102EE000A6D020680C3050E8002F22F4907240E801
:102EF0000026002EF5D12068143050E8002F22F073
:102F0000010240E80026002EF5D184F83E3025630A
:102F100020680C3050E8002F22F0100240E8002317
:102F2000002BF5D12046FFF70AFFF8BDFFE70506A5
:102F30002BD5150629D594F83D002128F5D1A06898
:102F4000B0F5805F01D12069B0B1206A411C2162D7
:102F5000216800784860E08C401E0004000CE0848A
:102F6000E3D12068C16821F08001C1602068C16898
:102F700041F04001C160D8E7206A0088C0F3080032
:102F80004860206A801C2062E5E74006CDD55006E7
:102F9000CBD5CA68204622F04002CA6084F83D3092
:102FA00000F0C8F8C1E700008337000870B50400DE
:102FB00004D094F83D00002510B106E0012070BD5A
:102FC00084F83C50204600F023F8242084F83D008B
:102FD0002068C16821F40051C160204600F060FC07
:102FE0002068016921F4904101612068416921F064
:102FF0002A0141612068C16841F40051C160256423
:10300000202084F83D0084F83E00002070BD0000C0
:1030100030B500681F4987B0884238D11E48016822
:1030200041F010010160006800F0100005901A489E
:103030001438016841F001010160016801F00101EB
:103040000591016841F0010101600068012100F073
:10305000010005904FF4007000900220CDE90101BD
:103060000724CDE903040D4D69462846FEF7BAFE54
:1030700028150090694604942846FEF7B3FE2520E3
:10308000FFF734F8032211462520FFF73DF807B07B
:1030900030BD0000001001404438024000000240F2
:1030A00090F83E30202B0ED159B152B190F83C30FF
:1030B000012B08D0012380F83C300023036300F08B
:1030C00075BC0120704702207047000030B40068D2
:1030D0001549884225D1154841880A0416D402466C
:1030E0004C0412784FF0000304D50A2A0DD141F4A4
:1030F000004114E00D2A10D0C1F30D040C4D491C01
:1031000089B22A554180C72900D943800848012245
:1031100030BC0649C830FFF7C3BF41F4804141804D
:10312000F4E730BC704700000010014010000020A0
:10313000F40000207047FEE710B5044680ED000A59
:1031400003F04AF99FED020A606084ED020A10BDA7
:10315000000000001CB505490120CDE90001002355
:10316000802203A1054803F0D1F81CBD0000002017
:1031700073746172745F7461736B00004155000871
:1031800070B586B014216846FDF778FA0E48002421
:10319000016841F00401016000680C4E00F0040079
:1031A0004FF400550590224629463046FEF70FFFA2
:1031B00001200095CDE90104694630460394FEF7ED
:1031C00011FE06B070BD0000303802400008024019
:1031D00070B58EB000240E460546079408940994F5
:1031E0000A940B941C2168460C94FDF747FA324868
:1031F0004FF08041C0E902450461C0E9001680211A
:103200008161FFF7C1FA08B1FEF7E1FC4FF480508D
:10321000079007A92848FFF739FB08B1FEF7D7FC4C
:103220002548FFF7FAFC08B1FEF7D1FC0B940BA977
:1032300021480C94FFF76AFA08B1FEF7C8FC602039
:1032400000903220CDE90104002269461A48049416
:10325000FFF77DFC08B1FEF7BAFC04226946164868
:10326000FFF775FC08B1FEF7B2FC08226946124868
:10327000FFF76DFC08B1FEF7AAFC0C2269460E4868
:10328000FFF765FC08B1FEF7A2FC0B48FFF720FC36
:103290000A48002105800848FFF7EEFC0421064893
:1032A000FFF7EAFC08210448FFF7E6FC0C2102487E
:1032B000FFF7E2FC0EB070BD1C4B0020B0000020F8
:1032C00070B58EB000240D46064607940894099404
:1032D0000A940B941C2168460C94FDF7CFF92548FD
:1032E00023490160C0E90154C0E903648461FFF728
:1032F0004BFA08B1FEF76BFC4FF48050079007A91A
:103300001C48FFF7C3FA08B1FEF761FC1948FFF744
:1033100084FC08B1FEF75BFC0B940BA915480C94D8
:10332000FFF7F4F908B1FEF752FC6020009050203E
:10333000CDE90104002269460E480494FFF707FC1A
:1033400008B1FEF744FC042269460A48FFF7FFFB78
:1033500008B1FEF73CFC0748FFF7BAFB002105481F
:10336000FFF78AFC04210348FFF786FC0EB070BD0E
:1033700000040040644B0020FEE7FEE710B5044661
:103380002DED028BB0EE408A03F026F8A16ADFED46
:103390002A0A411A00EE101AB8EE400A80EE201AEE
:1033A00094ED000A20EE082A94ED040A08EE010AC2
:1033B00084ED040AD4ED060AF1EE601AB4EEE10AD7
:1033C000F1EE10FA02D2B0EE610A06E0B4EEE00AC5
:1033D000F1EE10FA01DDB0EE600A84ED040AD4EDDE
:1033E000010AD4ED031A20EE800A78EE611AD4EDBA
:1033F000020A32EE000A60EEA11AC1EE810A30EE36
:10340000200A84ED070AD4ED090AB4EEE00AF1EED1
:1034100010FA06D3D4ED080AB4EEE00AF1EE10FA81
:1034200001DDB0EE600A84ED070A84ED038AA06234
:10343000BDEC028B10BD000000007A4410B5C0ED59
:10344000061A80ED082AC0ED092A044680EC030A1A
:103450009FED040A80ED030A80ED040A02F0BCFF30
:10346000A06210BD0000000010B54FF0E020006920
:1034700002F0A4FF012803D0BDE8104002F0EABB2F
:1034800010BD000010B592B030216846FDF7F6F887
:1034900014210CA8FDF7F2F818480024016841F047
:1034A00080510160006800F080501190144801685C
:1034B00021F4404141F4004101600068069400F4A9
:1034C00040401190022000900120039010200490B1
:1034D0006846FEF757FF08B172B6FEE70F20CDE948
:1034E0000C040E940F9400210CA81094FEF73EFEDD
:1034F000002801D072B6FEE712B010BD403802407D
:10350000007000400248016841F47001016070479A
:1035100088ED00E00148FFF728BA00000002002013
:10352000F0B502681D4B1E4C9F031E4D1E4E984267
:1035300007D0B84205D0A04203D0A84201D0B04283
:1035400004D122F0700C4A6842EA0C02984210D072
:10355000B8420ED0A0420CD0A8420AD0B04208D047
:10356000124CA04205D0124CA04202D0114CA042F5
:1035700003D122F44074CA6822434C6922F08002CD
:10358000224302608A68C2620A688262984201D15C
:103590000969016301214161F0BD000000000140A3
:1035A0000004004000080040000C004000400140C2
:1035B000004401400048014010B501F01F03012103
:1035C000046A99408C430462016A9A401143016283
:1035D00010BD10B5846842EA032224F47F440A43F4
:1035E0002243826010BD826822F070020A4342F0DA
:1035F000070181607047000030B5026A22F00102C5
:103600000262026A4368846924F073050C682C43E3
:1036100022F002058A682A430A4DA8420BD122F003
:103620000805CA6823F440732A434D6922F0040256
:103630001D438B692B434360846149684163026287
:1036400030BD00000000014030B5026A22F01002D7
:103650000262026A436884690D6824F4E64444EA1D
:1036600005248D6822F0200242EA05120B4DA84283
:103670000ED1CD6822F0800242EA05124D6923F492
:10368000406343EA85038D6922F0400243EA8503E3
:103690004360846149688163026230BD000001407B
:1036A00030B5026A22F480720262036A4268C46919
:1036B00023F4007324F073050C682C438D6843EAEF
:1036C00005230C4DA8420ED1CD6823F4006343EAD4
:1036D00005234D6922F4405242EA05128D6923F414
:1036E000806342EA05124260C4614968C1630362B3
:1036F00030BD00000000014030B5026A22F4805263
:103700000262046A4268C3690D6823F4E64343EA2F
:1037100005238D6824F4005444EA0534064DA8427C
:1037200004D14D6922F4804242EA85124260C361AD
:1037300049680164046230BD0000014010B5036AAD
:10374000046A24F001040462846924F0F00444EA69
:10375000021423F00A020A438461026210BD10B50C
:10376000036A23F0100303628369046A23F470433D
:1037700043EA023224F0A00343EA011182610162AC
:1037800010BD10B5806B0021C185C184FFF7D8FA48
:1037900010BD01680C3151E8002F22F4907241E80D
:1037A0000023002BF5D10168143151E8002F22F0DD
:1037B000010241E80023002BF5D1016B012909D159
:1037C00001680C3151E8002F22F0100241E800237B
:1037D000002BF5D1202180F83E10002101637047B5
:1037E00008B590F83E10222901D0022008BD826859
:1037F0004FF480539A4201D1016921B1816A9A4202
:103800001BD04AB10AE00268816A5268C2F308021A
:103810000A80816A891C08E0026972B102685268F4
:1038200002F07F020A70816A491C8162C18D491EC3
:103830000904090CC18503D019E002685268F1E758
:103840000168CA6822F02002CA600168CA6822F4CE
:103850008072CA6001684A6922F001024A6120212F
:1038600080F83E10016B012903D0FFF72FFC0020E8
:1038700008BD0021016301680C3151E8002F22F0DE
:10388000100241E80023002BF5D101680A68D20636
:1038900002D50A6849680091818DFFF750FAE6E782
:1038A00070B5044600680169E26821F44051114393
:1038B00001612169A068E269084361691143084315
:1038C0002168CA6849F20C639A430243CA602068BF
:1038D0004169A26921F44071114341613149206875
:1038E000884202D03049884202D1FEF709FD01E04A
:1038F000FEF7F6FCE2690023192164253226B2F5B1
:10390000004F626828D0A0FB0101930F9200FCF7E2
:1039100022FD0146B0FBF5F06FF01802504301EBB9
:10392000800006EB0010B0FBF5F000F0F002B1FBF8
:10393000F5F002EB0012B1FBF5F06FF018035843FD
:1039400001EB800006EB0010B0FBF5F000F00F007B
:1039500021681044886070BDA0FB010192185B4192
:10396000FCF7F9FC0146B0FBF5F00201B1FBF5F004
:103970006FF01803584301EB800006EBC000B0FB6A
:10398000F5F000F0F80002EB4002B1FBF5F058430F
:1039900001EB800006EBC000B0FBF5F000F0070083
:1039A000D6E70000001001400014014081628285CA
:1039B000C28500210164222280F83E2080F83C105C
:1039C000016921B10168CA6842F48072CA60016865
:1039D0004A6942F001024A610068C16841F0200171
:1039E000C1600020704700000148FFF7ABB900003C
:1039F000BC010020FEE703B401984100009850EAA2
:103A0000C12018BF04204A0D18BF40F0010040F249
:103A1000FF72B2EB515F08BF40F00200012808BFFF
:103A2000052002B070470907090E002804DB00F1E9
:103A3000E02080F80014704700F00F0000F1E02053
:103A400080F8141D7047000010B52F499FED2C1B06
:103A50002DED020B84B0059820F000408842D8BFBD
:103A60009DED040B2DDD2949884209D1049840B908
:103A70004FF00100FCF732FE00F0A2FC06B010BDD2
:103A800005DB9DED040B00F08FFC06B010BD684611
:103A90009DED040B00F0A0F810F0030004BF9DEDB5
:103AA000021B9DED000B0CD001280ED09DED021BDA
:103AB0009DED000B022817D0012000F0DDFB06B0C1
:103AC00010BD00F0A5FA06B010BD9DED021B9DEDE6
:103AD000000B012000F0D0FB51EC100B02F076FE41
:103AE00006B041EC100B10BD00F092FA51EC100B37
:103AF00002F06CFE06B041EC100B10BD000000009F
:103B00000000000000000000FB21E93F0000F07F02
:103B100010B52F499FED2C1B2DED020B84B005989D
:103B200020F000408842DCBF00209DED040B32DD18
:103B30002849884209D1049840B94FF00100FCF7A8
:103B4000CDFD00F03DFC06B010BD05DB9DED040B86
:103B500000F02AFC06B010BD68469DED040B00F095
:103B60003BF810F0030011D0012818D09DED021B86
:103B70009DED000B02281AD000F04AFA51EC100B10
:103B800002F024FE06B041EC100B10BD9DED021BAF
:103B90009DED000B012000F06FFB06B010BD9DED08
:103BA000021B9DED000B00F033FA06B010BD0120A2
:103BB00000F062FB51EC100B02F008FE06B041EC85
:103BC000100B10BD0000000000000000000000000D
:103BD000FB21E93F0000F07F2DE9F14F04462DED78
:103BE000020B2DED088B8AB09FEDE70B80ED020BE9
:103BF000139EE74826F0004585420ADC9DED120B36
:103C0000002084ED000B0AB0BDEC088B03B0BDE8CA
:103C1000F08FE0489FEDE0AB9FEDE1BBA84247DDB0
:103C2000E14F9FEDE39B9FEDE48B9DED120B53EC79
:103C30001A2B51EC100B002E1CDD03F069F941EC3E
:103C4000100BBD4208D053EC1B2B51EC100B03F0B2
:103C50005FF9C4E900010BE053EC192B51EC100B98
:103C600003F056F953EC182B03F052F9C4E90001A4
:103C70000120C8E702F0E8FD41EC100BBD4208D07E
:103C800053EC1B2B51EC100B02F0DEFDC4E90001DC
:103C90000BE053EC192B51EC100B02F0D5FD53EC5B
:103CA000182B02F0D1FDC4E900014FF0FF30AAE764
:103CB000C348A84279DB9DED120B51EC100B00F0CC
:103CC00037FC41EC180B9FEDC00B53EC102B03F0AD
:103CD00015F89FEDBF1B53EC112B02F0B5FD02F060
:103CE000B3FF074602F0DFFF41EC190B53EC1A2B30
:103CF00003F004F853EC182B03F0FEF841EC180B1A
:103D000053EC1B2B51EC190B02F0F8FFDFF8C8A2A3
:103D100041EC100B4FEA15580125FA4453EC102BD7
:103D200051EC180B03F0F4F8032DC4E900013DD069
:103D3000C1F30A5005EB4511A8EB0000113981428F
:103D400034DA0AEB051BB0EE48AA9BED000BF0EE4F
:103D500068AA53EC102B51EC190B02F0CFFF41EC89
:103D60001B0B51EC1A0B53EC1B2B03F0D1F841EC5D
:103D7000180B51EC1A0B53EC182B03F0C9F853EC49
:103D80001B2B03F0C5F89BED020B41EC1A0B53EC17
:103D9000102B51EC190B02F0B1FF53EC1A2B03F06E
:103DA000B7F841EC100B6D1CB8E70EE0002EA8BF71
:103DB0003846BFF628AF94ED000B51EC100B02F023
:103DC00005FDC4E9000178421DE7C6F3130040F485
:103DD000801EC6F30A50A0F2F530471100F01F050F
:103DE000C5F12000DDF848B008900020069007904B
:103DF0000520EC467949002D07EB0002794408BF05
:103E000051F8221009D051F8223001EB8201AB4069
:103E10004A68089922FA01F11943A1FB0E26A1FB79
:103E20000B131A449A4234BF0123002303EB060804
:103E30000CEB8003D3E901A60E448E4234BF01216E
:103E4000002192448A4411B1924502D903E092457F
:103E500001D2012100E00021C3E901A641444CF850
:103E60002010011EA0F10100C4DC029800F10050F6
:103E7000850F0298DDE903678000DDF8148002F009
:103E800012FF41EC1A0B304602F024FF9FED541B49
:103E900053EC112B02F032FF41EC1B0B384602F0C1
:103EA00019FF9FED511B53EC112B02F027FF41EC42
:103EB000180B404602F00EFF9FED4D1B53EC112BEB
:103EC00002F01CFF41EC190B51EC180B53EC192BB1
:103ED00002F0BAFC53EC1B2B02F0B6FC53EC1A2B8D
:103EE00002F0B2FCCDE90801002008909DED080B1E
:103EF00053EC1A2B51EC100B03F00AF853EC1B2B6C
:103F000003F006F853EC182B03F002F853EC192BCE
:103F100002F0F2FF9FED381B53EC112B02F0EEFE86
:103F20009FED370B41EC180B53EC102B9DED080B5C
:103F300051EC100B02F0E2FE53EC182B02F084FC63
:103F40009FED310B41EC180B53EC102B9DED080B42
:103F500051EC100B02F0D2FE53EC182B02F074FC63
:103F600041EC100B139810F0004F06D06D4251EC4D
:103F7000100B02F02BFC41EC100B284684ED000BDB
:103F800041E600000000000000000000000000000A
:103F9000FB21E93F7CD9024000004054FB21F93F5E
:103FA0003163621A61B4D03DFB21F93F000000008B
:103FB0000000601A61B4D03D7370032E8A19A33BD0
:103FC000FB2139410000000083C8C96D305FE43F28
:103FD000000000000000E03F0A35000058340000F7
:103FE000000000000000103E000000000000103C37
:103FF000000000000000103A182D4454FB21F93D48
:104000003326A611460B113C00000054FB21F93D5C
:1040100010B52DED040B2DED088B82B0B0EE419A5A
:10402000F0EE619A0B9820F000449FED4BABB4F199
:10403000795F11DA9DED0A0B51EC100B02F004FED2
:10404000002801BFB0EE4A0AF0EE6A0A02B0BDECE9
:10405000088B04BF04B010BD9DED0A0B53EC102B70
:1040600051EC100B02F04AFE41EC180B3C480621C3
:10407000B0EE480AF0EE680A784400F081F853EC9C
:10408000182B51EC100B02F039FE9DED0A0B41ECA0
:104090001B0B53EC192B51EC100B02F02FFE41ECD3
:1040A000190B53EC1B2B51EC180B02F027FE53ECB1
:1040B000192B02F02DFF9FED2C0B41EC190B53EC4B
:1040C000102B51EC180B02F019FE41EC100B284894
:1040D000844210DA53EC192B51EC100B02F018FF4C
:1040E00053EC1A2B02F008FF41EC100B02B0BDECB0
:1040F000088B04B010BD1F48A042BCBF9FED1E1B23
:104100008DED001B06DBA4F500100190002000904F
:104110009DED001B51EC100B53EC112B02F0F8FE3F
:104120009DED000B41EC180B53EC102B51EC1A0BCE
:1041300002F0EEFE41EC1A0B53EC192B51EC180B6C
:1041400002F0E6FE53EC1A2B02F0D6FE41EC100B07
:10415000CCE7000000000000000000000000F03F7D
:104160007C31000000000000000000000000E03F83
:104170003333D33F0000E93F000000000000D23F8E
:1041800070B504462DED028B4D1E00EBC500B0EE60
:10419000408AF0EE608A90ED000B35F0060017D0F3
:1041A00053EC182B51EC100B02F0A8FD41EC100B56
:1041B0006D1E04EBC50090ED001B51EC100B53EC91
:1041C000112B02F041FB41EC100B35F00600E7D15A
:1041D000022D36D0042D1CD0062D1CBFBDEC028B49
:1041E00070BD53EC182B51EC100B02F087FD94EDD1
:1041F0000A1B53EC112B02F027FB53EC182B02F097
:104200007DFD94ED081B53EC112B02F01DFB41ECDE
:10421000100B53EC182B51EC100B02F06FFD94EDCA
:10422000061B53EC112B02F00FFB53EC182B02F082
:1042300065FD94ED040B53EC102B02F005FB41ECF3
:10424000100B53EC182B51EC100B02F057FD94EDB2
:10425000021B53EC112B02F0F7FA53EC182B02F06F
:104260004DFD94ED001B53EC112B02F0EDFABDEC6B
:10427000028B41EC100B70BD31B504462DED040BE3
:104280002DED0A8BB0EE41BAF0EE61BA0B989DEDC0
:104290000A0B20F00040B0F1795F0DDA51EC100B01
:1042A000FFF7A9FB042808BF00F09AF89DED0A0B60
:1042B000BDEC0A8B05B030BD53EC102B51EC100B4C
:1042C00002F01CFD41EC180B9DED0A0B53EC182B72
:1042D00051EC100B02F012FD41EC190B2C48B0EE22
:1042E000480AF0EE680A05217844FFF749FF9FED80
:1042F0002ACBB0EE40AAF0EE60AA9CB353EC1C2B84
:1043000051EC190B02F0FAFC41EC1C0B53EC1A2B8C
:1043100051EC190B02F0F2FC9FED210B41EC190B53
:1043200053EC102B51EC1B0B02F0E8FC53EC192B57
:1043300002F0EEFD53EC182B02F0E0FC53EC1B2BCB
:1043400002F0E6FD53EC1C2B02F0E2FD9DED0A1B92
:1043500053EC112B02F0D0FDBDEC0A8B05B041EC03
:10436000100B30BDFFE753EC1A2B51EC180B02F089
:10437000C5FC53EC1C2B02F067FA53EC192B02F02E
:10438000BDFC9DED0A1B53EC112B02F05DFAE3E737
:104390000430000000000000495555555555C5BF73
:1043A000000000000000E03F10B553EC102B51EC72
:1043B000100B02F049FA41EC100B10BD0000000098
:1043C0009FED050B10B553EC102B51EC100B02F0C8
:1043D000E3FA41EC100B10BD0000000000000000EB
:1043E0009FED050B10B553EC102B51EC100B02F0A8
:1043F00085FC41EC100B10BD000000000000001017
:1044000030380A2801D201207047002070477047D9
:10441000B5EEC00AF1EE10FA01DCB1EE400A7047C9
:1044200010B52DED028BB0EE080A9FED138AF0EE69
:10443000480A00F0C9FF4FF47A7000F0A1FA0F4863
:10444000FDF7B0F90D4800F05BF80D4CF0EE480AAE
:1044500084ED010A9FED0B0A00F0B6FF606802F0E0
:1044600041FEBDEC028B41EC100BBDE8104053EC5B
:10447000102B05A0FBF7E6BFE4CB9640C44B002011
:10448000B40000200000000044454255472D616CF7
:1044900069676E53656E736F72207A65726F5F65C0
:1044A0006C6563747269635F616E676C653A202541
:1044B0002E32660D0A00000010B504460420FEF7F7
:1044C00017F90148046010BD1C00002070B54FF0C2
:1044D000E024002265690949A36909684843A16984
:1044E0009942FCD002D2A3EB010302E0A5EB010646
:1044F00033441A440B468242F1D370BD1C000020A5
:1045000010B500F03BF80948D0E90221514300EE14
:10451000901AB8EEE01AD0ED010ABDE8104051EE55
:10452000000AB0EE600A00F013BA0000B4000020E8
:1045300082B0CDE9000121F0004001909DED000B1B
:1045400002B051EC100B704770B50A4C05464FF4A1
:104550007A71606801F0E4FD074801684906FCD5FE
:10456000E9B2416000231A461946606801F02CFC4C
:10457000284670BD100000200010014090ED010A97
:1045800070470000D0E905239FED110AD11A9A4225
:1045900000D8491E00EE901AD0E90313B8EE601A55
:1045A000CB1A9FED0C2AC1EE000A90ED011A90ED96
:1045B000020A80ED021A826171EE401A00EE103A92
:1045C0000161B8EEC00A40EE021A81EEA00A7047FF
:1045D00000007A44DB0FC94070B5134D4FF40074EE
:1045E000002221462846FDF7F2FC0220FFF76EFF6D
:1045F0000122160231462846FDF7E9FC0220FFF7AA
:1046000065FF002231462846FDF7E1FC0220FFF756
:104610005DFF012221462846FDF7D9FCBDE8704028
:104620000220FFF753BF000000040240154810B5F8
:10463000016886B041F002010160016801F00201E9
:104640000591016841F00201016000680E4C00F024
:10465000020005904FF480700090012001900290BC
:104660000320039069462046FDF7BCFB60150090CF
:104670001120019069462046FDF7B4FB00F0B0F828
:1046800006B010BD303802400004024070B50E4C38
:10469000012251022046FDF79AFC0220FFF716FF87
:1046A0000122150229462046FDF791FC0220FFF762
:1046B0000DFF002229462046FDF789FCBDE8704029
:1046C0000220FFF703BF0000000402402DE9F0477D
:1046D0000024174E804625464FF400794FF480772A
:1046E0006006040E012239463046FDF770FC0220B8
:1046F000FFF7ECFE49463046FDF764FC08B1641C48
:10470000E4B2002239463046FDF761FC0220FFF793
:10471000DDFE6D1CEDB2082DE2D3B8F1000F04D020
:10472000FFF75AFF2046BDE8F087FFF7AFFFF9E734
:10473000000402402DE9F041154F002405464FF4D6
:104740000078BE15280601D5012200E0002241466E
:104750003846FDF73CFC0220FFF7B8FE0122314647
:104760003846FDF734FC0220FFF7B0FE0022314648
:104770003846FDF72CFC6806641C050EE4B2082CD4
:10478000E0D341463846BDE8F0410122FDF71FBCA9
:104790000004024070B50122104D54022146284603
:1047A000FDF715FC0122160231462846FDF70FFCE5
:1047B0000220FFF78BFE002221462846FDF707FC6A
:1047C0000220FFF783FE002231462846FDF7FFFB5B
:1047D000BDE870400220FFF779BE000000040240EF
:1047E00070B50E4D4FF40074002221462846FDF7A7
:1047F000EEFB0220FFF76AFE012211022846FDF7B8
:10480000E6FB0220FFF762FE012221462846FDF763
:10481000DEFBBDE870400220FFF758BE00040240F6
:104820002DE9F0410122174E002457022546394652
:104830003046FDF7CCFB0220FFF748FE4FF48078AE
:10484000012241463046FDF7C2FB0220FFF73EFE43
:1048500007E0641CE4B2FA2C03D9FFF7C1FF01257D
:1048600005E039463046FDF7ADFB0028F1D10022C6
:1048700041463046FDF7ABFB0220FFF727FE2846F6
:10488000BDE8F081000402401CB5184F4FF40056FB
:104890004FF47A78002231463846FDF798FB4446BB
:1048A000404600F06DF8012231463846FDF78FFB97
:1048B000204600F065F80E48FFF764FE10EE100A7F
:1048C00002F010FC04460D460948FFF719FE10EEF1
:1048D000100A02F007FC41EC100B06A053EC102B61
:1048E000CDE90045FBF7AEFDD4E70000000802402B
:1048F000C44B0020656C65635F616E676C653A2030
:10490000252E32662C2076656C6F636974793A20A7
:10491000252E32660D0A0000FDF76CFBFEF7B2FD96
:104920001020FFF7C9FDFEF72BFC07216420FEF7DE
:104930004FFC07216420FEF7C3FC4FF4E13000F088
:1049400049FE00F02BF8FEF705FC00F039F8FEE711
:10495000DFED090A094901E030EE600A10EE100AA5
:104960008842F9DA02E000BF30EE200AB5EEC00A54
:10497000F1EE10FAF8D37047DB0FC940DB0FC940E6
:1049800010B5EFF3058111B16FF0050403E00024C9
:1049900008B100F06FFF204610BD0000EFF3058066
:1049A00010B16FF0050070470448016811B14FF075
:1049B000FF30704701210160002070478000002017
:1049C00010B5EFF3058010B16FF0050010BD084879
:1049D0000168012902D04FF0FF3010BD054A0021C7
:1049E00082F8141D0221016001F03CF8002010BD86
:1049F000800000200BE000E02DE9F041134C0F4651
:104A00000546E6682068001D00F000FE681C07D11E
:104A100037B12168BDE8F0410D48091D00F046BEE0
:104A200020683544B5424560216805D2A06BBDE8D9
:104A3000F041091D00F022BE606B091D00F01EFE52
:104A4000A06A854200D2A562BDE8F0813000002056
:104A5000380700202DE9F041054600F033FE2D4CCB
:104A6000A068401CA06020682B4F10B1606930B373
:104A70002BE02560A068012827D1002606EB8600E0
:104A800007EB800000F0ECFD761C382EF6D32348AF
:104A900000F0E6FD2148143000F0E2FD1F48283008
:104AA00000F0DEFD1D483C3000F0DAFD1B485030C0
:104AB00000F0D6FD194860631430A06305E020685B
:104AC000E96AC06A884200D82560606A401C60625A
:104AD0006864E86A2169884200D9206100EB80009F
:104AE00007EB8000291D00F0E1FD00F00BFE60697E
:104AF00000280CD02068E96AC06A884207D20849B9
:104B00004FF080500860BFF34F8FBFF36F8FBDE849
:104B1000F08100003000002088020020E80600201C
:104B200004ED00E038B500F0CDFD104C2068C8B9A8
:104B30000F4800F095FD0E48143000F091FD0C4830
:104B4000E060143020610A4B0020F03B009003F13C
:104B5000500210210A2001F0BFF8206010B105A119
:104B600000F052FEBDE8384000F0CCBD6C000020E3
:104B70003C080020546D72510000000030B4026CFB
:104B80000B46002A0BD0C1681144C1608468A14261
:104B900001D30168C16030BC1846FBF722BD30BCB0
:104BA00070472DE9F041856B174604460026026CDC
:104BB00082B1C7B1E068FBF714FDE168206C091A07
:104BC000E1602268914202D2A168081AE060022FD7
:104BD00016D017E02068A8B9A06801F067FC064667
:104BE0000020A0600EE06068FBF7FBFC216C6068B1
:104BF00008446060A168884204D32068606001E0D6
:104C000005B16D1E6D1CA5633046BDE8F08110B581
:104C1000044690F8590058B101280CD002280FD052
:104C2000502080F31188BFF34F8FBFF36F8FFEE7E3
:104C3000206B00F07BFD2046BDE8104000F076BD03
:104C400010BD000010484FF47051420706D0C01D3F
:104C50000D4920F00700411AC1F570510B4A00239D
:104C60000144C2E900030839183A21F00701116034
:104C70004B600B600B1AC0E9001393604FF00040CB
:104C800053605061704700001C0F00209C00002002
:104C9000144E154CA6F29C474FF08058DFF84C900C
:104CA00012E000BF00F00EFDF068C568281D00F09E
:104CB000ADFCA068401EA0606068401E606000F00F
:104CC00021FD2846FFF7A3FF60680028EAD1386875
:104CD0000128F9D9C9F80080BFF34F8FBFF36F8F58
:104CE000F2E70000240700203000002004ED00E07F
:104CF000002807D00021816001600B460A46C16090
:104D000001F062B87047000070B51D46049C51B1B7
:104D1000C4F80020C4E90F010121204601F010F879
:104D200084F84C5070BD2460F4E700002DE9F05F7A
:104D30008846DDE90B941546834691009A460A9E03
:104D4000A522206BFBF792FC6FF00301206B01EBB7
:104D50008501084420F00707780707D0502080F32A
:104D60001188BFF34F8FBFF36F8FFEE70025B8F1B7
:104D7000000F0FD05FF00000221818F8001082F822
:104D8000341018F8001011B1401C1028F4D384F826
:104D9000435001E084F83450382E00D33726E662C1
:104DA000C4E91365201D00F066FC04F1180000F052
:104DB00062FC2461C6F138006462A061656584F814
:104DC000585052465946384600F066FA2060B9F10C
:104DD000000F01D0C9F80040BDE8F09F30B511497F
:104DE00000E011460A688242FBD34B685C1884429B
:104DF00003D1406818444860084643681C18944230
:104E000009D1084C183C2468A24209D052681A44BF
:104E100042600A6812680260814200D0086030BDBA
:104E20000460F9E79C00002070B5002441600B4D40
:104E30000061914206D8D11A8269914206D2011DC1
:104E4000286907E09A4203D2994201D3012403E082
:104E5000011DE86800F012FC204670BD6C000020C7
:104E600010B5044600F02EFCA06B28B15FF00004E2
:104E700000F048FC204610BD0124F9E730B589B0A8
:104E80003C4D6EE00498002806DADDE90601059A3B
:104E900090470498002864DB069C606910B1201DCF
:104EA00000F0B4FB03A800F0D7F8024604980A28E3
:104EB00057D2DFE800F00505052D334A05052D33EF
:104EC00094F8280040F0010084F828000599A069B2
:104ED000059B01442046FFF7A7FF68B3216A2046DF
:104EE000884794F8280040073BD50020009005989B
:104EF000A169002342181946204601F01DFCD8B9CB
:104F0000502080F31188BFF34F8FBFF36F8FFEE700
:104F100014F8280F20F00100207022E094F82800F7
:104F200040F0010084F828000598A06128B181189C
:104F300013462046FFF778FF13E0502080F31188D6
:104F4000BFF34F8FBFF36F8FFEE794F82800810700
:104F500003D4204600F0EAFB03E020F0010084F8CF
:104F60002800002204A9286801F03EF8002889D111
:104F700009B030BD6C0000202DE9FC410F4605460C
:104F800000F0B4FD01A800F067F80446019818B1DC
:104F900001F040FBBDE8FC81254EAFB130690068EF
:104FA000D0B30027291B3A46306800F041FC01F0DD
:104FB00031FB0028EED11F494FF080500860BFF34D
:104FC0004F8FBFF36F8FE5E7A542EBD801F022FBCF
:104FD000F0682746C068C468201D00F017FB94F8ED
:104FE0002800410719D5A0692B4641193A462046A9
:104FF000FFF71AFFA8B100200346014600902A4699
:10500000204601F099FB60B9502080F31188BFF36E
:105010004F8FBFF36F8FFEE707E020F0010084F8A9
:105020002800216A20468847B4E70127BAE7000034
:105030006C00002004ED00E00648416B096829B1CE
:10504000416BC968C9684968816270474FF0FF3198
:10505000FAE700003000002070B5054601F0BCF909
:10506000064E0446B068844203D200F009F80120DD
:1050700000E0002028602046B46070BD6C00002075
:10508000F8B5194D20E0C068C4680668201D00F01E
:10509000BDFA216A2046884794F82800400713D5B6
:1050A000A0693044B04206D924616060211DE868DF
:1050B00000F0E4FA08E00020034601460090324682
:1050C000204601F039FB38B1E86801680029DAD1DF
:1050D0002969C5E90310F8BD502080F31188BFF39A
:1050E0004F8FBFF36F8FFEE76C00002008484068C9
:1050F000401C4FF0500080F3118804D0BFF34F8F55
:10510000BFF36F8FFEE7BFF34F8FBFF36F8FFEE7E5
:10511000A4000020074CE068016841B1C06800218C
:10512000D0F80000FFF728FFFFF7A8FEF3E7012102
:105130000020F7E76C0000202DE9F041044600F064
:10514000C1FA94F9455004F1240609E0606A48B1B7
:10515000304601F027FA08B100F002FC6D1E6DB276
:10516000002DF3DC4FF0FF3684F8456000F0CAFAFA
:1051700000F0A8FA94F9445004F1100709E02069FE
:1051800048B1384601F00EFA08B100F0E9FB6D1E97
:105190006DB2002DF3DC84F84460BDE8F04100F00E
:1051A000B1BA00002DE9F0410546002700F09EFC51
:1051B000324E306808B9FFF745FD706905424ED19F
:1051C000C5B3083568070ED005F00700C0F1080028
:1051D0000544680707D0502080F31188BFF34F8F34
:1051E000BFF36F8FFEE72DB37068854237D8234831
:1051F000183001460C6801E020460C466168A9425F
:1052000002D221680029F7D131688C4227D0076883
:105210002168016060680837411B10290FD96019A7
:10522000420708D0502080F31188BFF34F8FBFF39F
:105230006F8FFEE713E041606560FFF7CFFD6168A7
:105240007068401A7060B268904200D2B0607069B5
:1052500001430020C4E90001F068401CF06001F047
:10526000D9F9780707D0502080F31188BFF34F8F0A
:10527000BFF36F8FFEE73846BDE8F0818400002061
:105280000449086818B10868026D521C0265086874
:10529000704700003000002010B5031F4FF08074ED
:1052A0001C601B1F21F001011960191F044B0B60CA
:1052B00014390A60091F6FF0020244380A6010BDF9
:1052C000ED500008324810B59FED302AD0ED001A9D
:1052D000B5EEC00AF1EE10FA02D2B0EE420A06E0D4
:1052E000B4EEE10AF1EE10FA01DDB0EE610AF5EE7E
:1052F000C00AF1EE10FA02D2F0EE420A06E0F4EE35
:10530000E10AF1EE10FA01DDF0EE610AB5EEC01A25
:10531000F1EE10FA02D2B0EE421A06E0B4EEE11A53
:10532000F1EE10FA01DDB0EE611A80EE212A194883
:10533000008800EE100AB8EE400A22EE000A80EE65
:10534000A12ABCEEC00A10EE101A00EE100A8AB2B2
:10535000B8EE400AC1EE210A22EE000ABCEEC00AF5
:1053600010EE101A00EE100A89B2B8EE400A20EED4
:10537000800ABCEEC00A10EE100A83B20648046828
:105380006263026891630068C36310BD000000009F
:10539000B4000020B00000201C4B002010B50948CC
:1053A0002DED028BB0EE408AFFF7E8F8054838EEA5
:1053B000400A9030FDF7E2FFBDEC028BBDE81040E3
:1053C00000F07EB8C44B002010B53A482DED068B96
:1053D000B0EE609AB0EE408AFCF7E4F9364CBEEECF
:1053E000000AF6EE008AD4ED000A20EE800AB4EE40
:1053F000C80AF1EE10FA06DC20EEA80AB4EEC80ADC
:10540000F1EE10FA01D2B0EE408A19EE100A01F066
:1054100069FE41EC100BFEF77BFBB0EE40AAB1EE4B
:10542000480AF0EE60AA10EE100A01F05BFE53ECA1
:105430001A2B01F063FC01F0D5F9206119EE100A76
:1054400001F050FE41EC100BFEF7FEFAB0EE409A70
:10545000F0EE609A18EE100A01F044FE53EC192B9E
:1054600001F04CFC01F0BEF901EE100ADFED132A49
:1054700084ED051A94ED040A94ED002A1834F0EE38
:10548000401A02EE280AF0EE610A51EE621A51EE5D
:10549000220A21EEA81A60EEA80A02EE281A42EEAD
:1054A000280A84EC030ABDEC068BBDE81040FFF728
:1054B00009BF0000C44B0020B4000020D7B3DD3F7B
:1054C00030B52DED028B83B0B0EE408A1648FFF761
:1054D00059F838EE408A14483830B0EE480AFDF7E3
:1054E0004DFFF0EE408A1048FFF70AF8F0EE400A50
:1054F000B0EE680AFFF768FF18EE900A01F0F2FDBF
:1055000004460D4618EE100A01F0ECFD41EC100BBC
:1055100006A053EC102BCDE90045FAF793FF03B03A
:10552000BDEC028B30BD0000C44B002065727220C0
:10553000252E32662C2055713A252E32660D0A0032
:105540001CB5012000F09CFB1649086000F0BAF879
:1055500015490220CDE900010023802213A116483D
:1055600000F0D4FE10490120091DCDE900010023FF
:10557000802212A1134800F0C9FE0B490320083114
:10558000CDE90001002380220FA1114800F0BEFEEA
:105590000548001F006800F093F9BDE81C4000F0CA
:1055A000B1B800001400002004000020696E666F8E
:1055B0005461736B0000000089480008434D445457
:1055C00061736B0003180008464F435461736B000E
:1055D000D51B00080B4910B5094AC1E9002000207D
:1055E0008860C860086188610C2048610846FDF742
:1055F000DDFCBDE81040012203490248FDF750BD23
:1056000000100140BC01002010000020D0E9013250
:1056100001699A60D0E901235A604A68824201D147
:1056200082684A60002202610868401E08600868BB
:1056300070470000034B036003F15C0008608020AA
:105640001060704764080020044B036003F15C00A5
:1056500008604FF48070106070470000C00A00209E
:1056600000F108014FF0FF32C0E90112C160016191
:1056700000210160704700210161704730B50B685F
:105680005A1C02D000F1080202E0026904E022463E
:10569000546825689D42FAD953684B6099608A60C6
:1056A000516008610168491C016030BD42684A6070
:1056B00093688B6093685960916008610168491C28
:1056C00001607047502080F31188BFF34F8FBFF304
:1056D0006F8F0A494868401C486001280CD108486F
:1056E000006810F0FF0F07D0502080F31188BFF33F
:1056F0004F8FBFF36F8FFEE770470000A4000020BC
:1057000004ED00E00849486828B1401E486001D116
:1057100080F311887047502080F31188BFF34F8FBA
:10572000BFF36F8FFEE70000A400002070B50028D3
:105730002AD0164DA0F1080460686969084207D1B3
:10574000502080F31188BFF34F8FBFF36F8FFEE7B8
:1057500022683AB1502080F31188BFF34F8FBFF316
:105760006F8FFEE78843606000F0C0F96068696889
:10577000084468602046FFF731FB2869401C286117
:10578000BDE8704000F046BF70BD000084000020FE
:105790004FF0E02000210161816105494FF47A72E8
:1057A0000968B1FBF2F1491E4161072101617047AF
:1057B0002C00002010B5FAF7A9FD114910280ED3CE
:1057C00000F1E02090F8F0030A78904207D25020D0
:1057D00080F31188BFF34F8FBFF36F8FFEE7094847
:1057E0000068896800F4E060884207D9502080F39F
:1057F0001188BFF34F8FBFF36F8FFEE710BD00001E
:10580000A40000200CED00E010B5084B002200BF02
:1058100053F832401CB1521C082AF9D310BD43F88A
:10582000321003EBC201486010BD000048020020A6
:1058300070B515460E460446FFF744FF94F9441030
:105840000020491C01D184F8440094F94510491CFA
:1058500001D184F84500FFF755FFA06B28B92A460F
:10586000314604F1240000F099F82046BDE870406C
:10587000FFF762BC10B5020014D00F48006B38B1BE
:10588000502080F31188BFF34F8FBFF36F8FFEE777
:1058900000F02CF900211046FFF7AEF800F0BAFE38
:1058A000002807D105494FF080500860BFF34F8FA3
:1058B000BFF36F8F10BD00003000002004ED00E04A
:1058C00070B50546FFF7FEFE1E4C05B92568281D7C
:1058D000FFF79CFEA86A18B105F11800FFF796FEC5
:1058E000606A401C60622068854207D1291D164805
:1058F000FFF7DCFE6068401C606007E0A068401EA7
:10590000A0602846FFF783F9FFF796FBFFF7FAFE42
:105910006069002814D02068854211D1206B38B10D
:10592000502080F31188BFF34F8FBFF36F8FFEE7D6
:1059300006494FF080500860BFF34F8FBFF36F8F61
:1059400070BD0000300000202407002004ED00E0BE
:1059500002490A6A0260C96841607047300000204D
:1059600001490120C86170473000002010B50C4685
:1059700050B1094909681831FFF780FE2046BDE89B
:1059800010400121FFF738B8502080F31188BFF391
:105990004F8FBFF36F8FFEE73000002070B51446C5
:1059A0000D4668B10A4909681831FFF77FFE0CB14E
:1059B0004FF0FF3521462846BDE87040FFF71CB880
:1059C000502080F31188BFF34F8FBFF36F8FFEE736
:1059D0003000002070B504003ED0226DA2B1E06C12
:1059E000884200D30146E06A884235D0012A33D18B
:1059F0001A4D2A6894420FD1502080F31188BFF3CA
:105A00004F8FBFF36F8FFEE7502080F31188BFF3F5
:105A10004F8FBFF36F8FFEE7E162A269002A02DBBE
:105A2000C1F13801A1610E4E00EB8000616906EB07
:105A30008000814210D1201DFFF7E8FDE06A29694E
:105A4000884200D9286100EB800006EB8000211D10
:105A5000BDE87040FFF72ABE70BD00003000002096
:105A60008802002030B587B00024039405AA04A959
:105A700003A80494FFF7DEFDDDE903010094CDE9FE
:105A80000110002315A11748059A00F06CFC164D73
:105A90000028E8621FD000F01FFE012809D0401C3A
:105AA00019D1502080F31188BFF34F8FBFF36F8F50
:105AB000FEE7502080F31188BFF34F8FBFF36F8F45
:105AC0004FF0FF30A86201206861EC6007B0BDE8CC
:105AD000304000F045B807B030BD000049444C45A7
