:020000040800F2
:1000000048070020CD01000895060008A10300085C
:10001000910600087D020008830B00080000000024
:10002000000000000000000000000000250900089A
:10003000810200080000000003090008390A0008D6
:10004000E7010008E7010008E7010008E7010008F0
:10005000E7010008E7010008E7010008E7010008E0
:10006000E7010008E7010008E7010008E7010008D0
:10007000E7010008E7010008E7010008E7010008C0
:10008000E7010008E7010008E7010008E7010008B0
:10009000E7010008E7010008E7010008E7010008A0
:1000A000E7010008E7010008E7010008E701000890
:1000B000E7010008E7010008E7010008E701000880
:1000C000E7010008E7010008E7010008E701000870
:1000D000E70100089D0A0008E7010008E7010008A1
:1000E000E7010008E7010008E7010008E701000850
:1000F000E7010008E7010008E7010008E701000840
:10010000E7010008E7010008E7010008E70100082F
:10011000E7010008E7010008E7010008E70100081F
:10012000E7010008E7010008E7010008E70100080F
:1001300000F002F800F03AF80AA090E8000C8244BF
:100140008344AAF10107DA4501D100F02FF8AFF29C
:10015000090EBAE80F0013F0010F18BFFB1A43F0A5
:10016000010318477C1600009C160000103A24BFBB
:1001700078C878C1FAD8520724BF30C830C144BF0C
:1001800004680C607047000000230024002500264E
:10019000103A28BF78C1FBD8520728BF30C148BFEA
:1001A0000B6070471FB51FBD10B510BD00F033F8D0
:1001B0001146FFF7F7FF00F0C5FD00F051F803B45A
:1001C000FFF7F2FF03BC00F0DEFC000009488047A7
:1001D00009480047FEE7FEE7FEE7FEE7FEE7FEE729
:1001E000FEE7FEE7FEE7FEE704480549054A064B41
:1001F000704700003D0A0008310100084801002056
:10020000480700204803002048030020704770473B
:10021000704770477047754600F02CF8AE460500F1
:100220006946534620F00700854618B020B5FFF711
:10023000DBFFBDE820404FF000064FF000074FF015
:1002400000084FF0000B21F00701AC46ACE8C009F4
:10025000ACE8C009ACE8C009ACE8C0098D467047FD
:1002600010B50446AFF300802046BDE81040FFF70C
:10027000A6BF000000487047E800002000BFFEE76E
:1002800070472DE9F041024600250026002000239A
:100290000024002791F803C00CF00F0591F803C06B
:1002A0000CF0100CBCF1000F03D091F802C04CEA26
:1002B000050591F800C0BCF1000F31D01468002092
:1002C0002BE04FF0010C0CFA00F3B1F800C00CEA7F
:1002D00003069E4220D183004FF00F0C0CFA03F767
:1002E000BC4305FA03FC4CEA040491F803C0BCF1DA
:1002F000280F06D14FF0010C0CFA00FCC2F814C014
:100300000AE091F803C0BCF1480F05D14FF0010C91
:100310000CFA00FCC2F810C0401C0828D1D31460AD
:10032000B1F800C0BCF1FF0F34DD546800202EE0AE
:1003300000F1080C4FF0010808FA0CF3B1F800C006
:100340000CEA03069E4221D183004FF00F0C0CFAF9
:1003500003F7BC4305FA03FC4CEA040491F803C01C
:10036000BCF1280F05D100F1080C08FA0CF8C2F80E
:10037000148091F803C0BCF1480F07D100F1080CBC
:100380004FF0010808FA0CF8C2F81080401C082849
:10039000CED35460BDE8F081416170470161704780
:1003A00000BFFEE710B500200F4908600F48006845
:1003B00020F470400D4908600846006840F4405041
:1003C000086000200A49C1F8AC01022000F026FCB8
:1003D000012005490860022000F020FC00200449AB
:1003E000C1F8B00110BD0000B00121420408014075
:1003F0000000214208B50121042000F083FA4FF4E7
:10040000C050ADF8000010208DF8030003208DF8D7
:10041000020069460448FFF734FF012003490860E1
:100420000349C1F8AC0108BD00080140B0012142F8
:100430000000214210B500200F4908600F480068F5
:1004400020F470400D4908600846006840F44050B0
:10045000086001200A49C1F8AC01022000F0DEFB6F
:10046000012005490860022000F0D8FB0020044963
:10047000C1F8B00110BD0000B001214204080140E4
:100480000000214270B5054600241748006820F49A
:100490007040154908600846006840F40040086054
:1004A000002616E0002011490860022000F0B6FB8B
:1004B00001200F49C1F8B0016006040E0B488438D2
:1004C000006808B1601CC4B2012000F0A7FB701CDA
:1004D000C6B2082EE6DB15B9FFF7ACFF01E0FFF767
:1004E00061FF204670BD000004080140B0012142B8
:1004F0000000214270B504461548006820F47040A1
:10050000134908600846006840F440500860002025
:1005100010490860002517E0E0090E49091F08602E
:100520006006040E022000F079FB01200A49C1F8A0
:10053000B001022000F072FB002006490860022092
:1005400000F06CFB681CC5B2082DE5DB70BD000037
:1005500004080140B00121420000214210B50F48BB
:10056000006820F470400D4908600846006840F4B7
:100570004050086001200A4908600A49C1F8B001EA
:10058000042000F04BFB002005490860042000F027
:1005900045FB00200349C1F8B00110BD040801402B
:1005A000AC0121420000214210B50F48006820F440
:1005B00070400D4908600846006840F440500860EB
:1005C00000200A4908600A49C1F8AC01042000F083
:1005D00025FB0120054908600549C1F8AC0104204C
:1005E00000F01CFB10BD000004080140B0012142D6
:1005F0000000214210B500241548006820F4704026
:10060000134908600846006840F400400860012073
:1006100010490860022000F001FB01200E49C1F8DA
:10062000B001022000F0FAFA07E0601CC4B2FA2C14
:1006300003DDFFF7B9FF012010BD064880380068D0
:100640000028F2D10349091D086000BFF4E700004B
:1006500004080140AC0121420000214208B50121FB
:10066000102000F04FF910208DF803004002ADF883
:10067000000003208DF8020069460448FFF701FEE0
:100680004FF400510148FFF789FE08BD00100140FA
:1006900000BFFEE7704700002DE9F84F83468A4609
:1006A00000200090FFF7A6FE0021084600F090F819
:1006B000584600F0A5F8504600F0A7FD80464FF0E0
:1006C0003332304B00F0F0FD064600222E4B00F096
:1006D00063FB044600F06CFD009000210846009A80
:1006E00000F0E4F800210120009A00F0DFF800217A
:1006F0000220009A00F0DAF800210320009A00F0AE
:10070000D5F800210420009A00F0D0F8002105203F
:10071000009A00F0CBF800210620009A00F0C6F8FD
:1007200000210720009A00F0C1F800210820009A5B
:1007300000F0BCF800210920009A00F0B7F8002171
:100740000A20009A00F0B2F800210B20009A00F075
:10075000ADF800210C20009A00F0A8F800210D202F
:10076000009A00F0A3F800210E20009A00F09EF8F5
:1007700000210F20009A00F099F8642000F028FA78
:10078000BDE8F88F333303400020624070B5044663
:10079000FFF7E4FE8020FFF7ADFEFFF74BFE20469B
:1007A000FFF7A8FEFFF746FEFFF7FEFE0A2000F067
:1007B00035FAFFF7D3FE8120FFF79CFEFFF73AFEE4
:1007C0000020FFF75FFE0546FFF7EEFE284670BDEE
:1007D00070B505460C46FFF7C1FE8020FFF78AFE84
:1007E000FFF728FE2846FFF785FEFFF723FE204689
:1007F000FFF780FEFFF71EFEFFF7D6FE70BD00007C
:100800002DE9FC5F83460024244D0022244B204622
:10081000294600F075FB04460D46584600F06EFF71
:10082000064632460B462046294600F069FB044640
:100830000D4600221B4B2046294600F075FE04465B
:100840000D460022184B2046294600F0A5FA8046A6
:1008500000F00AFA064600F0ABFCC0B2019000209E
:10086000FFF794FF82460AF07F0040F010000090EE
:1008700000200099FFF7ACFFFE200199FFF7A8FFC9
:1008800051460020FFF7A4FF052000F0A1F94AF02F
:10089000A1010020FFF79CFFBDE8FC9F84D77741B2
:1008A0000000B0400000F03F0000E03F70B5064699
:1008B0000C461546FFF752FE8020FFF71BFEFFF7A0
:1008C00099FEB100891DC8B2FFF714FEFFF792FE32
:1008D000E0B2FFF70FFEFFF78DFEC4F30720FFF72E
:1008E00009FEFFF787FEE8B2FFF704FEFFF782FE7E
:1008F000C5F30720FFF7FEFDFFF77CFEFFF754FE70
:1009000070BD704729B1064A92690243044B9A614F
:1009100004E0034A92698243014B9A6170470000E8
:1009200000100240704710B500F002F810BD000042
:100930000CB50020019000903348006840F48030EE
:100940003149086000BF3048006800F40030009072
:100950000198401C0190009818B90198B0F5A06F5B
:10096000F1D12948006800F4003010B10120009056
:1009700001E0002000900098012843D1234800683E
:1009800040F01000214908600846006820F003008C
:1009900008600846006840F0020008601A48406895
:1009A000194948600846406848600846406840F475
:1009B000806048600846406820F47C104860084623
:1009C000406840F4E81048600846006840F08070D5
:1009D000086000BF0C48006800F000700028F9D0E3
:1009E0000948406820F0030007494860084640680D
:1009F00040F00200486000BF0348406800F00C006F
:100A00000828F9D10CBD000000100240002002406F
:100A1000042808D14FF0E021096941F004014FF0AA
:100A2000E022116107E04FF0E021096921F00401A3
:100A30004FF0E022116170477047000010B5134875
:100A4000006840F0010011490860084640681049FC
:100A500008400E494860084600680E4908400B49A6
:100A600008600846006820F4802008600846406856
:100A700020F4FE0048604FF41F008860FFF753FF2A
:100A80004FF000600449086010BD000000100240F3
:100A90000000FFF8FFFFF6FE08ED00E010B540F2A1
:100AA00025511D4800F03EF810B31B4800F064F8D3
:100AB000C4B21A48008800F40040C8B9174800883A
:100AC00000F4804060B10A2C03D000201349088054
:100AD00020E01248008840F400401049088019E0E6
:100AE0000D2C06D10D48008840F480400B49088049
:100AF00010E00A480088C0F30D0009490C5407486B
:100B00000088401C0549088008460088C72801DD88
:100B10000020088010BD0000003801401C000020AB
:100B20002000002070B5024600240023002500208C
:100B300040F66A16B14200D100BFC1F3421501F080
:100B40001F03012606FA03F3012D02D196893340D3
:100B500006E0022D02D1168A334001E0968A334026
:100B60000C12012606FA04F41688344013B10CB1B5
:100B7000012000E0002070BD01468888C0F3080015
:100B8000704700BFFEE7014600BF704710B56FF029
:100B90000400FFF73DFF0A4800680A49B0FBF1F086
:100BA000094908700846007800EB4001C1EBC0100D
:100BB0004FF6FF7101EAC0000449088010BD000033
:100BC0000000002000127A0014000020160000200F
:100BD0000146114A12884A434FF0E0235A6100222D
:100BE0009A611A46126942F001021A6100BF4FF081
:100BF000E022106900F001021AB100F48032002AEC
:100C0000F5D04FF0E022126922F001024FF0E0230C
:100C10001A6100229A617047160000200146114AAD
:100C200012784A434FF0E0235A6100229A611A4633
:100C3000126942F001021A6100BF4FF0E022106910
:100C400000F001021AB100F48032002AF5D04FF012
:100C5000E022126922F001024FF0E0231A61002223
:100C60009A617047140000202DE9F041C1F30A5247
:100C7000A2F2FF362F4A304B0D460446142E2FDACF
:100C8000002E12DA00F088F80022134600F00AFC69
:100C90004CD2002DA4BF0024254647DA25F00040A1
:100CA000204318BF254D41D018E0DFF894C02CFA3E
:100CB00006F705EA070C5CEA040C08BFBDE8F08102
:100CC00000F06AF80022134600F0ECFB2ED2002D53
:100CD00003DA4FF48010F0400544BD43002425E0C2
:100CE000332EC8BFBDE8F081A6F1140C4FF0FF37DA
:100CF00027FA0CF73C4208BFBDE8F08100F008FC81
:100D00000022134600F0CEFB10D2002D0DDA142E77
:100D100008BF6D1C09D0C6F13400012101FA00F0B2
:100D20002044A04238BF6D1C0446BC4329462046DF
:100D3000BDE8F0819C7500883CE4377E0000F0BF80
:100D4000FFFF0F000024FFF721FFFFF787FCB4210E
:100D50000F48FFF7A1FC1AE04FF40062002108469B
:100D6000FFF7A4FD2CB14FF400510A48FFF716FB22
:100D700004E04FF400510748FFF70EFB0CB90120C7
:100D800000E0002004464FF4FA70FFF721FFE3E78C
:100D9000000070420010014010B591EA030F48BFF7
:100DA00083F0004300F1C883841A71EB030C05D271
:100DB000121943EB0C03001B61EB0C01DFF824E17B
:100DC0004FEA1154A4EB135C1EEA430F18BF9EEACE
:100DD000445F73D023EA0E03DCF1200E21EA0451B4
:100DE00043F4801332D322FA0CFE10EB0E0023FAE8
:100DF0000CFE41EB0E01CCF1200E03FA0EFE10EBBF
:100E00000E0051F10001B1F5801FCCF1200E32D25D
:100E100001EB045112FA0EF2BDE8104058BF7047C2
:100E2000401C38BF5FEA420218BF7047002814BF59
:100E300020F0010041F100014FEA410313F5001FCA
:100E400038BF7047A1F1C04100F026BB012A43EB37
:100E50000302ACF1200CDCF11F0E32BF4FF0000E8C
:100E600023FA0CF310EB030041EB0451B4EB115FD8
:100E7000D0D0A1EB045101F5801149085FEA3000A0
:100E800001EB04510ED350F1000038BF12FA0EFEF0
:100E900008D1BDE81040C9E7401C38BF5FEA4202F4
:100EA000CAD1C3E7BDE810404FEA410313F5001F64
:100EB00038BF7047A1F1C04100F0EEBA9EEA445F2E
:100EC00008D011EA5E0FBDE8104004BF01F00041F8
:100ED00000207047BDE8104070B500F08FFA00BFE9
:100EE00064FBBE3E0000E0FF491058BFC1F1404125
:100EF0005B1058BFC3F140438B42EFF30080704753
:100F00002DE9C04130B4DFF8A0C23CEA111418BF8B
:100F10003CEA131400F0EC8081EA03051CEA11148A
:100F200044EAD57418BF1CEA131500F0C780A4EB7F
:100F300005044FF0004545EAC12145EAC32341EAD3
:100F4000505143EA525304F17F74994204F500343E
:100F50004FEAC0204FEAC22208BF904200F09C80B6
:100F60004FEA13650FF24016765D4FEA134506FB14
:100F700005F7C7F1807706FB07F74FEAD737A7FBDE
:100F800003687642C8F58038A7FB06CE38BFA8F1C3
:100F9000010807FB08E64FF0000EA6FB028CE6FBFB
:100FA00003CEDCF1000CCEF1004E38BFAEF1010EE5
:100FB000A6FB0C584FF000074FF00005E6FB0E872C
:100FC000A1FB08C6A0FB07CE16EB0E0645F10005F7
:100FD000E1FB076515F1E04E7EBFA4F580345FEAC2
:100FE00046066D4116F1800745F100054FEA1727C7
:100FF0004FEA066647EA0567A6F1DE46B6F1805F6E
:101000004FEA15251FD9384624F0010C05EBC471B1
:10101000BCF1FE6F01EB0C1102D8F0BCBDE8008101
:1010200024425CBF01F5801E9EEAC47F02D4F0BC5E
:10103000BDE80081244238D4F0BCA1F1C041BDE834
:10104000004100F029BA4FEAD22242EA43524FEA65
:10105000D323A7FB02864FEAD02040EA415007FB8A
:1010600003661EEA0E0F4FEAD12105FB026658BF48
:10107000A6EB0056B6EB00564FEA520E4EEAC37E80
:1010800018EB0E0E56EB530EBDD518EB02085E4161
:101090007F1C55F10005B6E74FF480154FF00007AF
:1010A0004FF000064FF00008ADE7F0BC4FF0000035
:1010B00001F1C04101F00041BDE8008111EA0C1FBF
:1010C0000CEA131500D00CE013EA0C1F00F0258089
:1010D0004FF00000F0BC81EA030101F00041BDE8DF
:1010E0000081F0BCBDE8004181EA030100F0D4B901
:1010F000F0BCBDE8004170B500F080F9097EFC3E0F
:1011000000F007B881EA03014FF0000001F0004150
:10111000704781EA030100F0BFB9F0BCBDE80041AF
:101120004FF0000021497047FFFDFBF9F7F5F4F29D
:10113000F0EEEDEBE9E8E6E4E3E1E0DEDDDBDAD872
:10114000D7D5D4D3D1D0CFCDCCCBCAC8C7C6C5C4D0
:10115000C2C1C0BFBEBDBCBBBAB9B8B7B6B5B4B3E7
:10116000B2B1B0AFAEADACABAAA9A8A8A7A6A5A4D2
:10117000A3A3A2A1A09F9F9E9D9C9C9B9A99999896
:101180009797969595949393929191908F8F8E8E39
:101190008D8C8C8B8B8A89898888878786858584C6
:1011A00084838382828181800000FF070000F87FB2
:1011B0004FEA1153A3F58063D3F11E03A8BFD3F107
:1011C000200C08DB4FF0004242EAC12252EA5052A2
:1011D00032FA03F0704709420BD4102BC4BF002031
:1011E000704703F5787CBCF1FF3F05D04FF0FF302E
:1011F00070474FF00000704770B500F0FFF800BF77
:101200004992248000207047F0E7B0FA80F310FA8A
:1012100003F10AD0C3F11D0303F580634FEA415087
:101220004FEA035202EBD12170474FF000007047A4
:1012300051EA030C17D41CF5801F58BFBCF5801F62
:1012400000F10680994218BF704708BF904270476E
:1012500007D711F5801F58BF13F5801F19D4994285
:101260007047894270471CF5801F08D5BCF5801F68
:10127000F7D58B4218BF704708BF824270474FF4C2
:10128000001C1CEB410F38BF1CEB430F01D28B42FB
:10129000704770B500F0B2F8922449004FF0005149
:1012A0004FF08053FFF720BEDFF848C170B51CEA4D
:1012B000111E1EBF1CEA13159EEA0C0F95EA0C0FB7
:1012C00000F06F8081EA030423EA4C134EEAD47ED7
:1012D00021EA4C1141F4801143F48013AE44A1FB88
:1012E000024CA0FB0365AEF17F7E361955EB0C0571
:1012F000A1FB034C4CF10003A0FB021C16EB0C06F7
:10130000654153F10003094218BF46F0010613F48A
:10131000007F0BD14FEA03314FEA0530340341EA35
:10132000155140EA16506FF003020AE04FEAC3215C
:101330004FEAC520F40241EA555140EA56506FF099
:10134000020202EB2E4201EB025585EACE710AD071
:101350005FEA440C18BF24F0004450F1000041F152
:10136000000120EAD47040F2FE7C624500D270BDDC
:10137000A84214BF4FF080444FF04044002E08BFF5
:101380000024BEF1806FA8BFA1F1C041BDE870404C
:1013900080F282804FF0000001F1C04101F0004175
:1013A00070479EEA0C0F0CEA131518BF95EA0C0F54
:1013B00006D04FF0000081EA030E0EF0004170BD30
:1013C00000F01CF88900013E00F007B800F009B8F1
:1013D0004FEA430C5FEA5C5C08D081EA030100F04D
:1013E0005BB84FEA410C5FEA5C5CF6D14FF000005D
:1013F000014970470000FF070000F87F0EF1020E60
:101400002EF0030E5EF8046B364205D4012A43EB3E
:10141000030515F5001F12D8012841EB010C1CF53E
:10142000001F0CD80ED14FEAD17C15F5001F0CEB34
:101430004C0C0CF1020C08BF4CEBD37C04E04FF0D9
:10144000080C01E04FEAD37C0CEB4C0526FA05F6BC
:1014500006F00706B6F1040C06D20EEB860CBDE8CA
:1014600070404CF0010C6047DFE80CF0090B020201
:101470004FF000414FF00000A1F5002170BD19466A
:101480001046012851EB010418BFD4F5001484BFA5
:10149000002001F0004170BD0808A0F500114FEADE
:1014A0003101704753EA010C17D41CF5801F58BF57
:1014B000BCF5801F00F106808B4218BF704708BF43
:1014C0008242704707D713F5801F58BF11F5801F60
:1014D00019D48B4270479B4270471CF5801F08D57A
:1014E000BCF5801FF7D5994218BF704708BF9042DE
:1014F00070474FF4001C1CEB430F38BF1CEB410F2F
:1015000001D2994270470FB40CBC03BCFFF7C1BEB7
:1015100091EA030F10B581F000413FF545AC83F02F
:10152000004300F009B8000010B591EA030F48BF6E
:1015300083F000433FF538AC841A71EB030C07D2FB
:1015400012198CF0004C43EB0C03001B61EB0C01F7
:10155000DFF8A4E14FEA1154A4EB135C1EEA430F39
:1015600018BF9EEA445F00F0B08023EA6E03524247
:1015700021EA0451C3EB6E0338BF5B1EDCF1200E81
:1015800025D322FA0CFE10EB0E0043FA0CFE41EBC1
:101590000E01CCF1200E03FA0EFE10EB0E0051F1FD
:1015A0000001CCF1200E29D412FA0EF201EB045105
:1015B000BDE8104058BF7047401C1CBFB2F1004F3F
:1015C000704700280CBF491C20F00100704712EB47
:1015D000020E43EB030218BF4FF0010E4EEA420227
:1015E000ACF1200CDCF11E0E54D943FA0CFE10EBCA
:1015F0000E0051F1FF31CCF11E0ED5D50EF1010ECA
:1016000012FA0EFE404141EB010101EB445C5FEA3E
:101610005C5C10D910EBDE7001EB045138BFBEF1F9
:10162000004FBDE8104018BF704700280CBF491C90
:1016300020F00100704730D24FEAD42C11F5001190
:1016400024F400641BD0B1FA81F20B3AA41AA41E50
:10165000D2F12003914030FA03F31943904001EB9B
:10166000CC71002C01EB0451BDE81040A8BF7047BD
:1016700001F1C0414FF0000001F000417047B0FAA5
:1016800080F310FA03F100D110BDE41A173C4805AD
:10169000C90AE4E701EB045110BD491001EB045104
:1016A000BDE810404FEA300002E04FF00001704703
:1016B0004A0008BF0042F8D0B2F5001F28BF7047AB
:1016C00001F000414FF0000070479EEA445F07D0F0
:1016D00011EA5E0FBDE8104004BF002100207047F2
:1016E000BDE8104070B5FFF789FE00BF40DFF63E51
:1016F00083F00041104670470000E0FF43004FEACE
:10170000D30C4FEA3C0C43401FBF40070CF1605123
:1017100013F0FE4F70471CF0006F03D100200CF057
:10172000004170470CF0004343EA507010B540EAA6
:10173000CC0000F00EF800BF000000924FEA00015C
:10174000FFF7AABE4FF000414FF00000A1F50021C5
:1017500070470EF1020E2EF0030E5EF8044B244289
:1017600004D44FEA4102B2F17F4F11D84FEA40034F
:10177000B3F17F4F0CD80ED14FEAD07CB2F17F4F3E
:101780000CEB4C0C0CF1020C08BF4CEBD17C04E0D0
:101790004FF0080C01E04FEAD17C0CEB4C0324FA2B
:1017A00003F404F00704B4F1040C06D20EEB840C2D
:1017B000BDE810404CF0010C6047DFE80CF0070872
:1017C00002024FF00040A0F5800010BD0846420024
:1017D00018BFD2F1807288BF00F0004010BD000039
:1017E0000018000800000020200000006C01000824
:1017F00020180008200000202807000088010008A9
:1018000000A24A04000000000000000001020304DE
:1018100006070809000000000000000000000000AA
:04000005080001CD21
:00000001FF
